{"abi":[{"type":"constructor","inputs":[{"name":"_easRegistry","type":"address","internalType":"address"}],"stateMutability":"nonpayable"},{"type":"function","name":"attestations","inputs":[{"name":"","type":"bytes32","internalType":"bytes32"}],"outputs":[{"name":"eventId","type":"bytes32","internalType":"bytes32"},{"name":"timestamp","type":"uint64","internalType":"uint64"},{"name":"isPremiumUpgrade","type":"bool","internalType":"bool"},{"name":"attendee","type":"address","internalType":"address"},{"name":"tokenId","type":"uint256","internalType":"uint256"}],"stateMutability":"view"},{"type":"function","name":"batchCreateAttestations","inputs":[{"name":"_eventIds","type":"bytes32[]","internalType":"bytes32[]"},{"name":"_attendees","type":"address[]","internalType":"address[]"},{"name":"_tokenIds","type":"uint256[]","internalType":"uint256[]"},{"name":"_isPremiumUpgrades","type":"bool[]","internalType":"bool[]"}],"outputs":[{"name":"","type":"bytes32[]","internalType":"bytes32[]"}],"stateMutability":"nonpayable"},{"type":"function","name":"createAttendanceAttestation","inputs":[{"name":"_eventId","type":"bytes32","internalType":"bytes32"},{"name":"_attendee","type":"address","internalType":"address"},{"name":"_tokenId","type":"uint256","internalType":"uint256"},{"name":"_isPremiumUpgrade","type":"bool","internalType":"bool"}],"outputs":[{"name":"","type":"bytes32","internalType":"bytes32"}],"stateMutability":"nonpayable"},{"type":"function","name":"easRegistry","inputs":[],"outputs":[{"name":"","type":"address","internalType":"address"}],"stateMutability":"view"},{"type":"function","name":"eventAttestations","inputs":[{"name":"","type":"bytes32","internalType":"bytes32"},{"name":"","type":"uint256","internalType":"uint256"}],"outputs":[{"name":"","type":"bytes32","internalType":"bytes32"}],"stateMutability":"view"},{"type":"function","name":"getAttestation","inputs":[{"name":"_attestationId","type":"bytes32","internalType":"bytes32"}],"outputs":[{"name":"","type":"tuple","internalType":"struct EASIntegration.AttendanceAttestation","components":[{"name":"eventId","type":"bytes32","internalType":"bytes32"},{"name":"timestamp","type":"uint64","internalType":"uint64"},{"name":"isPremiumUpgrade","type":"bool","internalType":"bool"},{"name":"attendee","type":"address","internalType":"address"},{"name":"tokenId","type":"uint256","internalType":"uint256"}]}],"stateMutability":"view"},{"type":"function","name":"getEventAttestationCount","inputs":[{"name":"_eventId","type":"bytes32","internalType":"bytes32"}],"outputs":[{"name":"","type":"uint256","internalType":"uint256"}],"stateMutability":"view"},{"type":"function","name":"getEventAttestations","inputs":[{"name":"_eventId","type":"bytes32","internalType":"bytes32"}],"outputs":[{"name":"","type":"bytes32[]","internalType":"bytes32[]"}],"stateMutability":"view"},{"type":"function","name":"getUserAttestationCount","inputs":[{"name":"_user","type":"address","internalType":"address"}],"outputs":[{"name":"","type":"uint256","internalType":"uint256"}],"stateMutability":"view"},{"type":"function","name":"getUserAttestations","inputs":[{"name":"_user","type":"address","internalType":"address"}],"outputs":[{"name":"","type":"bytes32[]","internalType":"bytes32[]"}],"stateMutability":"view"},{"type":"function","name":"getUserPremiumUpgrades","inputs":[{"name":"_user","type":"address","internalType":"address"}],"outputs":[{"name":"","type":"bytes32[]","internalType":"bytes32[]"}],"stateMutability":"view"},{"type":"function","name":"hasUserAttendedEvent","inputs":[{"name":"_user","type":"address","internalType":"address"},{"name":"_eventId","type":"bytes32","internalType":"bytes32"}],"outputs":[{"name":"","type":"bool","internalType":"bool"}],"stateMutability":"view"},{"type":"function","name":"owner","inputs":[],"outputs":[{"name":"","type":"address","internalType":"address"}],"stateMutability":"view"},{"type":"function","name":"renounceOwnership","inputs":[],"outputs":[],"stateMutability":"nonpayable"},{"type":"function","name":"setEASRegistry","inputs":[{"name":"_registry","type":"address","internalType":"address"}],"outputs":[],"stateMutability":"nonpayable"},{"type":"function","name":"transferOwnership","inputs":[{"name":"newOwner","type":"address","internalType":"address"}],"outputs":[],"stateMutability":"nonpayable"},{"type":"function","name":"userAttestations","inputs":[{"name":"","type":"address","internalType":"address"},{"name":"","type":"uint256","internalType":"uint256"}],"outputs":[{"name":"","type":"bytes32","internalType":"bytes32"}],"stateMutability":"view"},{"type":"event","name":"AttestationCreated","inputs":[{"name":"attestationId","type":"bytes32","indexed":true,"internalType":"bytes32"},{"name":"eventId","type":"bytes32","indexed":true,"internalType":"bytes32"},{"name":"attendee","type":"address","indexed":true,"internalType":"address"},{"name":"tokenId","type":"uint256","indexed":false,"internalType":"uint256"},{"name":"isPremiumUpgrade","type":"bool","indexed":false,"internalType":"bool"}],"anonymous":false},{"type":"event","name":"EASRegistrySet","inputs":[{"name":"registry","type":"address","indexed":true,"internalType":"address"}],"anonymous":false},{"type":"event","name":"OwnershipTransferred","inputs":[{"name":"previousOwner","type":"address","indexed":true,"internalType":"address"},{"name":"newOwner","type":"address","indexed":true,"internalType":"address"}],"anonymous":false},{"type":"error","name":"AttestationNotFound","inputs":[]},{"type":"error","name":"InvalidAttestationData","inputs":[]},{"type":"error","name":"InvalidEASRegistry","inputs":[]},{"type":"error","name":"OwnableInvalidOwner","inputs":[{"name":"owner","type":"address","internalType":"address"}]},{"type":"error","name":"OwnableUnauthorizedAccount","inputs":[{"name":"account","type":"address","internalType":"address"}]},{"type":"error","name":"ReentrancyGuardReentrantCall","inputs":[]}],"bytecode":{"object":"0x608060405234801561000f575f5ffd5b506040516122833803806122838339818101604052810190610031919061021e565b335f73ffffffffffffffffffffffffffffffffffffffff168173ffffffffffffffffffffffffffffffffffffffff16036100a2575f6040517f1e4fbdf70000000000000000000000000000000000000000000000000000000081526004016100999190610258565b60405180910390fd5b6100b1816100ff60201b60201c565b50600180819055508060055f6101000a81548173ffffffffffffffffffffffffffffffffffffffff021916908373ffffffffffffffffffffffffffffffffffffffff16021790555050610271565b5f5f5f9054906101000a900473ffffffffffffffffffffffffffffffffffffffff169050815f5f6101000a81548173ffffffffffffffffffffffffffffffffffffffff021916908373ffffffffffffffffffffffffffffffffffffffff1602179055508173ffffffffffffffffffffffffffffffffffffffff168173ffffffffffffffffffffffffffffffffffffffff167f8be0079c531659141344cd1fd0a4f28419497f9722a3daafe3b4186f6b6457e060405160405180910390a35050565b5f5ffd5b5f73ffffffffffffffffffffffffffffffffffffffff82169050919050565b5f6101ed826101c4565b9050919050565b6101fd816101e3565b8114610207575f5ffd5b50565b5f81519050610218816101f4565b92915050565b5f60208284031215610233576102326101c0565b5b5f6102408482850161020a565b91505092915050565b610252816101e3565b82525050565b5f60208201905061026b5f830184610249565b92915050565b6120058061027e5f395ff3fe608060405234801561000f575f5ffd5b5060043610610109575f3560e01c80638da5cb5b116100a0578063a6fe4a6e1161006f578063a6fe4a6e146102f3578063e6b3f69a14610323578063ea4efc4e14610353578063f2fde38b14610383578063fbf96aa91461039f57610109565b80638da5cb5b14610241578063940992a31461025f5780639658e1ef14610293578063a3112a64146102c357610109565b80635d0f5cf3116100dc5780635d0f5cf3146101b95780636ee25d3f146101d7578063715018a6146102075780638b1e12281461021157610109565b80631cf2bbc91461010d5780631f0fd1d31461013d578063213d51d31461016d5780633044840b1461019d575b5f5ffd5b6101276004803603810190610122919061138f565b6103cf565b60405161013491906113e5565b60405180910390f35b610157600480360381019061015291906113fe565b6103fa565b6040516101649190611438565b60405180910390f35b6101876004803603810190610182919061147b565b610443565b60405161019491906113e5565b60405180910390f35b6101b760048036038101906101b291906113fe565b61046e565b005b6101c161056a565b6040516101ce91906114c8565b60405180910390f35b6101f160048036038101906101ec91906114e1565b61058f565b6040516101fe91906115c3565b60405180910390f35b61020f6105f6565b005b61022b60048036038101906102269190611618565b610609565b60405161023891906113e5565b60405180910390f35b610249610638565b60405161025691906114c8565b60405180910390f35b610279600480360381019061027491906114e1565b61065f565b60405161028a9594939291906116ad565b60405180910390f35b6102ad60048036038101906102a891906113fe565b6106d1565b6040516102ba91906115c3565b60405180910390f35b6102dd60048036038101906102d891906114e1565b610764565b6040516102ea91906117a0565b60405180910390f35b61030d600480360381019061030891906117b9565b6108dd565b60405161031a91906117f7565b60405180910390f35b61033d600480360381019061033891906113fe565b6109d1565b60405161034a91906115c3565b60405180910390f35b61036d600480360381019061036891906114e1565b610c04565b60405161037a9190611438565b60405180910390f35b61039d600480360381019061039891906113fe565b610c21565b005b6103b960048036038101906103b49190611ba0565b610ca5565b6040516103c691906115c3565b60405180910390f35b6003602052815f5260405f2081815481106103e8575f80fd5b905f5260205f20015f91509150505481565b5f60035f8373ffffffffffffffffffffffffffffffffffffffff1673ffffffffffffffffffffffffffffffffffffffff1681526020019081526020015f20805490509050919050565b6004602052815f5260405f20818154811061045c575f80fd5b905f5260205f20015f91509150505481565b610476610e25565b5f73ffffffffffffffffffffffffffffffffffffffff168173ffffffffffffffffffffffffffffffffffffffff16036104e4576040517f08c379a00000000000000000000000000000000000000000000000000000000081526004016104db90611cce565b60405180910390fd5b8060055f6101000a81548173ffffffffffffffffffffffffffffffffffffffff021916908373ffffffffffffffffffffffffffffffffffffffff1602179055508073ffffffffffffffffffffffffffffffffffffffff167f5e296980b80d3064f2f0eac680c8578f1659a3531db6acb84c7d9a88760dcf6560405160405180910390a250565b60055f9054906101000a900473ffffffffffffffffffffffffffffffffffffffff1681565b606060045f8381526020019081526020015f208054806020026020016040519081016040528092919081815260200182805480156105ea57602002820191905f5260205f20905b8154815260200190600101908083116105d6575b50505050509050919050565b6105fe610e25565b6106075f610eac565b565b5f610612610e25565b61061a610f6d565b61062685858585610fb3565b9050610630611295565b949350505050565b5f5f5f9054906101000a900473ffffffffffffffffffffffffffffffffffffffff16905090565b6002602052805f5260405f205f91509050805f015490806001015f9054906101000a900467ffffffffffffffff16908060010160089054906101000a900460ff16908060010160099054906101000a900473ffffffffffffffffffffffffffffffffffffffff16908060020154905085565b606060035f8373ffffffffffffffffffffffffffffffffffffffff1673ffffffffffffffffffffffffffffffffffffffff1681526020019081526020015f2080548060200260200160405190810160405280929190818152602001828054801561075857602002820191905f5260205f20905b815481526020019060010190808311610744575b50505050509050919050565b61076c6112a5565b5f73ffffffffffffffffffffffffffffffffffffffff1660025f8481526020019081526020015f2060010160099054906101000a900473ffffffffffffffffffffffffffffffffffffffff1673ffffffffffffffffffffffffffffffffffffffff1603610805576040517f120a2e7700000000000000000000000000000000000000000000000000000000815260040160405180910390fd5b60025f8381526020019081526020015f206040518060a00160405290815f8201548152602001600182015f9054906101000a900467ffffffffffffffff1667ffffffffffffffff1667ffffffffffffffff1681526020016001820160089054906101000a900460ff161515151581526020016001820160099054906101000a900473ffffffffffffffffffffffffffffffffffffffff1673ffffffffffffffffffffffffffffffffffffffff1673ffffffffffffffffffffffffffffffffffffffff1681526020016002820154815250509050919050565b5f5f60035f8573ffffffffffffffffffffffffffffffffffffffff1673ffffffffffffffffffffffffffffffffffffffff1681526020019081526020015f2080548060200260200160405190810160405280929190818152602001828054801561096457602002820191905f5260205f20905b815481526020019060010190808311610950575b505050505090505f5f90505b81518110156109c5578360025f8484815181106109905761098f611cec565b5b602002602001015181526020019081526020015f205f0154036109b8576001925050506109cb565b8080600101915050610970565b505f9150505b92915050565b60605f60035f8473ffffffffffffffffffffffffffffffffffffffff1673ffffffffffffffffffffffffffffffffffffffff1681526020019081526020015f20805480602002602001604051908101604052809291908181526020018280548015610a5957602002820191905f5260205f20905b815481526020019060010190808311610a45575b505050505090505f815167ffffffffffffffff811115610a7c57610a7b611824565b5b604051908082528060200260200182016040528015610aaa5781602001602082028036833780820191505090505b5090505f5f90505f5f90505b8351811015610b565760025f858381518110610ad557610ad4611cec565b5b602002602001015181526020019081526020015f2060010160089054906101000a900460ff1615610b4957838181518110610b1357610b12611cec565b5b6020026020010151838381518110610b2e57610b2d611cec565b5b6020026020010181815250508180610b4590611d46565b9250505b8080600101915050610ab6565b505f8167ffffffffffffffff811115610b7257610b71611824565b5b604051908082528060200260200182016040528015610ba05781602001602082028036833780820191505090505b5090505f5f90505b82811015610bf757838181518110610bc357610bc2611cec565b5b6020026020010151828281518110610bde57610bdd611cec565b5b6020026020010181815250508080600101915050610ba8565b5080945050505050919050565b5f60045f8381526020019081526020015f20805490509050919050565b610c29610e25565b5f73ffffffffffffffffffffffffffffffffffffffff168173ffffffffffffffffffffffffffffffffffffffff1603610c99575f6040517f1e4fbdf7000000000000000000000000000000000000000000000000000000008152600401610c9091906114c8565b60405180910390fd5b610ca281610eac565b50565b6060610caf610e25565b610cb7610f6d565b83518551148015610cc9575082518451145b8015610cd6575081518351145b610d15576040517f08c379a0000000000000000000000000000000000000000000000000000000008152600401610d0c90611dd7565b60405180910390fd5b5f855167ffffffffffffffff811115610d3157610d30611824565b5b604051908082528060200260200182016040528015610d5f5781602001602082028036833780820191505090505b5090505f5f90505b8651811015610e1057610de4878281518110610d8657610d85611cec565b5b6020026020010151878381518110610da157610da0611cec565b5b6020026020010151878481518110610dbc57610dbb611cec565b5b6020026020010151878581518110610dd757610dd6611cec565b5b6020026020010151610fb3565b828281518110610df757610df6611cec565b5b6020026020010181815250508080600101915050610d67565b5080915050610e1d611295565b949350505050565b610e2d61129e565b73ffffffffffffffffffffffffffffffffffffffff16610e4b610638565b73ffffffffffffffffffffffffffffffffffffffff1614610eaa57610e6e61129e565b6040517f118cdaa7000000000000000000000000000000000000000000000000000000008152600401610ea191906114c8565b60405180910390fd5b565b5f5f5f9054906101000a900473ffffffffffffffffffffffffffffffffffffffff169050815f5f6101000a81548173ffffffffffffffffffffffffffffffffffffffff021916908373ffffffffffffffffffffffffffffffffffffffff1602179055508173ffffffffffffffffffffffffffffffffffffffff168173ffffffffffffffffffffffffffffffffffffffff167f8be0079c531659141344cd1fd0a4f28419497f9722a3daafe3b4186f6b6457e060405160405180910390a35050565b600260015403610fa9576040517f3ee5aeb500000000000000000000000000000000000000000000000000000000815260040160405180910390fd5b6002600181905550565b5f5f5f1b8503610ff8576040517f08c379a0000000000000000000000000000000000000000000000000000000008152600401610fef90611e3f565b60405180910390fd5b5f73ffffffffffffffffffffffffffffffffffffffff168473ffffffffffffffffffffffffffffffffffffffff1603611066576040517f08c379a000000000000000000000000000000000000000000000000000000000815260040161105d90611ea7565b60405180910390fd5b5f8585854243604051602001611080959493929190611f4a565b6040516020818303038152906040528051906020012090505f6040518060a001604052808881526020014267ffffffffffffffff16815260200185151581526020018773ffffffffffffffffffffffffffffffffffffffff1681526020018681525090508060025f8481526020019081526020015f205f820151815f01556020820151816001015f6101000a81548167ffffffffffffffff021916908367ffffffffffffffff16021790555060408201518160010160086101000a81548160ff02191690831515021790555060608201518160010160096101000a81548173ffffffffffffffffffffffffffffffffffffffff021916908373ffffffffffffffffffffffffffffffffffffffff1602179055506080820151816002015590505060035f8773ffffffffffffffffffffffffffffffffffffffff1673ffffffffffffffffffffffffffffffffffffffff1681526020019081526020015f2082908060018154018082558091505060019003905f5260205f20015f909190919091505560045f8881526020019081526020015f2082908060018154018082558091505060019003905f5260205f20015f90919091909150558573ffffffffffffffffffffffffffffffffffffffff1687837f77067d982422be0f9aec51de27a0818a23c23f9e564433383bdfa41f9cd4291b8888604051611280929190611fa8565b60405180910390a48192505050949350505050565b60018081905550565b5f33905090565b6040518060a001604052805f81526020015f67ffffffffffffffff1681526020015f151581526020015f73ffffffffffffffffffffffffffffffffffffffff1681526020015f81525090565b5f604051905090565b5f5ffd5b5f5ffd5b5f73ffffffffffffffffffffffffffffffffffffffff82169050919050565b5f61132b82611302565b9050919050565b61133b81611321565b8114611345575f5ffd5b50565b5f8135905061135681611332565b92915050565b5f819050919050565b61136e8161135c565b8114611378575f5ffd5b50565b5f8135905061138981611365565b92915050565b5f5f604083850312156113a5576113a46112fa565b5b5f6113b285828601611348565b92505060206113c38582860161137b565b9150509250929050565b5f819050919050565b6113df816113cd565b82525050565b5f6020820190506113f85f8301846113d6565b92915050565b5f60208284031215611413576114126112fa565b5b5f61142084828501611348565b91505092915050565b6114328161135c565b82525050565b5f60208201905061144b5f830184611429565b92915050565b61145a816113cd565b8114611464575f5ffd5b50565b5f8135905061147581611451565b92915050565b5f5f60408385031215611491576114906112fa565b5b5f61149e85828601611467565b92505060206114af8582860161137b565b9150509250929050565b6114c281611321565b82525050565b5f6020820190506114db5f8301846114b9565b92915050565b5f602082840312156114f6576114f56112fa565b5b5f61150384828501611467565b91505092915050565b5f81519050919050565b5f82825260208201905092915050565b5f819050602082019050919050565b61153e816113cd565b82525050565b5f61154f8383611535565b60208301905092915050565b5f602082019050919050565b5f6115718261150c565b61157b8185611516565b935061158683611526565b805f5b838110156115b657815161159d8882611544565b97506115a88361155b565b925050600181019050611589565b5085935050505092915050565b5f6020820190508181035f8301526115db8184611567565b905092915050565b5f8115159050919050565b6115f7816115e3565b8114611601575f5ffd5b50565b5f81359050611612816115ee565b92915050565b5f5f5f5f608085870312156116305761162f6112fa565b5b5f61163d87828801611467565b945050602061164e87828801611348565b935050604061165f8782880161137b565b925050606061167087828801611604565b91505092959194509250565b5f67ffffffffffffffff82169050919050565b6116988161167c565b82525050565b6116a7816115e3565b82525050565b5f60a0820190506116c05f8301886113d6565b6116cd602083018761168f565b6116da604083018661169e565b6116e760608301856114b9565b6116f46080830184611429565b9695505050505050565b6117078161167c565b82525050565b611716816115e3565b82525050565b61172581611321565b82525050565b6117348161135c565b82525050565b60a082015f82015161174e5f850182611535565b50602082015161176160208501826116fe565b506040820151611774604085018261170d565b506060820151611787606085018261171c565b50608082015161179a608085018261172b565b50505050565b5f60a0820190506117b35f83018461173a565b92915050565b5f5f604083850312156117cf576117ce6112fa565b5b5f6117dc85828601611348565b92505060206117ed85828601611467565b9150509250929050565b5f60208201905061180a5f83018461169e565b92915050565b5f5ffd5b5f601f19601f8301169050919050565b7f4e487b71000000000000000000000000000000000000000000000000000000005f52604160045260245ffd5b61185a82611814565b810181811067ffffffffffffffff8211171561187957611878611824565b5b80604052505050565b5f61188b6112f1565b90506118978282611851565b919050565b5f67ffffffffffffffff8211156118b6576118b5611824565b5b602082029050602081019050919050565b5f5ffd5b5f6118dd6118d88461189c565b611882565b90508083825260208201905060208402830185811115611900576118ff6118c7565b5b835b8181101561192957806119158882611467565b845260208401935050602081019050611902565b5050509392505050565b5f82601f83011261194757611946611810565b5b81356119578482602086016118cb565b91505092915050565b5f67ffffffffffffffff82111561197a57611979611824565b5b602082029050602081019050919050565b5f61199d61199884611960565b611882565b905080838252602082019050602084028301858111156119c0576119bf6118c7565b5b835b818110156119e957806119d58882611348565b8452602084019350506020810190506119c2565b5050509392505050565b5f82601f830112611a0757611a06611810565b5b8135611a1784826020860161198b565b91505092915050565b5f67ffffffffffffffff821115611a3a57611a39611824565b5b602082029050602081019050919050565b5f611a5d611a5884611a20565b611882565b90508083825260208201905060208402830185811115611a8057611a7f6118c7565b5b835b81811015611aa95780611a95888261137b565b845260208401935050602081019050611a82565b5050509392505050565b5f82601f830112611ac757611ac6611810565b5b8135611ad7848260208601611a4b565b91505092915050565b5f67ffffffffffffffff821115611afa57611af9611824565b5b602082029050602081019050919050565b5f611b1d611b1884611ae0565b611882565b90508083825260208201905060208402830185811115611b4057611b3f6118c7565b5b835b81811015611b695780611b558882611604565b845260208401935050602081019050611b42565b5050509392505050565b5f82601f830112611b8757611b86611810565b5b8135611b97848260208601611b0b565b91505092915050565b5f5f5f5f60808587031215611bb857611bb76112fa565b5b5f85013567ffffffffffffffff811115611bd557611bd46112fe565b5b611be187828801611933565b945050602085013567ffffffffffffffff811115611c0257611c016112fe565b5b611c0e878288016119f3565b935050604085013567ffffffffffffffff811115611c2f57611c2e6112fe565b5b611c3b87828801611ab3565b925050606085013567ffffffffffffffff811115611c5c57611c5b6112fe565b5b611c6887828801611b73565b91505092959194509250565b5f82825260208201905092915050565b7f496e76616c6964207265676973747279206164647265737300000000000000005f82015250565b5f611cb8601883611c74565b9150611cc382611c84565b602082019050919050565b5f6020820190508181035f830152611ce581611cac565b9050919050565b7f4e487b71000000000000000000000000000000000000000000000000000000005f52603260045260245ffd5b7f4e487b71000000000000000000000000000000000000000000000000000000005f52601160045260245ffd5b5f611d508261135c565b91507fffffffffffffffffffffffffffffffffffffffffffffffffffffffffffffffff8203611d8257611d81611d19565b5b600182019050919050565b7f4172726179206c656e677468206d69736d6174636800000000000000000000005f82015250565b5f611dc1601583611c74565b9150611dcc82611d8d565b602082019050919050565b5f6020820190508181035f830152611dee81611db5565b9050919050565b7f496e76616c6964206576656e74204944000000000000000000000000000000005f82015250565b5f611e29601083611c74565b9150611e3482611df5565b602082019050919050565b5f6020820190508181035f830152611e5681611e1d565b9050919050565b7f496e76616c696420617474656e646565000000000000000000000000000000005f82015250565b5f611e91601083611c74565b9150611e9c82611e5d565b602082019050919050565b5f6020820190508181035f830152611ebe81611e85565b9050919050565b5f819050919050565b611edf611eda826113cd565b611ec5565b82525050565b5f8160601b9050919050565b5f611efb82611ee5565b9050919050565b5f611f0c82611ef1565b9050919050565b611f24611f1f82611321565b611f02565b82525050565b5f819050919050565b611f44611f3f8261135c565b611f2a565b82525050565b5f611f558288611ece565b602082019150611f658287611f13565b601482019150611f758286611f33565b602082019150611f858285611f33565b602082019150611f958284611f33565b6020820191508190509695505050505050565b5f604082019050611fbb5f830185611429565b611fc8602083018461169e565b939250505056fea2646970667358221220b93710921c6a63504295637ab68db7ad0fe272cff57fd82bdb98c88761058cfe64736f6c634300081e0033","linkReferences":{}},"methodIdentifiers":{"attestations(bytes32)":"940992a3","batchCreateAttestations(bytes32[],address[],uint256[],bool[])":"fbf96aa9","createAttendanceAttestation(bytes32,address,uint256,bool)":"8b1e1228","easRegistry()":"5d0f5cf3","eventAttestations(bytes32,uint256)":"213d51d3","getAttestation(bytes32)":"a3112a64","getEventAttestationCount(bytes32)":"ea4efc4e","getEventAttestations(bytes32)":"6ee25d3f","getUserAttestationCount(address)":"1f0fd1d3","getUserAttestations(address)":"9658e1ef","getUserPremiumUpgrades(address)":"e6b3f69a","hasUserAttendedEvent(address,bytes32)":"a6fe4a6e","owner()":"8da5cb5b","renounceOwnership()":"715018a6","setEASRegistry(address)":"3044840b","transferOwnership(address)":"f2fde38b","userAttestations(address,uint256)":"1cf2bbc9"},"id":1}