{"abi":[{"type":"constructor","inputs":[{"name":"_easRegistry","type":"address","internalType":"address"}],"stateMutability":"nonpayable"},{"type":"function","name":"attestations","inputs":[{"name":"","type":"bytes32","internalType":"bytes32"}],"outputs":[{"name":"eventId","type":"bytes32","internalType":"bytes32"},{"name":"timestamp","type":"uint64","internalType":"uint64"},{"name":"isPremiumUpgrade","type":"bool","internalType":"bool"},{"name":"attendee","type":"address","internalType":"address"},{"name":"tokenId","type":"uint256","internalType":"uint256"}],"stateMutability":"view"},{"type":"function","name":"batchCreateAttestations","inputs":[{"name":"_eventIds","type":"bytes32[]","internalType":"bytes32[]"},{"name":"_attendees","type":"address[]","internalType":"address[]"},{"name":"_tokenIds","type":"uint256[]","internalType":"uint256[]"},{"name":"_isPremiumUpgrades","type":"bool[]","internalType":"bool[]"}],"outputs":[{"name":"","type":"bytes32[]","internalType":"bytes32[]"}],"stateMutability":"nonpayable"},{"type":"function","name":"createAttendanceAttestation","inputs":[{"name":"_eventId","type":"bytes32","internalType":"bytes32"},{"name":"_attendee","type":"address","internalType":"address"},{"name":"_tokenId","type":"uint256","internalType":"uint256"},{"name":"_isPremiumUpgrade","type":"bool","internalType":"bool"}],"outputs":[{"name":"","type":"bytes32","internalType":"bytes32"}],"stateMutability":"nonpayable"},{"type":"function","name":"easRegistry","inputs":[],"outputs":[{"name":"","type":"address","internalType":"address"}],"stateMutability":"view"},{"type":"function","name":"eventAttestations","inputs":[{"name":"","type":"bytes32","internalType":"bytes32"},{"name":"","type":"uint256","internalType":"uint256"}],"outputs":[{"name":"","type":"bytes32","internalType":"bytes32"}],"stateMutability":"view"},{"type":"function","name":"getAttestation","inputs":[{"name":"_attestationId","type":"bytes32","internalType":"bytes32"}],"outputs":[{"name":"","type":"tuple","internalType":"struct EASIntegration.AttendanceAttestation","components":[{"name":"eventId","type":"bytes32","internalType":"bytes32"},{"name":"timestamp","type":"uint64","internalType":"uint64"},{"name":"isPremiumUpgrade","type":"bool","internalType":"bool"},{"name":"attendee","type":"address","internalType":"address"},{"name":"tokenId","type":"uint256","internalType":"uint256"}]}],"stateMutability":"view"},{"type":"function","name":"getAttestationCounter","inputs":[],"outputs":[{"name":"","type":"uint256","internalType":"uint256"}],"stateMutability":"view"},{"type":"function","name":"getEventAttestationCount","inputs":[{"name":"_eventId","type":"bytes32","internalType":"bytes32"}],"outputs":[{"name":"","type":"uint256","internalType":"uint256"}],"stateMutability":"view"},{"type":"function","name":"getEventAttestations","inputs":[{"name":"_eventId","type":"bytes32","internalType":"bytes32"}],"outputs":[{"name":"","type":"bytes32[]","internalType":"bytes32[]"}],"stateMutability":"view"},{"type":"function","name":"getUserAttestationCount","inputs":[{"name":"_user","type":"address","internalType":"address"}],"outputs":[{"name":"","type":"uint256","internalType":"uint256"}],"stateMutability":"view"},{"type":"function","name":"getUserAttestations","inputs":[{"name":"_user","type":"address","internalType":"address"}],"outputs":[{"name":"","type":"bytes32[]","internalType":"bytes32[]"}],"stateMutability":"view"},{"type":"function","name":"getUserPremiumUpgrades","inputs":[{"name":"_user","type":"address","internalType":"address"}],"outputs":[{"name":"","type":"bytes32[]","internalType":"bytes32[]"}],"stateMutability":"view"},{"type":"function","name":"hasUserAttendedEvent","inputs":[{"name":"_user","type":"address","internalType":"address"},{"name":"_eventId","type":"bytes32","internalType":"bytes32"}],"outputs":[{"name":"","type":"bool","internalType":"bool"}],"stateMutability":"view"},{"type":"function","name":"owner","inputs":[],"outputs":[{"name":"","type":"address","internalType":"address"}],"stateMutability":"view"},{"type":"function","name":"renounceOwnership","inputs":[],"outputs":[],"stateMutability":"nonpayable"},{"type":"function","name":"setEASRegistry","inputs":[{"name":"_registry","type":"address","internalType":"address"}],"outputs":[],"stateMutability":"nonpayable"},{"type":"function","name":"transferOwnership","inputs":[{"name":"newOwner","type":"address","internalType":"address"}],"outputs":[],"stateMutability":"nonpayable"},{"type":"function","name":"userAttestations","inputs":[{"name":"","type":"address","internalType":"address"},{"name":"","type":"uint256","internalType":"uint256"}],"outputs":[{"name":"","type":"bytes32","internalType":"bytes32"}],"stateMutability":"view"},{"type":"event","name":"AttestationCreated","inputs":[{"name":"attestationId","type":"bytes32","indexed":true,"internalType":"bytes32"},{"name":"eventId","type":"bytes32","indexed":true,"internalType":"bytes32"},{"name":"attendee","type":"address","indexed":true,"internalType":"address"},{"name":"tokenId","type":"uint256","indexed":false,"internalType":"uint256"},{"name":"isPremiumUpgrade","type":"bool","indexed":false,"internalType":"bool"}],"anonymous":false},{"type":"event","name":"EASRegistrySet","inputs":[{"name":"registry","type":"address","indexed":true,"internalType":"address"}],"anonymous":false},{"type":"event","name":"OwnershipTransferred","inputs":[{"name":"previousOwner","type":"address","indexed":true,"internalType":"address"},{"name":"newOwner","type":"address","indexed":true,"internalType":"address"}],"anonymous":false},{"type":"error","name":"ArrayLengthMismatch","inputs":[]},{"type":"error","name":"AttestationNotFound","inputs":[]},{"type":"error","name":"InvalidAttendee","inputs":[]},{"type":"error","name":"InvalidEASRegistry","inputs":[]},{"type":"error","name":"InvalidEventId","inputs":[]},{"type":"error","name":"OwnableInvalidOwner","inputs":[{"name":"owner","type":"address","internalType":"address"}]},{"type":"error","name":"OwnableUnauthorizedAccount","inputs":[{"name":"account","type":"address","internalType":"address"}]},{"type":"error","name":"ReentrancyGuardReentrantCall","inputs":[]}],"bytecode":{"object":"0x6080346100e357601f610f8238819003918201601f19168301916001600160401b038311848410176100e8578084926020946040528339810103126100e357516001600160a01b03808216918290036100e35733156100ca576000549060018060a01b0319913383821617600055604051913391167f8be0079c531659141344cd1fd0a4f28419497f9722a3daafe3b4186f6b6457e0600080a36001805582156100bb57506006541617600655604051610e8390816100ff8239f35b633e6cabb960e01b8152600490fd5b604051631e4fbdf760e01b815260006004820152602490fd5b600080fd5b634e487b7160e01b600052604160045260246000fdfe60406080815260048036101561001457600080fd5b600090813560e01c80631cf2bbc9146109e85780631f0fd1d3146109b1578063213d51d31461096a5780633044840b146108ee5780635d0f5cf3146108c55780636ee25d3f14610861578063715018a6146108075780638ad5f697146107e85780638b1e1228146107835780638da5cb5b1461075b578063940992a3146106f25780639658e1ef14610676578063a3112a6414610590578063a6fe4a6e1461055e578063e6b3f69a1461044a578063ea4efc4e14610421578063f2fde38b146103955763fbf96aa9146100e657600080fd5b3461039157608036600319011261039157803567ffffffffffffffff80821161038d573660238301121561038d57818301359061012282610b0a565b61012e87519182610ae8565b8281526020938482016024809560051b830101913683116103895785879101915b8383106103795750505050823593828511610375573660238601121561037557848601359461017d86610b0a565b9561018a8a519788610ae8565b808752858388019160051b83010191368311610371578601905b828210610352575050506044359280841161033e573660238501121561033e5783870135936101d285610b0a565b946101df8b519687610ae8565b808652868487019160051b8301019136831161033a5787859101915b838310610342575050505060643590811161033e573660238201121561033e578087013561022881610b0a565b956102358b519788610ae8565b818752808488019260051b8401019236841161033a5701905b8282106103225750505050610261610b22565b610269610b4e565b80519484518614801590610317575b801561030c575b6102fe575061028d85610e1b565b955b8581106102ab57600180558751806102a78982610a7b565b0390f35b806102ed6102bb60019385610d65565b51838060a01b036102cc848a610d65565b51166102d88488610d65565b51906102e4858a610d65565b51151592610bab565b6102f7828a610d65565b520161028f565b875163512509d360e11b8152fd5b50835186141561027f565b508251861415610278565b8135801515810361033a57815290830190830161024e565b8a80fd5b8780fd5b82358152918101918591016101fb565b81356001600160a01b038116810361033a5781529083019083016101a4565b8980fd5b8680fd5b823581529181019187910161014f565b8880fd5b8380fd5b5080fd5b5082903461041d57602036600319011261041d576103b1610a32565b906103ba610b22565b6001600160a01b0391821692831561040757505082546001600160a01b0319811683178455167f8be0079c531659141344cd1fd0a4f28419497f9722a3daafe3b4186f6b6457e08380a380f35b51631e4fbdf760e01b8152908101849052602490fd5b8280fd5b5082903461041d57602036600319011261041d5760209282913581526005845220549051908152f35b509134610391576020928360031936011261041d576001600160a01b0361046f610a32565b1683528352808220928151808583829754938481520190865283862092865b85828210610548575050506104a592500385610ae8565b83516104b081610e1b565b948492855b8381106104fe57505050506104c981610e1b565b925b8181106104df578251806102a78682610a7b565b806104ec60019287610d65565b516104f78287610d65565b52016104cb565b6105088184610d65565b5187526003825260019060ff82888a200154881c16610528575b016104b5565b9481906105358786610d65565b51610540828c610d65565b520194610522565b855484526001958601958a95509301920161048e565b82843461039157806003193601126103915760209061058761057e610a32565b60243590610d79565b90519015158152f35b50823461041d576020918260031936011261038d57803584608084516105b581610ab6565b8281528287820152828682015282606082015201528085526003845260018060a01b0391826001858820015460481c1615610668575084839160a0965260038552209282519261060484610ab6565b84549485855260018101549280860167ffffffffffffffff90818616815260806002868a019560ff89891c16151587528960608c019960481c1689520154980197885284519889525116908701525115159085015251166060830152516080820152f35b835163120a2e7760e01b8152fd5b50823461041d576020918260031936011261038d576001600160a01b0361069b610a32565b16845282528083209281518093808654928381520195835280832092905b8282106106db576102a786866106d1828b0383610ae8565b5191829182610a7b565b8354875295860195600193840193909101906106b9565b5082903461041d57602036600319011261041d5760a0928291358152600360205220908154916002600182015491015491805193845267ffffffffffffffff8216602085015260ff82821c16151590840152600180851b039060481c1660608301526080820152f35b828434610391578160031936011261039157905490516001600160a01b039091168152602090f35b5082903461041d57608036600319011261041d576024356001600160a01b038116810361038d576064359384151585036107e55750926107da916020946107c8610b22565b6107d0610b4e565b6044359135610bab565b906001805551908152f35b80fd5b8284346103915781600319360112610391576020906002549051908152f35b82346107e557806003193601126107e557610820610b22565b80546001600160a01b03198116825581906001600160a01b03167f8be0079c531659141344cd1fd0a4f28419497f9722a3daafe3b4186f6b6457e08280a380f35b50823461041d576020918260031936011261038d57358352600582528083209281518093808654928381520195835280832092905b8282106108ae576102a786866106d1828b0383610ae8565b835487529586019560019384019390910190610896565b82843461039157816003193601126103915760065490516001600160a01b039091168152602090f35b5082903461041d57602036600319011261041d5761090a610a32565b610912610b22565b6001600160a01b031691821561095d575050600680546001600160a01b031916821790557f5e296980b80d3064f2f0eac680c8578f1659a3531db6acb84c7d9a88760dcf658280a280f35b51633e6cabb960e01b8152fd5b509190346107e557816003193601126107e5576024359235815260056020528181209081548410156107e557506020926109a391610a4d565b91905490519160031b1c8152f35b5082903461041d57602036600319011261041d5760209282916001600160a01b036109da610a32565b168252845220549051908152f35b509190346107e557816003193601126107e557610a03610a32565b6001600160a01b03168152602092909252808220805460243593908410156107e557506020926109a391610a4d565b600435906001600160a01b0382168203610a4857565b600080fd5b8054821015610a655760005260206000200190600090565b634e487b7160e01b600052603260045260246000fd5b6020908160408183019282815285518094520193019160005b828110610aa2575050505090565b835185529381019392810192600101610a94565b60a0810190811067ffffffffffffffff821117610ad257604052565b634e487b7160e01b600052604160045260246000fd5b90601f8019910116810190811067ffffffffffffffff821117610ad257604052565b67ffffffffffffffff8111610ad25760051b60200190565b6000546001600160a01b03163303610b3657565b60405163118cdaa760e01b8152336004820152602490fd5b600260015414610b5f576002600155565b604051633ee5aeb560e01b8152600490fd5b805468010000000000000000811015610ad257610b9391600182018155610a4d565b819291549060031b91821b91600019901b1916179055565b908115610d53576001600160a01b038116928315610d4157600254906000198214610d2b576001820160025560409081519660208801948686526bffffffffffffffffffffffff199060601b16838901528160548901521515928360f81b607489015242607589015243609589015260b588015260b5875260e087019267ffffffffffffffff9388811085821117610ad257600298847f77067d982422be0f9aec51de27a0818a23c23f9e564433383bdfa41f9cd4291b96838b99610d1d958452845190209c8d9a8b95610c7e84610ab6565b8d845261010081019085421682526101606101208201918b8352610140810194855201928b84526000968988526003602052888820965187556001870193511668ff00000000000000008454935115158a1b16916901000000000000000000600160e81b03905160481b169262ffffff60e81b161717179055519101558a81526004602052610d0f83838320610b71565b898152600560205220610b71565b82519182526020820152a490565b634e487b7160e01b600052601160045260246000fd5b60405163dc02b5eb60e01b8152600490fd5b604051630c93477d60e41b8152600490fd5b8051821015610a655760209160051b010190565b9060009160018060a01b03168252602090600482526040808420928151808583829754938481520190885283882092885b85828210610e0557505050610dc192500385610ae8565b835193855b858110610dd65750505050505090565b610de08183610d65565b51875260038352848488205414610df957600101610dc6565b50505050505050600190565b855484526001958601958a955093019201610daa565b90610e2582610b0a565b610e326040519182610ae8565b8281528092610e43601f1991610b0a565b019060203691013756fea264697066735822122074eb5f8fdd0ca6afad670622f8b9ee84b3252370780c1280664681b87bff1d4264736f6c63430008140033","linkReferences":{}},"methodIdentifiers":{"attestations(bytes32)":"940992a3","batchCreateAttestations(bytes32[],address[],uint256[],bool[])":"fbf96aa9","createAttendanceAttestation(bytes32,address,uint256,bool)":"8b1e1228","easRegistry()":"5d0f5cf3","eventAttestations(bytes32,uint256)":"213d51d3","getAttestation(bytes32)":"a3112a64","getAttestationCounter()":"8ad5f697","getEventAttestationCount(bytes32)":"ea4efc4e","getEventAttestations(bytes32)":"6ee25d3f","getUserAttestationCount(address)":"1f0fd1d3","getUserAttestations(address)":"9658e1ef","getUserPremiumUpgrades(address)":"e6b3f69a","hasUserAttendedEvent(address,bytes32)":"a6fe4a6e","owner()":"8da5cb5b","renounceOwnership()":"715018a6","setEASRegistry(address)":"3044840b","transferOwnership(address)":"f2fde38b","userAttestations(address,uint256)":"1cf2bbc9"},"id":34}