{"abi":[{"type":"constructor","inputs":[{"name":"_easRegistry","type":"address","internalType":"address"}],"stateMutability":"nonpayable"},{"type":"function","name":"attestations","inputs":[{"name":"","type":"bytes32","internalType":"bytes32"}],"outputs":[{"name":"eventId","type":"bytes32","internalType":"bytes32"},{"name":"timestamp","type":"uint64","internalType":"uint64"},{"name":"isPremiumUpgrade","type":"bool","internalType":"bool"},{"name":"attendee","type":"address","internalType":"address"},{"name":"tokenId","type":"uint256","internalType":"uint256"}],"stateMutability":"view"},{"type":"function","name":"batchCreateAttestations","inputs":[{"name":"_eventIds","type":"bytes32[]","internalType":"bytes32[]"},{"name":"_attendees","type":"address[]","internalType":"address[]"},{"name":"_tokenIds","type":"uint256[]","internalType":"uint256[]"},{"name":"_isPremiumUpgrades","type":"bool[]","internalType":"bool[]"}],"outputs":[{"name":"","type":"bytes32[]","internalType":"bytes32[]"}],"stateMutability":"nonpayable"},{"type":"function","name":"createAttendanceAttestation","inputs":[{"name":"_eventId","type":"bytes32","internalType":"bytes32"},{"name":"_attendee","type":"address","internalType":"address"},{"name":"_tokenId","type":"uint256","internalType":"uint256"},{"name":"_isPremiumUpgrade","type":"bool","internalType":"bool"}],"outputs":[{"name":"","type":"bytes32","internalType":"bytes32"}],"stateMutability":"nonpayable"},{"type":"function","name":"easRegistry","inputs":[],"outputs":[{"name":"","type":"address","internalType":"address"}],"stateMutability":"view"},{"type":"function","name":"eventAttestations","inputs":[{"name":"","type":"bytes32","internalType":"bytes32"},{"name":"","type":"uint256","internalType":"uint256"}],"outputs":[{"name":"","type":"bytes32","internalType":"bytes32"}],"stateMutability":"view"},{"type":"function","name":"getAttestation","inputs":[{"name":"_attestationId","type":"bytes32","internalType":"bytes32"}],"outputs":[{"name":"","type":"tuple","internalType":"struct EASIntegration.AttendanceAttestation","components":[{"name":"eventId","type":"bytes32","internalType":"bytes32"},{"name":"timestamp","type":"uint64","internalType":"uint64"},{"name":"isPremiumUpgrade","type":"bool","internalType":"bool"},{"name":"attendee","type":"address","internalType":"address"},{"name":"tokenId","type":"uint256","internalType":"uint256"}]}],"stateMutability":"view"},{"type":"function","name":"getAttestationCounter","inputs":[],"outputs":[{"name":"","type":"uint256","internalType":"uint256"}],"stateMutability":"view"},{"type":"function","name":"getEventAttestationCount","inputs":[{"name":"_eventId","type":"bytes32","internalType":"bytes32"}],"outputs":[{"name":"","type":"uint256","internalType":"uint256"}],"stateMutability":"view"},{"type":"function","name":"getEventAttestations","inputs":[{"name":"_eventId","type":"bytes32","internalType":"bytes32"}],"outputs":[{"name":"","type":"bytes32[]","internalType":"bytes32[]"}],"stateMutability":"view"},{"type":"function","name":"getUserAttestationCount","inputs":[{"name":"_user","type":"address","internalType":"address"}],"outputs":[{"name":"","type":"uint256","internalType":"uint256"}],"stateMutability":"view"},{"type":"function","name":"getUserAttestations","inputs":[{"name":"_user","type":"address","internalType":"address"}],"outputs":[{"name":"","type":"bytes32[]","internalType":"bytes32[]"}],"stateMutability":"view"},{"type":"function","name":"getUserPremiumUpgrades","inputs":[{"name":"_user","type":"address","internalType":"address"}],"outputs":[{"name":"","type":"bytes32[]","internalType":"bytes32[]"}],"stateMutability":"view"},{"type":"function","name":"hasUserAttendedEvent","inputs":[{"name":"_user","type":"address","internalType":"address"},{"name":"_eventId","type":"bytes32","internalType":"bytes32"}],"outputs":[{"name":"","type":"bool","internalType":"bool"}],"stateMutability":"view"},{"type":"function","name":"owner","inputs":[],"outputs":[{"name":"","type":"address","internalType":"address"}],"stateMutability":"view"},{"type":"function","name":"renounceOwnership","inputs":[],"outputs":[],"stateMutability":"nonpayable"},{"type":"function","name":"setEASRegistry","inputs":[{"name":"_registry","type":"address","internalType":"address"}],"outputs":[],"stateMutability":"nonpayable"},{"type":"function","name":"transferOwnership","inputs":[{"name":"newOwner","type":"address","internalType":"address"}],"outputs":[],"stateMutability":"nonpayable"},{"type":"function","name":"userAttestations","inputs":[{"name":"","type":"address","internalType":"address"},{"name":"","type":"uint256","internalType":"uint256"}],"outputs":[{"name":"","type":"bytes32","internalType":"bytes32"}],"stateMutability":"view"},{"type":"event","name":"AttestationCreated","inputs":[{"name":"attestationId","type":"bytes32","indexed":true,"internalType":"bytes32"},{"name":"eventId","type":"bytes32","indexed":true,"internalType":"bytes32"},{"name":"attendee","type":"address","indexed":true,"internalType":"address"},{"name":"tokenId","type":"uint256","indexed":false,"internalType":"uint256"},{"name":"isPremiumUpgrade","type":"bool","indexed":false,"internalType":"bool"}],"anonymous":false},{"type":"event","name":"EASRegistrySet","inputs":[{"name":"registry","type":"address","indexed":true,"internalType":"address"}],"anonymous":false},{"type":"event","name":"OwnershipTransferred","inputs":[{"name":"previousOwner","type":"address","indexed":true,"internalType":"address"},{"name":"newOwner","type":"address","indexed":true,"internalType":"address"}],"anonymous":false},{"type":"error","name":"ArrayLengthMismatch","inputs":[]},{"type":"error","name":"AttestationNotFound","inputs":[]},{"type":"error","name":"InvalidAttendee","inputs":[]},{"type":"error","name":"InvalidEASRegistry","inputs":[]},{"type":"error","name":"InvalidEventId","inputs":[]},{"type":"error","name":"OwnableInvalidOwner","inputs":[{"name":"owner","type":"address","internalType":"address"}]},{"type":"error","name":"OwnableUnauthorizedAccount","inputs":[{"name":"account","type":"address","internalType":"address"}]},{"type":"error","name":"ReentrancyGuardReentrantCall","inputs":[]}],"bytecode":{"object":"0x6080346100df57601f610f6838819003918201601f19168301916001600160401b038311848410176100e3578084926020946040528339810103126100df57516001600160a01b03808216918290036100df5733156100c7575f549060018060a01b03199133838216175f55604051913391167f8be0079c531659141344cd1fd0a4f28419497f9722a3daafe3b4186f6b6457e05f80a36001805582156100b857506006541617600655604051610e7090816100f88239f35b633e6cabb960e01b8152600490fd5b604051631e4fbdf760e01b81525f6004820152602490fd5b5f80fd5b634e487b7160e01b5f52604160045260245ffdfe604060808152600480361015610013575f80fd5b5f90813560e01c80631cf2bbc9146109e55780631f0fd1d3146109ae578063213d51d3146109675780633044840b146108eb5780635d0f5cf3146108c25780636ee25d3f1461085e578063715018a6146108045780638ad5f697146107e55780638b1e1228146107805780638da5cb5b14610758578063940992a3146106ef5780639658e1ef14610673578063a3112a641461058d578063a6fe4a6e1461055b578063e6b3f69a14610447578063ea4efc4e1461041e578063f2fde38b146103925763fbf96aa9146100e3575f80fd5b3461038e57608036600319011261038e57803567ffffffffffffffff80821161038a573660238301121561038a57818301359061011f82610afe565b61012b87519182610adc565b8281526020938482016024809560051b830101913683116103865785879101915b8383106103765750505050823593828511610372573660238601121561037257848601359461017a86610afe565b956101878a519788610adc565b808752858388019160051b8301019136831161036e578601905b82821061034f575050506044359280841161033b573660238501121561033b5783870135936101cf85610afe565b946101dc8b519687610adc565b808652868487019160051b830101913683116103375787859101915b83831061033f575050505060643590811161033b573660238201121561033b578087013561022581610afe565b956102328b519788610adc565b818752808488019260051b840101923684116103375701905b82821061031f575050505061025e610b16565b610266610b41565b80519484518614801590610314575b8015610309575b6102fb575061028a85610e08565b955b8581106102a857600180558751806102a48982610a72565b0390f35b806102ea6102b860019385610d53565b51838060a01b036102c9848a610d53565b51166102d58488610d53565b51906102e1858a610d53565b51151592610b9d565b6102f4828a610d53565b520161028c565b875163512509d360e11b8152fd5b50835186141561027c565b508251861415610275565b8135801515810361033757815290830190830161024b565b8a80fd5b8780fd5b82358152918101918591016101f8565b81356001600160a01b03811681036103375781529083019083016101a1565b8980fd5b8680fd5b823581529181019187910161014c565b8880fd5b8380fd5b5080fd5b5082903461041a57602036600319011261041a576103ae610a2f565b906103b7610b16565b6001600160a01b0391821692831561040457505082546001600160a01b0319811683178455167f8be0079c531659141344cd1fd0a4f28419497f9722a3daafe3b4186f6b6457e08380a380f35b51631e4fbdf760e01b8152908101849052602490fd5b8280fd5b5082903461041a57602036600319011261041a5760209282913581526005845220549051908152f35b50913461038e576020928360031936011261041a576001600160a01b0361046c610a2f565b1683528352808220928151808583829754938481520190865283862092865b85828210610545575050506104a292500385610adc565b83516104ad81610e08565b948492855b8381106104fb57505050506104c681610e08565b925b8181106104dc578251806102a48682610a72565b806104e960019287610d53565b516104f48287610d53565b52016104c8565b6105058184610d53565b5187526003825260019060ff82888a200154881c16610525575b016104b2565b9481906105328786610d53565b5161053d828c610d53565b52019461051f565b855484526001958601958a95509301920161048b565b82843461038e578060031936011261038e5760209061058461057b610a2f565b60243590610d67565b90519015158152f35b50823461041a576020918260031936011261038a57803584608084516105b281610aac565b8281528287820152828682015282606082015201528085526003845260018060a01b0391826001858820015460481c1615610665575084839160a0965260038552209282519261060184610aac565b84549485855260018101549280860167ffffffffffffffff90818616815260806002868a019560ff89891c16151587528960608c019960481c1689520154980197885284519889525116908701525115159085015251166060830152516080820152f35b835163120a2e7760e01b8152fd5b50823461041a576020918260031936011261038a576001600160a01b03610698610a2f565b16845282528083209281518093808654928381520195835280832092905b8282106106d8576102a486866106ce828b0383610adc565b5191829182610a72565b8354875295860195600193840193909101906106b6565b5082903461041a57602036600319011261041a5760a0928291358152600360205220908154916002600182015491015491805193845267ffffffffffffffff8216602085015260ff82821c16151590840152600180851b039060481c1660608301526080820152f35b82843461038e578160031936011261038e57905490516001600160a01b039091168152602090f35b5082903461041a57608036600319011261041a576024356001600160a01b038116810361038a576064359384151585036107e25750926107d7916020946107c5610b16565b6107cd610b41565b6044359135610b9d565b906001805551908152f35b80fd5b82843461038e578160031936011261038e576020906002549051908152f35b82346107e257806003193601126107e25761081d610b16565b80546001600160a01b03198116825581906001600160a01b03167f8be0079c531659141344cd1fd0a4f28419497f9722a3daafe3b4186f6b6457e08280a380f35b50823461041a576020918260031936011261038a57358352600582528083209281518093808654928381520195835280832092905b8282106108ab576102a486866106ce828b0383610adc565b835487529586019560019384019390910190610893565b82843461038e578160031936011261038e5760065490516001600160a01b039091168152602090f35b5082903461041a57602036600319011261041a57610907610a2f565b61090f610b16565b6001600160a01b031691821561095a575050600680546001600160a01b031916821790557f5e296980b80d3064f2f0eac680c8578f1659a3531db6acb84c7d9a88760dcf658280a280f35b51633e6cabb960e01b8152fd5b509190346107e257816003193601126107e2576024359235815260056020528181209081548410156107e257506020926109a091610a49565b91905490519160031b1c8152f35b5082903461041a57602036600319011261041a5760209282916001600160a01b036109d7610a2f565b168252845220549051908152f35b509190346107e257816003193601126107e257610a00610a2f565b6001600160a01b03168152602092909252808220805460243593908410156107e257506020926109a091610a49565b600435906001600160a01b0382168203610a4557565b5f80fd5b8054821015610a5e575f5260205f2001905f90565b634e487b7160e01b5f52603260045260245ffd5b602090816040818301928281528551809452019301915f5b828110610a98575050505090565b835185529381019392810192600101610a8a565b60a0810190811067ffffffffffffffff821117610ac857604052565b634e487b7160e01b5f52604160045260245ffd5b90601f8019910116810190811067ffffffffffffffff821117610ac857604052565b67ffffffffffffffff8111610ac85760051b60200190565b5f546001600160a01b03163303610b2957565b60405163118cdaa760e01b8152336004820152602490fd5b600260015414610b52576002600155565b604051633ee5aeb560e01b8152600490fd5b805468010000000000000000811015610ac857610b8691600182018155610a49565b819291549060031b91821b915f19901b1916179055565b908115610d41576001600160a01b038116928315610d2f57600254905f198214610d1b576001820160025560409081519660208801948686526bffffffffffffffffffffffff199060601b16838901528160548901521515928360f81b607489015242607589015243609589015260b588015260b5875260e087019267ffffffffffffffff9388811085821117610ac857600298847f77067d982422be0f9aec51de27a0818a23c23f9e564433383bdfa41f9cd4291b96838b99610d0d958452845190209c8d9a8b95610c6f84610aac565b8d845261010081019085421682526101606101208201918b8352610140810194855201928b84525f968988526003602052888820965187556001870193511668ff00000000000000008454935115158a1b16916901000000000000000000600160e81b03905160481b169262ffffff60e81b161717179055519101558a81526004602052610cff83838320610b64565b898152600560205220610b64565b82519182526020820152a490565b634e487b7160e01b5f52601160045260245ffd5b60405163dc02b5eb60e01b8152600490fd5b604051630c93477d60e41b8152600490fd5b8051821015610a5e5760209160051b010190565b905f9160018060a01b03168252602090600482526040808420928151808583829754938481520190885283882092885b85828210610df257505050610dae92500385610adc565b835193855b858110610dc35750505050505090565b610dcd8183610d53565b51875260038352848488205414610de657600101610db3565b50505050505050600190565b855484526001958601958a955093019201610d97565b90610e1282610afe565b610e1f6040519182610adc565b8281528092610e30601f1991610afe565b019060203691013756fea26469706673582212209e873bf058cc272e0778659ec249510882fd6f1109f9019ba4268421a4a59e9e64736f6c63430008140033","linkReferences":{}},"methodIdentifiers":{"attestations(bytes32)":"940992a3","batchCreateAttestations(bytes32[],address[],uint256[],bool[])":"fbf96aa9","createAttendanceAttestation(bytes32,address,uint256,bool)":"8b1e1228","easRegistry()":"5d0f5cf3","eventAttestations(bytes32,uint256)":"213d51d3","getAttestation(bytes32)":"a3112a64","getAttestationCounter()":"8ad5f697","getEventAttestationCount(bytes32)":"ea4efc4e","getEventAttestations(bytes32)":"6ee25d3f","getUserAttestationCount(address)":"1f0fd1d3","getUserAttestations(address)":"9658e1ef","getUserPremiumUpgrades(address)":"e6b3f69a","hasUserAttendedEvent(address,bytes32)":"a6fe4a6e","owner()":"8da5cb5b","renounceOwnership()":"715018a6","setEASRegistry(address)":"3044840b","transferOwnership(address)":"f2fde38b","userAttestations(address,uint256)":"1cf2bbc9"},"id":36}