{"abi":[{"type":"constructor","inputs":[{"name":"_easRegistry","type":"address","internalType":"address"}],"stateMutability":"nonpayable"},{"type":"function","name":"attestations","inputs":[{"name":"","type":"bytes32","internalType":"bytes32"}],"outputs":[{"name":"eventId","type":"bytes32","internalType":"bytes32"},{"name":"timestamp","type":"uint64","internalType":"uint64"},{"name":"isPremiumUpgrade","type":"bool","internalType":"bool"},{"name":"attendee","type":"address","internalType":"address"},{"name":"tokenId","type":"uint256","internalType":"uint256"}],"stateMutability":"view"},{"type":"function","name":"batchCreateAttestations","inputs":[{"name":"_eventIds","type":"bytes32[]","internalType":"bytes32[]"},{"name":"_attendees","type":"address[]","internalType":"address[]"},{"name":"_tokenIds","type":"uint256[]","internalType":"uint256[]"},{"name":"_isPremiumUpgrades","type":"bool[]","internalType":"bool[]"}],"outputs":[{"name":"","type":"bytes32[]","internalType":"bytes32[]"}],"stateMutability":"nonpayable"},{"type":"function","name":"createAttendanceAttestation","inputs":[{"name":"_eventId","type":"bytes32","internalType":"bytes32"},{"name":"_attendee","type":"address","internalType":"address"},{"name":"_tokenId","type":"uint256","internalType":"uint256"},{"name":"_isPremiumUpgrade","type":"bool","internalType":"bool"}],"outputs":[{"name":"","type":"bytes32","internalType":"bytes32"}],"stateMutability":"nonpayable"},{"type":"function","name":"easRegistry","inputs":[],"outputs":[{"name":"","type":"address","internalType":"address"}],"stateMutability":"view"},{"type":"function","name":"eventAttestations","inputs":[{"name":"","type":"bytes32","internalType":"bytes32"},{"name":"","type":"uint256","internalType":"uint256"}],"outputs":[{"name":"","type":"bytes32","internalType":"bytes32"}],"stateMutability":"view"},{"type":"function","name":"getAttestation","inputs":[{"name":"_attestationId","type":"bytes32","internalType":"bytes32"}],"outputs":[{"name":"","type":"tuple","internalType":"struct EASIntegration.AttendanceAttestation","components":[{"name":"eventId","type":"bytes32","internalType":"bytes32"},{"name":"timestamp","type":"uint64","internalType":"uint64"},{"name":"isPremiumUpgrade","type":"bool","internalType":"bool"},{"name":"attendee","type":"address","internalType":"address"},{"name":"tokenId","type":"uint256","internalType":"uint256"}]}],"stateMutability":"view"},{"type":"function","name":"getEventAttestationCount","inputs":[{"name":"_eventId","type":"bytes32","internalType":"bytes32"}],"outputs":[{"name":"","type":"uint256","internalType":"uint256"}],"stateMutability":"view"},{"type":"function","name":"getEventAttestations","inputs":[{"name":"_eventId","type":"bytes32","internalType":"bytes32"}],"outputs":[{"name":"","type":"bytes32[]","internalType":"bytes32[]"}],"stateMutability":"view"},{"type":"function","name":"getUserAttestationCount","inputs":[{"name":"_user","type":"address","internalType":"address"}],"outputs":[{"name":"","type":"uint256","internalType":"uint256"}],"stateMutability":"view"},{"type":"function","name":"getUserAttestations","inputs":[{"name":"_user","type":"address","internalType":"address"}],"outputs":[{"name":"","type":"bytes32[]","internalType":"bytes32[]"}],"stateMutability":"view"},{"type":"function","name":"getUserPremiumUpgrades","inputs":[{"name":"_user","type":"address","internalType":"address"}],"outputs":[{"name":"","type":"bytes32[]","internalType":"bytes32[]"}],"stateMutability":"view"},{"type":"function","name":"hasUserAttendedEvent","inputs":[{"name":"_user","type":"address","internalType":"address"},{"name":"_eventId","type":"bytes32","internalType":"bytes32"}],"outputs":[{"name":"","type":"bool","internalType":"bool"}],"stateMutability":"view"},{"type":"function","name":"owner","inputs":[],"outputs":[{"name":"","type":"address","internalType":"address"}],"stateMutability":"view"},{"type":"function","name":"renounceOwnership","inputs":[],"outputs":[],"stateMutability":"nonpayable"},{"type":"function","name":"setEASRegistry","inputs":[{"name":"_registry","type":"address","internalType":"address"}],"outputs":[],"stateMutability":"nonpayable"},{"type":"function","name":"transferOwnership","inputs":[{"name":"newOwner","type":"address","internalType":"address"}],"outputs":[],"stateMutability":"nonpayable"},{"type":"function","name":"userAttestations","inputs":[{"name":"","type":"address","internalType":"address"},{"name":"","type":"uint256","internalType":"uint256"}],"outputs":[{"name":"","type":"bytes32","internalType":"bytes32"}],"stateMutability":"view"},{"type":"event","name":"AttestationCreated","inputs":[{"name":"attestationId","type":"bytes32","indexed":true,"internalType":"bytes32"},{"name":"eventId","type":"bytes32","indexed":true,"internalType":"bytes32"},{"name":"attendee","type":"address","indexed":true,"internalType":"address"},{"name":"tokenId","type":"uint256","indexed":false,"internalType":"uint256"},{"name":"isPremiumUpgrade","type":"bool","indexed":false,"internalType":"bool"}],"anonymous":false},{"type":"event","name":"EASRegistrySet","inputs":[{"name":"registry","type":"address","indexed":true,"internalType":"address"}],"anonymous":false},{"type":"event","name":"OwnershipTransferred","inputs":[{"name":"previousOwner","type":"address","indexed":true,"internalType":"address"},{"name":"newOwner","type":"address","indexed":true,"internalType":"address"}],"anonymous":false},{"type":"error","name":"ArrayLengthMismatch","inputs":[]},{"type":"error","name":"AttestationNotFound","inputs":[]},{"type":"error","name":"InvalidAttendee","inputs":[]},{"type":"error","name":"InvalidEASRegistry","inputs":[]},{"type":"error","name":"InvalidEventId","inputs":[]},{"type":"error","name":"OwnableInvalidOwner","inputs":[{"name":"owner","type":"address","internalType":"address"}]},{"type":"error","name":"OwnableUnauthorizedAccount","inputs":[{"name":"account","type":"address","internalType":"address"}]},{"type":"error","name":"ReentrancyGuardReentrantCall","inputs":[]}],"bytecode":{"object":"0x6080346100df57601f610f1438819003918201601f19168301916001600160401b038311848410176100e3578084926020946040528339810103126100df57516001600160a01b03808216918290036100df5733156100c7575f549060018060a01b03199133838216175f55604051913391167f8be0079c531659141344cd1fd0a4f28419497f9722a3daafe3b4186f6b6457e05f80a36001805582156100b857506005541617600555604051610e1c90816100f88239f35b633e6cabb960e01b8152600490fd5b604051631e4fbdf760e01b81525f6004820152602490fd5b5f80fd5b634e487b7160e01b5f52604160045260245ffdfe604060808152600480361015610013575f80fd5b5f90813560e01c80631cf2bbc9146109bd5780631f0fd1d314610985578063213d51d31461093f5780633044840b146108c35780635d0f5cf31461089a5780636ee25d3f14610837578063715018a6146107dd5780638b1e12281461077b5780638da5cb5b14610753578063940992a3146106ea5780639658e1ef1461066c578063a3112a6414610586578063a6fe4a6e14610554578063e6b3f69a1461043b578063ea4efc4e14610413578063f2fde38b146103875763fbf96aa9146100d8575f80fd5b3461038357608036600319011261038357803567ffffffffffffffff80821161037f573660238301121561037f57818301359061011482610ae2565b61012087519182610ac0565b8281526020938482016024809560051b8301019136831161037b5785879101915b83831061036b5750505050823593828511610367573660238601121561036757848601359461016f86610ae2565b9561017c8a519788610ac0565b808752858388019160051b83010191368311610363578601905b828210610344575050506044359280841161033057366023850112156103305783870135936101c485610ae2565b946101d18b519687610ac0565b808652868487019160051b8301019136831161032c5787859101915b83831061033457505050506064359081116103305736602382011215610330578087013561021a81610ae2565b956102278b519788610ac0565b818752808488019260051b8401019236841161032c5701905b8282106103145750505050610253610afa565b61025b610b25565b80519484518614801590610309575b80156102fe575b6102f0575061027f85610db4565b955b85811061029d57600180558751806102998982610a56565b0390f35b806102df6102ad60019385610cff565b51838060a01b036102be848a610cff565b51166102ca8488610cff565b51906102d6858a610cff565b51151592610b81565b6102e9828a610cff565b5201610281565b875163512509d360e11b8152fd5b508351861415610271565b50825186141561026a565b8135801515810361032c578152908301908301610240565b8a80fd5b8780fd5b82358152918101918591016101ed565b81356001600160a01b038116810361032c578152908301908301610196565b8980fd5b8680fd5b8235815291810191879101610141565b8880fd5b8380fd5b5080fd5b5082903461040f57602036600319011261040f576103a3610a13565b906103ac610afa565b6001600160a01b039182169283156103f957505082546001600160a01b0319811683178455167f8be0079c531659141344cd1fd0a4f28419497f9722a3daafe3b4186f6b6457e08380a380f35b51631e4fbdf760e01b8152908101849052602490fd5b8280fd5b5082903461040f57602036600319011261040f57602092818392358252845220549051908152f35b5050346105515760209182600319360112610383576001600160a01b03610460610a13565b16825260038352808220928151808583829754938481520190865283862092865b8582821061053b5750505061049892500385610ac0565b83516104a381610db4565b948492855b8381106104f157505050506104bc81610db4565b925b8181106104d2578251806102998682610a56565b806104df60019287610cff565b516104ea8287610cff565b52016104be565b6104fb8184610cff565b5187526002825260019060ff82888a200154881c1661051b575b016104a8565b9481906105288786610cff565b51610533828c610cff565b520194610515565b855484526001958601958a955093019201610481565b80fd5b82843461038357806003193601126103835760209061057d610574610a13565b60243590610d13565b90519015158152f35b50823461040f576020918260031936011261037f57803584608084516105ab81610a90565b8281528287820152828682015282606082015201528085526002845260018060a01b0391826001858820015460481c161561065e575084839160a096526002855220928251926105fa84610a90565b84549485855260018101549280860167ffffffffffffffff90818616815260806002868a019560ff89891c16151587528960608c019960481c1689520154980197885284519889525116908701525115159085015251166060830152516080820152f35b835163120a2e7760e01b8152fd5b828434610383576020908160031936011261040f576001600160a01b03610691610a13565b168352600382528083209281518093808654928381520195835280832092905b8282106106d35761029986866106c9828b0383610ac0565b5191829182610a56565b8354875295860195600193840193909101906106b1565b5082903461040f57602036600319011261040f5760a0928291358152600260205220908154916002600182015491015491805193845267ffffffffffffffff8216602085015260ff82821c16151590840152600180851b039060481c1660608301526080820152f35b828434610383578160031936011261038357905490516001600160a01b039091168152602090f35b5082903461040f57608036600319011261040f576024356001600160a01b038116810361037f576064359384151585036105515750926107d2916020946107c0610afa565b6107c8610b25565b6044359135610b81565b906001805551908152f35b82346105515780600319360112610551576107f6610afa565b80546001600160a01b03198116825581906001600160a01b03167f8be0079c531659141344cd1fd0a4f28419497f9722a3daafe3b4186f6b6457e08280a380f35b50823461040f576020918260031936011261037f578035845282528083209281518093808654928381520195835280832092905b8282106108835761029986866106c9828b0383610ac0565b83548752958601956001938401939091019061086b565b82843461038357816003193601126103835760055490516001600160a01b039091168152602090f35b5082903461040f57602036600319011261040f576108df610a13565b6108e7610afa565b6001600160a01b0316918215610932575050600580546001600160a01b031916821790557f5e296980b80d3064f2f0eac680c8578f1659a3531db6acb84c7d9a88760dcf658280a280f35b51633e6cabb960e01b8152fd5b509190346105515781600319360112610551576024359280358252602052818120908154841015610551575060209261097791610a2d565b91905490519160031b1c8152f35b8284346103835760203660031901126103835760209181906001600160a01b036109ad610a13565b1681526003845220549051908152f35b8284346103835780600319360112610383576109d7610a13565b6001600160a01b031682526003602052808220805460243593908410156105515750602092610a0591610a2d565b90549060031b1c9051908152f35b600435906001600160a01b0382168203610a2957565b5f80fd5b8054821015610a42575f5260205f2001905f90565b634e487b7160e01b5f52603260045260245ffd5b602090816040818301928281528551809452019301915f5b828110610a7c575050505090565b835185529381019392810192600101610a6e565b60a0810190811067ffffffffffffffff821117610aac57604052565b634e487b7160e01b5f52604160045260245ffd5b90601f8019910116810190811067ffffffffffffffff821117610aac57604052565b67ffffffffffffffff8111610aac5760051b60200190565b5f546001600160a01b03163303610b0d57565b60405163118cdaa760e01b8152336004820152602490fd5b600260015414610b36576002600155565b604051633ee5aeb560e01b8152600490fd5b805468010000000000000000811015610aac57610b6a91600182018155610a2d565b819291549060031b91821b915f19901b1916179055565b908115610ced576001600160a01b038116928315610cdb57604080519160208301938585526bffffffffffffffffffffffff199060601b16828401528060548401524260748401524360948401526094835260c083019267ffffffffffffffff9381811085821117610aac57600298847f77067d982422be0f9aec51de27a0818a23c23f9e564433383bdfa41f9cd4291b96838b99610ccd958452865190209c8d9a8b95610c2e84610a90565b8d845260e089019085421682526101406101008b019115159a8b8352610120810194855201928b84525f9689885285602052888820965187556001870193511668ff00000000000000008454935115158a1b16916901000000000000000000600160e81b03905160481b169262ffffff60e81b161717179055519101558a81526003602052610cbf83838320610b48565b898152600460205220610b48565b82519182526020820152a490565b60405163dc02b5eb60e01b8152600490fd5b604051630c93477d60e41b8152600490fd5b8051821015610a425760209160051b010190565b905f9160018060a01b03168252602090600382526040808420928151808583829754938481520190885283882092885b85828210610d9e57505050610d5a92500385610ac0565b835193855b858110610d6f5750505050505090565b610d798183610cff565b51875260028352848488205414610d9257600101610d5f565b50505050505050600190565b855484526001958601958a955093019201610d43565b90610dbe82610ae2565b610dcb6040519182610ac0565b8281528092610ddc601f1991610ae2565b019060203691013756fea26469706673582212201dd1f937a2bdd58be2e6c5d47fa217bf750a12d7a9e43943aedeced03358ec5c64736f6c63430008140033","linkReferences":{}},"methodIdentifiers":{"attestations(bytes32)":"940992a3","batchCreateAttestations(bytes32[],address[],uint256[],bool[])":"fbf96aa9","createAttendanceAttestation(bytes32,address,uint256,bool)":"8b1e1228","easRegistry()":"5d0f5cf3","eventAttestations(bytes32,uint256)":"213d51d3","getAttestation(bytes32)":"a3112a64","getEventAttestationCount(bytes32)":"ea4efc4e","getEventAttestations(bytes32)":"6ee25d3f","getUserAttestationCount(address)":"1f0fd1d3","getUserAttestations(address)":"9658e1ef","getUserPremiumUpgrades(address)":"e6b3f69a","hasUserAttendedEvent(address,bytes32)":"a6fe4a6e","owner()":"8da5cb5b","renounceOwnership()":"715018a6","setEASRegistry(address)":"3044840b","transferOwnership(address)":"f2fde38b","userAttestations(address,uint256)":"1cf2bbc9"},"id":37}