{"abi":[{"type":"constructor","inputs":[{"name":"name","type":"string","internalType":"string"},{"name":"symbol","type":"string","internalType":"string"},{"name":"_basicMerchContract","type":"address","internalType":"address"},{"name":"_treasury","type":"address","internalType":"address"},{"name":"_upgradeFee","type":"uint256","internalType":"uint256"}],"stateMutability":"nonpayable"},{"type":"function","name":"BASIS_POINTS","inputs":[],"outputs":[{"name":"","type":"uint256","internalType":"uint256"}],"stateMutability":"view"},{"type":"function","name":"approve","inputs":[{"name":"to","type":"address","internalType":"address"},{"name":"tokenId","type":"uint256","internalType":"uint256"}],"outputs":[],"stateMutability":"nonpayable"},{"type":"function","name":"balanceOf","inputs":[{"name":"owner","type":"address","internalType":"address"}],"outputs":[{"name":"","type":"uint256","internalType":"uint256"}],"stateMutability":"view"},{"type":"function","name":"basicMerchContract","inputs":[],"outputs":[{"name":"","type":"address","internalType":"contract BasicMerch"}],"stateMutability":"view"},{"type":"function","name":"canUpgradeSBT","inputs":[{"name":"_sbtId","type":"uint256","internalType":"uint256"},{"name":"_user","type":"address","internalType":"address"}],"outputs":[{"name":"","type":"bool","internalType":"bool"},{"name":"","type":"string","internalType":"string"}],"stateMutability":"view"},{"type":"function","name":"emergencyWithdraw","inputs":[],"outputs":[],"stateMutability":"nonpayable"},{"type":"function","name":"getApproved","inputs":[{"name":"tokenId","type":"uint256","internalType":"uint256"}],"outputs":[{"name":"","type":"address","internalType":"address"}],"stateMutability":"view"},{"type":"function","name":"getBalance","inputs":[],"outputs":[{"name":"","type":"uint256","internalType":"uint256"}],"stateMutability":"view"},{"type":"function","name":"getCurrentTokenId","inputs":[],"outputs":[{"name":"","type":"uint256","internalType":"uint256"}],"stateMutability":"view"},{"type":"function","name":"getPremiumTokenId","inputs":[{"name":"_sbtId","type":"uint256","internalType":"uint256"}],"outputs":[{"name":"","type":"uint256","internalType":"uint256"}],"stateMutability":"view"},{"type":"function","name":"isApprovedForAll","inputs":[{"name":"owner","type":"address","internalType":"address"},{"name":"operator","type":"address","internalType":"address"}],"outputs":[{"name":"","type":"bool","internalType":"bool"}],"stateMutability":"view"},{"type":"function","name":"isSBTUpgraded","inputs":[{"name":"_sbtId","type":"uint256","internalType":"uint256"}],"outputs":[{"name":"","type":"bool","internalType":"bool"}],"stateMutability":"view"},{"type":"function","name":"name","inputs":[],"outputs":[{"name":"","type":"string","internalType":"string"}],"stateMutability":"view"},{"type":"function","name":"organizerSplit","inputs":[],"outputs":[{"name":"","type":"uint256","internalType":"uint256"}],"stateMutability":"view"},{"type":"function","name":"owner","inputs":[],"outputs":[{"name":"","type":"address","internalType":"address"}],"stateMutability":"view"},{"type":"function","name":"ownerOf","inputs":[{"name":"tokenId","type":"uint256","internalType":"uint256"}],"outputs":[{"name":"","type":"address","internalType":"address"}],"stateMutability":"view"},{"type":"function","name":"pause","inputs":[],"outputs":[],"stateMutability":"nonpayable"},{"type":"function","name":"paused","inputs":[],"outputs":[{"name":"","type":"bool","internalType":"bool"}],"stateMutability":"view"},{"type":"function","name":"renounceOwnership","inputs":[],"outputs":[],"stateMutability":"nonpayable"},{"type":"function","name":"safeTransferFrom","inputs":[{"name":"from","type":"address","internalType":"address"},{"name":"to","type":"address","internalType":"address"},{"name":"tokenId","type":"uint256","internalType":"uint256"}],"outputs":[],"stateMutability":"nonpayable"},{"type":"function","name":"safeTransferFrom","inputs":[{"name":"from","type":"address","internalType":"address"},{"name":"to","type":"address","internalType":"address"},{"name":"tokenId","type":"uint256","internalType":"uint256"},{"name":"data","type":"bytes","internalType":"bytes"}],"outputs":[],"stateMutability":"nonpayable"},{"type":"function","name":"sbtToPremiumMapping","inputs":[{"name":"","type":"uint256","internalType":"uint256"}],"outputs":[{"name":"","type":"uint256","internalType":"uint256"}],"stateMutability":"view"},{"type":"function","name":"setApprovalForAll","inputs":[{"name":"operator","type":"address","internalType":"address"},{"name":"approved","type":"bool","internalType":"bool"}],"outputs":[],"stateMutability":"nonpayable"},{"type":"function","name":"setBaseURI","inputs":[{"name":"_uri","type":"string","internalType":"string"}],"outputs":[],"stateMutability":"nonpayable"},{"type":"function","name":"setBasicMerchContract","inputs":[{"name":"_basicMerchContract","type":"address","internalType":"address"}],"outputs":[],"stateMutability":"nonpayable"},{"type":"function","name":"setFeeSplit","inputs":[{"name":"_treasurySplit","type":"uint256","internalType":"uint256"},{"name":"_organizerSplit","type":"uint256","internalType":"uint256"}],"outputs":[],"stateMutability":"nonpayable"},{"type":"function","name":"setTokenURI","inputs":[{"name":"_tokenId","type":"uint256","internalType":"uint256"},{"name":"_tokenURI","type":"string","internalType":"string"}],"outputs":[],"stateMutability":"nonpayable"},{"type":"function","name":"setTreasury","inputs":[{"name":"_newTreasury","type":"address","internalType":"address"}],"outputs":[],"stateMutability":"nonpayable"},{"type":"function","name":"setUpgradeFee","inputs":[{"name":"_newFee","type":"uint256","internalType":"uint256"}],"outputs":[],"stateMutability":"nonpayable"},{"type":"function","name":"supportsInterface","inputs":[{"name":"interfaceId","type":"bytes4","internalType":"bytes4"}],"outputs":[{"name":"","type":"bool","internalType":"bool"}],"stateMutability":"view"},{"type":"function","name":"symbol","inputs":[],"outputs":[{"name":"","type":"string","internalType":"string"}],"stateMutability":"view"},{"type":"function","name":"tokenURI","inputs":[{"name":"tokenId","type":"uint256","internalType":"uint256"}],"outputs":[{"name":"","type":"string","internalType":"string"}],"stateMutability":"view"},{"type":"function","name":"transferFrom","inputs":[{"name":"from","type":"address","internalType":"address"},{"name":"to","type":"address","internalType":"address"},{"name":"tokenId","type":"uint256","internalType":"uint256"}],"outputs":[],"stateMutability":"nonpayable"},{"type":"function","name":"transferOwnership","inputs":[{"name":"newOwner","type":"address","internalType":"address"}],"outputs":[],"stateMutability":"nonpayable"},{"type":"function","name":"treasury","inputs":[],"outputs":[{"name":"","type":"address","internalType":"address"}],"stateMutability":"view"},{"type":"function","name":"treasurySplit","inputs":[],"outputs":[{"name":"","type":"uint256","internalType":"uint256"}],"stateMutability":"view"},{"type":"function","name":"unpause","inputs":[],"outputs":[],"stateMutability":"nonpayable"},{"type":"function","name":"upgradeFee","inputs":[],"outputs":[{"name":"","type":"uint256","internalType":"uint256"}],"stateMutability":"view"},{"type":"function","name":"upgradeSBT","inputs":[{"name":"_sbtId","type":"uint256","internalType":"uint256"},{"name":"_organizer","type":"address","internalType":"address"},{"name":"_upgrader","type":"address","internalType":"address"}],"outputs":[],"stateMutability":"payable"},{"type":"function","name":"upgradedSBTs","inputs":[{"name":"","type":"uint256","internalType":"uint256"}],"outputs":[{"name":"","type":"bool","internalType":"bool"}],"stateMutability":"view"},{"type":"event","name":"Approval","inputs":[{"name":"owner","type":"address","indexed":true,"internalType":"address"},{"name":"approved","type":"address","indexed":true,"internalType":"address"},{"name":"tokenId","type":"uint256","indexed":true,"internalType":"uint256"}],"anonymous":false},{"type":"event","name":"ApprovalForAll","inputs":[{"name":"owner","type":"address","indexed":true,"internalType":"address"},{"name":"operator","type":"address","indexed":true,"internalType":"address"},{"name":"approved","type":"bool","indexed":false,"internalType":"bool"}],"anonymous":false},{"type":"event","name":"BaseURISet","inputs":[{"name":"newBaseURI","type":"string","indexed":false,"internalType":"string"}],"anonymous":false},{"type":"event","name":"ExcessRefunded","inputs":[{"name":"user","type":"address","indexed":true,"internalType":"address"},{"name":"amount","type":"uint256","indexed":false,"internalType":"uint256"}],"anonymous":false},{"type":"event","name":"FeeDistributed","inputs":[{"name":"organizer","type":"address","indexed":true,"internalType":"address"},{"name":"treasuryAmount","type":"uint256","indexed":false,"internalType":"uint256"},{"name":"organizerAmount","type":"uint256","indexed":false,"internalType":"uint256"}],"anonymous":false},{"type":"event","name":"FeeSplitSet","inputs":[{"name":"treasurySplit","type":"uint256","indexed":false,"internalType":"uint256"},{"name":"organizerSplit","type":"uint256","indexed":false,"internalType":"uint256"}],"anonymous":false},{"type":"event","name":"OwnershipTransferred","inputs":[{"name":"previousOwner","type":"address","indexed":true,"internalType":"address"},{"name":"newOwner","type":"address","indexed":true,"internalType":"address"}],"anonymous":false},{"type":"event","name":"Paused","inputs":[{"name":"account","type":"address","indexed":false,"internalType":"address"}],"anonymous":false},{"type":"event","name":"SBTUpgraded","inputs":[{"name":"user","type":"address","indexed":true,"internalType":"address"},{"name":"sbtId","type":"uint256","indexed":true,"internalType":"uint256"},{"name":"premiumId","type":"uint256","indexed":true,"internalType":"uint256"},{"name":"fee","type":"uint256","indexed":false,"internalType":"uint256"}],"anonymous":false},{"type":"event","name":"TokenURISet","inputs":[{"name":"tokenId","type":"uint256","indexed":true,"internalType":"uint256"},{"name":"tokenURI","type":"string","indexed":false,"internalType":"string"}],"anonymous":false},{"type":"event","name":"Transfer","inputs":[{"name":"from","type":"address","indexed":true,"internalType":"address"},{"name":"to","type":"address","indexed":true,"internalType":"address"},{"name":"tokenId","type":"uint256","indexed":true,"internalType":"uint256"}],"anonymous":false},{"type":"event","name":"TreasurySet","inputs":[{"name":"newTreasury","type":"address","indexed":true,"internalType":"address"}],"anonymous":false},{"type":"event","name":"Unpaused","inputs":[{"name":"account","type":"address","indexed":false,"internalType":"address"}],"anonymous":false},{"type":"event","name":"UpgradeFeeSet","inputs":[{"name":"newFee","type":"uint256","indexed":false,"internalType":"uint256"}],"anonymous":false},{"type":"error","name":"ERC721IncorrectOwner","inputs":[{"name":"sender","type":"address","internalType":"address"},{"name":"tokenId","type":"uint256","internalType":"uint256"},{"name":"owner","type":"address","internalType":"address"}]},{"type":"error","name":"ERC721InsufficientApproval","inputs":[{"name":"operator","type":"address","internalType":"address"},{"name":"tokenId","type":"uint256","internalType":"uint256"}]},{"type":"error","name":"ERC721InvalidApprover","inputs":[{"name":"approver","type":"address","internalType":"address"}]},{"type":"error","name":"ERC721InvalidOperator","inputs":[{"name":"operator","type":"address","internalType":"address"}]},{"type":"error","name":"ERC721InvalidOwner","inputs":[{"name":"owner","type":"address","internalType":"address"}]},{"type":"error","name":"ERC721InvalidReceiver","inputs":[{"name":"receiver","type":"address","internalType":"address"}]},{"type":"error","name":"ERC721InvalidSender","inputs":[{"name":"sender","type":"address","internalType":"address"}]},{"type":"error","name":"ERC721NonexistentToken","inputs":[{"name":"tokenId","type":"uint256","internalType":"uint256"}]},{"type":"error","name":"EnforcedPause","inputs":[]},{"type":"error","name":"ExpectedPause","inputs":[]},{"type":"error","name":"InsufficientFee","inputs":[]},{"type":"error","name":"InvalidAddress","inputs":[]},{"type":"error","name":"InvalidFeeSplit","inputs":[]},{"type":"error","name":"NoFundsToWithdraw","inputs":[]},{"type":"error","name":"OwnableInvalidOwner","inputs":[{"name":"owner","type":"address","internalType":"address"}]},{"type":"error","name":"OwnableUnauthorizedAccount","inputs":[{"name":"account","type":"address","internalType":"address"}]},{"type":"error","name":"ReentrancyGuardReentrantCall","inputs":[]},{"type":"error","name":"SBTAlreadyUpgraded","inputs":[]},{"type":"error","name":"SBTDoesNotExist","inputs":[]},{"type":"error","name":"SBTNotOwned","inputs":[]},{"type":"error","name":"TransferFailed","inputs":[]}],"bytecode":{"object":"0x604060808152346200041a5762002511803803806200001e816200041e565b928339810160a0828203126200041a5781516001600160401b03908181116200041a57826200004f91850162000444565b9160209081850151908382116200041a576200006d91860162000444565b936200007b868201620004b4565b9260806200008c60608401620004b4565b9201519585519082821162000406575f948554926001988985811c95168015620003fb575b83861014620003e7578190601f9586811162000394575b5083908683116001146200033157899262000325575b50505f19600383901b1c191690891b1786555b8151938411620003115787548881811c9116801562000306575b82821014620002f25790818486959493116200029b575b5080928411600114620002345750859262000228575b50505f19600383901b1c191690851b1784555b33156200021057600680546001600160a01b03198082163390811790935588519690956001600160a01b0395869491938516907f8be0079c531659141344cd1fd0a4f28419497f9722a3daafe3b4186f6b6457e09080a360075560ff19600854166008551693841562000201575016918215620001f05781600c541617600c55600e541617600e55600d55610ea6600f5561186a601055516120479081620004ca8239f35b845163e6c4247b60e01b8152600490fd5b63e6c4247b60e01b8152600490fd5b8551631e4fbdf760e01b815260048101839052602490fd5b015190505f8062000138565b9190889450601f1984168588528388209388905b82821062000281575050841162000268575b505050811b0184556200014b565b01515f1960f88460031b161c191690555f80806200025a565b8484015186558b9790950194938401939081019062000248565b90919293508887528187208480870160051c820192848810620002e8575b9187968c92969594930160051c01915b828110620002d957505062000122565b8981558796508b9101620002c9565b92508192620002b9565b634e487b7160e01b87526022600452602487fd5b90607f16906200010b565b634e487b7160e01b86526041600452602486fd5b015190505f80620000de565b898052848a208c94509190601f1984168b5b878282106200037d575050841162000364575b505050811b018655620000f1565b01515f1960f88460031b161c191690555f808062000356565b8385015186558f9790950194938401930162000343565b9091508880528389208680850160051c820192868610620003dd575b918d91869594930160051c01915b828110620003ce575050620000c8565b8b81558594508d9101620003be565b92508192620003b0565b634e487b7160e01b88526022600452602488fd5b94607f1694620000b1565b634e487b7160e01b5f52604160045260245ffd5b5f80fd5b6040519190601f01601f191682016001600160401b038111838210176200040657604052565b919080601f840112156200041a5782516001600160401b03811162000406576020906200047a601f8201601f191683016200041e565b928184528282870101116200041a575f5b818110620004a05750825f9394955001015290565b85810183015184820184015282016200048b565b51906001600160a01b03821682036200041a5756fe60806040818152600480361015610014575f80fd5b5f92833560e01c90816301ffc9a7146115d057508063062988d71461158d57806306fdde03146114e5578063081812fc146114aa578063095ea7b3146113ce578063103e9dc0146113af57806312065fe014611394578063150d997014610e38578063162094c4146111b357806323b872dd1461119b5780633f4ba83a1461113257806340fa61f71461111357806342842e0e146110e457806355f804b314610efc5780635618923614610edd5780635c975abb14610eb957806361d027b314610e905780636352211e14610e5f5780636e8be04b14610e3857806370a0823114610de3578063715018a614610d8657806373bba59114610d5d57806375750337146102e45780637e6335c714610cb95780638456cb5914610c5e5780638c4ee01c14610c0f5780638da5cb5b14610be657806395d89b4114610b03578063a22cb46514610a62578063b88d4fde146109f0578063bae18ac3146109a3578063c87b56dd14610968578063db2e21bc14610904578063e1f1c4a7146108e7578063e5ac4fb4146108c8578063e78d65df14610362578063e985e9c514610310578063ea3a267f146102e4578063f0f442601461026a5763f2fde38b146101d8575f80fd5b34610266576020366003190112610266576101f1611656565b906101fa6117c5565b6001600160a01b03918216928315610250575050600654826bffffffffffffffffffffffff60a01b821617600655167f8be0079c531659141344cd1fd0a4f28419497f9722a3daafe3b4186f6b6457e05f80a380f35b51631e4fbdf760e01b8152908101849052602490fd5b8280fd5b503461026657602036600319011261026657610284611656565b61028c6117c5565b6001600160a01b03169182156102d7575050600e80546001600160a01b031916821790557f3c864541ef71378c6229510ed90f376565ee42d9c5e0904a984a9e863e6db44f8280a280f35b5163e6c4247b60e01b8152fd5b5034610266576020366003190112610266578160209360ff923581526012855220541690519015158152f35b50503461035e578060031936011261035e5760209161032d611656565b8261033661163c565b9260018060a01b038093168152600586522091165f52825260ff815f20541690519015158152f35b5080fd5b5060603660031901126102665780359061037a61163c565b604435936001600160a01b0380861693908487036108c4576002600754146108b55760026007556103a9611b80565b8084169182156108a757600d549485341061089957878a526020956012875260ff868c20541661088957600c54865163430c208160e01b81526001600160a01b038c16858201908152602081018c90529091899183918816908290819060400103915afa90811561087f578c91610852575b5015610842578a818b9234116107e1575b508990525060128652848a20805460ff19166001179055600954985f1990818b146106345760018b01600955865191610464836116b2565b8c835289156107ca578b8a898f8060028e867fddf252ad1be2c89b69c2b068fc378daa952ba7f163c4a11628f55a4df523b3ef94528181528c8584205416948515159889610799575b5086845260038252832080546001019055868352528c812080546001600160a01b0319168517905580a4610782573b61067f575b50878a526011865288858b20558983600c5416803b1561035e57819060248b89519485938492637bb62fc160e11b8452898401525af1801561067557610647575b50600d54600f548082029082820414821517156106345761054f949392916127108d920495868092611b5f565b9481151580610627575b6105f7575b505090836105cd575b505050838093927f891d4da69faf2cf5f9b5a4bceeeba1909237ad5d6222ebe54fbcab15067f8e68927fb563979765f59a2f0bd2aeb9753800ab162ebc5fe44bda69f0decc8e256c0ff197965191825286820152a2600d549051908152a4600160075580f35b81808581935af16105dc611a01565b50156105e9578981610567565b84516312171d8360e31b8152fd5b8280928192600e54165af161060a611a01565b5015610618578a845f61055e565b5084516312171d8360e31b8152fd5b5080600e54161515610559565b634e487b7160e01b8c526011845260248cfd5b67ffffffffffffffff819b929b11610662578552985f610522565b506041602492634e487b7160e01b835252fd5b86513d8d823e3d90fd5b916106c687899a969594889a8d8f9b9f869f9b51809681958294630a85bd0160e11b9a8b85523390850152846024850152604484015260806064840152608483019061168d565b03925af188918161073e575b50610708578b8b8b8b6106e3611a01565b8051948561070257505051633250574960e11b81529182015260249150fd5b85925001fd5b63ffffffff60e09c989c9b9495969a99979b1b1603610727575f6104e1565b8451633250574960e11b8152808301889052602490fd5b9091508c81813d831161077b575b61075681836116fe565b8101031261077757516001600160e01b03198116810361077757905f6106d2565b8880fd5b503d61074c565b86516339e3563760e11b81528085018d9052602490fd5b5f89815260046020526040902080546001600160a01b0319169055868552600383528185209081540190555f6104ad565b8751633250574960e11b81528086018e9052602490fd5b81806107ee819334611b5f565b80955af16107fa611a01565b5015610832577f2c003babc9bab745cd44b6d4ba45ddf77bdbda4a59d52e1fc805dfb0d8895c7e8789928851908152a2888a5f61042c565b85516312171d8360e31b81528390fd5b8551630ea194ef60e11b81528390fd5b6108729150883d8a11610878575b61086a81836116fe565b810190611b47565b5f61041b565b503d610860565b87513d8e823e3d90fd5b8551631ec7180560e31b81528390fd5b50835162976f7560e21b8152fd5b835163e6c4247b60e01b8152fd5b509051633ee5aeb560e01b8152fd5b8780fd5b50503461035e578160031936011261035e576020906010549051908152f35b50503461035e578160031936011261035e57602090516127108152f35b50903461026657826003193601126102665761091e6117c5565b47801561095a5760065484918291829182916001600160a01b03165af1610943611a01565b501561094d578280f35b516312171d8360e31b8152fd5b50516367e3990d60e01b8152fd5b5091346109a05760203660031901126109a0575061098961099c9235611b9e565b905191829160208352602083019061168d565b0390f35b80fd5b5034610266576020366003190112610266577f9b139638a940fefdf79187c76a51e818dc05fd488e7d82c3a7f200dac48c5d329160209135906109e46117c5565b81600d5551908152a180f35b83823461035e57608036600319011261035e57610a0b611656565b610a1361163c565b6044359060643567ffffffffffffffff8111610a5e5736602382011215610a5e57610a5b94816024610a4a9336930135910161173c565b92610a56838383611829565b611a30565b80f35b8580fd5b509034610266578060031936011261026657610a7c611656565b9060243591821515809303610aff576001600160a01b0316928315610aea5750338452600560205280842083855260205280842060ff1981541660ff8416179055519081527f17307eab39ab6107e8899845ad3d59bd9653f200f220920489ca2b5937696c3160203392a380f35b836024925191630b61174360e31b8352820152fd5b8480fd5b50503461035e578160031936011261035e57805190826001805491610b27836117f1565b80865292828116908115610bbe5750600114610b62575b505050610b508261099c9403836116fe565b5191829160208352602083019061168d565b94508085527fb10e2d527612073b26eecdfd717e6a320cf44b4afac2b0732d9fcbe2b7fa0cf65b828610610ba657505050610b5082602061099c9582010194610b3e565b80546020878701810191909152909501948101610b89565b61099c975086935060209250610b5094915060ff191682840152151560051b82010194610b3e565b50503461035e578160031936011261035e5760065490516001600160a01b039091168152602090f35b503461026657602036600319011261026657610c29611656565b610c316117c5565b6001600160a01b03169182156102d75750506bffffffffffffffffffffffff60a01b600c541617600c5580f35b50503461035e578160031936011261035e5760207f62e78cea01bee320cd4e420270b5ea74000d11b0c9f74754ebdbfc544b05a25891610c9c6117c5565b610ca4611b80565b600160ff19600854161760085551338152a180f35b5091903461035e578060031936011261035e578235602435610cd96117c5565b808201808311610d4a5761271003610d325781158015610d42575b610d32577f73f47330dbb335fc9891ea52c4d46cce63b1c1c0ed7743545c99183134c5de1493945081600f558060105582519182526020820152a180f35b8251630601f69760e01b81528590fd5b508015610cf4565b634e487b7160e01b855260118652602485fd5b50503461035e578160031936011261035e57600c5490516001600160a01b039091168152602090f35b83346109a057806003193601126109a057610d9f6117c5565b600680546001600160a01b0319811690915581906001600160a01b03167f8be0079c531659141344cd1fd0a4f28419497f9722a3daafe3b4186f6b6457e08280a380f35b5091346109a05760203660031901126109a0576001600160a01b03610e06611656565b16928315610e235750806020938392526003845220549051908152f35b91516322718ad960e21b815291820152602490fd5b50346102665760203660031901126102665760209282913581526011845220549051908152f35b5091346109a05760203660031901126109a05750610e7f602092356119c7565b90516001600160a01b039091168152f35b50503461035e578160031936011261035e57600e5490516001600160a01b039091168152602090f35b50503461035e578160031936011261035e5760209060ff6008541690519015158152f35b50503461035e578160031936011261035e576020906009549051908152f35b5082903461035e57602092836003193601126102665767ffffffffffffffff8235818111610aff57610f319036908501611772565b92610f3a6117c5565b83519182116110d15750610f4f600a546117f1565b601f811161106f575b5084601f8211600114610fca579181610fb9928697947ff9c7803e94e0d3c02900d8a90893a6d5e90dd04d32a4cfe825520f82bf9f32f69791610fbf575b508160011b915f199060031b1c191617600a555b5192828493845283019061168d565b0390a180f35b905085015188610f96565b600a85527fc65a7bb8d6351c1cf70c95a316cc6a92839c986682d98bc35f958f4883f9d2a890601f198316865b8181106110585750927ff9c7803e94e0d3c02900d8a90893a6d5e90dd04d32a4cfe825520f82bf9f32f69697949260019282610fb99610611040575b5050811b01600a55610faa565b8701515f1960f88460031b161c191690558880611033565b91928860018192868a015181550194019201610ff7565b600a85527fc65a7bb8d6351c1cf70c95a316cc6a92839c986682d98bc35f958f4883f9d2a8601f830160051c8101918784106110c7575b601f0160051c01905b8181106110bc5750610f58565b8581556001016110af565b90915081906110a6565b634e487b7160e01b855260419052602484fd5b50503461035e57610a5b906110f836611790565b91925192611105846116b2565b858452610a56838383611829565b50503461035e578160031936011261035e57602090600d549051908152f35b503461026657826003193601126102665761114b6117c5565b6008549060ff82161561118d575060ff1916600855513381527f5db9ee0a495bf2e6ff9c91a7834c1ba4fdd244a5e8aa4e537bd38aeae4b073aa90602090a180f35b8251638dfc202b60e01b8152fd5b83346109a057610a5b6111ad36611790565b91611829565b503461026657816003193601126102665780359167ffffffffffffffff90602435828111610a5e576111e89036908501611772565b926111f16117c5565b84865260026020908152828720549093906001600160a01b03161561138557858752600b8452828720918551918211611372575061122f82546117f1565b601f811161132f575b5083601f82116001146112a95791817fda84ca2183491f179a603e877b2cb058e42195041c2b9c53d746427e519a34df96959492611298948a9161129e575b508160011b915f199060031b1c19161790555192828493845283019061168d565b0390a280f35b90508601515f611277565b82885284882090601f198316895b8181106113185750926112989492600192827fda84ca2183491f179a603e877b2cb058e42195041c2b9c53d746427e519a34df9a99989610611300575b5050811b019055610faa565b8801515f1960f88460031b161c191690555f806112f4565b91928760018192868c0151815501940192016112b7565b828852848820601f830160051c810191868410611368575b601f0160051c01905b81811061135d5750611238565b888155600101611350565b9091508190611347565b634e487b7160e01b885260419052602487fd5b50905163674dd4d360e01b8152fd5b50503461035e578160031936011261035e5751478152602090f35b50503461035e578160031936011261035e57602090600f549051908152f35b5090346102665780600319360112610266576113e8611656565b916024356113f5816119c7565b33151580611497575b8061146e575b611458576001600160a01b039485169482918691167f8c5be1e5ebec7d5bd14f71427d1e84f3dd0314c0f7b2291e5b200ac8c7c3b9258880a48452602052822080546001600160a01b031916909117905580f35b835163a9fbf51f60e01b81523381850152602490fd5b506001600160a01b03811686526005602090815284872033885290528386205460ff1615611404565b506001600160a01b0381163314156113fe565b5034610266576020366003190112610266579182602093356114cb816119c7565b50825283528190205490516001600160a01b039091168152f35b50503461035e578160031936011261035e57805190828054611506816117f1565b80855291600191808316908115610bbe575060011461153157505050610b508261099c9403836116fe565b80809650527f290decd9548b62a8d60345a988386fc84ba6bc95484008f6362f93160ef3e5635b82861061157557505050610b5082602061099c9582010194610b3e565b80546020878701810191909152909501948101611558565b5082346109a057826003193601126109a057506115b661099c916115af61163c565b9035611ed6565b83929192519384931515845280602085015283019061168d565b92505034610266576020366003190112610266573563ffffffff60e01b811680910361026657602092506380ac58cd60e01b811490811561162b575b811561161a575b5015158152f35b6301ffc9a760e01b1490505f611613565b635b5e139f60e01b8114915061160c565b602435906001600160a01b038216820361165257565b5f80fd5b600435906001600160a01b038216820361165257565b5f5b83811061167d5750505f910152565b818101518382015260200161166e565b906020916116a68151809281855285808601910161166c565b601f01601f1916010190565b6020810190811067ffffffffffffffff8211176116ce57604052565b634e487b7160e01b5f52604160045260245ffd5b6040810190811067ffffffffffffffff8211176116ce57604052565b90601f8019910116810190811067ffffffffffffffff8211176116ce57604052565b67ffffffffffffffff81116116ce57601f01601f191660200190565b92919261174882611720565b9161175660405193846116fe565b829481845281830111611652578281602093845f960137010152565b9080601f830112156116525781602061178d9335910161173c565b90565b6060906003190112611652576001600160a01b0390600435828116810361165257916024359081168103611652579060443590565b6006546001600160a01b031633036117d957565b60405163118cdaa760e01b8152336004820152602490fd5b90600182811c9216801561181f575b602083101461180b57565b634e487b7160e01b5f52602260045260245ffd5b91607f1691611800565b6001600160a01b0391821692909183156119af575f92828452826020956002875260409684888820541696879133151580611916575b509060027fddf252ad1be2c89b69c2b068fc378daa952ba7f163c4a11628f55a4df523b3ef92846118e5575b858352600381528b8320805460010190558683525289812080546001600160a01b0319168517905580a416928383036118c45750505050565b6064945051926364283d7b60e01b8452600484015260248301526044820152fd5b5f87815260046020526040902080546001600160a01b0319169055848352600381528b832080545f1901905561188b565b9193945091508061196e575b156119325785929187915f61185f565b87868861194f576024915190637e27328960e01b82526004820152fd5b905163177e802f60e01b81523360048201526024810191909152604490fd5b503387148015611993575b806119225750858252600481523385898420541614611922565b5086825260058152878220338352815260ff8883205416611979565b604051633250574960e11b81525f6004820152602490fd5b5f818152600260205260409020546001600160a01b03169081156119e9575090565b60249060405190637e27328960e01b82526004820152fd5b3d15611a2b573d90611a1282611720565b91611a2060405193846116fe565b82523d5f602084013e565b606090565b9190803b611a3f575b50505050565b611a8160018060a01b0380921694604051938493630a85bd0160e11b96878652336004870152166024850152604484015260806064840152608483019061168d565b03906020815f938185885af190829082611aff575b5050611ace5782611aa5611a01565b8051919082611ac757604051633250574960e11b815260048101839052602490fd5b9050602001fd5b6001600160e01b03191603611ae757505f808080611a39565b60249060405190633250574960e11b82526004820152fd5b909192506020813d8211611b3f575b81611b1b602093836116fe565b8101031261035e5751906001600160e01b0319821682036109a05750905f80611a96565b3d9150611b0e565b90816020910312611652575180151581036116525790565b91908203918211611b6c57565b634e487b7160e01b5f52601160045260245ffd5b60ff60085416611b8c57565b60405163d93c066560e01b8152600490fd5b5f8181526002602090815260408083205490939192906001600160a01b031615611ec557818152600b8352838120845181549093918484611bde846117f1565b928383526001948986821691825f14611ea5575050600114611e67575b50611c08925003856116fe565b8551938391600a9182549387611c1d866117f1565b918282528a8201968b86821691825f14611e4c575050600114611df3575b611c47925003886116fe565b865115611de7578051611de75750849390817a184f03e93ff9f4daa797ed6e38ed64bf6a1f0100000000000000008181811015611dda575b50508390896d04ee2d6d415b85acef810000000080831015611dce575b5050662386f26fc1000080821015611dc1575b506305f5e10080821015611db4575b5061271080821015611da7575b506064811015611d99575b1015611d90575b9081602186611d06838d9901611cfe611cf582611720565b9a519a8b6116fe565b808a52611720565b888c019990601f1901368b3750870101905b611d5b575b5050505090611d4f61178d95949392611d4097519788955180928888019061166c565b8401915180938684019061166c565b010380845201826116fe565b5f19019083906f181899199a1a9b1b9c1cb0b131b232b360811b8282061a835304918215611d8b57919082611d18565b611d1d565b80940193611cdd565b606460029104960195611cd6565b600491049601955f611ccb565b600891049601955f611cbe565b601091049601955f611caf565b9701969004895f611c9c565b8b9750049050835f611c7f565b97505050505050505090565b5050838752878988857fc65a7bb8d6351c1cf70c95a316cc6a92839c986682d98bc35f958f4883f9d2a85b858310611e34575050611c479350820101611c3b565b90919383858354920101520191018a90858b93611e1e565b60ff19168952611c4794151560051b8401019150611c3b9050565b915050845284868086208487915b858310611e8c575050611c0893508201015f611bfb565b80919294505483858b0101520191018790848893611e75565b60ff191685820152611c0895151560051b85010192505f9150611bfb9050565b835163674dd4d360e01b8152600490fd5b91905f90838252602091601283528260409560ff8784205416611fe357600c54875163430c208160e01b81526001600160a01b03958616600482015260248101929092529293909283916044918391165afa908115611fd9578291611fbc575b5015611f985760ff60085416611f6e57506a43616e207570677261646560a81b6001935191611f64836116e2565b600b835282015290565b6e10dbdb9d1c9858dd081c185d5cd959608a1b90935191611f8e836116e2565b600f835282015290565b682737ba1037bbb732b960b91b90935191611fb2836116e2565b6009835282015290565b611fd39150833d85116108785761086a81836116fe565b5f611f36565b85513d84823e3d90fd5b50506f105b1c9958591e481d5c19dc9859195960821b9150935191612007836116e2565b601083528201529056fea26469706673582212206894bfdbb0d18224a4a0b68ec0c6af3494238f2f35c2d8ca57dbd72d3f647d2764736f6c63430008140033","linkReferences":{}},"methodIdentifiers":{"BASIS_POINTS()":"e1f1c4a7","approve(address,uint256)":"095ea7b3","balanceOf(address)":"70a08231","basicMerchContract()":"73bba591","canUpgradeSBT(uint256,address)":"062988d7","emergencyWithdraw()":"db2e21bc","getApproved(uint256)":"081812fc","getBalance()":"12065fe0","getCurrentTokenId()":"56189236","getPremiumTokenId(uint256)":"6e8be04b","isApprovedForAll(address,address)":"e985e9c5","isSBTUpgraded(uint256)":"75750337","name()":"06fdde03","organizerSplit()":"e5ac4fb4","owner()":"8da5cb5b","ownerOf(uint256)":"6352211e","pause()":"8456cb59","paused()":"5c975abb","renounceOwnership()":"715018a6","safeTransferFrom(address,address,uint256)":"42842e0e","safeTransferFrom(address,address,uint256,bytes)":"b88d4fde","sbtToPremiumMapping(uint256)":"150d9970","setApprovalForAll(address,bool)":"a22cb465","setBaseURI(string)":"55f804b3","setBasicMerchContract(address)":"8c4ee01c","setFeeSplit(uint256,uint256)":"7e6335c7","setTokenURI(uint256,string)":"162094c4","setTreasury(address)":"f0f44260","setUpgradeFee(uint256)":"bae18ac3","supportsInterface(bytes4)":"01ffc9a7","symbol()":"95d89b41","tokenURI(uint256)":"c87b56dd","transferFrom(address,address,uint256)":"23b872dd","transferOwnership(address)":"f2fde38b","treasury()":"61d027b3","treasurySplit()":"103e9dc0","unpause()":"3f4ba83a","upgradeFee()":"40fa61f7","upgradeSBT(uint256,address,address)":"e78d65df","upgradedSBTs(uint256)":"ea3a267f"},"id":39}