{"abi":[{"type":"constructor","inputs":[{"name":"name","type":"string","internalType":"string"},{"name":"symbol","type":"string","internalType":"string"},{"name":"_basicMerchContract","type":"address","internalType":"address"},{"name":"_treasury","type":"address","internalType":"address"},{"name":"_upgradeFee","type":"uint256","internalType":"uint256"}],"stateMutability":"nonpayable"},{"type":"function","name":"BASIS_POINTS","inputs":[],"outputs":[{"name":"","type":"uint256","internalType":"uint256"}],"stateMutability":"view"},{"type":"function","name":"approve","inputs":[{"name":"to","type":"address","internalType":"address"},{"name":"tokenId","type":"uint256","internalType":"uint256"}],"outputs":[],"stateMutability":"nonpayable"},{"type":"function","name":"balanceOf","inputs":[{"name":"owner","type":"address","internalType":"address"}],"outputs":[{"name":"","type":"uint256","internalType":"uint256"}],"stateMutability":"view"},{"type":"function","name":"basicMerchContract","inputs":[],"outputs":[{"name":"","type":"address","internalType":"contract BasicMerch"}],"stateMutability":"view"},{"type":"function","name":"canMintCompanion","inputs":[{"name":"_sbtId","type":"uint256","internalType":"uint256"},{"name":"_user","type":"address","internalType":"address"}],"outputs":[{"name":"","type":"bool","internalType":"bool"},{"name":"","type":"string","internalType":"string"}],"stateMutability":"view"},{"type":"function","name":"emergencyWithdraw","inputs":[],"outputs":[],"stateMutability":"nonpayable"},{"type":"function","name":"getApproved","inputs":[{"name":"tokenId","type":"uint256","internalType":"uint256"}],"outputs":[{"name":"","type":"address","internalType":"address"}],"stateMutability":"view"},{"type":"function","name":"getBalance","inputs":[],"outputs":[{"name":"","type":"uint256","internalType":"uint256"}],"stateMutability":"view"},{"type":"function","name":"getCurrentTokenId","inputs":[],"outputs":[{"name":"","type":"uint256","internalType":"uint256"}],"stateMutability":"view"},{"type":"function","name":"getPremiumTokenId","inputs":[{"name":"_sbtId","type":"uint256","internalType":"uint256"}],"outputs":[{"name":"","type":"uint256","internalType":"uint256"}],"stateMutability":"view"},{"type":"function","name":"isApprovedForAll","inputs":[{"name":"owner","type":"address","internalType":"address"},{"name":"operator","type":"address","internalType":"address"}],"outputs":[{"name":"","type":"bool","internalType":"bool"}],"stateMutability":"view"},{"type":"function","name":"isSBTUsedForCompanion","inputs":[{"name":"_sbtId","type":"uint256","internalType":"uint256"}],"outputs":[{"name":"","type":"bool","internalType":"bool"}],"stateMutability":"view"},{"type":"function","name":"mintCompanion","inputs":[{"name":"_sbtId","type":"uint256","internalType":"uint256"},{"name":"_organizer","type":"address","internalType":"address"},{"name":"_upgrader","type":"address","internalType":"address"}],"outputs":[],"stateMutability":"payable"},{"type":"function","name":"name","inputs":[],"outputs":[{"name":"","type":"string","internalType":"string"}],"stateMutability":"view"},{"type":"function","name":"organizerSplit","inputs":[],"outputs":[{"name":"","type":"uint256","internalType":"uint256"}],"stateMutability":"view"},{"type":"function","name":"owner","inputs":[],"outputs":[{"name":"","type":"address","internalType":"address"}],"stateMutability":"view"},{"type":"function","name":"ownerOf","inputs":[{"name":"tokenId","type":"uint256","internalType":"uint256"}],"outputs":[{"name":"","type":"address","internalType":"address"}],"stateMutability":"view"},{"type":"function","name":"pause","inputs":[],"outputs":[],"stateMutability":"nonpayable"},{"type":"function","name":"paused","inputs":[],"outputs":[{"name":"","type":"bool","internalType":"bool"}],"stateMutability":"view"},{"type":"function","name":"renounceOwnership","inputs":[],"outputs":[],"stateMutability":"nonpayable"},{"type":"function","name":"safeTransferFrom","inputs":[{"name":"from","type":"address","internalType":"address"},{"name":"to","type":"address","internalType":"address"},{"name":"tokenId","type":"uint256","internalType":"uint256"}],"outputs":[],"stateMutability":"nonpayable"},{"type":"function","name":"safeTransferFrom","inputs":[{"name":"from","type":"address","internalType":"address"},{"name":"to","type":"address","internalType":"address"},{"name":"tokenId","type":"uint256","internalType":"uint256"},{"name":"data","type":"bytes","internalType":"bytes"}],"outputs":[],"stateMutability":"nonpayable"},{"type":"function","name":"sbtToPremiumMapping","inputs":[{"name":"","type":"uint256","internalType":"uint256"}],"outputs":[{"name":"","type":"uint256","internalType":"uint256"}],"stateMutability":"view"},{"type":"function","name":"setApprovalForAll","inputs":[{"name":"operator","type":"address","internalType":"address"},{"name":"approved","type":"bool","internalType":"bool"}],"outputs":[],"stateMutability":"nonpayable"},{"type":"function","name":"setBaseURI","inputs":[{"name":"_uri","type":"string","internalType":"string"}],"outputs":[],"stateMutability":"nonpayable"},{"type":"function","name":"setBasicMerchContract","inputs":[{"name":"_basicMerchContract","type":"address","internalType":"address"}],"outputs":[],"stateMutability":"nonpayable"},{"type":"function","name":"setFeeSplit","inputs":[{"name":"_treasurySplit","type":"uint256","internalType":"uint256"},{"name":"_organizerSplit","type":"uint256","internalType":"uint256"}],"outputs":[],"stateMutability":"nonpayable"},{"type":"function","name":"setTokenURI","inputs":[{"name":"_tokenId","type":"uint256","internalType":"uint256"},{"name":"_tokenURI","type":"string","internalType":"string"}],"outputs":[],"stateMutability":"nonpayable"},{"type":"function","name":"setTreasury","inputs":[{"name":"_newTreasury","type":"address","internalType":"address"}],"outputs":[],"stateMutability":"nonpayable"},{"type":"function","name":"setUpgradeFee","inputs":[{"name":"_newFee","type":"uint256","internalType":"uint256"}],"outputs":[],"stateMutability":"nonpayable"},{"type":"function","name":"supportsInterface","inputs":[{"name":"interfaceId","type":"bytes4","internalType":"bytes4"}],"outputs":[{"name":"","type":"bool","internalType":"bool"}],"stateMutability":"view"},{"type":"function","name":"symbol","inputs":[],"outputs":[{"name":"","type":"string","internalType":"string"}],"stateMutability":"view"},{"type":"function","name":"tokenURI","inputs":[{"name":"tokenId","type":"uint256","internalType":"uint256"}],"outputs":[{"name":"","type":"string","internalType":"string"}],"stateMutability":"view"},{"type":"function","name":"transferFrom","inputs":[{"name":"from","type":"address","internalType":"address"},{"name":"to","type":"address","internalType":"address"},{"name":"tokenId","type":"uint256","internalType":"uint256"}],"outputs":[],"stateMutability":"nonpayable"},{"type":"function","name":"transferOwnership","inputs":[{"name":"newOwner","type":"address","internalType":"address"}],"outputs":[],"stateMutability":"nonpayable"},{"type":"function","name":"treasury","inputs":[],"outputs":[{"name":"","type":"address","internalType":"address"}],"stateMutability":"view"},{"type":"function","name":"treasurySplit","inputs":[],"outputs":[{"name":"","type":"uint256","internalType":"uint256"}],"stateMutability":"view"},{"type":"function","name":"unpause","inputs":[],"outputs":[],"stateMutability":"nonpayable"},{"type":"function","name":"upgradeFee","inputs":[],"outputs":[{"name":"","type":"uint256","internalType":"uint256"}],"stateMutability":"view"},{"type":"function","name":"upgradedSBTs","inputs":[{"name":"","type":"uint256","internalType":"uint256"}],"outputs":[{"name":"","type":"bool","internalType":"bool"}],"stateMutability":"view"},{"type":"event","name":"Approval","inputs":[{"name":"owner","type":"address","indexed":true,"internalType":"address"},{"name":"approved","type":"address","indexed":true,"internalType":"address"},{"name":"tokenId","type":"uint256","indexed":true,"internalType":"uint256"}],"anonymous":false},{"type":"event","name":"ApprovalForAll","inputs":[{"name":"owner","type":"address","indexed":true,"internalType":"address"},{"name":"operator","type":"address","indexed":true,"internalType":"address"},{"name":"approved","type":"bool","indexed":false,"internalType":"bool"}],"anonymous":false},{"type":"event","name":"BaseURISet","inputs":[{"name":"newBaseURI","type":"string","indexed":false,"internalType":"string"}],"anonymous":false},{"type":"event","name":"CompanionMinted","inputs":[{"name":"user","type":"address","indexed":true,"internalType":"address"},{"name":"sbtId","type":"uint256","indexed":true,"internalType":"uint256"},{"name":"premiumId","type":"uint256","indexed":true,"internalType":"uint256"},{"name":"fee","type":"uint256","indexed":false,"internalType":"uint256"}],"anonymous":false},{"type":"event","name":"ExcessRefunded","inputs":[{"name":"user","type":"address","indexed":true,"internalType":"address"},{"name":"amount","type":"uint256","indexed":false,"internalType":"uint256"}],"anonymous":false},{"type":"event","name":"FeeDistributed","inputs":[{"name":"organizer","type":"address","indexed":true,"internalType":"address"},{"name":"treasuryAmount","type":"uint256","indexed":false,"internalType":"uint256"},{"name":"organizerAmount","type":"uint256","indexed":false,"internalType":"uint256"}],"anonymous":false},{"type":"event","name":"FeeSplitSet","inputs":[{"name":"treasurySplit","type":"uint256","indexed":false,"internalType":"uint256"},{"name":"organizerSplit","type":"uint256","indexed":false,"internalType":"uint256"}],"anonymous":false},{"type":"event","name":"OwnershipTransferred","inputs":[{"name":"previousOwner","type":"address","indexed":true,"internalType":"address"},{"name":"newOwner","type":"address","indexed":true,"internalType":"address"}],"anonymous":false},{"type":"event","name":"Paused","inputs":[{"name":"account","type":"address","indexed":false,"internalType":"address"}],"anonymous":false},{"type":"event","name":"TokenURISet","inputs":[{"name":"tokenId","type":"uint256","indexed":true,"internalType":"uint256"},{"name":"tokenURI","type":"string","indexed":false,"internalType":"string"}],"anonymous":false},{"type":"event","name":"Transfer","inputs":[{"name":"from","type":"address","indexed":true,"internalType":"address"},{"name":"to","type":"address","indexed":true,"internalType":"address"},{"name":"tokenId","type":"uint256","indexed":true,"internalType":"uint256"}],"anonymous":false},{"type":"event","name":"TreasurySet","inputs":[{"name":"newTreasury","type":"address","indexed":true,"internalType":"address"}],"anonymous":false},{"type":"event","name":"Unpaused","inputs":[{"name":"account","type":"address","indexed":false,"internalType":"address"}],"anonymous":false},{"type":"event","name":"UpgradeFeeSet","inputs":[{"name":"newFee","type":"uint256","indexed":false,"internalType":"uint256"}],"anonymous":false},{"type":"error","name":"ERC721IncorrectOwner","inputs":[{"name":"sender","type":"address","internalType":"address"},{"name":"tokenId","type":"uint256","internalType":"uint256"},{"name":"owner","type":"address","internalType":"address"}]},{"type":"error","name":"ERC721InsufficientApproval","inputs":[{"name":"operator","type":"address","internalType":"address"},{"name":"tokenId","type":"uint256","internalType":"uint256"}]},{"type":"error","name":"ERC721InvalidApprover","inputs":[{"name":"approver","type":"address","internalType":"address"}]},{"type":"error","name":"ERC721InvalidOperator","inputs":[{"name":"operator","type":"address","internalType":"address"}]},{"type":"error","name":"ERC721InvalidOwner","inputs":[{"name":"owner","type":"address","internalType":"address"}]},{"type":"error","name":"ERC721InvalidReceiver","inputs":[{"name":"receiver","type":"address","internalType":"address"}]},{"type":"error","name":"ERC721InvalidSender","inputs":[{"name":"sender","type":"address","internalType":"address"}]},{"type":"error","name":"ERC721NonexistentToken","inputs":[{"name":"tokenId","type":"uint256","internalType":"uint256"}]},{"type":"error","name":"EnforcedPause","inputs":[]},{"type":"error","name":"ExpectedPause","inputs":[]},{"type":"error","name":"InsufficientFee","inputs":[]},{"type":"error","name":"InvalidAddress","inputs":[]},{"type":"error","name":"InvalidFeeSplit","inputs":[]},{"type":"error","name":"NoFundsToWithdraw","inputs":[]},{"type":"error","name":"OwnableInvalidOwner","inputs":[{"name":"owner","type":"address","internalType":"address"}]},{"type":"error","name":"OwnableUnauthorizedAccount","inputs":[{"name":"account","type":"address","internalType":"address"}]},{"type":"error","name":"ReentrancyGuardReentrantCall","inputs":[]},{"type":"error","name":"SBTAlreadyUpgraded","inputs":[]},{"type":"error","name":"SBTDoesNotExist","inputs":[]},{"type":"error","name":"SBTNotOwned","inputs":[]},{"type":"error","name":"TransferFailed","inputs":[]}],"bytecode":{"object":"0x604060808152346200041e57620024bc803803806200001e8162000422565b928339810160a0828203126200041e5781516001600160401b03908181116200041e57826200004f91850162000448565b9160209081850151908382116200041e576200006d91860162000448565b936200007b868201620004b8565b9260806200008c60608401620004b8565b920151958551908282116200040a575f948554926001988985811c95168015620003ff575b83861014620003eb578190601f9586811162000398575b5083908683116001146200033557899262000329575b50505f19600383901b1c191690891b1786555b8151938411620003155787548881811c911680156200030a575b82821014620002f65790818486959493116200029f575b508092841160011462000238575085926200022c575b50505f19600383901b1c191690851b1784555b33156200021457600680546001600160a01b03198082163390811790935588519690956001600160a01b0395869491938516907f8be0079c531659141344cd1fd0a4f28419497f9722a3daafe3b4186f6b6457e09080a38060075560ff19600854166008556009551693841562000205575016918215620001f45781600c541617600c55600e541617600e55600d55610ea6600f5561186a60105551611fee9081620004ce8239f35b845163e6c4247b60e01b8152600490fd5b63e6c4247b60e01b8152600490fd5b8551631e4fbdf760e01b815260048101839052602490fd5b015190505f8062000138565b9190889450601f1984168588528388209388905b8282106200028557505084116200026c575b505050811b0184556200014b565b01515f1960f88460031b161c191690555f80806200025e565b8484015186558b979095019493840193908101906200024c565b90919293508887528187208480870160051c820192848810620002ec575b9187968c92969594930160051c01915b828110620002dd57505062000122565b8981558796508b9101620002cd565b92508192620002bd565b634e487b7160e01b87526022600452602487fd5b90607f16906200010b565b634e487b7160e01b86526041600452602486fd5b015190505f80620000de565b898052848a208c94509190601f1984168b5b8782821062000381575050841162000368575b505050811b018655620000f1565b01515f1960f88460031b161c191690555f80806200035a565b8385015186558f9790950194938401930162000347565b9091508880528389208680850160051c820192868610620003e1575b918d91869594930160051c01915b828110620003d2575050620000c8565b8b81558594508d9101620003c2565b92508192620003b4565b634e487b7160e01b88526022600452602488fd5b94607f1694620000b1565b634e487b7160e01b5f52604160045260245ffd5b5f80fd5b6040519190601f01601f191682016001600160401b038111838210176200040a57604052565b919080601f840112156200041e5782516001600160401b0381116200040a576020906200047e601f8201601f1916830162000422565b928184528282870101116200041e575f5b818110620004a45750825f9394955001015290565b85810183015184820184015282016200048f565b51906001600160a01b03821682036200041e5756fe60806040818152600480361015610014575f80fd5b5f92833560e01c90816301ffc9a7146115635750806306fdde03146114bb578063081812fc14611480578063095ea7b3146113a4578063103e9dc01461138557806312065fe01461136a57806314bcb385146102e4578063150d997014610e0e578063162094c41461118957806323b872dd146111715780633f4ba83a1461110857806340fa61f7146110e957806342842e0e146110ba57806355f804b314610ed25780635618923614610eb35780635c975abb14610e8f57806361d027b314610e665780636352211e14610e355780636e8be04b14610e0e57806370a0823114610db9578063715018a614610d5c57806373bba59114610d3357806377bd591914610cf05780637e6335c714610c4c5780638456cb5914610bf15780638c4ee01c14610ba25780638da5cb5b14610b7957806395d89b4114610a965780639f28c3f31461059d578063a22cb465146104fc578063b88d4fde1461048a578063bae18ac31461043d578063c87b56dd14610402578063db2e21bc1461039e578063e1f1c4a714610381578063e5ac4fb414610362578063e985e9c514610310578063ea3a267f146102e4578063f0f442601461026a5763f2fde38b146101d8575f80fd5b34610266576020366003190112610266576101f1611615565b906101fa611758565b6001600160a01b03918216928315610250575050600654826bffffffffffffffffffffffff60a01b821617600655167f8be0079c531659141344cd1fd0a4f28419497f9722a3daafe3b4186f6b6457e08380a380f35b51631e4fbdf760e01b8152908101849052602490fd5b8280fd5b503461026657602036600319011261026657610284611615565b61028c611758565b6001600160a01b03169182156102d7575050600e80546001600160a01b031916821790557f3c864541ef71378c6229510ed90f376565ee42d9c5e0904a984a9e863e6db44f8280a280f35b5163e6c4247b60e01b8152fd5b5034610266576020366003190112610266578160209360ff923581526012855220541690519015158152f35b50503461035e578060031936011261035e5760ff81602093610330611615565b61033861162f565b6001600160a01b0391821683526005875283832091168252855220549151911615158152f35b5080fd5b50503461035e578160031936011261035e576020906010549051908152f35b50503461035e578160031936011261035e57602090516127108152f35b5090346102665782600319360112610266576103b8611758565b4780156103f45760065484918291829182916001600160a01b03165af16103dd611994565b50156103e7578280f35b516312171d8360e31b8152fd5b50516367e3990d60e01b8152fd5b50913461043a57602036600319011261043a57506104236104369235611b31565b90519182916020835260208301906115f0565b0390f35b80fd5b5034610266576020366003190112610266577f9b139638a940fefdf79187c76a51e818dc05fd488e7d82c3a7f200dac48c5d3291602091359061047e611758565b81600d5551908152a180f35b83823461035e57608036600319011261035e576104a5611615565b6104ad61162f565b6044359060643567ffffffffffffffff81116104f857366023820112156104f8576104f5948160246104e4933693013591016116cf565b926104f08383836117bc565b6119c3565b80f35b8580fd5b509034610266578060031936011261026657610516611615565b9060243591821515809303610599576001600160a01b03169283156105845750338452600560205280842083855260205280842060ff1981541660ff8416179055519081527f17307eab39ab6107e8899845ad3d59bd9653f200f220920489ca2b5937696c3160203392a380f35b836024925191630b61174360e31b8352820152fd5b8480fd5b506060366003190112610266578035906105b561162f565b604435936001600160a01b038086169390848703610a9257600260075414610a835760026007556105e4611b13565b808416918215610a7557600d5494853410610a6757878a526020956012875260ff868c205416610a5757600c54865163430c208160e01b81526001600160a01b038c16858201908152602081018c90529091899183918816908290819060400103915afa908115610a4d578c91610a20575b5015610a10578a818b9234116109af575b508990525060128652848a20805460ff19166001179055600954985f1990818b1461083a5760018b0160095586519161069f83611645565b8c83528915610998578b8a898f8060028e867fddf252ad1be2c89b69c2b068fc378daa952ba7f163c4a11628f55a4df523b3ef94528181528c8584205416948515159889610967575b5086845260038252832080546001019055868352528c812080546001600160a01b0319168517905580a4610950573b61084d575b50878a526011865288858b2055600d54600f5480820290828204148215171561083a57610755949392916127108d920495868092611af2565b948115158061082d575b6107fd575b505090836107d3575b505050838093927f891d4da69faf2cf5f9b5a4bceeeba1909237ad5d6222ebe54fbcab15067f8e68927ffddca31c7739568221bbb7a149efeec13843a46c4ece369dd64404d4fc5c030e97965191825286820152a2600d549051908152a4600160075580f35b81808581935af16107e2611994565b50156107ef57898161076d565b84516312171d8360e31b8152fd5b8280928192600e54165af1610810611994565b501561081e578a845f610764565b5084516312171d8360e31b8152fd5b5080600e5416151561075f565b634e487b7160e01b8c526011845260248cfd5b9161089487899a969594889a8d8f9b9f869f9b51809681958294630a85bd0160e11b9a8b8552339085015284602485015260448401526080606484015260848301906115f0565b03925af188918161090c575b506108d6578b8b8b8b6108b1611994565b805194856108d057505051633250574960e11b81529182015260249150fd5b85925001fd5b63ffffffff60e09c989c9b9495969a99979b1b16036108f5575f61071c565b8451633250574960e11b8152808301889052602490fd5b9091508c81813d8311610949575b6109248183611691565b8101031261094557516001600160e01b03198116810361094557905f6108a0565b8880fd5b503d61091a565b86516339e3563760e11b81528085018d9052602490fd5b5f89815260046020526040902080546001600160a01b0319169055868552600383528185209081540190555f6106e8565b8751633250574960e11b81528086018e9052602490fd5b81806109bc819334611af2565b80955af16109c8611994565b5015610a00577f2c003babc9bab745cd44b6d4ba45ddf77bdbda4a59d52e1fc805dfb0d8895c7e8789928851908152a2888a5f610667565b85516312171d8360e31b81528390fd5b8551630ea194ef60e11b81528390fd5b610a409150883d8a11610a46575b610a388183611691565b810190611ada565b5f610656565b503d610a2e565b87513d8e823e3d90fd5b8551631ec7180560e31b81528390fd5b50835162976f7560e21b8152fd5b835163e6c4247b60e01b8152fd5b509051633ee5aeb560e01b8152fd5b8780fd5b50503461035e578160031936011261035e57805190826001805491610aba83611784565b80865292828116908115610b515750600114610af5575b505050610ae382610436940383611691565b519182916020835260208301906115f0565b94508085527fb10e2d527612073b26eecdfd717e6a320cf44b4afac2b0732d9fcbe2b7fa0cf65b828610610b3957505050610ae38260206104369582010194610ad1565b80546020878701810191909152909501948101610b1c565b610436975086935060209250610ae394915060ff191682840152151560051b82010194610ad1565b50503461035e578160031936011261035e5760065490516001600160a01b039091168152602090f35b503461026657602036600319011261026657610bbc611615565b610bc4611758565b6001600160a01b03169182156102d75750506bffffffffffffffffffffffff60a01b600c541617600c5580f35b50503461035e578160031936011261035e5760207f62e78cea01bee320cd4e420270b5ea74000d11b0c9f74754ebdbfc544b05a25891610c2f611758565b610c37611b13565b600160ff19600854161760085551338152a180f35b5091903461035e578060031936011261035e578235602435610c6c611758565b808201808311610cdd5761271003610cc55781158015610cd5575b610cc5577f73f47330dbb335fc9891ea52c4d46cce63b1c1c0ed7743545c99183134c5de1493945081600f558060105582519182526020820152a180f35b8251630601f69760e01b81528590fd5b508015610c87565b634e487b7160e01b855260118652602485fd5b50823461043a578260031936011261043a5750610d1961043691610d1261162f565b9035611e69565b8392919251938493151584528060208501528301906115f0565b50503461035e578160031936011261035e57600c5490516001600160a01b039091168152602090f35b833461043a578060031936011261043a57610d75611758565b600680546001600160a01b0319811690915581906001600160a01b03167f8be0079c531659141344cd1fd0a4f28419497f9722a3daafe3b4186f6b6457e08280a380f35b50913461043a57602036600319011261043a576001600160a01b03610ddc611615565b16928315610df95750806020938392526003845220549051908152f35b91516322718ad960e21b815291820152602490fd5b50346102665760203660031901126102665760209282913581526011845220549051908152f35b50913461043a57602036600319011261043a5750610e556020923561195a565b90516001600160a01b039091168152f35b50503461035e578160031936011261035e57600e5490516001600160a01b039091168152602090f35b50503461035e578160031936011261035e5760209060ff6008541690519015158152f35b50503461035e578160031936011261035e576020906009549051908152f35b5082903461035e57602092836003193601126102665767ffffffffffffffff823581811161059957610f079036908501611705565b92610f10611758565b83519182116110a75750610f25600a54611784565b601f8111611045575b5084601f8211600114610fa0579181610f8f928697947ff9c7803e94e0d3c02900d8a90893a6d5e90dd04d32a4cfe825520f82bf9f32f69791610f95575b508160011b915f199060031b1c191617600a555b519282849384528301906115f0565b0390a180f35b905085015188610f6c565b600a85527fc65a7bb8d6351c1cf70c95a316cc6a92839c986682d98bc35f958f4883f9d2a890601f198316865b81811061102e5750927ff9c7803e94e0d3c02900d8a90893a6d5e90dd04d32a4cfe825520f82bf9f32f69697949260019282610f8f9610611016575b5050811b01600a55610f80565b8701515f1960f88460031b161c191690558880611009565b91928860018192868a015181550194019201610fcd565b600a85527fc65a7bb8d6351c1cf70c95a316cc6a92839c986682d98bc35f958f4883f9d2a8601f830160051c81019187841061109d575b601f0160051c01905b8181106110925750610f2e565b858155600101611085565b909150819061107c565b634e487b7160e01b855260419052602484fd5b50503461035e576104f5906110ce36611723565b919251926110db84611645565b8584526104f08383836117bc565b50503461035e578160031936011261035e57602090600d549051908152f35b5034610266578260031936011261026657611121611758565b6008549060ff821615611163575060ff1916600855513381527f5db9ee0a495bf2e6ff9c91a7834c1ba4fdd244a5e8aa4e537bd38aeae4b073aa90602090a180f35b8251638dfc202b60e01b8152fd5b833461043a576104f561118336611723565b916117bc565b503461026657816003193601126102665780359167ffffffffffffffff906024358281116104f8576111be9036908501611705565b926111c7611758565b84865260026020908152828720549093906001600160a01b03161561135b57858752600b845282872091855191821161134857506112058254611784565b601f8111611305575b5083601f821160011461127f5791817fda84ca2183491f179a603e877b2cb058e42195041c2b9c53d746427e519a34df9695949261126e948a91611274575b508160011b915f199060031b1c1916179055519282849384528301906115f0565b0390a280f35b90508601515f61124d565b82885284882090601f198316895b8181106112ee57509261126e9492600192827fda84ca2183491f179a603e877b2cb058e42195041c2b9c53d746427e519a34df9a999896106112d6575b5050811b019055610f80565b8801515f1960f88460031b161c191690555f806112ca565b91928760018192868c01518155019401920161128d565b828852848820601f830160051c81019186841061133e575b601f0160051c01905b818110611333575061120e565b888155600101611326565b909150819061131d565b634e487b7160e01b885260419052602487fd5b50905163674dd4d360e01b8152fd5b50503461035e578160031936011261035e5751478152602090f35b50503461035e578160031936011261035e57602090600f549051908152f35b5090346102665780600319360112610266576113be611615565b916024356113cb8161195a565b3315158061146d575b80611444575b61142e576001600160a01b039485169482918691167f8c5be1e5ebec7d5bd14f71427d1e84f3dd0314c0f7b2291e5b200ac8c7c3b9258880a48452602052822080546001600160a01b031916909117905580f35b835163a9fbf51f60e01b81523381850152602490fd5b506001600160a01b03811686526005602090815284872033885290528386205460ff16156113da565b506001600160a01b0381163314156113d4565b5034610266576020366003190112610266579182602093356114a18161195a565b50825283528190205490516001600160a01b039091168152f35b50503461035e578160031936011261035e578051908280546114dc81611784565b80855291600191808316908115610b51575060011461150757505050610ae382610436940383611691565b80809650527f290decd9548b62a8d60345a988386fc84ba6bc95484008f6362f93160ef3e5635b82861061154b57505050610ae38260206104369582010194610ad1565b8054602087870181019190915290950194810161152e565b92505034610266576020366003190112610266573563ffffffff60e01b811680910361026657602092506380ac58cd60e01b81149081156115be575b81156115ad575b5015158152f35b6301ffc9a760e01b1490505f6115a6565b635b5e139f60e01b8114915061159f565b5f5b8381106115e05750505f910152565b81810151838201526020016115d1565b90602091611609815180928185528580860191016115cf565b601f01601f1916010190565b600435906001600160a01b038216820361162b57565b5f80fd5b602435906001600160a01b038216820361162b57565b6020810190811067ffffffffffffffff82111761166157604052565b634e487b7160e01b5f52604160045260245ffd5b6040810190811067ffffffffffffffff82111761166157604052565b90601f8019910116810190811067ffffffffffffffff82111761166157604052565b67ffffffffffffffff811161166157601f01601f191660200190565b9291926116db826116b3565b916116e96040519384611691565b82948184528183011161162b578281602093845f960137010152565b9080601f8301121561162b57816020611720933591016116cf565b90565b606090600319011261162b576001600160a01b0390600435828116810361162b5791602435908116810361162b579060443590565b6006546001600160a01b0316330361176c57565b60405163118cdaa760e01b8152336004820152602490fd5b90600182811c921680156117b2575b602083101461179e57565b634e487b7160e01b5f52602260045260245ffd5b91607f1691611793565b6001600160a01b039182169290918315611942575f928284528260209560028752604096848888205416968791331515806118a9575b509060027fddf252ad1be2c89b69c2b068fc378daa952ba7f163c4a11628f55a4df523b3ef9284611878575b858352600381528b8320805460010190558683525289812080546001600160a01b0319168517905580a416928383036118575750505050565b6064945051926364283d7b60e01b8452600484015260248301526044820152fd5b5f87815260046020526040902080546001600160a01b0319169055848352600381528b832080545f1901905561181e565b91939450915080611901575b156118c55785929187915f6117f2565b8786886118e2576024915190637e27328960e01b82526004820152fd5b905163177e802f60e01b81523360048201526024810191909152604490fd5b503387148015611926575b806118b557508582526004815233858984205416146118b5565b5086825260058152878220338352815260ff888320541661190c565b604051633250574960e11b81525f6004820152602490fd5b5f818152600260205260409020546001600160a01b031690811561197c575090565b60249060405190637e27328960e01b82526004820152fd5b3d156119be573d906119a5826116b3565b916119b36040519384611691565b82523d5f602084013e565b606090565b9190803b6119d2575b50505050565b611a1460018060a01b0380921694604051938493630a85bd0160e11b9687865233600487015216602485015260448401526080606484015260848301906115f0565b03906020815f938185885af190829082611a92575b5050611a615782611a38611994565b8051919082611a5a57604051633250574960e11b815260048101839052602490fd5b9050602001fd5b6001600160e01b03191603611a7a57505f8080806119cc565b60249060405190633250574960e11b82526004820152fd5b909192506020813d8211611ad2575b81611aae60209383611691565b8101031261035e5751906001600160e01b03198216820361043a5750905f80611a29565b3d9150611aa1565b9081602091031261162b5751801515810361162b5790565b91908203918211611aff57565b634e487b7160e01b5f52601160045260245ffd5b60ff60085416611b1f57565b60405163d93c066560e01b8152600490fd5b5f8181526002602090815260408083205490939192906001600160a01b031615611e5857818152600b8352838120845181549093918484611b7184611784565b928383526001948986821691825f14611e38575050600114611dfa575b50611b9b92500385611691565b8551938391600a9182549387611bb086611784565b918282528a8201968b86821691825f14611ddf575050600114611d86575b611bda92500388611691565b865115611d7a578051611d7a5750849390817a184f03e93ff9f4daa797ed6e38ed64bf6a1f0100000000000000008181811015611d6d575b50508390896d04ee2d6d415b85acef810000000080831015611d61575b5050662386f26fc1000080821015611d54575b506305f5e10080821015611d47575b5061271080821015611d3a575b506064811015611d2c575b1015611d23575b9081602186611c99838d9901611c91611c88826116b3565b9a519a8b611691565b808a526116b3565b888c019990601f1901368b3750870101905b611cee575b5050505090611ce261172095949392611cd39751978895518092888801906115cf565b840191518093868401906115cf565b01038084520182611691565b5f19019083906f181899199a1a9b1b9c1cb0b131b232b360811b8282061a835304918215611d1e57919082611cab565b611cb0565b80940193611c70565b606460029104960195611c69565b600491049601955f611c5e565b600891049601955f611c51565b601091049601955f611c42565b9701969004895f611c2f565b8b9750049050835f611c12565b97505050505050505090565b5050838752878988857fc65a7bb8d6351c1cf70c95a316cc6a92839c986682d98bc35f958f4883f9d2a85b858310611dc7575050611bda9350820101611bce565b90919383858354920101520191018a90858b93611db1565b60ff19168952611bda94151560051b8401019150611bce9050565b915050845284868086208487915b858310611e1f575050611b9b93508201015f611b8e565b80919294505483858b0101520191018790848893611e08565b60ff191685820152611b9b95151560051b85010192505f9150611b8e9050565b835163674dd4d360e01b8152600490fd5b91905f90838252602091601283528260409560ff8784205416611f7d57600c54875163430c208160e01b81526001600160a01b03958616600482015260248101929092529293909283916044918391165afa908115611f73578291611f56575b5015611f325760ff60085416611f0857507121b0b71036b4b73a1031b7b6b830b734b7b760711b6001935191611efe83611675565b6012835282015290565b6e10dbdb9d1c9858dd081c185d5cd959608a1b90935191611f2883611675565b600f835282015290565b682737ba1037bbb732b960b91b90935191611f4c83611675565b6009835282015290565b611f6d9150833d8511610a4657610a388183611691565b5f611ec9565b85513d84823e3d90fd5b50507f416c7265616479207573656420666f7220636f6d70616e696f6e0000000000009150935191611fae83611675565b601a83528201529056fea26469706673582212202bd91375eedc2c912d16051618521bfb8371069aa8c20ede18edef3adb7ebe1364736f6c63430008140033","linkReferences":{}},"methodIdentifiers":{"BASIS_POINTS()":"e1f1c4a7","approve(address,uint256)":"095ea7b3","balanceOf(address)":"70a08231","basicMerchContract()":"73bba591","canMintCompanion(uint256,address)":"77bd5919","emergencyWithdraw()":"db2e21bc","getApproved(uint256)":"081812fc","getBalance()":"12065fe0","getCurrentTokenId()":"56189236","getPremiumTokenId(uint256)":"6e8be04b","isApprovedForAll(address,address)":"e985e9c5","isSBTUsedForCompanion(uint256)":"14bcb385","mintCompanion(uint256,address,address)":"9f28c3f3","name()":"06fdde03","organizerSplit()":"e5ac4fb4","owner()":"8da5cb5b","ownerOf(uint256)":"6352211e","pause()":"8456cb59","paused()":"5c975abb","renounceOwnership()":"715018a6","safeTransferFrom(address,address,uint256)":"42842e0e","safeTransferFrom(address,address,uint256,bytes)":"b88d4fde","sbtToPremiumMapping(uint256)":"150d9970","setApprovalForAll(address,bool)":"a22cb465","setBaseURI(string)":"55f804b3","setBasicMerchContract(address)":"8c4ee01c","setFeeSplit(uint256,uint256)":"7e6335c7","setTokenURI(uint256,string)":"162094c4","setTreasury(address)":"f0f44260","setUpgradeFee(uint256)":"bae18ac3","supportsInterface(bytes4)":"01ffc9a7","symbol()":"95d89b41","tokenURI(uint256)":"c87b56dd","transferFrom(address,address,uint256)":"23b872dd","transferOwnership(address)":"f2fde38b","treasury()":"61d027b3","treasurySplit()":"103e9dc0","unpause()":"3f4ba83a","upgradeFee()":"40fa61f7","upgradedSBTs(uint256)":"ea3a267f"},"id":39}