{"abi":[{"type":"constructor","inputs":[{"name":"name","type":"string","internalType":"string"},{"name":"symbol","type":"string","internalType":"string"},{"name":"_basicMerchContract","type":"address","internalType":"address"},{"name":"_treasury","type":"address","internalType":"address"},{"name":"_upgradeFee","type":"uint256","internalType":"uint256"}],"stateMutability":"nonpayable"},{"type":"function","name":"BASIS_POINTS","inputs":[],"outputs":[{"name":"","type":"uint256","internalType":"uint256"}],"stateMutability":"view"},{"type":"function","name":"approve","inputs":[{"name":"to","type":"address","internalType":"address"},{"name":"tokenId","type":"uint256","internalType":"uint256"}],"outputs":[],"stateMutability":"nonpayable"},{"type":"function","name":"balanceOf","inputs":[{"name":"owner","type":"address","internalType":"address"}],"outputs":[{"name":"","type":"uint256","internalType":"uint256"}],"stateMutability":"view"},{"type":"function","name":"basicMerchContract","inputs":[],"outputs":[{"name":"","type":"address","internalType":"contract BasicMerch"}],"stateMutability":"view"},{"type":"function","name":"emergencyWithdraw","inputs":[],"outputs":[],"stateMutability":"nonpayable"},{"type":"function","name":"getApproved","inputs":[{"name":"tokenId","type":"uint256","internalType":"uint256"}],"outputs":[{"name":"","type":"address","internalType":"address"}],"stateMutability":"view"},{"type":"function","name":"getBalance","inputs":[],"outputs":[{"name":"","type":"uint256","internalType":"uint256"}],"stateMutability":"view"},{"type":"function","name":"getCurrentTokenId","inputs":[],"outputs":[{"name":"","type":"uint256","internalType":"uint256"}],"stateMutability":"view"},{"type":"function","name":"getPremiumTokenId","inputs":[{"name":"_sbtId","type":"uint256","internalType":"uint256"}],"outputs":[{"name":"","type":"uint256","internalType":"uint256"}],"stateMutability":"view"},{"type":"function","name":"isApprovedForAll","inputs":[{"name":"owner","type":"address","internalType":"address"},{"name":"operator","type":"address","internalType":"address"}],"outputs":[{"name":"","type":"bool","internalType":"bool"}],"stateMutability":"view"},{"type":"function","name":"isSBTUpgraded","inputs":[{"name":"_sbtId","type":"uint256","internalType":"uint256"}],"outputs":[{"name":"","type":"bool","internalType":"bool"}],"stateMutability":"view"},{"type":"function","name":"name","inputs":[],"outputs":[{"name":"","type":"string","internalType":"string"}],"stateMutability":"view"},{"type":"function","name":"organizerSplit","inputs":[],"outputs":[{"name":"","type":"uint256","internalType":"uint256"}],"stateMutability":"view"},{"type":"function","name":"owner","inputs":[],"outputs":[{"name":"","type":"address","internalType":"address"}],"stateMutability":"view"},{"type":"function","name":"ownerOf","inputs":[{"name":"tokenId","type":"uint256","internalType":"uint256"}],"outputs":[{"name":"","type":"address","internalType":"address"}],"stateMutability":"view"},{"type":"function","name":"pause","inputs":[],"outputs":[],"stateMutability":"nonpayable"},{"type":"function","name":"paused","inputs":[],"outputs":[{"name":"","type":"bool","internalType":"bool"}],"stateMutability":"view"},{"type":"function","name":"renounceOwnership","inputs":[],"outputs":[],"stateMutability":"nonpayable"},{"type":"function","name":"safeTransferFrom","inputs":[{"name":"from","type":"address","internalType":"address"},{"name":"to","type":"address","internalType":"address"},{"name":"tokenId","type":"uint256","internalType":"uint256"}],"outputs":[],"stateMutability":"nonpayable"},{"type":"function","name":"safeTransferFrom","inputs":[{"name":"from","type":"address","internalType":"address"},{"name":"to","type":"address","internalType":"address"},{"name":"tokenId","type":"uint256","internalType":"uint256"},{"name":"data","type":"bytes","internalType":"bytes"}],"outputs":[],"stateMutability":"nonpayable"},{"type":"function","name":"sbtToPremiumMapping","inputs":[{"name":"","type":"uint256","internalType":"uint256"}],"outputs":[{"name":"","type":"uint256","internalType":"uint256"}],"stateMutability":"view"},{"type":"function","name":"setApprovalForAll","inputs":[{"name":"operator","type":"address","internalType":"address"},{"name":"approved","type":"bool","internalType":"bool"}],"outputs":[],"stateMutability":"nonpayable"},{"type":"function","name":"setBaseURI","inputs":[{"name":"_uri","type":"string","internalType":"string"}],"outputs":[],"stateMutability":"nonpayable"},{"type":"function","name":"setBasicMerchContract","inputs":[{"name":"_basicMerchContract","type":"address","internalType":"address"}],"outputs":[],"stateMutability":"nonpayable"},{"type":"function","name":"setFeeSplit","inputs":[{"name":"_treasurySplit","type":"uint256","internalType":"uint256"},{"name":"_organizerSplit","type":"uint256","internalType":"uint256"}],"outputs":[],"stateMutability":"nonpayable"},{"type":"function","name":"setTreasury","inputs":[{"name":"_newTreasury","type":"address","internalType":"address"}],"outputs":[],"stateMutability":"nonpayable"},{"type":"function","name":"setUpgradeFee","inputs":[{"name":"_newFee","type":"uint256","internalType":"uint256"}],"outputs":[],"stateMutability":"nonpayable"},{"type":"function","name":"supportsInterface","inputs":[{"name":"interfaceId","type":"bytes4","internalType":"bytes4"}],"outputs":[{"name":"","type":"bool","internalType":"bool"}],"stateMutability":"view"},{"type":"function","name":"symbol","inputs":[],"outputs":[{"name":"","type":"string","internalType":"string"}],"stateMutability":"view"},{"type":"function","name":"tokenURI","inputs":[{"name":"tokenId","type":"uint256","internalType":"uint256"}],"outputs":[{"name":"","type":"string","internalType":"string"}],"stateMutability":"view"},{"type":"function","name":"transferFrom","inputs":[{"name":"from","type":"address","internalType":"address"},{"name":"to","type":"address","internalType":"address"},{"name":"tokenId","type":"uint256","internalType":"uint256"}],"outputs":[],"stateMutability":"nonpayable"},{"type":"function","name":"transferOwnership","inputs":[{"name":"newOwner","type":"address","internalType":"address"}],"outputs":[],"stateMutability":"nonpayable"},{"type":"function","name":"treasury","inputs":[],"outputs":[{"name":"","type":"address","internalType":"address"}],"stateMutability":"view"},{"type":"function","name":"treasurySplit","inputs":[],"outputs":[{"name":"","type":"uint256","internalType":"uint256"}],"stateMutability":"view"},{"type":"function","name":"unpause","inputs":[],"outputs":[],"stateMutability":"nonpayable"},{"type":"function","name":"upgradeFee","inputs":[],"outputs":[{"name":"","type":"uint256","internalType":"uint256"}],"stateMutability":"view"},{"type":"function","name":"upgradeSBT","inputs":[{"name":"_sbtId","type":"uint256","internalType":"uint256"},{"name":"_organizer","type":"address","internalType":"address"}],"outputs":[],"stateMutability":"payable"},{"type":"function","name":"upgradedSBTs","inputs":[{"name":"","type":"uint256","internalType":"uint256"}],"outputs":[{"name":"","type":"bool","internalType":"bool"}],"stateMutability":"view"},{"type":"event","name":"Approval","inputs":[{"name":"owner","type":"address","indexed":true,"internalType":"address"},{"name":"approved","type":"address","indexed":true,"internalType":"address"},{"name":"tokenId","type":"uint256","indexed":true,"internalType":"uint256"}],"anonymous":false},{"type":"event","name":"ApprovalForAll","inputs":[{"name":"owner","type":"address","indexed":true,"internalType":"address"},{"name":"operator","type":"address","indexed":true,"internalType":"address"},{"name":"approved","type":"bool","indexed":false,"internalType":"bool"}],"anonymous":false},{"type":"event","name":"BaseURISet","inputs":[{"name":"newBaseURI","type":"string","indexed":false,"internalType":"string"}],"anonymous":false},{"type":"event","name":"FeeDistributed","inputs":[{"name":"organizer","type":"address","indexed":true,"internalType":"address"},{"name":"treasuryAmount","type":"uint256","indexed":false,"internalType":"uint256"},{"name":"organizerAmount","type":"uint256","indexed":false,"internalType":"uint256"}],"anonymous":false},{"type":"event","name":"FeeSplitSet","inputs":[{"name":"treasurySplit","type":"uint256","indexed":false,"internalType":"uint256"},{"name":"organizerSplit","type":"uint256","indexed":false,"internalType":"uint256"}],"anonymous":false},{"type":"event","name":"OwnershipTransferred","inputs":[{"name":"previousOwner","type":"address","indexed":true,"internalType":"address"},{"name":"newOwner","type":"address","indexed":true,"internalType":"address"}],"anonymous":false},{"type":"event","name":"Paused","inputs":[{"name":"account","type":"address","indexed":false,"internalType":"address"}],"anonymous":false},{"type":"event","name":"SBTUpgraded","inputs":[{"name":"user","type":"address","indexed":true,"internalType":"address"},{"name":"sbtId","type":"uint256","indexed":true,"internalType":"uint256"},{"name":"premiumId","type":"uint256","indexed":true,"internalType":"uint256"},{"name":"fee","type":"uint256","indexed":false,"internalType":"uint256"}],"anonymous":false},{"type":"event","name":"Transfer","inputs":[{"name":"from","type":"address","indexed":true,"internalType":"address"},{"name":"to","type":"address","indexed":true,"internalType":"address"},{"name":"tokenId","type":"uint256","indexed":true,"internalType":"uint256"}],"anonymous":false},{"type":"event","name":"TreasurySet","inputs":[{"name":"newTreasury","type":"address","indexed":true,"internalType":"address"}],"anonymous":false},{"type":"event","name":"Unpaused","inputs":[{"name":"account","type":"address","indexed":false,"internalType":"address"}],"anonymous":false},{"type":"event","name":"UpgradeFeeSet","inputs":[{"name":"newFee","type":"uint256","indexed":false,"internalType":"uint256"}],"anonymous":false},{"type":"error","name":"ERC721IncorrectOwner","inputs":[{"name":"sender","type":"address","internalType":"address"},{"name":"tokenId","type":"uint256","internalType":"uint256"},{"name":"owner","type":"address","internalType":"address"}]},{"type":"error","name":"ERC721InsufficientApproval","inputs":[{"name":"operator","type":"address","internalType":"address"},{"name":"tokenId","type":"uint256","internalType":"uint256"}]},{"type":"error","name":"ERC721InvalidApprover","inputs":[{"name":"approver","type":"address","internalType":"address"}]},{"type":"error","name":"ERC721InvalidOperator","inputs":[{"name":"operator","type":"address","internalType":"address"}]},{"type":"error","name":"ERC721InvalidOwner","inputs":[{"name":"owner","type":"address","internalType":"address"}]},{"type":"error","name":"ERC721InvalidReceiver","inputs":[{"name":"receiver","type":"address","internalType":"address"}]},{"type":"error","name":"ERC721InvalidSender","inputs":[{"name":"sender","type":"address","internalType":"address"}]},{"type":"error","name":"ERC721NonexistentToken","inputs":[{"name":"tokenId","type":"uint256","internalType":"uint256"}]},{"type":"error","name":"EnforcedPause","inputs":[]},{"type":"error","name":"ExpectedPause","inputs":[]},{"type":"error","name":"InsufficientFee","inputs":[]},{"type":"error","name":"InvalidAddress","inputs":[]},{"type":"error","name":"InvalidFeeSplit","inputs":[]},{"type":"error","name":"OwnableInvalidOwner","inputs":[{"name":"owner","type":"address","internalType":"address"}]},{"type":"error","name":"OwnableUnauthorizedAccount","inputs":[{"name":"account","type":"address","internalType":"address"}]},{"type":"error","name":"ReentrancyGuardReentrantCall","inputs":[]},{"type":"error","name":"SBTAlreadyUpgraded","inputs":[]},{"type":"error","name":"SBTDoesNotExist","inputs":[]},{"type":"error","name":"SBTNotOwned","inputs":[]}],"bytecode":{"object":"0x608060405234801561000f575f5ffd5b5060405161458a38038061458a8339818101604052810190610031919061041d565b338585815f908161004291906106d3565b50806001908161005291906106d3565b5050505f73ffffffffffffffffffffffffffffffffffffffff168173ffffffffffffffffffffffffffffffffffffffff16036100c5575f6040517f1e4fbdf70000000000000000000000000000000000000000000000000000000081526004016100bc91906107b1565b60405180910390fd5b6100d48161018060201b60201c565b50600160078190555082600b5f6101000a81548173ffffffffffffffffffffffffffffffffffffffff021916908373ffffffffffffffffffffffffffffffffffffffff16021790555081600d5f6101000a81548173ffffffffffffffffffffffffffffffffffffffff021916908373ffffffffffffffffffffffffffffffffffffffff16021790555080600c81905550610ea6600e8190555061186a600f8190555050505050506107ca565b5f60065f9054906101000a900473ffffffffffffffffffffffffffffffffffffffff1690508160065f6101000a81548173ffffffffffffffffffffffffffffffffffffffff021916908373ffffffffffffffffffffffffffffffffffffffff1602179055508173ffffffffffffffffffffffffffffffffffffffff168173ffffffffffffffffffffffffffffffffffffffff167f8be0079c531659141344cd1fd0a4f28419497f9722a3daafe3b4186f6b6457e060405160405180910390a35050565b5f604051905090565b5f5ffd5b5f5ffd5b5f5ffd5b5f5ffd5b5f601f19601f8301169050919050565b7f4e487b71000000000000000000000000000000000000000000000000000000005f52604160045260245ffd5b6102a28261025c565b810181811067ffffffffffffffff821117156102c1576102c061026c565b5b80604052505050565b5f6102d3610243565b90506102df8282610299565b919050565b5f67ffffffffffffffff8211156102fe576102fd61026c565b5b6103078261025c565b9050602081019050919050565b8281835e5f83830152505050565b5f61033461032f846102e4565b6102ca565b9050828152602081018484840111156103505761034f610258565b5b61035b848285610314565b509392505050565b5f82601f83011261037757610376610254565b5b8151610387848260208601610322565b91505092915050565b5f73ffffffffffffffffffffffffffffffffffffffff82169050919050565b5f6103b982610390565b9050919050565b6103c9816103af565b81146103d3575f5ffd5b50565b5f815190506103e4816103c0565b92915050565b5f819050919050565b6103fc816103ea565b8114610406575f5ffd5b50565b5f81519050610417816103f3565b92915050565b5f5f5f5f5f60a086880312156104365761043561024c565b5b5f86015167ffffffffffffffff81111561045357610452610250565b5b61045f88828901610363565b955050602086015167ffffffffffffffff8111156104805761047f610250565b5b61048c88828901610363565b945050604061049d888289016103d6565b93505060606104ae888289016103d6565b92505060806104bf88828901610409565b9150509295509295909350565b5f81519050919050565b7f4e487b71000000000000000000000000000000000000000000000000000000005f52602260045260245ffd5b5f600282049050600182168061051a57607f821691505b60208210810361052d5761052c6104d6565b5b50919050565b5f819050815f5260205f209050919050565b5f6020601f8301049050919050565b5f82821b905092915050565b5f6008830261058f7fffffffffffffffffffffffffffffffffffffffffffffffffffffffffffffffff82610554565b6105998683610554565b95508019841693508086168417925050509392505050565b5f819050919050565b5f6105d46105cf6105ca846103ea565b6105b1565b6103ea565b9050919050565b5f819050919050565b6105ed836105ba565b6106016105f9826105db565b848454610560565b825550505050565b5f5f905090565b610618610609565b6106238184846105e4565b505050565b5b818110156106465761063b5f82610610565b600181019050610629565b5050565b601f82111561068b5761065c81610533565b61066584610545565b81016020851015610674578190505b61068861068085610545565b830182610628565b50505b505050565b5f82821c905092915050565b5f6106ab5f1984600802610690565b1980831691505092915050565b5f6106c3838361069c565b9150826002028217905092915050565b6106dc826104cc565b67ffffffffffffffff8111156106f5576106f461026c565b5b6106ff8254610503565b61070a82828561064a565b5f60209050601f83116001811461073b575f8415610729578287015190505b61073385826106b8565b86555061079a565b601f19841661074986610533565b5f5b828110156107705784890151825560018201915060208501945060208101905061074b565b8683101561078d5784890151610789601f89168261069c565b8355505b6001600288020188555050505b505050505050565b6107ab816103af565b82525050565b5f6020820190506107c45f8301846107a2565b92915050565b613db3806107d75f395ff3fe608060405260043610610224575f3560e01c8063715018a611610122578063b88d4fde116100aa578063e5ac4fb41161006e578063e5ac4fb4146107b2578063e985e9c5146107dc578063ea3a267f14610818578063f0f4426014610854578063f2fde38b1461087c57610224565b8063b88d4fde146106e6578063bae18ac31461070e578063c87b56dd14610736578063db2e21bc14610772578063e1f1c4a71461078857610224565b80638456cb59116100f15780638456cb591461062c5780638c4ee01c146106425780638da5cb5b1461066a57806395d89b4114610694578063a22cb465146106be57610224565b8063715018a61461058857806373bba5911461059e57806375750337146105c85780637e6335c71461060457610224565b80633f4ba83a116101b05780635c975abb116101745780635c975abb1461048057806361d027b3146104aa5780636352211e146104d45780636e8be04b1461051057806370a082311461054c57610224565b80633f4ba83a146103c657806340fa61f7146103dc57806342842e0e1461040657806355f804b31461042e578063561892361461045657610224565b80630ec7dcb7116101f75780630ec7dcb7146102f2578063103e9dc01461030e57806312065fe014610338578063150d99701461036257806323b872dd1461039e57610224565b806301ffc9a71461022857806306fdde0314610264578063081812fc1461028e578063095ea7b3146102ca575b5f5ffd5b348015610233575f5ffd5b5061024e60048036038101906102499190612be2565b6108a4565b60405161025b9190612c27565b60405180910390f35b34801561026f575f5ffd5b50610278610985565b6040516102859190612cb0565b60405180910390f35b348015610299575f5ffd5b506102b460048036038101906102af9190612d03565b610a14565b6040516102c19190612d6d565b60405180910390f35b3480156102d5575f5ffd5b506102f060048036038101906102eb9190612db0565b610a2f565b005b61030c60048036038101906103079190612dee565b610a45565b005b348015610319575f5ffd5b50610322610d74565b60405161032f9190612e3b565b60405180910390f35b348015610343575f5ffd5b5061034c610d7a565b6040516103599190612e3b565b60405180910390f35b34801561036d575f5ffd5b5061038860048036038101906103839190612d03565b610d81565b6040516103959190612e3b565b60405180910390f35b3480156103a9575f5ffd5b506103c460048036038101906103bf9190612e54565b610d96565b005b3480156103d1575f5ffd5b506103da610e95565b005b3480156103e7575f5ffd5b506103f0610ea7565b6040516103fd9190612e3b565b60405180910390f35b348015610411575f5ffd5b5061042c60048036038101906104279190612e54565b610ead565b005b348015610439575f5ffd5b50610454600480360381019061044f9190612fd0565b610ecc565b005b348015610461575f5ffd5b5061046a610f1e565b6040516104779190612e3b565b60405180910390f35b34801561048b575f5ffd5b50610494610f27565b6040516104a19190612c27565b60405180910390f35b3480156104b5575f5ffd5b506104be610f3c565b6040516104cb9190612d6d565b60405180910390f35b3480156104df575f5ffd5b506104fa60048036038101906104f59190612d03565b610f61565b6040516105079190612d6d565b60405180910390f35b34801561051b575f5ffd5b5061053660048036038101906105319190612d03565b610f72565b6040516105439190612e3b565b60405180910390f35b348015610557575f5ffd5b50610572600480360381019061056d9190613017565b610f8c565b60405161057f9190612e3b565b60405180910390f35b348015610593575f5ffd5b5061059c611042565b005b3480156105a9575f5ffd5b506105b2611055565b6040516105bf919061309d565b60405180910390f35b3480156105d3575f5ffd5b506105ee60048036038101906105e99190612d03565b61107a565b6040516105fb9190612c27565b60405180910390f35b34801561060f575f5ffd5b5061062a600480360381019061062591906130b6565b6110a0565b005b348015610637575f5ffd5b5061064061118f565b005b34801561064d575f5ffd5b5061066860048036038101906106639190613017565b6111a1565b005b348015610675575f5ffd5b5061067e61125a565b60405161068b9190612d6d565b60405180910390f35b34801561069f575f5ffd5b506106a8611282565b6040516106b59190612cb0565b60405180910390f35b3480156106c9575f5ffd5b506106e460048036038101906106df919061311e565b611312565b005b3480156106f1575f5ffd5b5061070c600480360381019061070791906131fa565b611328565b005b348015610719575f5ffd5b50610734600480360381019061072f9190612d03565b61134d565b005b348015610741575f5ffd5b5061075c60048036038101906107579190612d03565b611396565b6040516107699190612cb0565b60405180910390f35b34801561077d575f5ffd5b506107866113fc565b005b348015610793575f5ffd5b5061079c6114fd565b6040516107a99190612e3b565b60405180910390f35b3480156107bd575f5ffd5b506107c6611503565b6040516107d39190612e3b565b60405180910390f35b3480156107e7575f5ffd5b5061080260048036038101906107fd919061327a565b611509565b60405161080f9190612c27565b60405180910390f35b348015610823575f5ffd5b5061083e60048036038101906108399190612d03565b611597565b60405161084b9190612c27565b60405180910390f35b34801561085f575f5ffd5b5061087a60048036038101906108759190613017565b6115b4565b005b348015610887575f5ffd5b506108a2600480360381019061089d9190613017565b6116b0565b005b5f7f80ac58cd000000000000000000000000000000000000000000000000000000007bffffffffffffffffffffffffffffffffffffffffffffffffffffffff1916827bffffffffffffffffffffffffffffffffffffffffffffffffffffffff1916148061096e57507f5b5e139f000000000000000000000000000000000000000000000000000000007bffffffffffffffffffffffffffffffffffffffffffffffffffffffff1916827bffffffffffffffffffffffffffffffffffffffffffffffffffffffff1916145b8061097e575061097d82611734565b5b9050919050565b60605f8054610993906132e5565b80601f01602080910402602001604051908101604052809291908181526020018280546109bf906132e5565b8015610a0a5780601f106109e157610100808354040283529160200191610a0a565b820191905f5260205f20905b8154815290600101906020018083116109ed57829003601f168201915b5050505050905090565b5f610a1e8261179d565b50610a2882611823565b9050919050565b610a418282610a3c61185c565b611863565b5050565b610a4d611875565b610a556118bb565b5f73ffffffffffffffffffffffffffffffffffffffff168173ffffffffffffffffffffffffffffffffffffffff1603610ac3576040517f08c379a0000000000000000000000000000000000000000000000000000000008152600401610aba9061335f565b60405180910390fd5b600c54341015610b08576040517f08c379a0000000000000000000000000000000000000000000000000000000008152600401610aff906133c7565b60405180910390fd5b600b5f9054906101000a900473ffffffffffffffffffffffffffffffffffffffff1673ffffffffffffffffffffffffffffffffffffffff1663430c208133846040518363ffffffff1660e01b8152600401610b649291906133e5565b602060405180830381865afa158015610b7f573d5f5f3e3d5ffd5b505050506040513d601f19601f82011682018060405250810190610ba39190613420565b610bd9576040517f1d4329de00000000000000000000000000000000000000000000000000000000815260040160405180910390fd5b60115f8381526020019081526020015f205f9054906101000a900460ff1615610c2e576040517ff638c02800000000000000000000000000000000000000000000000000000000815260040160405180910390fd5b600b5f9054906101000a900473ffffffffffffffffffffffffffffffffffffffff1673ffffffffffffffffffffffffffffffffffffffff16636352211e836040518263ffffffff1660e01b8152600401610c889190612e3b565b602060405180830381865afa925050508015610cc257506040513d601f19601f82011682018060405250810190610cbf919061345f565b60015b610cf8576040517f674dd4d300000000000000000000000000000000000000000000000000000000815260040160405180910390fd5b5f73ffffffffffffffffffffffffffffffffffffffff168173ffffffffffffffffffffffffffffffffffffffff1603610d5d576040517f674dd4d300000000000000000000000000000000000000000000000000000000815260040160405180910390fd5b50610d6882826118fc565b610d70611a47565b5050565b600e5481565b5f47905090565b6010602052805f5260405f205f915090505481565b5f73ffffffffffffffffffffffffffffffffffffffff168273ffffffffffffffffffffffffffffffffffffffff1603610e06575f6040517f64a0ae92000000000000000000000000000000000000000000000000000000008152600401610dfd9190612d6d565b60405180910390fd5b5f610e198383610e1461185c565b611a51565b90508373ffffffffffffffffffffffffffffffffffffffff168173ffffffffffffffffffffffffffffffffffffffff1614610e8f578382826040517f64283d7b000000000000000000000000000000000000000000000000000000008152600401610e869392919061348a565b60405180910390fd5b50505050565b610e9d611c5c565b610ea5611ce3565b565b600c5481565b610ec783838360405180602001604052805f815250611328565b505050565b610ed4611c5c565b80600a9081610ee39190613656565b507ff9c7803e94e0d3c02900d8a90893a6d5e90dd04d32a4cfe825520f82bf9f32f681604051610f139190612cb0565b60405180910390a150565b5f600954905090565b5f60085f9054906101000a900460ff16905090565b600d5f9054906101000a900473ffffffffffffffffffffffffffffffffffffffff1681565b5f610f6b8261179d565b9050919050565b5f60105f8381526020019081526020015f20549050919050565b5f5f73ffffffffffffffffffffffffffffffffffffffff168273ffffffffffffffffffffffffffffffffffffffff1603610ffd575f6040517f89c62b64000000000000000000000000000000000000000000000000000000008152600401610ff49190612d6d565b60405180910390fd5b60035f8373ffffffffffffffffffffffffffffffffffffffff1673ffffffffffffffffffffffffffffffffffffffff1681526020019081526020015f20549050919050565b61104a611c5c565b6110535f611d44565b565b600b5f9054906101000a900473ffffffffffffffffffffffffffffffffffffffff1681565b5f60115f8381526020019081526020015f205f9054906101000a900460ff169050919050565b6110a8611c5c565b61271081836110b79190613752565b146110f7576040517f08c379a00000000000000000000000000000000000000000000000000000000081526004016110ee906137cf565b60405180910390fd5b5f8211801561110557505f81115b611144576040517f08c379a000000000000000000000000000000000000000000000000000000000815260040161113b90613837565b60405180910390fd5b81600e8190555080600f819055507f73f47330dbb335fc9891ea52c4d46cce63b1c1c0ed7743545c99183134c5de148282604051611183929190613855565b60405180910390a15050565b611197611c5c565b61119f611e07565b565b6111a9611c5c565b5f73ffffffffffffffffffffffffffffffffffffffff168173ffffffffffffffffffffffffffffffffffffffff1603611217576040517f08c379a000000000000000000000000000000000000000000000000000000000815260040161120e906138c6565b60405180910390fd5b80600b5f6101000a81548173ffffffffffffffffffffffffffffffffffffffff021916908373ffffffffffffffffffffffffffffffffffffffff16021790555050565b5f60065f9054906101000a900473ffffffffffffffffffffffffffffffffffffffff16905090565b606060018054611291906132e5565b80601f01602080910402602001604051908101604052809291908181526020018280546112bd906132e5565b80156113085780601f106112df57610100808354040283529160200191611308565b820191905f5260205f20905b8154815290600101906020018083116112eb57829003601f168201915b5050505050905090565b61132461131d61185c565b8383611e69565b5050565b611333848484610d96565b61134761133e61185c565b85858585611fd2565b50505050565b611355611c5c565b80600c819055507f9b139638a940fefdf79187c76a51e818dc05fd488e7d82c3a7f200dac48c5d328160405161138b9190612e3b565b60405180910390a150565b60606113a18261179d565b505f6113ab61217e565b90505f8151116113c95760405180602001604052805f8152506113f4565b806113d38461220e565b6040516020016113e492919061391e565b6040516020818303038152906040525b915050919050565b611404611c5c565b5f4790505f811161144a576040517f08c379a00000000000000000000000000000000000000000000000000000000081526004016114419061398b565b60405180910390fd5b5f61145361125a565b73ffffffffffffffffffffffffffffffffffffffff1682604051611476906139d6565b5f6040518083038185875af1925050503d805f81146114b0576040519150601f19603f3d011682016040523d82523d5f602084013e6114b5565b606091505b50509050806114f9576040517f08c379a00000000000000000000000000000000000000000000000000000000081526004016114f090613a34565b60405180910390fd5b5050565b61271081565b600f5481565b5f60055f8473ffffffffffffffffffffffffffffffffffffffff1673ffffffffffffffffffffffffffffffffffffffff1681526020019081526020015f205f8373ffffffffffffffffffffffffffffffffffffffff1673ffffffffffffffffffffffffffffffffffffffff1681526020019081526020015f205f9054906101000a900460ff16905092915050565b6011602052805f5260405f205f915054906101000a900460ff1681565b6115bc611c5c565b5f73ffffffffffffffffffffffffffffffffffffffff168173ffffffffffffffffffffffffffffffffffffffff160361162a576040517f08c379a000000000000000000000000000000000000000000000000000000000815260040161162190613a9c565b60405180910390fd5b80600d5f6101000a81548173ffffffffffffffffffffffffffffffffffffffff021916908373ffffffffffffffffffffffffffffffffffffffff1602179055508073ffffffffffffffffffffffffffffffffffffffff167f3c864541ef71378c6229510ed90f376565ee42d9c5e0904a984a9e863e6db44f60405160405180910390a250565b6116b8611c5c565b5f73ffffffffffffffffffffffffffffffffffffffff168173ffffffffffffffffffffffffffffffffffffffff1603611728575f6040517f1e4fbdf700000000000000000000000000000000000000000000000000000000815260040161171f9190612d6d565b60405180910390fd5b61173181611d44565b50565b5f7f01ffc9a7000000000000000000000000000000000000000000000000000000007bffffffffffffffffffffffffffffffffffffffffffffffffffffffff1916827bffffffffffffffffffffffffffffffffffffffffffffffffffffffff1916149050919050565b5f5f6117a8836122d8565b90505f73ffffffffffffffffffffffffffffffffffffffff168173ffffffffffffffffffffffffffffffffffffffff160361181a57826040517f7e2732890000000000000000000000000000000000000000000000000000000081526004016118119190612e3b565b60405180910390fd5b80915050919050565b5f60045f8381526020019081526020015f205f9054906101000a900473ffffffffffffffffffffffffffffffffffffffff169050919050565b5f33905090565b6118708383836001612311565b505050565b6002600754036118b1576040517f3ee5aeb500000000000000000000000000000000000000000000000000000000815260040160405180910390fd5b6002600781905550565b6118c3610f27565b156118fa576040517fd93c066500000000000000000000000000000000000000000000000000000000815260040160405180910390fd5b565b600b5f9054906101000a900473ffffffffffffffffffffffffffffffffffffffff1673ffffffffffffffffffffffffffffffffffffffff1663f76c5f82836040518263ffffffff1660e01b81526004016119569190612e3b565b5f604051808303815f87803b15801561196d575f5ffd5b505af115801561197f573d5f5f3e3d5ffd5b50505050600160115f8481526020019081526020015f205f6101000a81548160ff0219169083151502179055505f600954905060095f8154809291906119c490613aba565b91905055506119d333826124d0565b8060105f8581526020019081526020015f20819055506119f2826124ed565b80833373ffffffffffffffffffffffffffffffffffffffff167fb563979765f59a2f0bd2aeb9753800ab162ebc5fe44bda69f0decc8e256c0ff134604051611a3a9190612e3b565b60405180910390a4505050565b6001600781905550565b5f5f611a5c846122d8565b90505f73ffffffffffffffffffffffffffffffffffffffff168373ffffffffffffffffffffffffffffffffffffffff1614611a9d57611a9c818486612752565b5b5f73ffffffffffffffffffffffffffffffffffffffff168173ffffffffffffffffffffffffffffffffffffffff1614611b2857611adc5f855f5f612311565b600160035f8373ffffffffffffffffffffffffffffffffffffffff1673ffffffffffffffffffffffffffffffffffffffff1681526020019081526020015f205f82825403925050819055505b5f73ffffffffffffffffffffffffffffffffffffffff168573ffffffffffffffffffffffffffffffffffffffff1614611ba757600160035f8773ffffffffffffffffffffffffffffffffffffffff1673ffffffffffffffffffffffffffffffffffffffff1681526020019081526020015f205f82825401925050819055505b8460025f8681526020019081526020015f205f6101000a81548173ffffffffffffffffffffffffffffffffffffffff021916908373ffffffffffffffffffffffffffffffffffffffff160217905550838573ffffffffffffffffffffffffffffffffffffffff168273ffffffffffffffffffffffffffffffffffffffff167fddf252ad1be2c89b69c2b068fc378daa952ba7f163c4a11628f55a4df523b3ef60405160405180910390a4809150509392505050565b611c6461185c565b73ffffffffffffffffffffffffffffffffffffffff16611c8261125a565b73ffffffffffffffffffffffffffffffffffffffff1614611ce157611ca561185c565b6040517f118cdaa7000000000000000000000000000000000000000000000000000000008152600401611cd89190612d6d565b60405180910390fd5b565b611ceb612815565b5f60085f6101000a81548160ff0219169083151502179055507f5db9ee0a495bf2e6ff9c91a7834c1ba4fdd244a5e8aa4e537bd38aeae4b073aa611d2d61185c565b604051611d3a9190612d6d565b60405180910390a1565b5f60065f9054906101000a900473ffffffffffffffffffffffffffffffffffffffff1690508160065f6101000a81548173ffffffffffffffffffffffffffffffffffffffff021916908373ffffffffffffffffffffffffffffffffffffffff1602179055508173ffffffffffffffffffffffffffffffffffffffff168173ffffffffffffffffffffffffffffffffffffffff167f8be0079c531659141344cd1fd0a4f28419497f9722a3daafe3b4186f6b6457e060405160405180910390a35050565b611e0f6118bb565b600160085f6101000a81548160ff0219169083151502179055507f62e78cea01bee320cd4e420270b5ea74000d11b0c9f74754ebdbfc544b05a258611e5261185c565b604051611e5f9190612d6d565b60405180910390a1565b5f73ffffffffffffffffffffffffffffffffffffffff168273ffffffffffffffffffffffffffffffffffffffff1603611ed957816040517f5b08ba18000000000000000000000000000000000000000000000000000000008152600401611ed09190612d6d565b60405180910390fd5b8060055f8573ffffffffffffffffffffffffffffffffffffffff1673ffffffffffffffffffffffffffffffffffffffff1681526020019081526020015f205f8473ffffffffffffffffffffffffffffffffffffffff1673ffffffffffffffffffffffffffffffffffffffff1681526020019081526020015f205f6101000a81548160ff0219169083151502179055508173ffffffffffffffffffffffffffffffffffffffff168373ffffffffffffffffffffffffffffffffffffffff167f17307eab39ab6107e8899845ad3d59bd9653f200f220920489ca2b5937696c3183604051611fc59190612c27565b60405180910390a3505050565b5f8373ffffffffffffffffffffffffffffffffffffffff163b1115612177578273ffffffffffffffffffffffffffffffffffffffff1663150b7a02868685856040518563ffffffff1660e01b81526004016120309493929190613b53565b6020604051808303815f875af192505050801561206b57506040513d601f19601f820116820180604052508101906120689190613bb1565b60015b6120ec573d805f8114612099576040519150601f19603f3d011682016040523d82523d5f602084013e61209e565b606091505b505f8151036120e457836040517f64a0ae920000000000000000000000000000000000000000000000000000000081526004016120db9190612d6d565b60405180910390fd5b805160208201fd5b63150b7a0260e01b7bffffffffffffffffffffffffffffffffffffffffffffffffffffffff1916817bffffffffffffffffffffffffffffffffffffffffffffffffffffffff19161461217557836040517f64a0ae9200000000000000000000000000000000000000000000000000000000815260040161216c9190612d6d565b60405180910390fd5b505b5050505050565b6060600a805461218d906132e5565b80601f01602080910402602001604051908101604052809291908181526020018280546121b9906132e5565b80156122045780601f106121db57610100808354040283529160200191612204565b820191905f5260205f20905b8154815290600101906020018083116121e757829003601f168201915b5050505050905090565b60605f600161221c84612855565b0190505f8167ffffffffffffffff81111561223a57612239612eac565b5b6040519080825280601f01601f19166020018201604052801561226c5781602001600182028036833780820191505090505b5090505f82602083010190505b6001156122cd578080600190039150507f3031323334353637383961626364656600000000000000000000000000000000600a86061a8153600a85816122c2576122c1613bdc565b5b0494505f8503612279575b819350505050919050565b5f60025f8381526020019081526020015f205f9054906101000a900473ffffffffffffffffffffffffffffffffffffffff169050919050565b808061234957505f73ffffffffffffffffffffffffffffffffffffffff168273ffffffffffffffffffffffffffffffffffffffff1614155b1561247b575f6123588461179d565b90505f73ffffffffffffffffffffffffffffffffffffffff168373ffffffffffffffffffffffffffffffffffffffff16141580156123c257508273ffffffffffffffffffffffffffffffffffffffff168173ffffffffffffffffffffffffffffffffffffffff1614155b80156123d557506123d38184611509565b155b1561241757826040517fa9fbf51f00000000000000000000000000000000000000000000000000000000815260040161240e9190612d6d565b60405180910390fd5b811561247957838573ffffffffffffffffffffffffffffffffffffffff168273ffffffffffffffffffffffffffffffffffffffff167f8c5be1e5ebec7d5bd14f71427d1e84f3dd0314c0f7b2291e5b200ac8c7c3b92560405160405180910390a45b505b8360045f8581526020019081526020015f205f6101000a81548173ffffffffffffffffffffffffffffffffffffffff021916908373ffffffffffffffffffffffffffffffffffffffff16021790555050505050565b6124e9828260405180602001604052805f8152506129a6565b5050565b5f3490505f612710600e54836125039190613c09565b61250d9190613c4a565b90505f818361251c9190613c7a565b90505f8211801561257a57505f73ffffffffffffffffffffffffffffffffffffffff16600d5f9054906101000a900473ffffffffffffffffffffffffffffffffffffffff1673ffffffffffffffffffffffffffffffffffffffff1614155b1561264a575f600d5f9054906101000a900473ffffffffffffffffffffffffffffffffffffffff1673ffffffffffffffffffffffffffffffffffffffff16836040516125c5906139d6565b5f6040518083038185875af1925050503d805f81146125ff576040519150601f19603f3d011682016040523d82523d5f602084013e612604565b606091505b5050905080612648576040517f08c379a000000000000000000000000000000000000000000000000000000000815260040161263f90613cf7565b60405180910390fd5b505b5f8111156126fc575f8473ffffffffffffffffffffffffffffffffffffffff1682604051612677906139d6565b5f6040518083038185875af1925050503d805f81146126b1576040519150601f19603f3d011682016040523d82523d5f602084013e6126b6565b606091505b50509050806126fa576040517f08c379a00000000000000000000000000000000000000000000000000000000081526004016126f190613d5f565b60405180910390fd5b505b8373ffffffffffffffffffffffffffffffffffffffff167f891d4da69faf2cf5f9b5a4bceeeba1909237ad5d6222ebe54fbcab15067f8e688383604051612744929190613855565b60405180910390a250505050565b61275d8383836129c9565b612810575f73ffffffffffffffffffffffffffffffffffffffff168373ffffffffffffffffffffffffffffffffffffffff16036127d157806040517f7e2732890000000000000000000000000000000000000000000000000000000081526004016127c89190612e3b565b60405180910390fd5b81816040517f177e802f0000000000000000000000000000000000000000000000000000000081526004016128079291906133e5565b60405180910390fd5b505050565b61281d610f27565b612853576040517f8dfc202b00000000000000000000000000000000000000000000000000000000815260040160405180910390fd5b565b5f5f5f90507a184f03e93ff9f4daa797ed6e38ed64bf6a1f01000000000000000083106128b1577a184f03e93ff9f4daa797ed6e38ed64bf6a1f01000000000000000083816128a7576128a6613bdc565b5b0492506040810190505b6d04ee2d6d415b85acef810000000083106128ee576d04ee2d6d415b85acef810000000083816128e4576128e3613bdc565b5b0492506020810190505b662386f26fc10000831061291d57662386f26fc10000838161291357612912613bdc565b5b0492506010810190505b6305f5e1008310612946576305f5e100838161293c5761293b613bdc565b5b0492506008810190505b612710831061296b57612710838161296157612960613bdc565b5b0492506004810190505b6064831061298e576064838161298457612983613bdc565b5b0492506002810190505b600a831061299d576001810190505b80915050919050565b6129b08383612a89565b6129c46129bb61185c565b5f858585611fd2565b505050565b5f5f73ffffffffffffffffffffffffffffffffffffffff168373ffffffffffffffffffffffffffffffffffffffff1614158015612a8057508273ffffffffffffffffffffffffffffffffffffffff168473ffffffffffffffffffffffffffffffffffffffff161480612a415750612a408484611509565b5b80612a7f57508273ffffffffffffffffffffffffffffffffffffffff16612a6783611823565b73ffffffffffffffffffffffffffffffffffffffff16145b5b90509392505050565b5f73ffffffffffffffffffffffffffffffffffffffff168273ffffffffffffffffffffffffffffffffffffffff1603612af9575f6040517f64a0ae92000000000000000000000000000000000000000000000000000000008152600401612af09190612d6d565b60405180910390fd5b5f612b0583835f611a51565b90505f73ffffffffffffffffffffffffffffffffffffffff168173ffffffffffffffffffffffffffffffffffffffff1614612b77575f6040517f73c6ac6e000000000000000000000000000000000000000000000000000000008152600401612b6e9190612d6d565b60405180910390fd5b505050565b5f604051905090565b5f5ffd5b5f5ffd5b5f7fffffffff0000000000000000000000000000000000000000000000000000000082169050919050565b612bc181612b8d565b8114612bcb575f5ffd5b50565b5f81359050612bdc81612bb8565b92915050565b5f60208284031215612bf757612bf6612b85565b5b5f612c0484828501612bce565b91505092915050565b5f8115159050919050565b612c2181612c0d565b82525050565b5f602082019050612c3a5f830184612c18565b92915050565b5f81519050919050565b5f82825260208201905092915050565b8281835e5f83830152505050565b5f601f19601f8301169050919050565b5f612c8282612c40565b612c8c8185612c4a565b9350612c9c818560208601612c5a565b612ca581612c68565b840191505092915050565b5f6020820190508181035f830152612cc88184612c78565b905092915050565b5f819050919050565b612ce281612cd0565b8114612cec575f5ffd5b50565b5f81359050612cfd81612cd9565b92915050565b5f60208284031215612d1857612d17612b85565b5b5f612d2584828501612cef565b91505092915050565b5f73ffffffffffffffffffffffffffffffffffffffff82169050919050565b5f612d5782612d2e565b9050919050565b612d6781612d4d565b82525050565b5f602082019050612d805f830184612d5e565b92915050565b612d8f81612d4d565b8114612d99575f5ffd5b50565b5f81359050612daa81612d86565b92915050565b5f5f60408385031215612dc657612dc5612b85565b5b5f612dd385828601612d9c565b9250506020612de485828601612cef565b9150509250929050565b5f5f60408385031215612e0457612e03612b85565b5b5f612e1185828601612cef565b9250506020612e2285828601612d9c565b9150509250929050565b612e3581612cd0565b82525050565b5f602082019050612e4e5f830184612e2c565b92915050565b5f5f5f60608486031215612e6b57612e6a612b85565b5b5f612e7886828701612d9c565b9350506020612e8986828701612d9c565b9250506040612e9a86828701612cef565b9150509250925092565b5f5ffd5b5f5ffd5b7f4e487b71000000000000000000000000000000000000000000000000000000005f52604160045260245ffd5b612ee282612c68565b810181811067ffffffffffffffff82111715612f0157612f00612eac565b5b80604052505050565b5f612f13612b7c565b9050612f1f8282612ed9565b919050565b5f67ffffffffffffffff821115612f3e57612f3d612eac565b5b612f4782612c68565b9050602081019050919050565b828183375f83830152505050565b5f612f74612f6f84612f24565b612f0a565b905082815260208101848484011115612f9057612f8f612ea8565b5b612f9b848285612f54565b509392505050565b5f82601f830112612fb757612fb6612ea4565b5b8135612fc7848260208601612f62565b91505092915050565b5f60208284031215612fe557612fe4612b85565b5b5f82013567ffffffffffffffff81111561300257613001612b89565b5b61300e84828501612fa3565b91505092915050565b5f6020828403121561302c5761302b612b85565b5b5f61303984828501612d9c565b91505092915050565b5f819050919050565b5f61306561306061305b84612d2e565b613042565b612d2e565b9050919050565b5f6130768261304b565b9050919050565b5f6130878261306c565b9050919050565b6130978161307d565b82525050565b5f6020820190506130b05f83018461308e565b92915050565b5f5f604083850312156130cc576130cb612b85565b5b5f6130d985828601612cef565b92505060206130ea85828601612cef565b9150509250929050565b6130fd81612c0d565b8114613107575f5ffd5b50565b5f81359050613118816130f4565b92915050565b5f5f6040838503121561313457613133612b85565b5b5f61314185828601612d9c565b92505060206131528582860161310a565b9150509250929050565b5f67ffffffffffffffff82111561317657613175612eac565b5b61317f82612c68565b9050602081019050919050565b5f61319e6131998461315c565b612f0a565b9050828152602081018484840111156131ba576131b9612ea8565b5b6131c5848285612f54565b509392505050565b5f82601f8301126131e1576131e0612ea4565b5b81356131f184826020860161318c565b91505092915050565b5f5f5f5f6080858703121561321257613211612b85565b5b5f61321f87828801612d9c565b945050602061323087828801612d9c565b935050604061324187828801612cef565b925050606085013567ffffffffffffffff81111561326257613261612b89565b5b61326e878288016131cd565b91505092959194509250565b5f5f604083850312156132905761328f612b85565b5b5f61329d85828601612d9c565b92505060206132ae85828601612d9c565b9150509250929050565b7f4e487b71000000000000000000000000000000000000000000000000000000005f52602260045260245ffd5b5f60028204905060018216806132fc57607f821691505b60208210810361330f5761330e6132b8565b5b50919050565b7f496e76616c6964206f7267616e697a65722061646472657373000000000000005f82015250565b5f613349601983612c4a565b915061335482613315565b602082019050919050565b5f6020820190508181035f8301526133768161333d565b9050919050565b7f496e73756666696369656e7420666565000000000000000000000000000000005f82015250565b5f6133b1601083612c4a565b91506133bc8261337d565b602082019050919050565b5f6020820190508181035f8301526133de816133a5565b9050919050565b5f6040820190506133f85f830185612d5e565b6134056020830184612e2c565b9392505050565b5f8151905061341a816130f4565b92915050565b5f6020828403121561343557613434612b85565b5b5f6134428482850161340c565b91505092915050565b5f8151905061345981612d86565b92915050565b5f6020828403121561347457613473612b85565b5b5f6134818482850161344b565b91505092915050565b5f60608201905061349d5f830186612d5e565b6134aa6020830185612e2c565b6134b76040830184612d5e565b949350505050565b5f819050815f5260205f209050919050565b5f6020601f8301049050919050565b5f82821b905092915050565b5f6008830261351b7fffffffffffffffffffffffffffffffffffffffffffffffffffffffffffffffff826134e0565b61352586836134e0565b95508019841693508086168417925050509392505050565b5f61355761355261354d84612cd0565b613042565b612cd0565b9050919050565b5f819050919050565b6135708361353d565b61358461357c8261355e565b8484546134ec565b825550505050565b5f5f905090565b61359b61358c565b6135a6818484613567565b505050565b5b818110156135c9576135be5f82613593565b6001810190506135ac565b5050565b601f82111561360e576135df816134bf565b6135e8846134d1565b810160208510156135f7578190505b61360b613603856134d1565b8301826135ab565b50505b505050565b5f82821c905092915050565b5f61362e5f1984600802613613565b1980831691505092915050565b5f613646838361361f565b9150826002028217905092915050565b61365f82612c40565b67ffffffffffffffff81111561367857613677612eac565b5b61368282546132e5565b61368d8282856135cd565b5f60209050601f8311600181146136be575f84156136ac578287015190505b6136b6858261363b565b86555061371d565b601f1984166136cc866134bf565b5f5b828110156136f3578489015182556001820191506020850194506020810190506136ce565b86831015613710578489015161370c601f89168261361f565b8355505b6001600288020188555050505b505050505050565b7f4e487b71000000000000000000000000000000000000000000000000000000005f52601160045260245ffd5b5f61375c82612cd0565b915061376783612cd0565b925082820190508082111561377f5761377e613725565b5b92915050565b7f496e76616c6964206665652073706c69740000000000000000000000000000005f82015250565b5f6137b9601183612c4a565b91506137c482613785565b602082019050919050565b5f6020820190508181035f8301526137e6816137ad565b9050919050565b7f53706c697473206d75737420626520706f7369746976650000000000000000005f82015250565b5f613821601783612c4a565b915061382c826137ed565b602082019050919050565b5f6020820190508181035f83015261384e81613815565b9050919050565b5f6040820190506138685f830185612e2c565b6138756020830184612e2c565b9392505050565b7f496e76616c696420636f6e7472616374206164647265737300000000000000005f82015250565b5f6138b0601883612c4a565b91506138bb8261387c565b602082019050919050565b5f6020820190508181035f8301526138dd816138a4565b9050919050565b5f81905092915050565b5f6138f882612c40565b61390281856138e4565b9350613912818560208601612c5a565b80840191505092915050565b5f61392982856138ee565b915061393582846138ee565b91508190509392505050565b7f4e6f2066756e647320746f2077697468647261770000000000000000000000005f82015250565b5f613975601483612c4a565b915061398082613941565b602082019050919050565b5f6020820190508181035f8301526139a281613969565b9050919050565b5f81905092915050565b50565b5f6139c15f836139a9565b91506139cc826139b3565b5f82019050919050565b5f6139e0826139b6565b9150819050919050565b7f5769746864726177616c206661696c65640000000000000000000000000000005f82015250565b5f613a1e601183612c4a565b9150613a29826139ea565b602082019050919050565b5f6020820190508181035f830152613a4b81613a12565b9050919050565b7f496e76616c6964207472656173757279206164647265737300000000000000005f82015250565b5f613a86601883612c4a565b9150613a9182613a52565b602082019050919050565b5f6020820190508181035f830152613ab381613a7a565b9050919050565b5f613ac482612cd0565b91507fffffffffffffffffffffffffffffffffffffffffffffffffffffffffffffffff8203613af657613af5613725565b5b600182019050919050565b5f81519050919050565b5f82825260208201905092915050565b5f613b2582613b01565b613b2f8185613b0b565b9350613b3f818560208601612c5a565b613b4881612c68565b840191505092915050565b5f608082019050613b665f830187612d5e565b613b736020830186612d5e565b613b806040830185612e2c565b8181036060830152613b928184613b1b565b905095945050505050565b5f81519050613bab81612bb8565b92915050565b5f60208284031215613bc657613bc5612b85565b5b5f613bd384828501613b9d565b91505092915050565b7f4e487b71000000000000000000000000000000000000000000000000000000005f52601260045260245ffd5b5f613c1382612cd0565b9150613c1e83612cd0565b9250828202613c2c81612cd0565b91508282048414831517613c4357613c42613725565b5b5092915050565b5f613c5482612cd0565b9150613c5f83612cd0565b925082613c6f57613c6e613bdc565b5b828204905092915050565b5f613c8482612cd0565b9150613c8f83612cd0565b9250828203905081811115613ca757613ca6613725565b5b92915050565b7f5472656173757279207472616e73666572206661696c656400000000000000005f82015250565b5f613ce1601883612c4a565b9150613cec82613cad565b602082019050919050565b5f6020820190508181035f830152613d0e81613cd5565b9050919050565b7f4f7267616e697a6572207472616e73666572206661696c6564000000000000005f82015250565b5f613d49601983612c4a565b9150613d5482613d15565b602082019050919050565b5f6020820190508181035f830152613d7681613d3d565b905091905056fea2646970667358221220a27bb8340e43082c228aa379675477f67b9e3ad515fffa3493f84208cb0ecaf364736f6c634300081e0033","linkReferences":{}},"methodIdentifiers":{"BASIS_POINTS()":"e1f1c4a7","approve(address,uint256)":"095ea7b3","balanceOf(address)":"70a08231","basicMerchContract()":"73bba591","emergencyWithdraw()":"db2e21bc","getApproved(uint256)":"081812fc","getBalance()":"12065fe0","getCurrentTokenId()":"56189236","getPremiumTokenId(uint256)":"6e8be04b","isApprovedForAll(address,address)":"e985e9c5","isSBTUpgraded(uint256)":"75750337","name()":"06fdde03","organizerSplit()":"e5ac4fb4","owner()":"8da5cb5b","ownerOf(uint256)":"6352211e","pause()":"8456cb59","paused()":"5c975abb","renounceOwnership()":"715018a6","safeTransferFrom(address,address,uint256)":"42842e0e","safeTransferFrom(address,address,uint256,bytes)":"b88d4fde","sbtToPremiumMapping(uint256)":"150d9970","setApprovalForAll(address,bool)":"a22cb465","setBaseURI(string)":"55f804b3","setBasicMerchContract(address)":"8c4ee01c","setFeeSplit(uint256,uint256)":"7e6335c7","setTreasury(address)":"f0f44260","setUpgradeFee(uint256)":"bae18ac3","supportsInterface(bytes4)":"01ffc9a7","symbol()":"95d89b41","tokenURI(uint256)":"c87b56dd","transferFrom(address,address,uint256)":"23b872dd","transferOwnership(address)":"f2fde38b","treasury()":"61d027b3","treasurySplit()":"103e9dc0","unpause()":"3f4ba83a","upgradeFee()":"40fa61f7","upgradeSBT(uint256,address)":"0ec7dcb7","upgradedSBTs(uint256)":"ea3a267f"},"id":3}