{"abi":[{"type":"constructor","inputs":[{"name":"name","type":"string","internalType":"string"},{"name":"symbol","type":"string","internalType":"string"},{"name":"_basicMerchContract","type":"address","internalType":"address"},{"name":"_treasury","type":"address","internalType":"address"},{"name":"_upgradeFee","type":"uint256","internalType":"uint256"}],"stateMutability":"nonpayable"},{"type":"function","name":"BASIS_POINTS","inputs":[],"outputs":[{"name":"","type":"uint256","internalType":"uint256"}],"stateMutability":"view"},{"type":"function","name":"approve","inputs":[{"name":"to","type":"address","internalType":"address"},{"name":"tokenId","type":"uint256","internalType":"uint256"}],"outputs":[],"stateMutability":"nonpayable"},{"type":"function","name":"balanceOf","inputs":[{"name":"owner","type":"address","internalType":"address"}],"outputs":[{"name":"","type":"uint256","internalType":"uint256"}],"stateMutability":"view"},{"type":"function","name":"basicMerchContract","inputs":[],"outputs":[{"name":"","type":"address","internalType":"contract BasicMerch"}],"stateMutability":"view"},{"type":"function","name":"emergencyWithdraw","inputs":[],"outputs":[],"stateMutability":"nonpayable"},{"type":"function","name":"getApproved","inputs":[{"name":"tokenId","type":"uint256","internalType":"uint256"}],"outputs":[{"name":"","type":"address","internalType":"address"}],"stateMutability":"view"},{"type":"function","name":"getBalance","inputs":[],"outputs":[{"name":"","type":"uint256","internalType":"uint256"}],"stateMutability":"view"},{"type":"function","name":"getCurrentTokenId","inputs":[],"outputs":[{"name":"","type":"uint256","internalType":"uint256"}],"stateMutability":"view"},{"type":"function","name":"getPremiumTokenId","inputs":[{"name":"_sbtId","type":"uint256","internalType":"uint256"}],"outputs":[{"name":"","type":"uint256","internalType":"uint256"}],"stateMutability":"view"},{"type":"function","name":"isApprovedForAll","inputs":[{"name":"owner","type":"address","internalType":"address"},{"name":"operator","type":"address","internalType":"address"}],"outputs":[{"name":"","type":"bool","internalType":"bool"}],"stateMutability":"view"},{"type":"function","name":"isSBTUpgraded","inputs":[{"name":"_sbtId","type":"uint256","internalType":"uint256"}],"outputs":[{"name":"","type":"bool","internalType":"bool"}],"stateMutability":"view"},{"type":"function","name":"name","inputs":[],"outputs":[{"name":"","type":"string","internalType":"string"}],"stateMutability":"view"},{"type":"function","name":"organizerSplit","inputs":[],"outputs":[{"name":"","type":"uint256","internalType":"uint256"}],"stateMutability":"view"},{"type":"function","name":"owner","inputs":[],"outputs":[{"name":"","type":"address","internalType":"address"}],"stateMutability":"view"},{"type":"function","name":"ownerOf","inputs":[{"name":"tokenId","type":"uint256","internalType":"uint256"}],"outputs":[{"name":"","type":"address","internalType":"address"}],"stateMutability":"view"},{"type":"function","name":"pause","inputs":[],"outputs":[],"stateMutability":"nonpayable"},{"type":"function","name":"paused","inputs":[],"outputs":[{"name":"","type":"bool","internalType":"bool"}],"stateMutability":"view"},{"type":"function","name":"renounceOwnership","inputs":[],"outputs":[],"stateMutability":"nonpayable"},{"type":"function","name":"safeTransferFrom","inputs":[{"name":"from","type":"address","internalType":"address"},{"name":"to","type":"address","internalType":"address"},{"name":"tokenId","type":"uint256","internalType":"uint256"}],"outputs":[],"stateMutability":"nonpayable"},{"type":"function","name":"safeTransferFrom","inputs":[{"name":"from","type":"address","internalType":"address"},{"name":"to","type":"address","internalType":"address"},{"name":"tokenId","type":"uint256","internalType":"uint256"},{"name":"data","type":"bytes","internalType":"bytes"}],"outputs":[],"stateMutability":"nonpayable"},{"type":"function","name":"sbtToPremiumMapping","inputs":[{"name":"","type":"uint256","internalType":"uint256"}],"outputs":[{"name":"","type":"uint256","internalType":"uint256"}],"stateMutability":"view"},{"type":"function","name":"setApprovalForAll","inputs":[{"name":"operator","type":"address","internalType":"address"},{"name":"approved","type":"bool","internalType":"bool"}],"outputs":[],"stateMutability":"nonpayable"},{"type":"function","name":"setBaseURI","inputs":[{"name":"_uri","type":"string","internalType":"string"}],"outputs":[],"stateMutability":"nonpayable"},{"type":"function","name":"setBasicMerchContract","inputs":[{"name":"_basicMerchContract","type":"address","internalType":"address"}],"outputs":[],"stateMutability":"nonpayable"},{"type":"function","name":"setFeeSplit","inputs":[{"name":"_treasurySplit","type":"uint256","internalType":"uint256"},{"name":"_organizerSplit","type":"uint256","internalType":"uint256"}],"outputs":[],"stateMutability":"nonpayable"},{"type":"function","name":"setTreasury","inputs":[{"name":"_newTreasury","type":"address","internalType":"address"}],"outputs":[],"stateMutability":"nonpayable"},{"type":"function","name":"setUpgradeFee","inputs":[{"name":"_newFee","type":"uint256","internalType":"uint256"}],"outputs":[],"stateMutability":"nonpayable"},{"type":"function","name":"supportsInterface","inputs":[{"name":"interfaceId","type":"bytes4","internalType":"bytes4"}],"outputs":[{"name":"","type":"bool","internalType":"bool"}],"stateMutability":"view"},{"type":"function","name":"symbol","inputs":[],"outputs":[{"name":"","type":"string","internalType":"string"}],"stateMutability":"view"},{"type":"function","name":"tokenURI","inputs":[{"name":"tokenId","type":"uint256","internalType":"uint256"}],"outputs":[{"name":"","type":"string","internalType":"string"}],"stateMutability":"view"},{"type":"function","name":"transferFrom","inputs":[{"name":"from","type":"address","internalType":"address"},{"name":"to","type":"address","internalType":"address"},{"name":"tokenId","type":"uint256","internalType":"uint256"}],"outputs":[],"stateMutability":"nonpayable"},{"type":"function","name":"transferOwnership","inputs":[{"name":"newOwner","type":"address","internalType":"address"}],"outputs":[],"stateMutability":"nonpayable"},{"type":"function","name":"treasury","inputs":[],"outputs":[{"name":"","type":"address","internalType":"address"}],"stateMutability":"view"},{"type":"function","name":"treasurySplit","inputs":[],"outputs":[{"name":"","type":"uint256","internalType":"uint256"}],"stateMutability":"view"},{"type":"function","name":"unpause","inputs":[],"outputs":[],"stateMutability":"nonpayable"},{"type":"function","name":"upgradeFee","inputs":[],"outputs":[{"name":"","type":"uint256","internalType":"uint256"}],"stateMutability":"view"},{"type":"function","name":"upgradeSBT","inputs":[{"name":"_sbtId","type":"uint256","internalType":"uint256"},{"name":"_organizer","type":"address","internalType":"address"}],"outputs":[],"stateMutability":"payable"},{"type":"function","name":"upgradedSBTs","inputs":[{"name":"","type":"uint256","internalType":"uint256"}],"outputs":[{"name":"","type":"bool","internalType":"bool"}],"stateMutability":"view"},{"type":"event","name":"Approval","inputs":[{"name":"owner","type":"address","indexed":true,"internalType":"address"},{"name":"approved","type":"address","indexed":true,"internalType":"address"},{"name":"tokenId","type":"uint256","indexed":true,"internalType":"uint256"}],"anonymous":false},{"type":"event","name":"ApprovalForAll","inputs":[{"name":"owner","type":"address","indexed":true,"internalType":"address"},{"name":"operator","type":"address","indexed":true,"internalType":"address"},{"name":"approved","type":"bool","indexed":false,"internalType":"bool"}],"anonymous":false},{"type":"event","name":"BaseURISet","inputs":[{"name":"newBaseURI","type":"string","indexed":false,"internalType":"string"}],"anonymous":false},{"type":"event","name":"FeeDistributed","inputs":[{"name":"organizer","type":"address","indexed":true,"internalType":"address"},{"name":"treasuryAmount","type":"uint256","indexed":false,"internalType":"uint256"},{"name":"organizerAmount","type":"uint256","indexed":false,"internalType":"uint256"}],"anonymous":false},{"type":"event","name":"FeeSplitSet","inputs":[{"name":"treasurySplit","type":"uint256","indexed":false,"internalType":"uint256"},{"name":"organizerSplit","type":"uint256","indexed":false,"internalType":"uint256"}],"anonymous":false},{"type":"event","name":"OwnershipTransferred","inputs":[{"name":"previousOwner","type":"address","indexed":true,"internalType":"address"},{"name":"newOwner","type":"address","indexed":true,"internalType":"address"}],"anonymous":false},{"type":"event","name":"Paused","inputs":[{"name":"account","type":"address","indexed":false,"internalType":"address"}],"anonymous":false},{"type":"event","name":"SBTUpgraded","inputs":[{"name":"user","type":"address","indexed":true,"internalType":"address"},{"name":"sbtId","type":"uint256","indexed":true,"internalType":"uint256"},{"name":"premiumId","type":"uint256","indexed":true,"internalType":"uint256"},{"name":"fee","type":"uint256","indexed":false,"internalType":"uint256"}],"anonymous":false},{"type":"event","name":"Transfer","inputs":[{"name":"from","type":"address","indexed":true,"internalType":"address"},{"name":"to","type":"address","indexed":true,"internalType":"address"},{"name":"tokenId","type":"uint256","indexed":true,"internalType":"uint256"}],"anonymous":false},{"type":"event","name":"TreasurySet","inputs":[{"name":"newTreasury","type":"address","indexed":true,"internalType":"address"}],"anonymous":false},{"type":"event","name":"Unpaused","inputs":[{"name":"account","type":"address","indexed":false,"internalType":"address"}],"anonymous":false},{"type":"event","name":"UpgradeFeeSet","inputs":[{"name":"newFee","type":"uint256","indexed":false,"internalType":"uint256"}],"anonymous":false},{"type":"error","name":"ERC721IncorrectOwner","inputs":[{"name":"sender","type":"address","internalType":"address"},{"name":"tokenId","type":"uint256","internalType":"uint256"},{"name":"owner","type":"address","internalType":"address"}]},{"type":"error","name":"ERC721InsufficientApproval","inputs":[{"name":"operator","type":"address","internalType":"address"},{"name":"tokenId","type":"uint256","internalType":"uint256"}]},{"type":"error","name":"ERC721InvalidApprover","inputs":[{"name":"approver","type":"address","internalType":"address"}]},{"type":"error","name":"ERC721InvalidOperator","inputs":[{"name":"operator","type":"address","internalType":"address"}]},{"type":"error","name":"ERC721InvalidOwner","inputs":[{"name":"owner","type":"address","internalType":"address"}]},{"type":"error","name":"ERC721InvalidReceiver","inputs":[{"name":"receiver","type":"address","internalType":"address"}]},{"type":"error","name":"ERC721InvalidSender","inputs":[{"name":"sender","type":"address","internalType":"address"}]},{"type":"error","name":"ERC721NonexistentToken","inputs":[{"name":"tokenId","type":"uint256","internalType":"uint256"}]},{"type":"error","name":"EnforcedPause","inputs":[]},{"type":"error","name":"ExpectedPause","inputs":[]},{"type":"error","name":"InsufficientFee","inputs":[]},{"type":"error","name":"InvalidAddress","inputs":[]},{"type":"error","name":"InvalidFeeSplit","inputs":[]},{"type":"error","name":"OwnableInvalidOwner","inputs":[{"name":"owner","type":"address","internalType":"address"}]},{"type":"error","name":"OwnableUnauthorizedAccount","inputs":[{"name":"account","type":"address","internalType":"address"}]},{"type":"error","name":"ReentrancyGuardReentrantCall","inputs":[]},{"type":"error","name":"SBTAlreadyUpgraded","inputs":[]},{"type":"error","name":"SBTDoesNotExist","inputs":[]},{"type":"error","name":"SBTNotOwned","inputs":[]}],"bytecode":{"object":"0x608060405234801562000010575f80fd5b50604051620024bc380380620024bc833981016040819052620000339162000210565b3385855f6200004383826200032f565b5060016200005282826200032f565b5050506001600160a01b0381166200008357604051631e4fbdf760e01b81525f600482015260240160405180910390fd5b6200008e81620000e5565b5060016007556008805460ff19169055600b80546001600160a01b039485166001600160a01b031991821617909155600d805493909416921691909117909155600c555050610ea6600e5561186a600f55620003f7565b600680546001600160a01b038381166001600160a01b0319831681179093556040519116919082907f8be0079c531659141344cd1fd0a4f28419497f9722a3daafe3b4186f6b6457e0905f90a35050565b634e487b7160e01b5f52604160045260245ffd5b5f82601f8301126200015a575f80fd5b81516001600160401b038082111562000177576200017762000136565b604051601f8301601f19908116603f01168101908282118183101715620001a257620001a262000136565b81604052838152602092508683858801011115620001be575f80fd5b5f91505b83821015620001e15785820183015181830184015290820190620001c2565b5f93810190920192909252949350505050565b80516001600160a01b03811681146200020b575f80fd5b919050565b5f805f805f60a0868803121562000225575f80fd5b85516001600160401b03808211156200023c575f80fd5b6200024a89838a016200014a565b9650602088015191508082111562000260575f80fd5b506200026f888289016200014a565b9450506200028060408701620001f4565b92506200029060608701620001f4565b9150608086015190509295509295909350565b600181811c90821680620002b857607f821691505b602082108103620002d757634e487b7160e01b5f52602260045260245ffd5b50919050565b601f8211156200032a575f81815260208120601f850160051c81016020861015620003055750805b601f850160051c820191505b81811015620003265782815560010162000311565b5050505b505050565b81516001600160401b038111156200034b576200034b62000136565b62000363816200035c8454620002a3565b84620002dd565b602080601f83116001811462000399575f8415620003815750858301515b5f19600386901b1c1916600185901b17855562000326565b5f85815260208120601f198616915b82811015620003c957888601518255948401946001909101908401620003a8565b5085821015620003e757878501515f19600388901b60f8161c191681555b5050505050600190811b01905550565b6120b780620004055f395ff3fe60806040526004361061021d575f3560e01c8063715018a61161011e578063b88d4fde116100a8578063e5ac4fb41161006d578063e5ac4fb414610603578063e985e9c514610618578063ea3a267f14610637578063f0f4426014610665578063f2fde38b14610684575f80fd5b8063b88d4fde1461057d578063bae18ac31461059c578063c87b56dd146105bb578063db2e21bc146105da578063e1f1c4a7146105ee575f80fd5b80638456cb59116100ee5780638456cb59146104fa5780638c4ee01c1461050e5780638da5cb5b1461052d57806395d89b411461054a578063a22cb4651461055e575f80fd5b8063715018a61461047a57806373bba5911461048e57806375750337146104ad5780637e6335c7146104db575f80fd5b80633f4ba83a116101aa5780635c975abb1161016f5780635c975abb146103db57806361d027b3146103f25780636352211e146104115780636e8be04b1461043057806370a082311461045b575f80fd5b80633f4ba83a1461036057806340fa61f71461037457806342842e0e1461038957806355f804b3146103a857806356189236146103c7575f80fd5b80630ec7dcb7116101f05780630ec7dcb7146102ce578063103e9dc0146102e157806312065fe014610304578063150d99701461031657806323b872dd14610341575f80fd5b806301ffc9a71461022157806306fdde0314610255578063081812fc14610276578063095ea7b3146102ad575b5f80fd5b34801561022c575f80fd5b5061024061023b366004611adb565b6106a3565b60405190151581526020015b60405180910390f35b348015610260575f80fd5b506102696106f4565b60405161024c9190611b43565b348015610281575f80fd5b50610295610290366004611b55565b610783565b6040516001600160a01b03909116815260200161024c565b3480156102b8575f80fd5b506102cc6102c7366004611b80565b6107aa565b005b6102cc6102dc366004611baa565b6107b9565b3480156102ec575f80fd5b506102f6600e5481565b60405190815260200161024c565b34801561030f575f80fd5b50476102f6565b348015610321575f80fd5b506102f6610330366004611b55565b60106020525f908152604090205481565b34801561034c575f80fd5b506102cc61035b366004611bd8565b6109e4565b34801561036b575f80fd5b506102cc610a6d565b34801561037f575f80fd5b506102f6600c5481565b348015610394575f80fd5b506102cc6103a3366004611bd8565b610a7f565b3480156103b3575f80fd5b506102cc6103c2366004611c9d565b610a9e565b3480156103d2575f80fd5b506009546102f6565b3480156103e6575f80fd5b5060085460ff16610240565b3480156103fd575f80fd5b50600d54610295906001600160a01b031681565b34801561041c575f80fd5b5061029561042b366004611b55565b610aed565b34801561043b575f80fd5b506102f661044a366004611b55565b5f9081526010602052604090205490565b348015610466575f80fd5b506102f6610475366004611ce2565b610af7565b348015610485575f80fd5b506102cc610b3c565b348015610499575f80fd5b50600b54610295906001600160a01b031681565b3480156104b8575f80fd5b506102406104c7366004611b55565b5f9081526011602052604090205460ff1690565b3480156104e6575f80fd5b506102cc6104f5366004611cfd565b610b4d565b348015610505575f80fd5b506102cc610c44565b348015610519575f80fd5b506102cc610528366004611ce2565b610c54565b348015610538575f80fd5b506006546001600160a01b0316610295565b348015610555575f80fd5b50610269610cd4565b348015610569575f80fd5b506102cc610578366004611d2a565b610ce3565b348015610588575f80fd5b506102cc610597366004611d56565b610cee565b3480156105a7575f80fd5b506102cc6105b6366004611b55565b610d05565b3480156105c6575f80fd5b506102696105d5366004611b55565b610d42565b3480156105e5575f80fd5b506102cc610da7565b3480156105f9575f80fd5b506102f661271081565b34801561060e575f80fd5b506102f6600f5481565b348015610623575f80fd5b50610240610632366004611dd1565b610e98565b348015610642575f80fd5b50610240610651366004611b55565b60116020525f908152604090205460ff1681565b348015610670575f80fd5b506102cc61067f366004611ce2565b610ec5565b34801561068f575f80fd5b506102cc61069e366004611ce2565b610f6c565b5f6001600160e01b031982166380ac58cd60e01b14806106d357506001600160e01b03198216635b5e139f60e01b145b806106ee57506301ffc9a760e01b6001600160e01b03198316145b92915050565b60605f805461070290611dfd565b80601f016020809104026020016040519081016040528092919081815260200182805461072e90611dfd565b80156107795780601f1061075057610100808354040283529160200191610779565b820191905f5260205f20905b81548152906001019060200180831161075c57829003601f168201915b5050505050905090565b5f61078d82610fa9565b505f828152600460205260409020546001600160a01b03166106ee565b6107b5828233610fe1565b5050565b6107c1610fee565b6107c9611018565b6001600160a01b0381166108245760405162461bcd60e51b815260206004820152601960248201527f496e76616c6964206f7267616e697a657220616464726573730000000000000060448201526064015b60405180910390fd5b600c543410156108695760405162461bcd60e51b815260206004820152601060248201526f496e73756666696369656e742066656560801b604482015260640161081b565b600b5460405163430c208160e01b8152336004820152602481018490526001600160a01b039091169063430c208190604401602060405180830381865afa1580156108b6573d5f803e3d5ffd5b505050506040513d601f19601f820116820180604052508101906108da9190611e35565b6108f757604051630ea194ef60e11b815260040160405180910390fd5b5f8281526011602052604090205460ff161561092657604051631ec7180560e31b815260040160405180910390fd5b600b546040516331a9108f60e11b8152600481018490526001600160a01b0390911690636352211e90602401602060405180830381865afa92505050801561098b575060408051601f3d908101601f1916820190925261098891810190611e50565b60015b6109a85760405163674dd4d360e01b815260040160405180910390fd5b6001600160a01b0381166109cf5760405163674dd4d360e01b815260040160405180910390fd5b506109da828261103c565b6107b56001600755565b6001600160a01b038216610a0d57604051633250574960e11b81525f600482015260240161081b565b5f610a1983833361112f565b9050836001600160a01b0316816001600160a01b031614610a67576040516364283d7b60e01b81526001600160a01b038086166004830152602482018490528216604482015260640161081b565b50505050565b610a75611221565b610a7d61124e565b565b610a9983838360405180602001604052805f815250610cee565b505050565b610aa6611221565b600a610ab28282611eb8565b507ff9c7803e94e0d3c02900d8a90893a6d5e90dd04d32a4cfe825520f82bf9f32f681604051610ae29190611b43565b60405180910390a150565b5f6106ee82610fa9565b5f6001600160a01b038216610b21576040516322718ad960e21b81525f600482015260240161081b565b506001600160a01b03165f9081526003602052604090205490565b610b44611221565b610a7d5f6112a0565b610b55611221565b612710610b628284611f88565b14610ba35760405162461bcd60e51b8152602060048201526011602482015270125b9d985b1a5908199959481cdc1b1a5d607a1b604482015260640161081b565b5f82118015610bb157505f81115b610bfd5760405162461bcd60e51b815260206004820152601760248201527f53706c697473206d75737420626520706f736974697665000000000000000000604482015260640161081b565b600e829055600f81905560408051838152602081018390527f73f47330dbb335fc9891ea52c4d46cce63b1c1c0ed7743545c99183134c5de14910160405180910390a15050565b610c4c611221565b610a7d6112f1565b610c5c611221565b6001600160a01b038116610cb25760405162461bcd60e51b815260206004820152601860248201527f496e76616c696420636f6e747261637420616464726573730000000000000000604482015260640161081b565b600b80546001600160a01b0319166001600160a01b0392909216919091179055565b60606001805461070290611dfd565b6107b533838361132e565b610cf98484846109e4565b610a67848484846113cc565b610d0d611221565b600c8190556040518181527f9b139638a940fefdf79187c76a51e818dc05fd488e7d82c3a7f200dac48c5d3290602001610ae2565b6060610d4d82610fa9565b505f610d576114f2565b90505f815111610d755760405180602001604052805f815250610da0565b80610d7f84611501565b604051602001610d90929190611f9b565b6040516020818303038152906040525b9392505050565b610daf611221565b4780610df45760405162461bcd60e51b81526020600482015260146024820152734e6f2066756e647320746f20776974686472617760601b604482015260640161081b565b5f610e076006546001600160a01b031690565b6001600160a01b0316826040515f6040518083038185875af1925050503d805f8114610e4e576040519150601f19603f3d011682016040523d82523d5f602084013e610e53565b606091505b50509050806107b55760405162461bcd60e51b815260206004820152601160248201527015da5d1a191c985dd85b0819985a5b1959607a1b604482015260640161081b565b6001600160a01b039182165f90815260056020908152604080832093909416825291909152205460ff1690565b610ecd611221565b6001600160a01b038116610f235760405162461bcd60e51b815260206004820152601860248201527f496e76616c696420747265617375727920616464726573730000000000000000604482015260640161081b565b600d80546001600160a01b0319166001600160a01b0383169081179091556040517f3c864541ef71378c6229510ed90f376565ee42d9c5e0904a984a9e863e6db44f905f90a250565b610f74611221565b6001600160a01b038116610f9d57604051631e4fbdf760e01b81525f600482015260240161081b565b610fa6816112a0565b50565b5f818152600260205260408120546001600160a01b0316806106ee57604051637e27328960e01b81526004810184905260240161081b565b610a998383836001611591565b60026007540361101157604051633ee5aeb560e01b815260040160405180910390fd5b6002600755565b60085460ff1615610a7d5760405163d93c066560e01b815260040160405180910390fd5b600b54604051637bb62fc160e11b8152600481018490526001600160a01b039091169063f76c5f82906024015f604051808303815f87803b15801561107f575f80fd5b505af1158015611091573d5f803e3d5ffd5b5050505f838152601160205260408120805460ff1916600117905560098054925082916110bd83611fc9565b91905055506110cc3382611695565b5f8381526010602052604090208190556110e5826116ae565b8083336001600160a01b03167fb563979765f59a2f0bd2aeb9753800ab162ebc5fe44bda69f0decc8e256c0ff13460405161112291815260200190565b60405180910390a4505050565b5f828152600260205260408120546001600160a01b039081169083161561115b5761115b81848661188d565b6001600160a01b03811615611195576111765f855f80611591565b6001600160a01b0381165f90815260036020526040902080545f190190555b6001600160a01b038516156111c3576001600160a01b0385165f908152600360205260409020805460010190555b5f8481526002602052604080822080546001600160a01b0319166001600160a01b0389811691821790925591518793918516917fddf252ad1be2c89b69c2b068fc378daa952ba7f163c4a11628f55a4df523b3ef91a4949350505050565b6006546001600160a01b03163314610a7d5760405163118cdaa760e01b815233600482015260240161081b565b6112566118f1565b6008805460ff191690557f5db9ee0a495bf2e6ff9c91a7834c1ba4fdd244a5e8aa4e537bd38aeae4b073aa335b6040516001600160a01b03909116815260200160405180910390a1565b600680546001600160a01b038381166001600160a01b0319831681179093556040519116919082907f8be0079c531659141344cd1fd0a4f28419497f9722a3daafe3b4186f6b6457e0905f90a35050565b6112f9611018565b6008805460ff191660011790557f62e78cea01bee320cd4e420270b5ea74000d11b0c9f74754ebdbfc544b05a2586112833390565b6001600160a01b03821661136057604051630b61174360e31b81526001600160a01b038316600482015260240161081b565b6001600160a01b038381165f81815260056020908152604080832094871680845294825291829020805460ff191686151590811790915591519182527f17307eab39ab6107e8899845ad3d59bd9653f200f220920489ca2b5937696c31910160405180910390a3505050565b6001600160a01b0383163b15610a6757604051630a85bd0160e11b81526001600160a01b0384169063150b7a029061140e903390889087908790600401611fe1565b6020604051808303815f875af1925050508015611448575060408051601f3d908101601f191682019092526114459181019061201d565b60015b6114af573d808015611475576040519150601f19603f3d011682016040523d82523d5f602084013e61147a565b606091505b5080515f036114a757604051633250574960e11b81526001600160a01b038516600482015260240161081b565b805181602001fd5b6001600160e01b03198116630a85bd0160e11b146114eb57604051633250574960e11b81526001600160a01b038516600482015260240161081b565b5050505050565b6060600a805461070290611dfd565b60605f61150d83611914565b60010190505f8167ffffffffffffffff81111561152c5761152c611c16565b6040519080825280601f01601f191660200182016040528015611556576020820181803683370190505b5090508181016020015b5f19016f181899199a1a9b1b9c1cb0b131b232b360811b600a86061a8153600a850494508461156057509392505050565b80806115a557506001600160a01b03821615155b15611666575f6115b484610fa9565b90506001600160a01b038316158015906115e05750826001600160a01b0316816001600160a01b031614155b80156115f357506115f18184610e98565b155b1561161c5760405163a9fbf51f60e01b81526001600160a01b038416600482015260240161081b565b81156116645783856001600160a01b0316826001600160a01b03167f8c5be1e5ebec7d5bd14f71427d1e84f3dd0314c0f7b2291e5b200ac8c7c3b92560405160405180910390a45b505b50505f90815260046020526040902080546001600160a01b0319166001600160a01b0392909216919091179055565b6107b5828260405180602001604052805f8152506119eb565b600e5434905f90612710906116c39084612038565b6116cd919061204f565b90505f6116da828461206e565b90505f821180156116f55750600d546001600160a01b031615155b1561179c57600d546040515f916001600160a01b03169084908381818185875af1925050503d805f8114611744576040519150601f19603f3d011682016040523d82523d5f602084013e611749565b606091505b505090508061179a5760405162461bcd60e51b815260206004820152601860248201527f5472656173757279207472616e73666572206661696c65640000000000000000604482015260640161081b565b505b8015611843575f846001600160a01b0316826040515f6040518083038185875af1925050503d805f81146117eb576040519150601f19603f3d011682016040523d82523d5f602084013e6117f0565b606091505b50509050806118415760405162461bcd60e51b815260206004820152601960248201527f4f7267616e697a6572207472616e73666572206661696c656400000000000000604482015260640161081b565b505b60408051838152602081018390526001600160a01b038616917f891d4da69faf2cf5f9b5a4bceeeba1909237ad5d6222ebe54fbcab15067f8e68910160405180910390a250505050565b611898838383611a01565b610a99576001600160a01b0383166118c657604051637e27328960e01b81526004810182905260240161081b565b60405163177e802f60e01b81526001600160a01b03831660048201526024810182905260440161081b565b60085460ff16610a7d57604051638dfc202b60e01b815260040160405180910390fd5b5f8072184f03e93ff9f4daa797ed6e38ed64bf6a1f0160401b83106119525772184f03e93ff9f4daa797ed6e38ed64bf6a1f0160401b830492506040015b6d04ee2d6d415b85acef8100000000831061197e576d04ee2d6d415b85acef8100000000830492506020015b662386f26fc10000831061199c57662386f26fc10000830492506010015b6305f5e10083106119b4576305f5e100830492506008015b61271083106119c857612710830492506004015b606483106119da576064830492506002015b600a83106106ee5760010192915050565b6119f58383611a65565b610a995f8484846113cc565b5f6001600160a01b03831615801590611a5d5750826001600160a01b0316846001600160a01b03161480611a3a5750611a3a8484610e98565b80611a5d57505f828152600460205260409020546001600160a01b038481169116145b949350505050565b6001600160a01b038216611a8e57604051633250574960e11b81525f600482015260240161081b565b5f611a9a83835f61112f565b90506001600160a01b03811615610a99576040516339e3563760e11b81525f600482015260240161081b565b6001600160e01b031981168114610fa6575f80fd5b5f60208284031215611aeb575f80fd5b8135610da081611ac6565b5f5b83811015611b10578181015183820152602001611af8565b50505f910152565b5f8151808452611b2f816020860160208601611af6565b601f01601f19169290920160200192915050565b602081525f610da06020830184611b18565b5f60208284031215611b65575f80fd5b5035919050565b6001600160a01b0381168114610fa6575f80fd5b5f8060408385031215611b91575f80fd5b8235611b9c81611b6c565b946020939093013593505050565b5f8060408385031215611bbb575f80fd5b823591506020830135611bcd81611b6c565b809150509250929050565b5f805f60608486031215611bea575f80fd5b8335611bf581611b6c565b92506020840135611c0581611b6c565b929592945050506040919091013590565b634e487b7160e01b5f52604160045260245ffd5b5f67ffffffffffffffff80841115611c4457611c44611c16565b604051601f8501601f19908116603f01168101908282118183101715611c6c57611c6c611c16565b81604052809350858152868686011115611c84575f80fd5b858560208301375f602087830101525050509392505050565b5f60208284031215611cad575f80fd5b813567ffffffffffffffff811115611cc3575f80fd5b8201601f81018413611cd3575f80fd5b611a5d84823560208401611c2a565b5f60208284031215611cf2575f80fd5b8135610da081611b6c565b5f8060408385031215611d0e575f80fd5b50508035926020909101359150565b8015158114610fa6575f80fd5b5f8060408385031215611d3b575f80fd5b8235611d4681611b6c565b91506020830135611bcd81611d1d565b5f805f8060808587031215611d69575f80fd5b8435611d7481611b6c565b93506020850135611d8481611b6c565b925060408501359150606085013567ffffffffffffffff811115611da6575f80fd5b8501601f81018713611db6575f80fd5b611dc587823560208401611c2a565b91505092959194509250565b5f8060408385031215611de2575f80fd5b8235611ded81611b6c565b91506020830135611bcd81611b6c565b600181811c90821680611e1157607f821691505b602082108103611e2f57634e487b7160e01b5f52602260045260245ffd5b50919050565b5f60208284031215611e45575f80fd5b8151610da081611d1d565b5f60208284031215611e60575f80fd5b8151610da081611b6c565b601f821115610a99575f81815260208120601f850160051c81016020861015611e915750805b601f850160051c820191505b81811015611eb057828155600101611e9d565b505050505050565b815167ffffffffffffffff811115611ed257611ed2611c16565b611ee681611ee08454611dfd565b84611e6b565b602080601f831160018114611f19575f8415611f025750858301515b5f19600386901b1c1916600185901b178555611eb0565b5f85815260208120601f198616915b82811015611f4757888601518255948401946001909101908401611f28565b5085821015611f6457878501515f19600388901b60f8161c191681555b5050505050600190811b01905550565b634e487b7160e01b5f52601160045260245ffd5b808201808211156106ee576106ee611f74565b5f8351611fac818460208801611af6565b835190830190611fc0818360208801611af6565b01949350505050565b5f60018201611fda57611fda611f74565b5060010190565b6001600160a01b03858116825284166020820152604081018390526080606082018190525f9061201390830184611b18565b9695505050505050565b5f6020828403121561202d575f80fd5b8151610da081611ac6565b80820281158282048414176106ee576106ee611f74565b5f8261206957634e487b7160e01b5f52601260045260245ffd5b500490565b818103818111156106ee576106ee611f7456fea2646970667358221220879054834ff4a5442b44716121bc09843dba353e1d4579ddd52e7feb354d971d64736f6c63430008140033","linkReferences":{}},"methodIdentifiers":{"BASIS_POINTS()":"e1f1c4a7","approve(address,uint256)":"095ea7b3","balanceOf(address)":"70a08231","basicMerchContract()":"73bba591","emergencyWithdraw()":"db2e21bc","getApproved(uint256)":"081812fc","getBalance()":"12065fe0","getCurrentTokenId()":"56189236","getPremiumTokenId(uint256)":"6e8be04b","isApprovedForAll(address,address)":"e985e9c5","isSBTUpgraded(uint256)":"75750337","name()":"06fdde03","organizerSplit()":"e5ac4fb4","owner()":"8da5cb5b","ownerOf(uint256)":"6352211e","pause()":"8456cb59","paused()":"5c975abb","renounceOwnership()":"715018a6","safeTransferFrom(address,address,uint256)":"42842e0e","safeTransferFrom(address,address,uint256,bytes)":"b88d4fde","sbtToPremiumMapping(uint256)":"150d9970","setApprovalForAll(address,bool)":"a22cb465","setBaseURI(string)":"55f804b3","setBasicMerchContract(address)":"8c4ee01c","setFeeSplit(uint256,uint256)":"7e6335c7","setTreasury(address)":"f0f44260","setUpgradeFee(uint256)":"bae18ac3","supportsInterface(bytes4)":"01ffc9a7","symbol()":"95d89b41","tokenURI(uint256)":"c87b56dd","transferFrom(address,address,uint256)":"23b872dd","transferOwnership(address)":"f2fde38b","treasury()":"61d027b3","treasurySplit()":"103e9dc0","unpause()":"3f4ba83a","upgradeFee()":"40fa61f7","upgradeSBT(uint256,address)":"0ec7dcb7","upgradedSBTs(uint256)":"ea3a267f"},"id":33}