{"abi":[{"type":"constructor","inputs":[{"name":"name","type":"string","internalType":"string"},{"name":"symbol","type":"string","internalType":"string"},{"name":"_basicMerchContract","type":"address","internalType":"address"},{"name":"_treasury","type":"address","internalType":"address"},{"name":"_upgradeFee","type":"uint256","internalType":"uint256"}],"stateMutability":"nonpayable"},{"type":"function","name":"BASIS_POINTS","inputs":[],"outputs":[{"name":"","type":"uint256","internalType":"uint256"}],"stateMutability":"view"},{"type":"function","name":"approve","inputs":[{"name":"to","type":"address","internalType":"address"},{"name":"tokenId","type":"uint256","internalType":"uint256"}],"outputs":[],"stateMutability":"nonpayable"},{"type":"function","name":"balanceOf","inputs":[{"name":"owner","type":"address","internalType":"address"}],"outputs":[{"name":"","type":"uint256","internalType":"uint256"}],"stateMutability":"view"},{"type":"function","name":"basicMerchContract","inputs":[],"outputs":[{"name":"","type":"address","internalType":"contract BasicMerch"}],"stateMutability":"view"},{"type":"function","name":"canMintCompanion","inputs":[{"name":"_sbtId","type":"uint256","internalType":"uint256"},{"name":"_user","type":"address","internalType":"address"}],"outputs":[{"name":"","type":"bool","internalType":"bool"},{"name":"","type":"string","internalType":"string"}],"stateMutability":"view"},{"type":"function","name":"emergencyWithdraw","inputs":[],"outputs":[],"stateMutability":"nonpayable"},{"type":"function","name":"getApproved","inputs":[{"name":"tokenId","type":"uint256","internalType":"uint256"}],"outputs":[{"name":"","type":"address","internalType":"address"}],"stateMutability":"view"},{"type":"function","name":"getBalance","inputs":[],"outputs":[{"name":"","type":"uint256","internalType":"uint256"}],"stateMutability":"view"},{"type":"function","name":"getCurrentTokenId","inputs":[],"outputs":[{"name":"","type":"uint256","internalType":"uint256"}],"stateMutability":"view"},{"type":"function","name":"getPremiumTokenId","inputs":[{"name":"_sbtId","type":"uint256","internalType":"uint256"}],"outputs":[{"name":"","type":"uint256","internalType":"uint256"}],"stateMutability":"view"},{"type":"function","name":"isApprovedForAll","inputs":[{"name":"owner","type":"address","internalType":"address"},{"name":"operator","type":"address","internalType":"address"}],"outputs":[{"name":"","type":"bool","internalType":"bool"}],"stateMutability":"view"},{"type":"function","name":"isSBTUsedForCompanion","inputs":[{"name":"_sbtId","type":"uint256","internalType":"uint256"}],"outputs":[{"name":"","type":"bool","internalType":"bool"}],"stateMutability":"view"},{"type":"function","name":"mintCompanion","inputs":[{"name":"_sbtId","type":"uint256","internalType":"uint256"},{"name":"_organizer","type":"address","internalType":"address"},{"name":"_upgrader","type":"address","internalType":"address"}],"outputs":[],"stateMutability":"payable"},{"type":"function","name":"name","inputs":[],"outputs":[{"name":"","type":"string","internalType":"string"}],"stateMutability":"view"},{"type":"function","name":"organizerSplit","inputs":[],"outputs":[{"name":"","type":"uint256","internalType":"uint256"}],"stateMutability":"view"},{"type":"function","name":"owner","inputs":[],"outputs":[{"name":"","type":"address","internalType":"address"}],"stateMutability":"view"},{"type":"function","name":"ownerOf","inputs":[{"name":"tokenId","type":"uint256","internalType":"uint256"}],"outputs":[{"name":"","type":"address","internalType":"address"}],"stateMutability":"view"},{"type":"function","name":"pause","inputs":[],"outputs":[],"stateMutability":"nonpayable"},{"type":"function","name":"paused","inputs":[],"outputs":[{"name":"","type":"bool","internalType":"bool"}],"stateMutability":"view"},{"type":"function","name":"renounceOwnership","inputs":[],"outputs":[],"stateMutability":"nonpayable"},{"type":"function","name":"safeTransferFrom","inputs":[{"name":"from","type":"address","internalType":"address"},{"name":"to","type":"address","internalType":"address"},{"name":"tokenId","type":"uint256","internalType":"uint256"}],"outputs":[],"stateMutability":"nonpayable"},{"type":"function","name":"safeTransferFrom","inputs":[{"name":"from","type":"address","internalType":"address"},{"name":"to","type":"address","internalType":"address"},{"name":"tokenId","type":"uint256","internalType":"uint256"},{"name":"data","type":"bytes","internalType":"bytes"}],"outputs":[],"stateMutability":"nonpayable"},{"type":"function","name":"sbtToPremiumMapping","inputs":[{"name":"","type":"uint256","internalType":"uint256"}],"outputs":[{"name":"","type":"uint256","internalType":"uint256"}],"stateMutability":"view"},{"type":"function","name":"setApprovalForAll","inputs":[{"name":"operator","type":"address","internalType":"address"},{"name":"approved","type":"bool","internalType":"bool"}],"outputs":[],"stateMutability":"nonpayable"},{"type":"function","name":"setBaseURI","inputs":[{"name":"_uri","type":"string","internalType":"string"}],"outputs":[],"stateMutability":"nonpayable"},{"type":"function","name":"setBasicMerchContract","inputs":[{"name":"_basicMerchContract","type":"address","internalType":"address"}],"outputs":[],"stateMutability":"nonpayable"},{"type":"function","name":"setFeeSplit","inputs":[{"name":"_treasurySplit","type":"uint256","internalType":"uint256"},{"name":"_organizerSplit","type":"uint256","internalType":"uint256"}],"outputs":[],"stateMutability":"nonpayable"},{"type":"function","name":"setTokenURI","inputs":[{"name":"_tokenId","type":"uint256","internalType":"uint256"},{"name":"_tokenURI","type":"string","internalType":"string"}],"outputs":[],"stateMutability":"nonpayable"},{"type":"function","name":"setTreasury","inputs":[{"name":"_newTreasury","type":"address","internalType":"address"}],"outputs":[],"stateMutability":"nonpayable"},{"type":"function","name":"setUpgradeFee","inputs":[{"name":"_newFee","type":"uint256","internalType":"uint256"}],"outputs":[],"stateMutability":"nonpayable"},{"type":"function","name":"supportsInterface","inputs":[{"name":"interfaceId","type":"bytes4","internalType":"bytes4"}],"outputs":[{"name":"","type":"bool","internalType":"bool"}],"stateMutability":"view"},{"type":"function","name":"symbol","inputs":[],"outputs":[{"name":"","type":"string","internalType":"string"}],"stateMutability":"view"},{"type":"function","name":"tokenURI","inputs":[{"name":"tokenId","type":"uint256","internalType":"uint256"}],"outputs":[{"name":"","type":"string","internalType":"string"}],"stateMutability":"view"},{"type":"function","name":"transferFrom","inputs":[{"name":"from","type":"address","internalType":"address"},{"name":"to","type":"address","internalType":"address"},{"name":"tokenId","type":"uint256","internalType":"uint256"}],"outputs":[],"stateMutability":"nonpayable"},{"type":"function","name":"transferOwnership","inputs":[{"name":"newOwner","type":"address","internalType":"address"}],"outputs":[],"stateMutability":"nonpayable"},{"type":"function","name":"treasury","inputs":[],"outputs":[{"name":"","type":"address","internalType":"address"}],"stateMutability":"view"},{"type":"function","name":"treasurySplit","inputs":[],"outputs":[{"name":"","type":"uint256","internalType":"uint256"}],"stateMutability":"view"},{"type":"function","name":"unpause","inputs":[],"outputs":[],"stateMutability":"nonpayable"},{"type":"function","name":"upgradeFee","inputs":[],"outputs":[{"name":"","type":"uint256","internalType":"uint256"}],"stateMutability":"view"},{"type":"function","name":"upgradedSBTs","inputs":[{"name":"","type":"uint256","internalType":"uint256"}],"outputs":[{"name":"","type":"bool","internalType":"bool"}],"stateMutability":"view"},{"type":"event","name":"Approval","inputs":[{"name":"owner","type":"address","indexed":true,"internalType":"address"},{"name":"approved","type":"address","indexed":true,"internalType":"address"},{"name":"tokenId","type":"uint256","indexed":true,"internalType":"uint256"}],"anonymous":false},{"type":"event","name":"ApprovalForAll","inputs":[{"name":"owner","type":"address","indexed":true,"internalType":"address"},{"name":"operator","type":"address","indexed":true,"internalType":"address"},{"name":"approved","type":"bool","indexed":false,"internalType":"bool"}],"anonymous":false},{"type":"event","name":"BaseURISet","inputs":[{"name":"newBaseURI","type":"string","indexed":false,"internalType":"string"}],"anonymous":false},{"type":"event","name":"CompanionMinted","inputs":[{"name":"user","type":"address","indexed":true,"internalType":"address"},{"name":"sbtId","type":"uint256","indexed":true,"internalType":"uint256"},{"name":"premiumId","type":"uint256","indexed":true,"internalType":"uint256"},{"name":"fee","type":"uint256","indexed":false,"internalType":"uint256"}],"anonymous":false},{"type":"event","name":"ExcessRefunded","inputs":[{"name":"user","type":"address","indexed":true,"internalType":"address"},{"name":"amount","type":"uint256","indexed":false,"internalType":"uint256"}],"anonymous":false},{"type":"event","name":"FeeDistributed","inputs":[{"name":"organizer","type":"address","indexed":true,"internalType":"address"},{"name":"treasuryAmount","type":"uint256","indexed":false,"internalType":"uint256"},{"name":"organizerAmount","type":"uint256","indexed":false,"internalType":"uint256"}],"anonymous":false},{"type":"event","name":"FeeSplitSet","inputs":[{"name":"treasurySplit","type":"uint256","indexed":false,"internalType":"uint256"},{"name":"organizerSplit","type":"uint256","indexed":false,"internalType":"uint256"}],"anonymous":false},{"type":"event","name":"OwnershipTransferred","inputs":[{"name":"previousOwner","type":"address","indexed":true,"internalType":"address"},{"name":"newOwner","type":"address","indexed":true,"internalType":"address"}],"anonymous":false},{"type":"event","name":"Paused","inputs":[{"name":"account","type":"address","indexed":false,"internalType":"address"}],"anonymous":false},{"type":"event","name":"TokenURISet","inputs":[{"name":"tokenId","type":"uint256","indexed":true,"internalType":"uint256"},{"name":"tokenURI","type":"string","indexed":false,"internalType":"string"}],"anonymous":false},{"type":"event","name":"Transfer","inputs":[{"name":"from","type":"address","indexed":true,"internalType":"address"},{"name":"to","type":"address","indexed":true,"internalType":"address"},{"name":"tokenId","type":"uint256","indexed":true,"internalType":"uint256"}],"anonymous":false},{"type":"event","name":"TreasurySet","inputs":[{"name":"newTreasury","type":"address","indexed":true,"internalType":"address"}],"anonymous":false},{"type":"event","name":"Unpaused","inputs":[{"name":"account","type":"address","indexed":false,"internalType":"address"}],"anonymous":false},{"type":"event","name":"UpgradeFeeSet","inputs":[{"name":"newFee","type":"uint256","indexed":false,"internalType":"uint256"}],"anonymous":false},{"type":"error","name":"ERC721IncorrectOwner","inputs":[{"name":"sender","type":"address","internalType":"address"},{"name":"tokenId","type":"uint256","internalType":"uint256"},{"name":"owner","type":"address","internalType":"address"}]},{"type":"error","name":"ERC721InsufficientApproval","inputs":[{"name":"operator","type":"address","internalType":"address"},{"name":"tokenId","type":"uint256","internalType":"uint256"}]},{"type":"error","name":"ERC721InvalidApprover","inputs":[{"name":"approver","type":"address","internalType":"address"}]},{"type":"error","name":"ERC721InvalidOperator","inputs":[{"name":"operator","type":"address","internalType":"address"}]},{"type":"error","name":"ERC721InvalidOwner","inputs":[{"name":"owner","type":"address","internalType":"address"}]},{"type":"error","name":"ERC721InvalidReceiver","inputs":[{"name":"receiver","type":"address","internalType":"address"}]},{"type":"error","name":"ERC721InvalidSender","inputs":[{"name":"sender","type":"address","internalType":"address"}]},{"type":"error","name":"ERC721NonexistentToken","inputs":[{"name":"tokenId","type":"uint256","internalType":"uint256"}]},{"type":"error","name":"EnforcedPause","inputs":[]},{"type":"error","name":"ExpectedPause","inputs":[]},{"type":"error","name":"InsufficientFee","inputs":[]},{"type":"error","name":"InvalidAddress","inputs":[]},{"type":"error","name":"InvalidFeeSplit","inputs":[]},{"type":"error","name":"NoFundsToWithdraw","inputs":[]},{"type":"error","name":"OwnableInvalidOwner","inputs":[{"name":"owner","type":"address","internalType":"address"}]},{"type":"error","name":"OwnableUnauthorizedAccount","inputs":[{"name":"account","type":"address","internalType":"address"}]},{"type":"error","name":"ReentrancyGuardReentrantCall","inputs":[]},{"type":"error","name":"SBTAlreadyUpgraded","inputs":[]},{"type":"error","name":"SBTDoesNotExist","inputs":[]},{"type":"error","name":"SBTNotOwned","inputs":[]},{"type":"error","name":"TransferFailed","inputs":[]}],"bytecode":{"object":"0x604060808152346200042557620024e5803803806200001e816200042a565b928339810160a082820312620004255781516001600160401b03908181116200042557826200004f91850162000450565b91602090818501519083821162000425576200006d91860162000450565b936200007b868201620004c2565b9260806200008c60608401620004c2565b920151958551908282116200040f576000948554926001988985811c9516801562000404575b83861014620003f0578190601f958681116200039d575b508390868311600114620003395789926200032d575b5050600019600383901b1c191690891b1786555b8151938411620003195787548881811c911680156200030e575b82821014620002fa579081848695949311620002a3575b50809284116001146200023b575085926200022f575b5050600019600383901b1c191690851b1784555b33156200021757600680546001600160a01b03198082163390811790935588519690956001600160a01b0395869491938516907f8be0079c531659141344cd1fd0a4f28419497f9722a3daafe3b4186f6b6457e09080a38060075560ff19600854166008556009551693841562000208575016918215620001f75781600c541617600c55600e541617600e55600d55610ea6600f5561186a6010555161200d9081620004d88239f35b845163e6c4247b60e01b8152600490fd5b63e6c4247b60e01b8152600490fd5b8551631e4fbdf760e01b815260048101839052602490fd5b0151905038806200013a565b9190889450601f1984168588528388209388905b8282106200028957505084116200026f575b505050811b0184556200014e565b015160001960f88460031b161c1916905538808062000261565b8484015186558b979095019493840193908101906200024f565b90919293508887528187208480870160051c820192848810620002f0575b9187968c92969594930160051c01915b828110620002e157505062000124565b8981558796508b9101620002d1565b92508192620002c1565b634e487b7160e01b87526022600452602487fd5b90607f16906200010d565b634e487b7160e01b86526041600452602486fd5b015190503880620000df565b898052848a208c94509190601f1984168b5b878282106200038657505084116200036c575b505050811b018655620000f3565b015160001960f88460031b161c191690553880806200035e565b8385015186558f979095019493840193016200034b565b9091508880528389208680850160051c820192868610620003e6575b918d91869594930160051c01915b828110620003d7575050620000c9565b8b81558594508d9101620003c7565b92508192620003b9565b634e487b7160e01b88526022600452602488fd5b94607f1694620000b2565b634e487b7160e01b600052604160045260246000fd5b600080fd5b6040519190601f01601f191682016001600160401b038111838210176200040f57604052565b919080601f84011215620004255782516001600160401b0381116200040f5760209062000486601f8201601f191683016200042a565b92818452828287010111620004255760005b818110620004ae57508260009394955001015290565b858101830151848201840152820162000498565b51906001600160a01b0382168203620004255756fe6080604081815260048036101561001557600080fd5b600092833560e01c90816301ffc9a71461156c5750806306fdde03146114c4578063081812fc14611489578063095ea7b3146113ad578063103e9dc01461138e57806312065fe01461137357806314bcb385146102e7578063150d997014610e13578063162094c41461119057806323b872dd146111785780633f4ba83a1461110f57806340fa61f7146110f057806342842e0e146110c157806355f804b314610ed75780635618923614610eb85780635c975abb14610e9457806361d027b314610e6b5780636352211e14610e3a5780636e8be04b14610e1357806370a0823114610dbe578063715018a614610d6157806373bba59114610d3857806377bd591914610cf55780637e6335c714610c515780638456cb5914610bf65780638c4ee01c14610ba75780638da5cb5b14610b7e57806395d89b4114610a9b5780639f28c3f3146105a0578063a22cb465146104ff578063b88d4fde1461048d578063bae18ac314610440578063c87b56dd14610405578063db2e21bc146103a1578063e1f1c4a714610384578063e5ac4fb414610365578063e985e9c514610313578063ea3a267f146102e7578063f0f442601461026d5763f2fde38b146101db57600080fd5b34610269576020366003190112610269576101f4611620565b906101fd611767565b6001600160a01b03918216928315610253575050600654826bffffffffffffffffffffffff60a01b821617600655167f8be0079c531659141344cd1fd0a4f28419497f9722a3daafe3b4186f6b6457e08380a380f35b51631e4fbdf760e01b8152908101849052602490fd5b8280fd5b503461026957602036600319011261026957610287611620565b61028f611767565b6001600160a01b03169182156102da575050600e80546001600160a01b031916821790557f3c864541ef71378c6229510ed90f376565ee42d9c5e0904a984a9e863e6db44f8280a280f35b5163e6c4247b60e01b8152fd5b5034610269576020366003190112610269578160209360ff923581526012855220541690519015158152f35b50503461036157806003193601126103615760ff81602093610333611620565b61033b61163b565b6001600160a01b0391821683526005875283832091168252855220549151911615158152f35b5080fd5b5050346103615781600319360112610361576020906010549051908152f35b505034610361578160031936011261036157602090516127108152f35b5090346102695782600319360112610269576103bb611767565b4780156103f75760065484918291829182916001600160a01b03165af16103e06119aa565b50156103ea578280f35b516312171d8360e31b8152fd5b50516367e3990d60e01b8152fd5b50913461043d57602036600319011261043d57506104266104399235611b4b565b90519182916020835260208301906115fb565b0390f35b80fd5b5034610269576020366003190112610269577f9b139638a940fefdf79187c76a51e818dc05fd488e7d82c3a7f200dac48c5d32916020913590610481611767565b81600d5551908152a180f35b838234610361576080366003190112610361576104a8611620565b6104b061163b565b6044359060643567ffffffffffffffff81116104fb57366023820112156104fb576104f8948160246104e7933693013591016116dd565b926104f38383836117cd565b6119da565b80f35b8580fd5b509034610269578060031936011261026957610519611620565b906024359182151580930361059c576001600160a01b03169283156105875750338452600560205280842083855260205280842060ff1981541660ff8416179055519081527f17307eab39ab6107e8899845ad3d59bd9653f200f220920489ca2b5937696c3160203392a380f35b836024925191630b61174360e31b8352820152fd5b8480fd5b506060366003190112610269578035906105b861163b565b604435936001600160a01b038086169390848703610a9757600260075414610a885760026007556105e7611b2d565b808416918215610a7a57600d5494853410610a6c57878a526020956012875260ff868c205416610a5c57600c54865163430c208160e01b81526001600160a01b038c16858201908152602081018c90529091899183918816908290819060400103915afa908115610a52578c91610a25575b5015610a15578a818b9234116109b4575b508990525060128652848a20805460ff191660011790556009549860001990818b1461083e5760018b016009558651916106a383611651565b8c8352891561099d578b8a898f8060028e867fddf252ad1be2c89b69c2b068fc378daa952ba7f163c4a11628f55a4df523b3ef94528181528c858420541694851515988961096b575b5086845260038252832080546001019055868352528c812080546001600160a01b0319168517905580a4610954573b610851575b50878a526011865288858b2055600d54600f5480820290828204148215171561083e57610759949392916127108d920495868092611b0a565b9481151580610831575b610801575b505090836107d7575b505050838093927f891d4da69faf2cf5f9b5a4bceeeba1909237ad5d6222ebe54fbcab15067f8e68927ffddca31c7739568221bbb7a149efeec13843a46c4ece369dd64404d4fc5c030e97965191825286820152a2600d549051908152a4600160075580f35b81808581935af16107e66119aa565b50156107f3578981610771565b84516312171d8360e31b8152fd5b8280928192600e54165af16108146119aa565b5015610822578a8438610768565b5084516312171d8360e31b8152fd5b5080600e54161515610763565b634e487b7160e01b8c526011845260248cfd5b9161089887899a969594889a8d8f9b9f869f9b51809681958294630a85bd0160e11b9a8b8552339085015284602485015260448401526080606484015260848301906115fb565b03925af1889181610910575b506108da578b8b8b8b6108b56119aa565b805194856108d457505051633250574960e11b81529182015260249150fd5b85925001fd5b63ffffffff60e09c989c9b9495969a99979b1b16036108f95738610720565b8451633250574960e11b8152808301889052602490fd5b9091508c81813d831161094d575b610928818361169f565b8101031261094957516001600160e01b0319811681036109495790386108a4565b8880fd5b503d61091e565b86516339e3563760e11b81528085018d9052602490fd5b600089815260046020526040902080546001600160a01b031916905586855260038352818520908154019055386106ec565b8751633250574960e11b81528086018e9052602490fd5b81806109c1819334611b0a565b80955af16109cd6119aa565b5015610a05577f2c003babc9bab745cd44b6d4ba45ddf77bdbda4a59d52e1fc805dfb0d8895c7e8789928851908152a2888a3861066a565b85516312171d8360e31b81528390fd5b8551630ea194ef60e11b81528390fd5b610a459150883d8a11610a4b575b610a3d818361169f565b810190611af2565b38610659565b503d610a33565b87513d8e823e3d90fd5b8551631ec7180560e31b81528390fd5b50835162976f7560e21b8152fd5b835163e6c4247b60e01b8152fd5b509051633ee5aeb560e01b8152fd5b8780fd5b505034610361578160031936011261036157805190826001805491610abf83611793565b80865292828116908115610b565750600114610afa575b505050610ae88261043994038361169f565b519182916020835260208301906115fb565b94508085527fb10e2d527612073b26eecdfd717e6a320cf44b4afac2b0732d9fcbe2b7fa0cf65b828610610b3e57505050610ae88260206104399582010194610ad6565b80546020878701810191909152909501948101610b21565b610439975086935060209250610ae894915060ff191682840152151560051b82010194610ad6565b50503461036157816003193601126103615760065490516001600160a01b039091168152602090f35b503461026957602036600319011261026957610bc1611620565b610bc9611767565b6001600160a01b03169182156102da5750506bffffffffffffffffffffffff60a01b600c541617600c5580f35b50503461036157816003193601126103615760207f62e78cea01bee320cd4e420270b5ea74000d11b0c9f74754ebdbfc544b05a25891610c34611767565b610c3c611b2d565b600160ff19600854161760085551338152a180f35b509190346103615780600319360112610361578235602435610c71611767565b808201808311610ce25761271003610cca5781158015610cda575b610cca577f73f47330dbb335fc9891ea52c4d46cce63b1c1c0ed7743545c99183134c5de1493945081600f558060105582519182526020820152a180f35b8251630601f69760e01b81528590fd5b508015610c8c565b634e487b7160e01b855260118652602485fd5b50823461043d578260031936011261043d5750610d1e61043991610d1761163b565b9035611e87565b8392919251938493151584528060208501528301906115fb565b505034610361578160031936011261036157600c5490516001600160a01b039091168152602090f35b833461043d578060031936011261043d57610d7a611767565b600680546001600160a01b0319811690915581906001600160a01b03167f8be0079c531659141344cd1fd0a4f28419497f9722a3daafe3b4186f6b6457e08280a380f35b50913461043d57602036600319011261043d576001600160a01b03610de1611620565b16928315610dfe5750806020938392526003845220549051908152f35b91516322718ad960e21b815291820152602490fd5b50346102695760203660031901126102695760209282913581526011845220549051908152f35b50913461043d57602036600319011261043d5750610e5a6020923561196f565b90516001600160a01b039091168152f35b505034610361578160031936011261036157600e5490516001600160a01b039091168152602090f35b50503461036157816003193601126103615760209060ff6008541690519015158152f35b5050346103615781600319360112610361576020906009549051908152f35b5082903461036157602092836003193601126102695767ffffffffffffffff823581811161059c57610f0c9036908501611714565b92610f15611767565b83519182116110ae5750610f2a600a54611793565b601f811161104c575b5084601f8211600114610fa6579181610f95928697947ff9c7803e94e0d3c02900d8a90893a6d5e90dd04d32a4cfe825520f82bf9f32f69791610f9b575b508160011b916000199060031b1c191617600a555b519282849384528301906115fb565b0390a180f35b905085015188610f71565b600a85527fc65a7bb8d6351c1cf70c95a316cc6a92839c986682d98bc35f958f4883f9d2a890601f198316865b8181106110355750927ff9c7803e94e0d3c02900d8a90893a6d5e90dd04d32a4cfe825520f82bf9f32f69697949260019282610f95961061101c575b5050811b01600a55610f86565b87015160001960f88460031b161c19169055888061100f565b91928860018192868a015181550194019201610fd3565b600a85527fc65a7bb8d6351c1cf70c95a316cc6a92839c986682d98bc35f958f4883f9d2a8601f830160051c8101918784106110a4575b601f0160051c01905b8181106110995750610f33565b85815560010161108c565b9091508190611083565b634e487b7160e01b855260419052602484fd5b505034610361576104f8906110d536611732565b919251926110e284611651565b8584526104f38383836117cd565b505034610361578160031936011261036157602090600d549051908152f35b5034610269578260031936011261026957611128611767565b6008549060ff82161561116a575060ff1916600855513381527f5db9ee0a495bf2e6ff9c91a7834c1ba4fdd244a5e8aa4e537bd38aeae4b073aa90602090a180f35b8251638dfc202b60e01b8152fd5b833461043d576104f861118a36611732565b916117cd565b503461026957816003193601126102695780359167ffffffffffffffff906024358281116104fb576111c59036908501611714565b926111ce611767565b84865260026020908152828720549093906001600160a01b03161561136457858752600b8452828720918551918211611351575061120c8254611793565b601f811161130e575b5083601f82116001146112875791817fda84ca2183491f179a603e877b2cb058e42195041c2b9c53d746427e519a34df96959492611276948a9161127c575b508160011b916000199060031b1c1916179055519282849384528301906115fb565b0390a280f35b905086015138611254565b82885284882090601f198316895b8181106112f75750926112769492600192827fda84ca2183491f179a603e877b2cb058e42195041c2b9c53d746427e519a34df9a999896106112de575b5050811b019055610f86565b88015160001960f88460031b161c1916905538806112d2565b91928760018192868c015181550194019201611295565b828852848820601f830160051c810191868410611347575b601f0160051c01905b81811061133c5750611215565b88815560010161132f565b9091508190611326565b634e487b7160e01b885260419052602487fd5b50905163674dd4d360e01b8152fd5b50503461036157816003193601126103615751478152602090f35b505034610361578160031936011261036157602090600f549051908152f35b5090346102695780600319360112610269576113c7611620565b916024356113d48161196f565b33151580611476575b8061144d575b611437576001600160a01b039485169482918691167f8c5be1e5ebec7d5bd14f71427d1e84f3dd0314c0f7b2291e5b200ac8c7c3b9258880a48452602052822080546001600160a01b031916909117905580f35b835163a9fbf51f60e01b81523381850152602490fd5b506001600160a01b03811686526005602090815284872033885290528386205460ff16156113e3565b506001600160a01b0381163314156113dd565b5034610269576020366003190112610269579182602093356114aa8161196f565b50825283528190205490516001600160a01b039091168152f35b5050346103615781600319360112610361578051908280546114e581611793565b80855291600191808316908115610b56575060011461151057505050610ae88261043994038361169f565b80809650527f290decd9548b62a8d60345a988386fc84ba6bc95484008f6362f93160ef3e5635b82861061155457505050610ae88260206104399582010194610ad6565b80546020878701810191909152909501948101611537565b92505034610269576020366003190112610269573563ffffffff60e01b811680910361026957602092506380ac58cd60e01b81149081156115c7575b81156115b6575b5015158152f35b6301ffc9a760e01b149050386115af565b635b5e139f60e01b811491506115a8565b60005b8381106115eb5750506000910152565b81810151838201526020016115db565b90602091611614815180928185528580860191016115d8565b601f01601f1916010190565b600435906001600160a01b038216820361163657565b600080fd5b602435906001600160a01b038216820361163657565b6020810190811067ffffffffffffffff82111761166d57604052565b634e487b7160e01b600052604160045260246000fd5b6040810190811067ffffffffffffffff82111761166d57604052565b90601f8019910116810190811067ffffffffffffffff82111761166d57604052565b67ffffffffffffffff811161166d57601f01601f191660200190565b9291926116e9826116c1565b916116f7604051938461169f565b829481845281830111611636578281602093846000960137010152565b9080601f830112156116365781602061172f933591016116dd565b90565b6060906003190112611636576001600160a01b0390600435828116810361163657916024359081168103611636579060443590565b6006546001600160a01b0316330361177b57565b60405163118cdaa760e01b8152336004820152602490fd5b90600182811c921680156117c3575b60208310146117ad57565b634e487b7160e01b600052602260045260246000fd5b91607f16916117a2565b6001600160a01b039182169290918315611956576000928284528260209560028752604096848888205416968791331515806118bd575b509060027fddf252ad1be2c89b69c2b068fc378daa952ba7f163c4a11628f55a4df523b3ef928461188a575b858352600381528b8320805460010190558683525289812080546001600160a01b0319168517905580a416928383036118695750505050565b6064945051926364283d7b60e01b8452600484015260248301526044820152fd5b600087815260046020526040902080546001600160a01b0319169055848352600381528b83208054600019019055611830565b91939450915080611915575b156118d957859291879138611804565b8786886118f6576024915190637e27328960e01b82526004820152fd5b905163177e802f60e01b81523360048201526024810191909152604490fd5b50338714801561193a575b806118c957508582526004815233858984205416146118c9565b5086825260058152878220338352815260ff8883205416611920565b604051633250574960e11b815260006004820152602490fd5b6000818152600260205260409020546001600160a01b0316908115611992575090565b60249060405190637e27328960e01b82526004820152fd5b3d156119d5573d906119bb826116c1565b916119c9604051938461169f565b82523d6000602084013e565b606090565b9190803b6119e9575b50505050565b611a2b60018060a01b0380921694604051938493630a85bd0160e11b9687865233600487015216602485015260448401526080606484015260848301906115fb565b03906020816000938185885af190829082611aaa575b5050611a795782611a506119aa565b8051919082611a7257604051633250574960e11b815260048101839052602490fd5b9050602001fd5b6001600160e01b03191603611a925750388080806119e3565b60249060405190633250574960e11b82526004820152fd5b909192506020813d8211611aea575b81611ac66020938361169f565b810103126103615751906001600160e01b03198216820361043d5750903880611a41565b3d9150611ab9565b90816020910312611636575180151581036116365790565b91908203918211611b1757565b634e487b7160e01b600052601160045260246000fd5b60ff60085416611b3957565b60405163d93c066560e01b8152600490fd5b60008181526002602090815260408083205490939192906001600160a01b031615611e7657818152600b8352838120845181549093918484611b8c84611793565b92838352600194898682169182600014611e56575050600114611e18575b50611bb79250038561169f565b8551938391600a9182549387611bcc86611793565b918282528a8201968b8682169182600014611dfd575050600114611da4575b611bf79250038861169f565b865115611d98578051611d985750849390817a184f03e93ff9f4daa797ed6e38ed64bf6a1f0100000000000000008181811015611d8b575b50508390896d04ee2d6d415b85acef810000000080831015611d7f575b5050662386f26fc1000080821015611d72575b506305f5e10080821015611d65575b5061271080821015611d58575b506064811015611d4a575b1015611d41575b9081602186611cb6838d9901611cae611ca5826116c1565b9a519a8b61169f565b808a526116c1565b888c019990601f1901368b3750870101905b611d0b575b5050505090611cff61172f95949392611cf09751978895518092888801906115d8565b840191518093868401906115d8565b0103808452018261169f565b600019019083906f181899199a1a9b1b9c1cb0b131b232b360811b8282061a835304918215611d3c57919082611cc8565b611ccd565b80940193611c8d565b606460029104960195611c86565b6004910496019538611c7b565b6008910496019538611c6e565b6010910496019538611c5f565b97019690048938611c4c565b8b97500490508338611c2f565b97505050505050505090565b5050838752878988857fc65a7bb8d6351c1cf70c95a316cc6a92839c986682d98bc35f958f4883f9d2a85b858310611de5575050611bf79350820101611beb565b90919383858354920101520191018a90858b93611dcf565b60ff19168952611bf794151560051b8401019150611beb9050565b915050845284868086208487915b858310611e3d575050611bb7935082010138611baa565b80919294505483858b0101520191018790848893611e26565b60ff191685820152611bb795151560051b8501019250389150611baa9050565b835163674dd4d360e01b8152600490fd5b9190600090838252602091601283528260409560ff8784205416611f9c57600c54875163430c208160e01b81526001600160a01b03958616600482015260248101929092529293909283916044918391165afa908115611f92578291611f75575b5015611f515760ff60085416611f2757507121b0b71036b4b73a1031b7b6b830b734b7b760711b6001935191611f1d83611683565b6012835282015290565b6e10dbdb9d1c9858dd081c185d5cd959608a1b90935191611f4783611683565b600f835282015290565b682737ba1037bbb732b960b91b90935191611f6b83611683565b6009835282015290565b611f8c9150833d8511610a4b57610a3d818361169f565b38611ee8565b85513d84823e3d90fd5b50507f416c7265616479207573656420666f7220636f6d70616e696f6e0000000000009150935191611fcd83611683565b601a83528201529056fea26469706673582212206ab2b72e7e9ca615c11035dbcb82b8e2e407355ff5d33035cac0268678b03bac64736f6c63430008140033","linkReferences":{}},"methodIdentifiers":{"BASIS_POINTS()":"e1f1c4a7","approve(address,uint256)":"095ea7b3","balanceOf(address)":"70a08231","basicMerchContract()":"73bba591","canMintCompanion(uint256,address)":"77bd5919","emergencyWithdraw()":"db2e21bc","getApproved(uint256)":"081812fc","getBalance()":"12065fe0","getCurrentTokenId()":"56189236","getPremiumTokenId(uint256)":"6e8be04b","isApprovedForAll(address,address)":"e985e9c5","isSBTUsedForCompanion(uint256)":"14bcb385","mintCompanion(uint256,address,address)":"9f28c3f3","name()":"06fdde03","organizerSplit()":"e5ac4fb4","owner()":"8da5cb5b","ownerOf(uint256)":"6352211e","pause()":"8456cb59","paused()":"5c975abb","renounceOwnership()":"715018a6","safeTransferFrom(address,address,uint256)":"42842e0e","safeTransferFrom(address,address,uint256,bytes)":"b88d4fde","sbtToPremiumMapping(uint256)":"150d9970","setApprovalForAll(address,bool)":"a22cb465","setBaseURI(string)":"55f804b3","setBasicMerchContract(address)":"8c4ee01c","setFeeSplit(uint256,uint256)":"7e6335c7","setTokenURI(uint256,string)":"162094c4","setTreasury(address)":"f0f44260","setUpgradeFee(uint256)":"bae18ac3","supportsInterface(bytes4)":"01ffc9a7","symbol()":"95d89b41","tokenURI(uint256)":"c87b56dd","transferFrom(address,address,uint256)":"23b872dd","transferOwnership(address)":"f2fde38b","treasury()":"61d027b3","treasurySplit()":"103e9dc0","unpause()":"3f4ba83a","upgradeFee()":"40fa61f7","upgradedSBTs(uint256)":"ea3a267f"},"id":36}