{"abi":[{"type":"constructor","inputs":[{"name":"_basicMerch","type":"address","internalType":"address"},{"name":"_premiumMerch","type":"address","internalType":"address"},{"name":"_easIntegration","type":"address","internalType":"address"}],"stateMutability":"nonpayable"},{"type":"function","name":"allEventIds","inputs":[{"name":"","type":"uint256","internalType":"uint256"}],"outputs":[{"name":"","type":"bytes32","internalType":"bytes32"}],"stateMutability":"view"},{"type":"function","name":"basicMerch","inputs":[],"outputs":[{"name":"","type":"address","internalType":"contract BasicMerch"}],"stateMutability":"view"},{"type":"function","name":"batchRegisterEvents","inputs":[{"name":"_eventIds","type":"bytes32[]","internalType":"bytes32[]"},{"name":"_metadataArray","type":"string[]","internalType":"string[]"}],"outputs":[],"stateMutability":"nonpayable"},{"type":"function","name":"canUserMintCompanion","inputs":[{"name":"_sbtId","type":"uint256","internalType":"uint256"},{"name":"_user","type":"address","internalType":"address"}],"outputs":[{"name":"","type":"bool","internalType":"bool"},{"name":"","type":"string","internalType":"string"}],"stateMutability":"view"},{"type":"function","name":"createEvent","inputs":[{"name":"_name","type":"string","internalType":"string"},{"name":"_description","type":"string","internalType":"string"},{"name":"_imageURI","type":"string","internalType":"string"},{"name":"_maxAttendees","type":"uint256","internalType":"uint256"}],"outputs":[{"name":"","type":"bytes32","internalType":"bytes32"}],"stateMutability":"nonpayable"},{"type":"function","name":"easIntegration","inputs":[],"outputs":[{"name":"","type":"address","internalType":"contract EASIntegration"}],"stateMutability":"view"},{"type":"function","name":"eventMetadata","inputs":[{"name":"","type":"bytes32","internalType":"bytes32"}],"outputs":[{"name":"","type":"string","internalType":"string"}],"stateMutability":"view"},{"type":"function","name":"events","inputs":[{"name":"","type":"bytes32","internalType":"bytes32"}],"outputs":[{"name":"name","type":"string","internalType":"string"},{"name":"description","type":"string","internalType":"string"},{"name":"imageURI","type":"string","internalType":"string"},{"name":"creator","type":"address","internalType":"address"},{"name":"isActive","type":"bool","internalType":"bool"},{"name":"createdAt","type":"uint256","internalType":"uint256"},{"name":"totalAttendees","type":"uint256","internalType":"uint256"},{"name":"maxAttendees","type":"uint256","internalType":"uint256"}],"stateMutability":"view"},{"type":"function","name":"eventsByCreator","inputs":[{"name":"","type":"address","internalType":"address"},{"name":"","type":"uint256","internalType":"uint256"}],"outputs":[{"name":"","type":"bytes32","internalType":"bytes32"}],"stateMutability":"view"},{"type":"function","name":"getAllEvents","inputs":[],"outputs":[{"name":"","type":"bytes32[]","internalType":"bytes32[]"}],"stateMutability":"view"},{"type":"function","name":"getContractAddresses","inputs":[],"outputs":[{"name":"","type":"address","internalType":"address"},{"name":"","type":"address","internalType":"address"},{"name":"","type":"address","internalType":"address"}],"stateMutability":"view"},{"type":"function","name":"getEvent","inputs":[{"name":"_eventId","type":"bytes32","internalType":"bytes32"}],"outputs":[{"name":"name","type":"string","internalType":"string"},{"name":"description","type":"string","internalType":"string"},{"name":"imageURI","type":"string","internalType":"string"},{"name":"creator","type":"address","internalType":"address"},{"name":"isActive","type":"bool","internalType":"bool"},{"name":"createdAt","type":"uint256","internalType":"uint256"},{"name":"totalAttendees","type":"uint256","internalType":"uint256"},{"name":"maxAttendees","type":"uint256","internalType":"uint256"}],"stateMutability":"view"},{"type":"function","name":"getEventAttendance","inputs":[{"name":"_eventId","type":"bytes32","internalType":"bytes32"}],"outputs":[{"name":"","type":"bytes32[]","internalType":"bytes32[]"}],"stateMutability":"view"},{"type":"function","name":"getEventMetadata","inputs":[{"name":"_eventId","type":"bytes32","internalType":"bytes32"}],"outputs":[{"name":"","type":"string","internalType":"string"}],"stateMutability":"view"},{"type":"function","name":"getEventsByCreator","inputs":[{"name":"_creator","type":"address","internalType":"address"}],"outputs":[{"name":"","type":"bytes32[]","internalType":"bytes32[]"}],"stateMutability":"view"},{"type":"function","name":"getRemainingSpots","inputs":[{"name":"_eventId","type":"bytes32","internalType":"bytes32"}],"outputs":[{"name":"","type":"uint256","internalType":"uint256"}],"stateMutability":"view"},{"type":"function","name":"getUpgradeFee","inputs":[],"outputs":[{"name":"","type":"uint256","internalType":"uint256"}],"stateMutability":"view"},{"type":"function","name":"getUserAttendanceHistory","inputs":[{"name":"_user","type":"address","internalType":"address"}],"outputs":[{"name":"","type":"bytes32[]","internalType":"bytes32[]"}],"stateMutability":"view"},{"type":"function","name":"getUserPremiumUpgrades","inputs":[{"name":"_user","type":"address","internalType":"address"}],"outputs":[{"name":"","type":"bytes32[]","internalType":"bytes32[]"}],"stateMutability":"view"},{"type":"function","name":"hasUserAttendedEvent","inputs":[{"name":"_user","type":"address","internalType":"address"},{"name":"_eventId","type":"bytes32","internalType":"bytes32"}],"outputs":[{"name":"","type":"bool","internalType":"bool"}],"stateMutability":"view"},{"type":"function","name":"isEventActive","inputs":[{"name":"_eventId","type":"bytes32","internalType":"bytes32"}],"outputs":[{"name":"","type":"bool","internalType":"bool"}],"stateMutability":"view"},{"type":"function","name":"isEventRegistered","inputs":[{"name":"_eventId","type":"bytes32","internalType":"bytes32"}],"outputs":[{"name":"","type":"bool","internalType":"bool"}],"stateMutability":"view"},{"type":"function","name":"mintCompanionWithAttestation","inputs":[{"name":"_sbtId","type":"uint256","internalType":"uint256"},{"name":"_organizer","type":"address","internalType":"address"},{"name":"_eventId","type":"bytes32","internalType":"bytes32"}],"outputs":[{"name":"","type":"uint256","internalType":"uint256"},{"name":"","type":"bytes32","internalType":"bytes32"}],"stateMutability":"payable"},{"type":"function","name":"mintSBTWithAttestation","inputs":[{"name":"_to","type":"address","internalType":"address"},{"name":"_tokenURI","type":"string","internalType":"string"},{"name":"_eventId","type":"bytes32","internalType":"bytes32"},{"name":"_signature","type":"bytes","internalType":"bytes"}],"outputs":[{"name":"","type":"uint256","internalType":"uint256"},{"name":"","type":"bytes32","internalType":"bytes32"}],"stateMutability":"nonpayable"},{"type":"function","name":"owner","inputs":[],"outputs":[{"name":"","type":"address","internalType":"address"}],"stateMutability":"view"},{"type":"function","name":"premiumMerch","inputs":[],"outputs":[{"name":"","type":"address","internalType":"contract PremiumMerch"}],"stateMutability":"view"},{"type":"function","name":"registerEvent","inputs":[{"name":"_eventId","type":"bytes32","internalType":"bytes32"},{"name":"_metadata","type":"string","internalType":"string"}],"outputs":[],"stateMutability":"nonpayable"},{"type":"function","name":"registeredEvents","inputs":[{"name":"","type":"bytes32","internalType":"bytes32"}],"outputs":[{"name":"","type":"bool","internalType":"bool"}],"stateMutability":"view"},{"type":"function","name":"renounceOwnership","inputs":[],"outputs":[],"stateMutability":"nonpayable"},{"type":"function","name":"setEventStatus","inputs":[{"name":"_eventId","type":"bytes32","internalType":"bytes32"},{"name":"_isActive","type":"bool","internalType":"bool"}],"outputs":[],"stateMutability":"nonpayable"},{"type":"function","name":"transferOwnership","inputs":[{"name":"newOwner","type":"address","internalType":"address"}],"outputs":[],"stateMutability":"nonpayable"},{"type":"function","name":"updateContracts","inputs":[{"name":"_basicMerch","type":"address","internalType":"address"},{"name":"_premiumMerch","type":"address","internalType":"address"},{"name":"_easIntegration","type":"address","internalType":"address"}],"outputs":[],"stateMutability":"nonpayable"},{"type":"function","name":"updateEvent","inputs":[{"name":"_eventId","type":"bytes32","internalType":"bytes32"},{"name":"_name","type":"string","internalType":"string"},{"name":"_description","type":"string","internalType":"string"},{"name":"_imageURI","type":"string","internalType":"string"}],"outputs":[],"stateMutability":"nonpayable"},{"type":"event","name":"CompanionMintedWithAttestation","inputs":[{"name":"user","type":"address","indexed":true,"internalType":"address"},{"name":"sbtId","type":"uint256","indexed":true,"internalType":"uint256"},{"name":"premiumId","type":"uint256","indexed":true,"internalType":"uint256"},{"name":"eventId","type":"bytes32","indexed":false,"internalType":"bytes32"},{"name":"attestationId","type":"bytes32","indexed":false,"internalType":"bytes32"}],"anonymous":false},{"type":"event","name":"ContractsUpdated","inputs":[{"name":"basicMerch","type":"address","indexed":true,"internalType":"address"},{"name":"premiumMerch","type":"address","indexed":true,"internalType":"address"},{"name":"easIntegration","type":"address","indexed":true,"internalType":"address"}],"anonymous":false},{"type":"event","name":"EventCreated","inputs":[{"name":"eventId","type":"bytes32","indexed":true,"internalType":"bytes32"},{"name":"creator","type":"address","indexed":true,"internalType":"address"},{"name":"name","type":"string","indexed":false,"internalType":"string"},{"name":"description","type":"string","indexed":false,"internalType":"string"},{"name":"imageURI","type":"string","indexed":false,"internalType":"string"},{"name":"maxAttendees","type":"uint256","indexed":false,"internalType":"uint256"},{"name":"timestamp","type":"uint256","indexed":false,"internalType":"uint256"}],"anonymous":false},{"type":"event","name":"EventRegistered","inputs":[{"name":"eventId","type":"bytes32","indexed":true,"internalType":"bytes32"},{"name":"metadata","type":"string","indexed":false,"internalType":"string"}],"anonymous":false},{"type":"event","name":"EventStatusChanged","inputs":[{"name":"eventId","type":"bytes32","indexed":true,"internalType":"bytes32"},{"name":"isActive","type":"bool","indexed":false,"internalType":"bool"}],"anonymous":false},{"type":"event","name":"EventUpdated","inputs":[{"name":"eventId","type":"bytes32","indexed":true,"internalType":"bytes32"},{"name":"name","type":"string","indexed":false,"internalType":"string"},{"name":"description","type":"string","indexed":false,"internalType":"string"},{"name":"imageURI","type":"string","indexed":false,"internalType":"string"}],"anonymous":false},{"type":"event","name":"OwnershipTransferred","inputs":[{"name":"previousOwner","type":"address","indexed":true,"internalType":"address"},{"name":"newOwner","type":"address","indexed":true,"internalType":"address"}],"anonymous":false},{"type":"event","name":"SBTMintedWithAttestation","inputs":[{"name":"user","type":"address","indexed":true,"internalType":"address"},{"name":"tokenId","type":"uint256","indexed":true,"internalType":"uint256"},{"name":"eventId","type":"bytes32","indexed":true,"internalType":"bytes32"},{"name":"attestationId","type":"bytes32","indexed":false,"internalType":"bytes32"}],"anonymous":false},{"type":"error","name":"ArrayLengthMismatch","inputs":[]},{"type":"error","name":"EmptyEventName","inputs":[]},{"type":"error","name":"EmptyImageURI","inputs":[]},{"type":"error","name":"EventAlreadyRegistered","inputs":[]},{"type":"error","name":"EventFull","inputs":[]},{"type":"error","name":"EventNotActive","inputs":[]},{"type":"error","name":"EventNotRegistered","inputs":[]},{"type":"error","name":"InvalidAddress","inputs":[]},{"type":"error","name":"InvalidEventId","inputs":[]},{"type":"error","name":"NotEventCreator","inputs":[]},{"type":"error","name":"OwnableInvalidOwner","inputs":[{"name":"owner","type":"address","internalType":"address"}]},{"type":"error","name":"OwnableUnauthorizedAccount","inputs":[{"name":"account","type":"address","internalType":"address"}]},{"type":"error","name":"ReentrancyGuardReentrantCall","inputs":[]}],"bytecode":{"object":"0x6080346200015457601f62002e0f38819003918201601f191683019291906001600160401b0384118385101762000158578160609284926040968752833981010312620001545762000051816200016c565b906200006d8362000065602084016200016c565b92016200016c565b33156200013d575f8054336001600160a01b03198083168217845587519690956001600160a01b03949093859391908416907f8be0079c531659141344cd1fd0a4f28419497f9722a3daafe3b4186f6b6457e09080a360018055169485156200012e575081169182156200011d57169283156200010c57826002541617600255816003541617600355600454161760045551612c8d9081620001828239f35b845163e6c4247b60e01b8152600490fd5b855163e6c4247b60e01b8152600490fd5b63e6c4247b60e01b8152600490fd5b8351631e4fbdf760e01b81525f6004820152602490fd5b5f80fd5b634e487b7160e01b5f52604160045260245ffd5b51906001600160a01b0382168203620001545756fe6080806040526004361015610012575f80fd5b5f90813560e01c908163050b5c5e1461213657508063067581161461208357806306e9d8a81461203c5780630af8622514611f325780630bb82ea914611c975780630d0626b914611ab657806311b687c814611a34578063131b2e17146118c65780631323e16a1461189d5780631969d4541461140d578063200205811461182a57806330f9f0f6146117d4578063630470801461177a57806364034211146117285780636dca4d4414611665578063715018a61461160c5780638c172fa21461156b5780638da5cb5b14611544578063953874d214611507578063a6fe4a6e14611456578063af384a7e1461140d578063b9587f7b146113aa578063bfdc4a6114611304578063c27a500d14611282578063d0ed06a114611231578063d569e8481461120a578063de4cd842146109ce578063e6b3f69a14610938578063f03bf2441461090f578063f0c51c5f146108e0578063f2fde38b14610853578063fda9cee81461082a5763fdf6fa9614610189575f80fd5b34610827576080366003190112610827576024356001600160401b03811161081f576101b99036906004016121f0565b6044356001600160401b038111610823576101d89036906004016121f0565b916064356001600160401b03811161081f576101f89036906004016121f0565b9160043582526005602052604082209060048201541561080d5760038201546001600160a01b031633036107fb57805190816106e9575b50508351806105ba575b5090918093505180610496575b509091506001908181016002820192604051683d913730b6b2911d1160b91b60208201526102d76002826102c0600e6102a56011610287602986018c61249a565b701116113232b9b1b934b83a34b7b7111d1160791b8152018961249a565b6d11161134b6b0b3b2aaa924911d1160911b8152018961249a565b61227d60f01b815203601d1981018452018261217e565b6004358652600960205260408620918151916001600160401b03831161048257610301845461235f565b601f811161043a575b5060209088601f85116001146103a9579380806103879561037999957f4af1c497c0129cdb9aa27902a0f855d8fbf77ea889a9d7b4cf815942af71e27f9b9995610398999461039e575b50501b915f199060031b1c19161790555b604051948594606086526060860190612397565b908482036020860152612397565b828103604084015260043595612397565b0390a280f35b015192505f80610354565b50848952602089209293929190601f1984168a5b81811061042457509361037997937f4af1c497c0129cdb9aa27902a0f855d8fbf77ea889a9d7b4cf815942af71e27f999793610398979383610387981061040c575b505050811b019055610365565b01515f1960f88460031b161c191690555f80806103ff565b82840151855593860193602093840193016103bd565b84895260208920601f850160051c81019160208610610478575b601f0160051c019083905b82811061046d57505061030a565b5f815501839061045f565b9091508190610454565b634e487b7160e01b88526041600452602488fd5b60028201906001600160401b0381116105a6576104b3825461235f565b601f8111610561575b50602094601f82116001146104ff5794849582939495926104f4575b50508160011b915f199060031b1c19161790555b81905f610246565b015190505f806104d8565b601f198216958386526020862091865b88811061054957508360019596979810610531575b505050811b0190556104ec565b01515f1960f88460031b161c191690555f8080610524565b9192602060018192868501518155019401920161050f565b82855260208520601f830160051c8101916020841061059c575b601f0160051c01905b81811061059157506104bc565b5f8155600101610584565b909150819061057b565b634e487b7160e01b84526041600452602484fd5b6001600160401b0381116106d5576105d5600183015461235f565b601f811161068d575b50602094601f821160011461062557948394958293949261061a575b50508160011b915f199060031b1c19161760018201555b9082915f610239565b015190505f806105fa565b601f198216956001840185526020852091855b8881106106755750836001959697981061065d575b505050811b016001820155610611565b01515f1960f88460031b161c191690555f808061064d565b91926020600181928685015181550194019201610638565b60018301845260208420601f830160051c810191602084106106cb575b601f0160051c01905b8181106106c057506105de565b5f81556001016106b3565b90915081906106aa565b634e487b7160e01b83526041600452602483fd5b6001600160401b0382116105a6578190610703845461235f565b601f81116107ab575b50602090601f831160011461074857859261073d575b50508160011b915f199060031b1c19161781555b5f8061022f565b015190505f80610722565b848652602086209250601f198416865b818110610793575090846001959493921061077b575b505050811b018155610736565b01515f1960f88460031b161c191690555f808061076e565b92936020600181928786015181550195019301610758565b90915083855260208520601f840160051c810191602085106107f1575b90601f859493920160051c01905b8181106107e3575061070c565b5f81558493506001016107d6565b90915081906107c8565b60405163779dbe6560e01b8152600490fd5b604051636bc4556560e01b8152600490fd5b5080fd5b8280fd5b80fd5b50346108275780600319360112610827576002546040516001600160a01b039091168152602090f35b50346108275760203660031901126108275761086d612224565b610875612428565b6001600160a01b039081169081156108c7575f54826bffffffffffffffffffffffff60a01b8216175f55167f8be0079c531659141344cd1fd0a4f28419497f9722a3daafe3b4186f6b6457e05f80a380f35b604051631e4fbdf760e01b815260048101849052602490fd5b50346108275760203660031901126108275760ff60406020926004358152600884522054166040519015158152f35b50346108275780600319360112610827576003546040516001600160a01b039091168152602090f35b503461082757602036600319011261082757610952612224565b8160018060a01b0360248160045416936040519485938492637359fb4d60e11b84521660048301525afa9081156109c3578261099c93926109a0575b505060405191829182612297565b0390f35b6109bc92503d8091833e6109b4818361217e565b810190612b9d565b5f8061098e565b6040513d84823e3d90fd5b5034610827576080366003190112610827576004356001600160401b03811161081f576109ff9036906004016121f0565b6024356001600160401b03811161082357610a1e9036906004016121f0565b906044356001600160401b03811161120657610a3e9036906004016121f0565b8151156111f5578051156111e357600654604051610a9260748260208101943360601b86528751610a76816034850160208c0161223a565b820190426034830152605482015203605481018452018261217e565b51902092838552600560205260046040862001546111d157604051610ab681612162565b838152816020820152826040820152336060820152600160808201524260a08201528560c082015260643560e08201528486526005602052604086209080518051906001600160401b038211611034578190610b12855461235f565b601f8111611184575b50602090601f831160011461111c578a92611111575b50508160011b915f199060031b1c19161782555b60208101518051906001600160401b038211611034578190610b6a600186015461235f565b601f81116110c1575b50602090601f8311600114611053578a92611048575b50508160011b915f199060031b1c19161760018301555b60408101518051906001600160401b03821161103457610bc3600285015461235f565b601f8111610ff0575b50602090601f8311600114610f7f5791806006949260e0948c92610f74575b50508160011b915f199060031b1c19161760028501555b6060810151600385018054608084015160ff60a01b90151560a01b166001600160a01b039093166001600160a81b03199091161791909117905560a0810151600485015560c081015160058501550151910155610c5e84612453565b3385526007602052604085208054600160401b811015610f6057610c87916001820181556122d1565b81549060031b9086821b915f19901b1916179055838552600860205260408520600160ff19825416179055604051683d913730b6b2911d1160b91b6020820152610d56604a828651610ce0816029840160208b0161223a565b8101701116113232b9b1b934b83a34b7b7111d1160791b6029820152855190610d1082603a830160208a0161223a565b016d11161134b6b0b3b2aaa924911d1160911b603a820152865190610d3c826048830160208b0161223a565b0161227d60f01b604882015203602a81018452018261217e565b848652600960205260408620908051906001600160401b03821161048257610d7e835461235f565b601f8111610f1b575b509186959391889593602099508990601f8311600114610e7357604095610e218996610e5d9996868d977f356bfa625091650a093fccb27bac2d3329e98c971046beb9b4bfafab2a076c5897610e2e975f80516020612c388339815191529f92610e68575b50508160011b915f199060031b1c19161790555b610e1489519760a0895260a089019061225b565b908782038f89015261225b565b908582038887015261225b565b9260643560608201524260808201528033940390a3848152600987522060405191829187835287830190612397565b0390a2604051908152f35b015190505f80610dec565b908388528a882091885b601f1985168110610f01575095610e215f80516020612c388339815191529996610e5d99966001877f356bfa625091650a093fccb27bac2d3329e98c971046beb9b4bfafab2a076c58978f999760409d610e2e99601f19811610610ee9575b505050811b019055610e00565b01515f1960f88460031b161c191690555f8080610edc565b8183015184558b9a50600190930192918c01918c01610e7d565b83895260208920601f840160051c81019160208510610f56575b601f0160051c01905b818110610f4b5750610d87565b5f8155600101610f3e565b9091508190610f35565b634e487b7160e01b5f52604160045260245ffd5b015190505f80610beb565b90600285018a5260208a20918a5b601f1985168110610fd85750926006949260019260e09583601f19811610610fc0575b505050811b016002850155610c02565b01515f1960f88460031b161c191690555f8080610fb0565b91926020600181928685015181550194019201610f8d565b600285018a5260208a20601f840160051c81016020851061102d575b601f830160051c82018110611022575050610bcc565b5f815560010161100c565b508061100c565b634e487b7160e01b89526041600452602489fd5b015190505f80610b89565b9250600185018a5260208a20908a935b601f19841685106110a6576001945083601f1981161061108e575b505050811b016001830155610ba0565b01515f1960f88460031b161c191690555f808061107e565b81810151835560209485019460019093019290910190611063565b909150600185018a5260208a20601f840160051c81016020851061110a575b90849392915b601f830160051c820181106110fc575050610b73565b5f81558594506001016110e6565b50806110e0565b015190505f80610b31565b9250848a5260208a20908a935b601f1984168510611169576001945083601f19811610611151575b505050811b018255610b45565b01515f1960f88460031b161c191690555f8080611144565b81810151835560209485019460019093019290910190611129565b909150848a5260208a20601f840160051c8101602085106111ca575b90849392915b601f830160051c820181106111bc575050610b1b565b5f81558594506001016111a6565b50806111a0565b60405163ca86b94760e01b8152600490fd5b6040516326f93fd560e21b8152600490fd5b60405162c8000560e81b8152600490fd5b8380fd5b5034610827576020366003190112610827576020611229600435612b4d565b604051908152f35b50346108275760203660031901126108275760043560065481101561081f5760209060065f527ff652222313e28459528d920b65115c16c04f3efc82aaedc97be59f3f377c0d3f0154604051908152f35b5034610827578060031936011261082757604051600680548083529083526020808301937ff652222313e28459528d920b65115c16c04f3efc82aaedc97be59f3f377c0d3f92915b8282106112ed5761099c856112e18189038261217e565b60405191829182612297565b8354865294850194600193840193909101906112ca565b503461082757602036600319011261082757604090600435815260056020522060405161133c816113358185612397565b038261217e565b61099c6040519161135b836113548160018801612397565b038461217e565b60405193611377856113708160028501612397565b038661217e565b6003810154600482015490600660058401549301549360405197889760ff8460a01c169360018060a01b031692896122fa565b5034610827576020366003190112610827576113c4612224565b8160018060a01b0360248160045416936040519485938492639658e1ef60e01b84521660048301525afa9081156109c3578261099c93926109a057505060405191829182612297565b503461082757602036600319011261082757611335611442604061099c93600435815260096020522060405192838092612397565b60405191829160208352602083019061225b565b503461082757604036600319011261082757611470612224565b90602060018060a01b036044816004541694604051958693849263537f253760e11b845216600483015260243560248301525afa9081156114fb5780916114bf575b6020826040519015158152f35b90506020823d82116114f3575b816114d96020938361217e565b8101031261082757506114ed602091612c16565b5f6114b2565b3d91506114cc565b604051903d90823e3d90fd5b5034610827578060031936011261082757606060018060a01b03806002541690806003541690600454169060405192835260208301526040820152f35b5034610827578060031936011261082757546040516001600160a01b039091168152602090f35b5034610827576020366003190112610827576040600291600435815260056020522061099c600382015460048301546005840154906006850154926040516115b781611335818a612397565b6115ed604051976115d6896115cf8160018501612397565b038a61217e565b6115e6604051809b819301612397565b038961217e565b60405197889760a084901c60ff16936001600160a01b031692896122fa565b5034610827578060031936011261082757611625612428565b5f80546001600160a01b0319811682556001600160a01b03167f8be0079c531659141344cd1fd0a4f28419497f9722a3daafe3b4186f6b6457e08280a380f35b50346108275760603660031901126108275761167f612224565b61168761220e565b6001600160a01b0360443581811693908490036117245781906116a8612428565b16918215611712571690811561171257821561171257826bffffffffffffffffffffffff60a01b828160025416176002558381600354161760035560045416176004557fe008bc55cceb8bb7dc36a3bbaa95481f36a3537e2b4cdc39770a19cf94e754a58480a480f35b60405163e6c4247b60e01b8152600490fd5b5f80fd5b50346108275760203660031901126108275760209060043581526005825260ff600360408320015460a01c169081611766575b506040519015158152f35b60ff9150604090600884522054165f61175b565b50346108275760203660031901126108275760248160018060a01b036004541660405192838092636ee25d3f60e01b825260043560048301525afa9081156109c3578261099c93926109a057505060405191829182612297565b5034610827576040366003190112610827576117ee612224565b6001600160a01b031681526007602052604081208054602435929083101561082757602061181c84846122d1565b90546040519160031b1c8152f35b50346108275760208060031936011261081f576001600160a01b0361184d612224565b1682526007815260408220916040518092808554928381520194835280832092905b8282106118865761099c856112e18189038261217e565b83548652948501946001938401939091019061186f565b50346108275780600319360112610827576004546040516001600160a01b039091168152602090f35b5034610827576040366003190112610827576001600160401b0360043581811161082357366023820112156108235780600401359061190482612280565b92611912604051948561217e565b8284526020918285016024809560051b83010191368311611a305785859101915b838310611a2057505050508235818111611a1c5736602382011215611a1c5780600401359061196182612280565b9461196f604051968761217e565b828652808587019360051b83010193368511611a1857818301935b8585106119ee5789898961199c612428565b815191815183036119dc57835b8381106119b4578480f35b806119d66119c460019385612c23565b516119cf8387612c23565b5190612518565b016119a9565b60405163512509d360e11b8152600490fd5b8435828111611a14578791611a0983928636918901016121f0565b81520194019361198a565b8a80fd5b8880fd5b8580fd5b8235815291810191859101611933565b8780fd5b50346108275780600319360112610827576003546040516340fa61f760e01b81529190602090839060049082906001600160a01b03165afa9081156114fb5790611a84575b602090604051908152f35b506020813d8211611aae575b81611a9d6020938361217e565b810103126117245760209051611a79565b3d9150611a90565b50606036600319011261082757600435611ace61220e565b91604435611ada612b2a565b8082526020906008825260ff6040842054161561080d576003546001600160a01b0390811695863b15611c93578160648692604051998a938492639f28c3f360e01b84528b600485015216602483015233604483015234905af18015611c5657611c61575b602494955082816003541660405196878092636e8be04b60e01b82528a60048301525afa948515611c56578495611c27575b5082849160045416608460405180948193631163c24560e31b83528760048401523360248401528a6044840152600160648401525af19384156114fb5793611bf7575b506040948491865190815284848201527f358a41b00129a592d70b6ded8b4df7ebb619ddfc08dae7c1e7c62ef2e367aa80873392a4600180558351928352820152f35b9092508181813d8311611c20575b611c0f818361217e565b810103126117245751916040611bb4565b503d611c05565b9094508281813d8311611c4f575b611c3f818361217e565b8101031261172457519382611b71565b503d611c35565b6040513d86823e3d90fd5b92946001600160401b038111611c7f57604052929384939092611b3f565b634e487b7160e01b86526041600452602486fd5b8480fd5b503461082757608036600319011261082757611cb1612224565b906001600160401b039060243582811161081f57611cd39036906004016121f0565b9260443592606435908111610823573660238201121561082357611d019036906024816004013591016121ba565b92611d0a612b2a565b80835260209160058352604084206008845260ff6040862054161561080d576004810154151580611f20575b611f0e5760068101548015159081611eff575b50611eed5783600160a01b60019003809381600254169088604051809b819582946362bdc87360e11b8452169d8e60048401528a6024840152604483016080905260848301611d979161225b565b828103600319016064840152611dac9161225b565b03925af1958615611ee2578596611eb3575b50849181600486930154611e7e575b5060045416608460405180948193631163c24560e31b83528760048401528b60248401528a60448401528160648401525af19384156114fb578094611e49575b5050836040957ff72252e9cd66575ecbb1d4559efa5fa3f549e5ca3c4f8b83701c38542da59002848851878152a4600180558351928352820152f35b909593508286813d8311611e77575b611e62818361217e565b81010312610827575083604095519395611e0d565b503d611e58565b600501805491935091505f198114611e9f576001019055839083905f611dcd565b634e487b7160e01b86526011600452602486fd5b9095508381813d8311611edb575b611ecb818361217e565b81010312611c9357519484611dbe565b503d611ec1565b6040513d87823e3d90fd5b604051637dc73f6160e11b8152600490fd5b9050600582015410155f611d49565b6040516301e1837960e31b8152600490fd5b5060ff600382015460a01c1615611d36565b503461082757604036600319011261082757611f4c61220e565b6003546040516377bd591960e01b815260048035908201526001600160a01b03928316602482015291839183916044918391165afa9182156114fb5780918193611fb1575b505061099c6040519283921515835260406020840152604083019061225b565b915091503d8083833e611fc4818361217e565b81019160408284031261082757611fda82612c16565b916020810151906001600160401b038211610823570183601f8201121561081f578051916120078361219f565b94612015604051968761217e565b83865260208484010111610827575090612035916020808601910161223a565b5f80611f91565b5034610827576040366003190112610827576024356001600160401b03811161081f576120706120809136906004016121f0565b612078612428565b600435612518565b80f35b503461082757604036600319011261082757600435602435801515908181036112065782845260056020526040842060048101541561080d5760030180549092906001600160a01b031633036107fb57825460ff60a01b191691151560a01b60ff60a01b16919091179091557f30d63879465db28f14110300359b13054c5a47f41e11155ee11ad9f7e2a1213590602090838552600882526040852060ff1981541660ff8316179055604051908152a280f35b90503461081f57602036600319011261081f5760ff604060209360043581526008855220541615158152f35b61010081019081106001600160401b03821117610f6057604052565b90601f801991011681019081106001600160401b03821117610f6057604052565b6001600160401b038111610f6057601f01601f191660200190565b9291926121c68261219f565b916121d4604051938461217e565b829481845281830111611724578281602093845f960137010152565b9080601f830112156117245781602061220b933591016121ba565b90565b602435906001600160a01b038216820361172457565b600435906001600160a01b038216820361172457565b5f5b83811061224b5750505f910152565b818101518382015260200161223c565b906020916122748151809281855285808601910161223a565b601f01601f1916010190565b6001600160401b038111610f605760051b60200190565b602090816040818301928281528551809452019301915f5b8281106122bd575050505090565b8351855293810193928101926001016122af565b80548210156122e6575f5260205f2001905f90565b634e487b7160e01b5f52603260045260245ffd5b94919261232c60e0979461231e61233a949c9b9a979c610100808b528a019061225b565b9088820360208a015261225b565b90868203604088015261225b565b6001600160a01b0390981660608501521515608084015260a083015260c08201520152565b90600182811c9216801561238d575b602083101461237957565b634e487b7160e01b5f52602260045260245ffd5b91607f169161236e565b905f92918054916123a78361235f565b9182825260019384811690815f1461240557506001146123c8575b50505050565b90919394505f52602092835f2092845f945b8386106123f157505050500101905f8080806123c2565b8054858701830152940193859082016123da565b9294505050602093945060ff191683830152151560051b0101905f8080806123c2565b5f546001600160a01b0316330361243b57565b60405163118cdaa760e01b8152336004820152602490fd5b600654600160401b811015610f605760018101806006558110156122e65760065f527ff652222313e28459528d920b65115c16c04f3efc82aaedc97be59f3f377c0d3f0155565b5f929181546124a88161235f565b926001918083169081156124fd57506001146124c45750505050565b9091929394505f52602090815f20905f915b8583106124ec575050505001905f8080806123c2565b8054858401529183019181016124d6565b60ff191684525050508115159091020191505f8080806123c2565b908115612b1857815f52600860205260ff60405f2054166111d157815f52600860205260405f20600160ff19825416179055600960205260405f2081516001600160401b038111610f605761256d825461235f565b601f8111612ad3575b50806020601f8211600114612a71575f91612a66575b508160011b915f199060031b1c19161790555b815f526005602052600460405f200154156125e0575b6125db5f80516020612c388339815191529160405191829160208352602083019061225b565b0390a2565b5f54604051906001600160a01b03166125f882612162565b604051604081018181106001600160401b03821117610f6057604052600c81526b131959d858de48115d995b9d60a21b60208201528252826020830152604051602081018181106001600160401b03821117610f60576040525f815260408301526060820152600160808201524260a08201525f60c08201525f60e0820152825f52600560205260405f209080518051906001600160401b038211610f605781906126a3855461235f565b601f8111612a19575b50602090601f83116001146129b1575f926129a6575b50508160011b915f199060031b1c19161782555b60208101518051906001600160401b038211610f605781906126fb600186015461235f565b601f8111612956575b50602090601f83116001146128e8575f926128dd575b50508160011b915f199060031b1c19161760018301555b60408101518051906001600160401b038211610f6057612754600285015461235f565b601f8111612899575b50602090601f8311600114612815575f80516020612c388339815191529593836125db969460069460e0945f9261280a575b50508160011b915f199060031b1c19161760028501555b6060810151600385018054608084015160ff60a01b90151560a01b166001600160a01b039093166001600160a81b03199091161791909117905560a0810151600485015560c08101516005850155015191015561280284612453565b9150506125b5565b015190505f8061278f565b90600285015f5260205f20915f5b601f198516811061288157509360018460069460e0945f80516020612c388339815191529a986125db9a98601f19811610612869575b505050811b0160028501556127a6565b01515f1960f88460031b161c191690555f8080612859565b91926020600181928685015181550194019201612823565b600285015f5260205f20601f840160051c8101602085106128d6575b601f830160051c820181106128cb57505061275d565b5f81556001016128b5565b50806128b5565b015190505f8061271a565b9250600185015f5260205f20905f935b601f198416851061293b576001945083601f19811610612923575b505050811b016001830155612731565b01515f1960f88460031b161c191690555f8080612913565b818101518355602094850194600190930192909101906128f8565b909150600185015f5260205f20601f840160051c81016020851061299f575b90849392915b601f830160051c82018110612991575050612704565b5f815585945060010161297b565b5080612975565b015190505f806126c2565b9250845f5260205f20905f935b601f19841685106129fe576001945083601f198116106129e6575b505050811b0182556126d6565b01515f1960f88460031b161c191690555f80806129d9565b818101518355602094850194600190930192909101906129be565b909150845f5260205f20601f840160051c810160208510612a5f575b90849392915b601f830160051c82018110612a515750506126ac565b5f8155859450600101612a3b565b5080612a35565b90508301515f61258c565b5f848152602081209250601f198416905b818110612abb57509083600194939210612aa3575b5050811b01905561259f565b8501515f1960f88460031b161c191690555f80612a97565b9192602060018192868a015181550194019201612a82565b825f5260205f20601f830160051c81019160208410612b0e575b601f0160051c01905b818110612b035750612576565b5f8155600101612af6565b9091508190612aed565b604051630c93477d60e41b8152600490fd5b600260015414612b3b576002600155565b604051633ee5aeb560e01b8152600490fd5b5f52600560205260405f206006810154908115612b96576005015481811015612b90578103908111612b7c5790565b634e487b7160e01b5f52601160045260245ffd5b50505f90565b50505f1990565b6020908181840312611724578051906001600160401b03821161172457019180601f84011215611724578251612bd281612280565b93612be0604051958661217e565b818552838086019260051b820101928311611724578301905b828210612c07575050505090565b81518152908301908301612bf9565b5190811515820361172457565b80518210156122e65760209160051b01019056fedb838df1fbb32d807bb1ec43afc8f81fb0c76964708c79e129a864b4417c84e3a2646970667358221220b421efdef05bc16fbc20fc66d1f5cb14b47637148062f1a5cba59839c79ddb6a64736f6c63430008140033","linkReferences":{}},"methodIdentifiers":{"allEventIds(uint256)":"d0ed06a1","basicMerch()":"fda9cee8","batchRegisterEvents(bytes32[],string[])":"131b2e17","canUserMintCompanion(uint256,address)":"0af86225","createEvent(string,string,string,uint256)":"de4cd842","easIntegration()":"1323e16a","eventMetadata(bytes32)":"af384a7e","events(bytes32)":"bfdc4a61","eventsByCreator(address,uint256)":"30f9f0f6","getAllEvents()":"c27a500d","getContractAddresses()":"953874d2","getEvent(bytes32)":"8c172fa2","getEventAttendance(bytes32)":"63047080","getEventMetadata(bytes32)":"1969d454","getEventsByCreator(address)":"20020581","getRemainingSpots(bytes32)":"d569e848","getUpgradeFee()":"11b687c8","getUserAttendanceHistory(address)":"b9587f7b","getUserPremiumUpgrades(address)":"e6b3f69a","hasUserAttendedEvent(address,bytes32)":"a6fe4a6e","isEventActive(bytes32)":"64034211","isEventRegistered(bytes32)":"f0c51c5f","mintCompanionWithAttestation(uint256,address,bytes32)":"0d0626b9","mintSBTWithAttestation(address,string,bytes32,bytes)":"0bb82ea9","owner()":"8da5cb5b","premiumMerch()":"f03bf244","registerEvent(bytes32,string)":"06e9d8a8","registeredEvents(bytes32)":"050b5c5e","renounceOwnership()":"715018a6","setEventStatus(bytes32,bool)":"06758116","transferOwnership(address)":"f2fde38b","updateContracts(address,address,address)":"6dca4d44","updateEvent(bytes32,string,string,string)":"fdf6fa96"},"id":38}