{"abi":[{"type":"constructor","inputs":[{"name":"_basicMerch","type":"address","internalType":"address"},{"name":"_premiumMerch","type":"address","internalType":"address"},{"name":"_easIntegration","type":"address","internalType":"address"}],"stateMutability":"nonpayable"},{"type":"function","name":"basicMerch","inputs":[],"outputs":[{"name":"","type":"address","internalType":"contract BasicMerch"}],"stateMutability":"view"},{"type":"function","name":"batchRegisterEvents","inputs":[{"name":"_eventIds","type":"bytes32[]","internalType":"bytes32[]"},{"name":"_metadataArray","type":"string[]","internalType":"string[]"}],"outputs":[],"stateMutability":"nonpayable"},{"type":"function","name":"canUserMintCompanion","inputs":[{"name":"_sbtId","type":"uint256","internalType":"uint256"},{"name":"_user","type":"address","internalType":"address"}],"outputs":[{"name":"","type":"bool","internalType":"bool"},{"name":"","type":"string","internalType":"string"}],"stateMutability":"view"},{"type":"function","name":"easIntegration","inputs":[],"outputs":[{"name":"","type":"address","internalType":"contract EASIntegration"}],"stateMutability":"view"},{"type":"function","name":"eventMetadata","inputs":[{"name":"","type":"bytes32","internalType":"bytes32"}],"outputs":[{"name":"","type":"string","internalType":"string"}],"stateMutability":"view"},{"type":"function","name":"getContractAddresses","inputs":[],"outputs":[{"name":"","type":"address","internalType":"address"},{"name":"","type":"address","internalType":"address"},{"name":"","type":"address","internalType":"address"}],"stateMutability":"view"},{"type":"function","name":"getEventAttendance","inputs":[{"name":"_eventId","type":"bytes32","internalType":"bytes32"}],"outputs":[{"name":"","type":"bytes32[]","internalType":"bytes32[]"}],"stateMutability":"view"},{"type":"function","name":"getEventMetadata","inputs":[{"name":"_eventId","type":"bytes32","internalType":"bytes32"}],"outputs":[{"name":"","type":"string","internalType":"string"}],"stateMutability":"view"},{"type":"function","name":"getUpgradeFee","inputs":[],"outputs":[{"name":"","type":"uint256","internalType":"uint256"}],"stateMutability":"view"},{"type":"function","name":"getUserAttendanceHistory","inputs":[{"name":"_user","type":"address","internalType":"address"}],"outputs":[{"name":"","type":"bytes32[]","internalType":"bytes32[]"}],"stateMutability":"view"},{"type":"function","name":"getUserPremiumUpgrades","inputs":[{"name":"_user","type":"address","internalType":"address"}],"outputs":[{"name":"","type":"bytes32[]","internalType":"bytes32[]"}],"stateMutability":"view"},{"type":"function","name":"hasUserAttendedEvent","inputs":[{"name":"_user","type":"address","internalType":"address"},{"name":"_eventId","type":"bytes32","internalType":"bytes32"}],"outputs":[{"name":"","type":"bool","internalType":"bool"}],"stateMutability":"view"},{"type":"function","name":"isEventRegistered","inputs":[{"name":"_eventId","type":"bytes32","internalType":"bytes32"}],"outputs":[{"name":"","type":"bool","internalType":"bool"}],"stateMutability":"view"},{"type":"function","name":"mintCompanionWithAttestation","inputs":[{"name":"_sbtId","type":"uint256","internalType":"uint256"},{"name":"_organizer","type":"address","internalType":"address"},{"name":"_eventId","type":"bytes32","internalType":"bytes32"}],"outputs":[{"name":"","type":"uint256","internalType":"uint256"},{"name":"","type":"bytes32","internalType":"bytes32"}],"stateMutability":"payable"},{"type":"function","name":"mintSBTWithAttestation","inputs":[{"name":"_to","type":"address","internalType":"address"},{"name":"_tokenURI","type":"string","internalType":"string"},{"name":"_eventId","type":"bytes32","internalType":"bytes32"}],"outputs":[{"name":"","type":"uint256","internalType":"uint256"},{"name":"","type":"bytes32","internalType":"bytes32"}],"stateMutability":"nonpayable"},{"type":"function","name":"owner","inputs":[],"outputs":[{"name":"","type":"address","internalType":"address"}],"stateMutability":"view"},{"type":"function","name":"premiumMerch","inputs":[],"outputs":[{"name":"","type":"address","internalType":"contract PremiumMerch"}],"stateMutability":"view"},{"type":"function","name":"registerEvent","inputs":[{"name":"_eventId","type":"bytes32","internalType":"bytes32"},{"name":"_metadata","type":"string","internalType":"string"}],"outputs":[],"stateMutability":"nonpayable"},{"type":"function","name":"registeredEvents","inputs":[{"name":"","type":"bytes32","internalType":"bytes32"}],"outputs":[{"name":"","type":"bool","internalType":"bool"}],"stateMutability":"view"},{"type":"function","name":"renounceOwnership","inputs":[],"outputs":[],"stateMutability":"nonpayable"},{"type":"function","name":"transferOwnership","inputs":[{"name":"newOwner","type":"address","internalType":"address"}],"outputs":[],"stateMutability":"nonpayable"},{"type":"function","name":"updateContracts","inputs":[{"name":"_basicMerch","type":"address","internalType":"address"},{"name":"_premiumMerch","type":"address","internalType":"address"},{"name":"_easIntegration","type":"address","internalType":"address"}],"outputs":[],"stateMutability":"nonpayable"},{"type":"event","name":"CompanionMintedWithAttestation","inputs":[{"name":"user","type":"address","indexed":true,"internalType":"address"},{"name":"sbtId","type":"uint256","indexed":true,"internalType":"uint256"},{"name":"premiumId","type":"uint256","indexed":true,"internalType":"uint256"},{"name":"eventId","type":"bytes32","indexed":false,"internalType":"bytes32"},{"name":"attestationId","type":"bytes32","indexed":false,"internalType":"bytes32"}],"anonymous":false},{"type":"event","name":"ContractsUpdated","inputs":[{"name":"basicMerch","type":"address","indexed":true,"internalType":"address"},{"name":"premiumMerch","type":"address","indexed":true,"internalType":"address"},{"name":"easIntegration","type":"address","indexed":true,"internalType":"address"}],"anonymous":false},{"type":"event","name":"EventRegistered","inputs":[{"name":"eventId","type":"bytes32","indexed":true,"internalType":"bytes32"},{"name":"metadata","type":"string","indexed":false,"internalType":"string"}],"anonymous":false},{"type":"event","name":"OwnershipTransferred","inputs":[{"name":"previousOwner","type":"address","indexed":true,"internalType":"address"},{"name":"newOwner","type":"address","indexed":true,"internalType":"address"}],"anonymous":false},{"type":"event","name":"SBTMintedWithAttestation","inputs":[{"name":"user","type":"address","indexed":true,"internalType":"address"},{"name":"tokenId","type":"uint256","indexed":true,"internalType":"uint256"},{"name":"eventId","type":"bytes32","indexed":true,"internalType":"bytes32"},{"name":"attestationId","type":"bytes32","indexed":false,"internalType":"bytes32"}],"anonymous":false},{"type":"error","name":"ArrayLengthMismatch","inputs":[]},{"type":"error","name":"EventAlreadyRegistered","inputs":[]},{"type":"error","name":"EventNotRegistered","inputs":[]},{"type":"error","name":"InvalidAddress","inputs":[]},{"type":"error","name":"InvalidEventId","inputs":[]},{"type":"error","name":"OwnableInvalidOwner","inputs":[{"name":"owner","type":"address","internalType":"address"}]},{"type":"error","name":"OwnableUnauthorizedAccount","inputs":[{"name":"account","type":"address","internalType":"address"}]},{"type":"error","name":"ReentrancyGuardReentrantCall","inputs":[]}],"bytecode":{"object":"0x6080346200015657601f6200148038819003918201601f191683019291906001600160401b038411838510176200015b5781606092849260409687528339810103126200015657620000518162000171565b906200006d83620000656020840162000171565b920162000171565b33156200013e5760008054336001600160a01b03198083168217845587519690956001600160a01b03949093859391908416907f8be0079c531659141344cd1fd0a4f28419497f9722a3daafe3b4186f6b6457e09080a360018055169485156200012f575081169182156200011e57169283156200010d578260025416176002558160035416176003556004541617600455516112f99081620001878239f35b845163e6c4247b60e01b8152600490fd5b855163e6c4247b60e01b8152600490fd5b63e6c4247b60e01b8152600490fd5b8351631e4fbdf760e01b815260006004820152602490fd5b600080fd5b634e487b7160e01b600052604160045260246000fd5b51906001600160a01b0382168203620001565756fe608060408181526004918236101561001657600080fd5b600092833560e01c918263050b5c5e14610d7d5750816306e9d8a814610d365781630af8622514610c215781630c9c907414610a235781630d0626b91461082457816311b687c8146107a4578163131b2e17146106335781631323e16a1461060b5781631969d4541461032957816363047080146105af5781636dca4d44146104db578163715018a6146104815781638da5cb5b14610459578163953874d21461041a578163a6fe4a6e14610366578163af384a7e14610329578163b9587f7b146102c5578163e6b3f69a1461022d578163f03bf24414610204578163f0c51c5f146101d7578163f2fde38b14610142575063fda9cee81461011757600080fd5b3461013e578160031936011261013e5760025490516001600160a01b039091168152602090f35b5080fd5b9050346101d35760203660031901126101d35761015d610e5c565b90610166610fed565b6001600160a01b039182169283156101bd575050600054826bffffffffffffffffffffffff60a01b821617600055167f8be0079c531659141344cd1fd0a4f28419497f9722a3daafe3b4186f6b6457e0600080a380f35b51631e4fbdf760e01b8152908101849052602490fd5b8280fd5b9050346101d35760203660031901126101d3578160209360ff923581526005855220541690519015158152f35b50503461013e578160031936011261013e5760035490516001600160a01b039091168152602090f35b919050346101d35760203660031901126101d3578261024a610e5c565b83548351637359fb4d60e11b81526001600160a01b039283169581019590955284916024918391165afa9182156102bb57836102929493610296575b50505191829182610ed2565b0390f35b6102b39293503d8091833e6102ab8183610dab565b810190611212565b903880610286565b81513d85823e3d90fd5b919050346101d35760203660031901126101d357826102e2610e5c565b83548351639658e1ef60e01b81526001600160a01b039283169581019590955284916024918391165afa9182156102bb578361029294936102965750505191829182610ed2565b9050346101d35760203660031901126101d357816102929361035392358152600660205220610f47565b9051918291602083526020830190610e95565b83833461013e578060031936011261013e576020610382610e5c565b8454835163537f253760e11b81526001600160a01b0392831696810196909652602480359087015285916044918391165afa91821561040f5780926103ce575b60208383519015158152f35b9091506020833d8211610407575b816103e960209383610dab565b8101031261040457506103fd60209261128c565b90836103c2565b80fd5b3d91506103dc565b9051903d90823e3d90fd5b9050346101d357826003193601126101d357600254600354915483516001600160a01b0392831681529282166020840152169181019190915260609150f35b50503461013e578160031936011261013e57905490516001600160a01b039091168152602090f35b833461040457806003193601126104045761049a610fed565b600080546001600160a01b0319811682556001600160a01b03167f8be0079c531659141344cd1fd0a4f28419497f9722a3daafe3b4186f6b6457e08280a380f35b919050346101d35760603660031901126101d3576104f7610e5c565b91610500610e46565b6001600160a01b0360443581811695929392908690036105aa578190610524610fed565b1692831561059a571692831561058d57841561058d5750836bffffffffffffffffffffffff60a01b83816002541617600255848160035416176003558254161790557fe008bc55cceb8bb7dc36a3bbaa95481f36a3537e2b4cdc39770a19cf94e754a58480a480f35b5163e6c4247b60e01b8152fd5b845163e6c4247b60e01b81528390fd5b600080fd5b919050346101d35760203660031901126101d35781548151636ee25d3f60e01b81528335938101939093528390839060249082906001600160a01b03165afa9182156102bb578361029294936102965750505191829182610ed2565b9050346101d357826003193601126101d3575490516001600160a01b03909116815260209150f35b9050346101d357816003193601126101d35780359067ffffffffffffffff908183116107a057366023840112156107a057828101359261067284610eba565b9261067f86519485610dab565b8484526020918285016024809760051b8301019136831161079c5787859101915b83831061078c5750505050843581811161078857366023820112156107885780840135906106cd82610eba565b966106da89519889610dab565b828852808589019360051b8301019336851161078457818301935b85851061075a575050505050505061070b610fed565b8151938351850361074d575050835b838110610725578480f35b8061074761073560019385611299565b516107408387611299565b5190611019565b0161071a565b5163512509d360e11b8152fd5b84358281116107805787916107758392863691890101610dff565b8152019401936106f5565b8c80fd5b8a80fd5b8780fd5b82358152918101918591016106a0565b8980fd5b8480fd5b83833461013e578160031936011261013e5760035481516340fa61f760e01b81529360209185919082906001600160a01b03165afa91821561040f57916107f0575b6020925051908152f35b90506020823d821161081c575b8161080a60209383610dab565b810103126105aa5760209151906107e6565b3d91506107fd565b828460603660031901126104045782359261083d610e46565b936044356108496111ef565b8084526020926005845260ff868620541615610a15576003546001600160a01b0390811697883b15610a115781606488928a519b8c938492639f28c3f360e01b84528a8985015216602483015233604483015234905af18015610a07576109d6575b6024969750848160035416895198898092636e8be04b60e01b825288878301525afa9687156109cc57869761099d575b50826084869284541693888b519586948593631163c24560e31b85528401523360248401528b6044840152600160648401525af19485156109925790869392919561095f575b50865190815284848201527f358a41b00129a592d70b6ded8b4df7ebb619ddfc08dae7c1e7c62ef2e367aa80873392a4600180558351928352820152f35b84809296508194503d831161098b575b6109798183610dab565b810103126105aa578491519387610921565b503d61096f565b8751903d90823e3d90fd5b9096508481813d83116109c5575b6109b58183610dab565b810103126105aa575195826108db565b503d6109ab565b88513d88823e3d90fd5b94909667ffffffffffffffff81116109f457865294958695946108ab565b634e487b7160e01b825260418852602482fd5b87513d88823e3d90fd5b8680fd5b8551636bc4556560e01b8152fd5b905082346104045760031960603682011261013e57610a40610e5c565b67ffffffffffffffff936024358581116107a057610a619036908301610dff565b9060443592610a6e610fed565b610a766111ef565b8386526020946005865260ff898820541615610c11578851976080890190811189821017610bfe5789526041885285906060368a840137600160a01b600190039283898160025416928d519c8d95869485936362bdc87360e11b8552169a8b8b8501528c6024850152604484016080905260848401610af491610e95565b90838203016064840152610b0791610e95565b03925af19687156109cc578697610bcb575b50836084869284541693888b519586948593631163c24560e31b85528401528760248401528b60448401528160648401525af194851561099257908187939296610b96575b50507ff72252e9cd66575ecbb1d4559efa5fa3f549e5ca3c4f8b83701c38542da59002848851878152a4600180558351928352820152f35b91955091508382813d8311610bc4575b610bb08183610dab565b810103126104045750849051938780610b5e565b503d610ba6565b9096508481813d8311610bf7575b610be38183610dab565b81010312610bf357519583610b19565b8580fd5b503d610bd9565b634e487b7160e01b885260418452602488fd5b8851636bc4556560e01b81528390fd5b9050823461040457826003193601126104045780610c3d610e46565b60035485516377bd591960e01b81528535958101959095526001600160a01b03918216602486015284916044918391165afa908115610d2b5780928192610c9c575b505061029290835193849315158452806020850152830190610e95565b915091503d8083833e610caf8183610dab565b810191838284031261040457610cc48261128c565b9160208101519067ffffffffffffffff82116101d3570183601f8201121561013e57805191610cf283610de3565b94610cff87519687610dab565b8386526020848401011161040457506102929291610d239160208087019101610e72565b919084610c7f565b8351903d90823e3d90fd5b919050346101d35736600319011261013e576024359067ffffffffffffffff82116101d357610d6b610d7a9236908301610dff565b90610d74610fed565b35611019565b80f35b92915034610da7576020366003190112610da7573583526005602090815292205460ff1615158152f35b8380fd5b90601f8019910116810190811067ffffffffffffffff821117610dcd57604052565b634e487b7160e01b600052604160045260246000fd5b67ffffffffffffffff8111610dcd57601f01601f191660200190565b81601f820112156105aa57803590610e1682610de3565b92610e246040519485610dab565b828452602083830101116105aa57816000926020809301838601378301015290565b602435906001600160a01b03821682036105aa57565b600435906001600160a01b03821682036105aa57565b60005b838110610e855750506000910152565b8181015183820152602001610e75565b90602091610eae81518092818552858086019101610e72565b601f01601f1916010190565b67ffffffffffffffff8111610dcd5760051b60200190565b6020908160408183019282815285518094520193019160005b828110610ef9575050505090565b835185529381019392810192600101610eeb565b90600182811c92168015610f3d575b6020831014610f2757565b634e487b7160e01b600052602260045260246000fd5b91607f1691610f1c565b9060405191826000825492610f5b84610f0d565b908184526001948581169081600014610fca5750600114610f87575b5050610f8592500383610dab565b565b9093915060005260209081600020936000915b818310610fb2575050610f8593508201013880610f77565b85548884018501529485019487945091830191610f9a565b915050610f8594506020925060ff191682840152151560051b8201013880610f77565b6000546001600160a01b0316330361100157565b60405163118cdaa760e01b8152336004820152602490fd5b91909180156111dd5760009281845260206005815260ff6040862054166111cb5782855260058152604085206001908160ff1982541617905560068252604086209083519067ffffffffffffffff82116111b7576110778354610f0d565b601f8111611171575b508397601f83116001146110f15782917fdb838df1fbb32d807bb1ec43afc8f81fb0c76964708c79e129a864b4417c84e39798998392936110e6575b501b916000199060031b1c19161790555b6110e1604051928284938452830190610e95565b0390a2565b8701519250386110bc565b97601f929192198216848a52858a20995b81811061115c575090827fdb838df1fbb32d807bb1ec43afc8f81fb0c76964708c79e129a864b4417c84e398999a9210611143575b5050811b0190556110cd565b86015160001960f88460031b161c191690553880611137565b878301518b5599840199918601918601611102565b838952848920601f840160051c8101918685106111ad575b601f0160051c019082905b8281106111a2575050611080565b8a8155018290611194565b9091508190611189565b634e487b7160e01b88526041600452602488fd5b60405163ca86b94760e01b8152600490fd5b604051630c93477d60e41b8152600490fd5b600260015414611200576002600155565b604051633ee5aeb560e01b8152600490fd5b60209081818403126105aa5780519067ffffffffffffffff82116105aa57019180601f840112156105aa57825161124881610eba565b936112566040519586610dab565b818552838086019260051b8201019283116105aa578301905b82821061127d575050505090565b8151815290830190830161126f565b519081151582036105aa57565b80518210156112ad5760209160051b010190565b634e487b7160e01b600052603260045260246000fdfea264697066735822122028abfc2ca88c1060b83a24e88cda27754df8b66678598ab68fad1ace7d34002e64736f6c63430008140033","linkReferences":{}},"methodIdentifiers":{"basicMerch()":"fda9cee8","batchRegisterEvents(bytes32[],string[])":"131b2e17","canUserMintCompanion(uint256,address)":"0af86225","easIntegration()":"1323e16a","eventMetadata(bytes32)":"af384a7e","getContractAddresses()":"953874d2","getEventAttendance(bytes32)":"63047080","getEventMetadata(bytes32)":"1969d454","getUpgradeFee()":"11b687c8","getUserAttendanceHistory(address)":"b9587f7b","getUserPremiumUpgrades(address)":"e6b3f69a","hasUserAttendedEvent(address,bytes32)":"a6fe4a6e","isEventRegistered(bytes32)":"f0c51c5f","mintCompanionWithAttestation(uint256,address,bytes32)":"0d0626b9","mintSBTWithAttestation(address,string,bytes32)":"0c9c9074","owner()":"8da5cb5b","premiumMerch()":"f03bf244","registerEvent(bytes32,string)":"06e9d8a8","registeredEvents(bytes32)":"050b5c5e","renounceOwnership()":"715018a6","transferOwnership(address)":"f2fde38b","updateContracts(address,address,address)":"6dca4d44"},"id":35}