{"abi":[{"type":"constructor","inputs":[{"name":"_basicMerch","type":"address","internalType":"address"},{"name":"_premiumMerch","type":"address","internalType":"address"},{"name":"_easIntegration","type":"address","internalType":"address"}],"stateMutability":"nonpayable"},{"type":"function","name":"basicMerch","inputs":[],"outputs":[{"name":"","type":"address","internalType":"contract BasicMerch"}],"stateMutability":"view"},{"type":"function","name":"batchRegisterEvents","inputs":[{"name":"_eventIds","type":"bytes32[]","internalType":"bytes32[]"},{"name":"_metadataArray","type":"string[]","internalType":"string[]"}],"outputs":[],"stateMutability":"nonpayable"},{"type":"function","name":"canUserUpgradeSBT","inputs":[{"name":"_sbtId","type":"uint256","internalType":"uint256"},{"name":"_user","type":"address","internalType":"address"}],"outputs":[{"name":"","type":"bool","internalType":"bool"},{"name":"","type":"string","internalType":"string"}],"stateMutability":"view"},{"type":"function","name":"easIntegration","inputs":[],"outputs":[{"name":"","type":"address","internalType":"contract EASIntegration"}],"stateMutability":"view"},{"type":"function","name":"eventMetadata","inputs":[{"name":"","type":"bytes32","internalType":"bytes32"}],"outputs":[{"name":"","type":"string","internalType":"string"}],"stateMutability":"view"},{"type":"function","name":"getContractAddresses","inputs":[],"outputs":[{"name":"","type":"address","internalType":"address"},{"name":"","type":"address","internalType":"address"},{"name":"","type":"address","internalType":"address"}],"stateMutability":"view"},{"type":"function","name":"getEventAttendance","inputs":[{"name":"_eventId","type":"bytes32","internalType":"bytes32"}],"outputs":[{"name":"","type":"bytes32[]","internalType":"bytes32[]"}],"stateMutability":"view"},{"type":"function","name":"getEventMetadata","inputs":[{"name":"_eventId","type":"bytes32","internalType":"bytes32"}],"outputs":[{"name":"","type":"string","internalType":"string"}],"stateMutability":"view"},{"type":"function","name":"getUpgradeFee","inputs":[],"outputs":[{"name":"","type":"uint256","internalType":"uint256"}],"stateMutability":"view"},{"type":"function","name":"getUserAttendanceHistory","inputs":[{"name":"_user","type":"address","internalType":"address"}],"outputs":[{"name":"","type":"bytes32[]","internalType":"bytes32[]"}],"stateMutability":"view"},{"type":"function","name":"getUserPremiumUpgrades","inputs":[{"name":"_user","type":"address","internalType":"address"}],"outputs":[{"name":"","type":"bytes32[]","internalType":"bytes32[]"}],"stateMutability":"view"},{"type":"function","name":"hasUserAttendedEvent","inputs":[{"name":"_user","type":"address","internalType":"address"},{"name":"_eventId","type":"bytes32","internalType":"bytes32"}],"outputs":[{"name":"","type":"bool","internalType":"bool"}],"stateMutability":"view"},{"type":"function","name":"isEventRegistered","inputs":[{"name":"_eventId","type":"bytes32","internalType":"bytes32"}],"outputs":[{"name":"","type":"bool","internalType":"bool"}],"stateMutability":"view"},{"type":"function","name":"mintSBTWithAttestation","inputs":[{"name":"_to","type":"address","internalType":"address"},{"name":"_tokenURI","type":"string","internalType":"string"},{"name":"_eventId","type":"bytes32","internalType":"bytes32"}],"outputs":[{"name":"","type":"uint256","internalType":"uint256"},{"name":"","type":"bytes32","internalType":"bytes32"}],"stateMutability":"nonpayable"},{"type":"function","name":"owner","inputs":[],"outputs":[{"name":"","type":"address","internalType":"address"}],"stateMutability":"view"},{"type":"function","name":"premiumMerch","inputs":[],"outputs":[{"name":"","type":"address","internalType":"contract PremiumMerch"}],"stateMutability":"view"},{"type":"function","name":"registerEvent","inputs":[{"name":"_eventId","type":"bytes32","internalType":"bytes32"},{"name":"_metadata","type":"string","internalType":"string"}],"outputs":[],"stateMutability":"nonpayable"},{"type":"function","name":"registeredEvents","inputs":[{"name":"","type":"bytes32","internalType":"bytes32"}],"outputs":[{"name":"","type":"bool","internalType":"bool"}],"stateMutability":"view"},{"type":"function","name":"renounceOwnership","inputs":[],"outputs":[],"stateMutability":"nonpayable"},{"type":"function","name":"transferOwnership","inputs":[{"name":"newOwner","type":"address","internalType":"address"}],"outputs":[],"stateMutability":"nonpayable"},{"type":"function","name":"updateContracts","inputs":[{"name":"_basicMerch","type":"address","internalType":"address"},{"name":"_premiumMerch","type":"address","internalType":"address"},{"name":"_easIntegration","type":"address","internalType":"address"}],"outputs":[],"stateMutability":"nonpayable"},{"type":"function","name":"upgradeSBTWithAttestation","inputs":[{"name":"_sbtId","type":"uint256","internalType":"uint256"},{"name":"_organizer","type":"address","internalType":"address"},{"name":"_eventId","type":"bytes32","internalType":"bytes32"}],"outputs":[{"name":"","type":"uint256","internalType":"uint256"},{"name":"","type":"bytes32","internalType":"bytes32"}],"stateMutability":"payable"},{"type":"event","name":"ContractsUpdated","inputs":[{"name":"basicMerch","type":"address","indexed":true,"internalType":"address"},{"name":"premiumMerch","type":"address","indexed":true,"internalType":"address"},{"name":"easIntegration","type":"address","indexed":true,"internalType":"address"}],"anonymous":false},{"type":"event","name":"EventRegistered","inputs":[{"name":"eventId","type":"bytes32","indexed":true,"internalType":"bytes32"},{"name":"metadata","type":"string","indexed":false,"internalType":"string"}],"anonymous":false},{"type":"event","name":"OwnershipTransferred","inputs":[{"name":"previousOwner","type":"address","indexed":true,"internalType":"address"},{"name":"newOwner","type":"address","indexed":true,"internalType":"address"}],"anonymous":false},{"type":"event","name":"SBTMintedWithAttestation","inputs":[{"name":"user","type":"address","indexed":true,"internalType":"address"},{"name":"tokenId","type":"uint256","indexed":true,"internalType":"uint256"},{"name":"eventId","type":"bytes32","indexed":true,"internalType":"bytes32"},{"name":"attestationId","type":"bytes32","indexed":false,"internalType":"bytes32"}],"anonymous":false},{"type":"event","name":"SBTUpgradedWithAttestation","inputs":[{"name":"user","type":"address","indexed":true,"internalType":"address"},{"name":"sbtId","type":"uint256","indexed":true,"internalType":"uint256"},{"name":"premiumId","type":"uint256","indexed":true,"internalType":"uint256"},{"name":"eventId","type":"bytes32","indexed":false,"internalType":"bytes32"},{"name":"attestationId","type":"bytes32","indexed":false,"internalType":"bytes32"}],"anonymous":false},{"type":"error","name":"ArrayLengthMismatch","inputs":[]},{"type":"error","name":"EventAlreadyRegistered","inputs":[]},{"type":"error","name":"EventNotRegistered","inputs":[]},{"type":"error","name":"InvalidAddress","inputs":[]},{"type":"error","name":"InvalidEventId","inputs":[]},{"type":"error","name":"OwnableInvalidOwner","inputs":[{"name":"owner","type":"address","internalType":"address"}]},{"type":"error","name":"OwnableUnauthorizedAccount","inputs":[{"name":"account","type":"address","internalType":"address"}]},{"type":"error","name":"ReentrancyGuardReentrantCall","inputs":[]}],"bytecode":{"object":"0x6080346200015457601f6200141738819003918201601f191683019291906001600160401b0384118385101762000158578160609284926040968752833981010312620001545762000051816200016c565b906200006d8362000065602084016200016c565b92016200016c565b33156200013d575f8054336001600160a01b03198083168217845587519690956001600160a01b03949093859391908416907f8be0079c531659141344cd1fd0a4f28419497f9722a3daafe3b4186f6b6457e09080a360018055169485156200012e575081169182156200011d57169283156200010c578260025416176002558160035416176003556004541617600455516112959081620001828239f35b845163e6c4247b60e01b8152600490fd5b855163e6c4247b60e01b8152600490fd5b63e6c4247b60e01b8152600490fd5b8351631e4fbdf760e01b81525f6004820152602490fd5b5f80fd5b634e487b7160e01b5f52604160045260245ffd5b51906001600160a01b0382168203620001545756fe6080604081815260049182361015610015575f80fd5b5f92833560e01c918263050b5c5e14610d2c5750816306e9d8a814610ce55781630c9c907414610b3657816311b687c814610ab1578163131b2e17146109405781631323e16a146109185781631969d454146105295781632b82f9c01461080357816363047080146107a75781636dca4d44146106d8578163715018a61461067e5781638da5cb5b14610656578163953874d214610617578163a6fe4a6e14610566578163af384a7e14610529578163b9587f7b146104c5578163e6b3f69a1461042d578163e8e4f06814610227578163f03bf244146101fe578163f0c51c5f146101d1578163f2fde38b1461013f575063fda9cee814610114575f80fd5b3461013b578160031936011261013b5760025490516001600160a01b039091168152602090f35b5080fd5b9050346101cd5760203660031901126101cd5761015a610df2565b90610163610f8f565b6001600160a01b039182169283156101b75750505f54826bffffffffffffffffffffffff60a01b8216175f55167f8be0079c531659141344cd1fd0a4f28419497f9722a3daafe3b4186f6b6457e05f80a380f35b51631e4fbdf760e01b8152908101849052602490fd5b8280fd5b9050346101cd5760203660031901126101cd578160209360ff923581526005855220541690519015158152f35b50503461013b578160031936011261013b5760035490516001600160a01b039091168152602090f35b8284606036600319011261042a57823592610240610e08565b9360443561024c61118d565b8084526020926005845260ff86862054161561041c576003546001600160a01b0390811697883b156104185781606488928a519b8c93849263e78d65df60e01b84528a8985015216602483015233604483015234905af1801561040e576103dd575b6024969750848160035416895198898092636e8be04b60e01b825288878301525afa9687156103d35786976103a4575b50826084869284541693888b519586948593631163c24560e31b85528401523360248401528b6044840152600160648401525af194851561039957908693929195610362575b50865190815284848201527fada9b22f32a704e569d7e59ec53f3e5e8431a2da46014244494393946147ce99873392a4600180558351928352820152f35b84809296508194503d8311610392575b61037c8183610d5a565b8101031261038e578491519387610324565b5f80fd5b503d610372565b8751903d90823e3d90fd5b9096508481813d83116103cc575b6103bc8183610d5a565b8101031261038e575195826102de565b503d6103b2565b88513d88823e3d90fd5b94909667ffffffffffffffff81116103fb57865294958695946102ae565b634e487b7160e01b825260418852602482fd5b87513d88823e3d90fd5b8680fd5b8551636bc4556560e01b8152fd5b80fd5b919050346101cd5760203660031901126101cd578261044a610df2565b83548351637359fb4d60e11b81526001600160a01b039283169581019590955284916024918391165afa9182156104bb57836104929493610496575b50505191829182610e7c565b0390f35b6104b39293503d8091833e6104ab8183610d5a565b8101906111b0565b905f80610486565b81513d85823e3d90fd5b919050346101cd5760203660031901126101cd57826104e2610df2565b83548351639658e1ef60e01b81526001600160a01b039283169581019590955284916024918391165afa9182156104bb578361049294936104965750505191829182610e7c565b9050346101cd5760203660031901126101cd57816104929361055392358152600660205220610eee565b9051918291602083526020830190610e57565b83833461013b578060031936011261013b576020610582610df2565b8454835163537f253760e11b81526001600160a01b0392831696810196909652602480359087015285916044918391165afa91821561060c5780926105ce575b60208383519015158152f35b9091506020833d8211610604575b816105e960209383610d5a565b8101031261042a57506105fd60209261122a565b90836105c2565b3d91506105dc565b9051903d90823e3d90fd5b9050346101cd57826003193601126101cd57600254600354915483516001600160a01b0392831681529282166020840152169181019190915260609150f35b50503461013b578160031936011261013b57905490516001600160a01b039091168152602090f35b833461042a578060031936011261042a57610697610f8f565b80546001600160a01b03198116825581906001600160a01b03167f8be0079c531659141344cd1fd0a4f28419497f9722a3daafe3b4186f6b6457e08280a380f35b919050346101cd5760603660031901126101cd576106f4610df2565b916106fd610e08565b6001600160a01b036044358181169592939290869003610418578190610721610f8f565b16928315610797571692831561078a57841561078a5750836bffffffffffffffffffffffff60a01b83816002541617600255848160035416176003558254161790557fe008bc55cceb8bb7dc36a3bbaa95481f36a3537e2b4cdc39770a19cf94e754a58480a480f35b5163e6c4247b60e01b8152fd5b845163e6c4247b60e01b81528390fd5b919050346101cd5760203660031901126101cd5781548151636ee25d3f60e01b81528335938101939093528390839060249082906001600160a01b03165afa9182156104bb578361049294936104965750505191829182610e7c565b9050823461042a578260031936011261042a578061081f610e08565b600354855163062988d760e01b81528535958101959095526001600160a01b03918216602486015284916044918391165afa90811561090d578092819261087e575b505061049290835193849315158452806020850152830190610e57565b915091503d8083833e6108918183610d5a565b810191838284031261042a576108a68261122a565b9160208101519067ffffffffffffffff82116101cd570183601f8201121561013b578051916108d483610d90565b946108e187519687610d5a565b8386526020848401011161042a575061049292916109059160208087019101610e36565b919084610861565b8351903d90823e3d90fd5b9050346101cd57826003193601126101cd575490516001600160a01b03909116815260209150f35b9050346101cd57816003193601126101cd5780359067ffffffffffffffff90818311610aad5736602384011215610aad57828101359261097f84610e1e565b9261098c86519485610d5a565b8484526020918285016024809760051b83010191368311610aa95787859101915b838310610a9957505050508435818111610a955736602382011215610a955780840135906109da82610e1e565b966109e789519889610d5a565b828852808589019360051b83010193368511610a9157818301935b858510610a675750505050505050610a18610f8f565b81519383518503610a5a575050835b838110610a32578480f35b80610a54610a4260019385611237565b51610a4d8387611237565b5190610fba565b01610a27565b5163512509d360e11b8152fd5b8435828111610a8d578791610a828392863691890101610dac565b815201940193610a02565b8c80fd5b8a80fd5b8780fd5b82358152918101918591016109ad565b8980fd5b8480fd5b919050346101cd57826003193601126101cd5760035481516340fa61f760e01b81529260209184919082906001600160a01b03165afa9182156104bb578392610aff575b6020838351908152f35b9091506020813d8211610b2e575b81610b1a60209383610d5a565b810103126101cd576020925051905f610af5565b3d9150610b0d565b82843461042a57606036600319011261042a57610b51610df2565b60243567ffffffffffffffff81116101cd57610b709036908601610dac565b9060443590610b7d610f8f565b610b8561118d565b8184526020926005845260ff868620541615610cd5579585969184610bde979360018060a01b0392838981600254169288519c8d95869485936324dcfe6b60e21b8552169a8b8b85015260248401526044830190610e57565b03925af19687156103d3578697610ca2575b50836084869284541693888b519586948593631163c24560e31b85528401528760248401528b60448401528160648401525af194851561039957908187939296610c6d575b50507ff72252e9cd66575ecbb1d4559efa5fa3f549e5ca3c4f8b83701c38542da59002848851878152a4600180558351928352820152f35b91955091508382813d8311610c9b575b610c878183610d5a565b8101031261042a5750849051938780610c35565b503d610c7d565b9096508481813d8311610cce575b610cba8183610d5a565b81010312610cca57519583610bf0565b8580fd5b503d610cb0565b8551636bc4556560e01b81528790fd5b919050346101cd5736600319011261013b576024359067ffffffffffffffff82116101cd57610d1a610d299236908301610dac565b90610d23610f8f565b35610fba565b80f35b92915034610d56576020366003190112610d56573583526005602090815292205460ff1615158152f35b8380fd5b90601f8019910116810190811067ffffffffffffffff821117610d7c57604052565b634e487b7160e01b5f52604160045260245ffd5b67ffffffffffffffff8111610d7c57601f01601f191660200190565b81601f8201121561038e57803590610dc382610d90565b92610dd16040519485610d5a565b8284526020838301011161038e57815f926020809301838601378301015290565b600435906001600160a01b038216820361038e57565b602435906001600160a01b038216820361038e57565b67ffffffffffffffff8111610d7c5760051b60200190565b5f5b838110610e475750505f910152565b8181015183820152602001610e38565b90602091610e7081518092818552858086019101610e36565b601f01601f1916010190565b602090816040818301928281528551809452019301915f5b828110610ea2575050505090565b835185529381019392810192600101610e94565b90600182811c92168015610ee4575b6020831014610ed057565b634e487b7160e01b5f52602260045260245ffd5b91607f1691610ec5565b9060405191825f825492610f0184610eb6565b9081845260019485811690815f14610f6c5750600114610f2c575b5050610f2a92500383610d5a565b565b909391505f52602090815f20935f915b818310610f54575050610f2a93508201015f80610f1c565b85548884018501529485019487945091830191610f3c565b915050610f2a94506020925060ff191682840152151560051b8201015f80610f1c565b5f546001600160a01b03163303610fa257565b60405163118cdaa760e01b8152336004820152602490fd5b919091801561117b575f9281845260206005815260ff6040862054166111695782855260058152604085206001908160ff1982541617905560068252604086209083519067ffffffffffffffff8211611155576110178354610eb6565b601f811161110f575b508397601f83116001146110905782917fdb838df1fbb32d807bb1ec43afc8f81fb0c76964708c79e129a864b4417c84e3979899839293611085575b501b915f199060031b1c19161790555b611080604051928284938452830190610e57565b0390a2565b87015192505f61105c565b97601f929192198216848a52858a20995b8181106110fa575090827fdb838df1fbb32d807bb1ec43afc8f81fb0c76964708c79e129a864b4417c84e398999a92106110e2575b5050811b01905561106c565b8601515f1960f88460031b161c191690555f806110d6565b878301518b55998401999186019186016110a1565b838952848920601f840160051c81019186851061114b575b601f0160051c019082905b828110611140575050611020565b8a8155018290611132565b9091508190611127565b634e487b7160e01b88526041600452602488fd5b60405163ca86b94760e01b8152600490fd5b604051630c93477d60e41b8152600490fd5b60026001541461119e576002600155565b604051633ee5aeb560e01b8152600490fd5b602090818184031261038e5780519067ffffffffffffffff821161038e57019180601f8401121561038e5782516111e681610e1e565b936111f46040519586610d5a565b818552838086019260051b82010192831161038e578301905b82821061121b575050505090565b8151815290830190830161120d565b5190811515820361038e57565b805182101561124b5760209160051b010190565b634e487b7160e01b5f52603260045260245ffdfea2646970667358221220e7496e8373257c8e3d840cad17476ce6992dfa62e95d349d280213f12a43bee664736f6c63430008140033","linkReferences":{}},"methodIdentifiers":{"basicMerch()":"fda9cee8","batchRegisterEvents(bytes32[],string[])":"131b2e17","canUserUpgradeSBT(uint256,address)":"2b82f9c0","easIntegration()":"1323e16a","eventMetadata(bytes32)":"af384a7e","getContractAddresses()":"953874d2","getEventAttendance(bytes32)":"63047080","getEventMetadata(bytes32)":"1969d454","getUpgradeFee()":"11b687c8","getUserAttendanceHistory(address)":"b9587f7b","getUserPremiumUpgrades(address)":"e6b3f69a","hasUserAttendedEvent(address,bytes32)":"a6fe4a6e","isEventRegistered(bytes32)":"f0c51c5f","mintSBTWithAttestation(address,string,bytes32)":"0c9c9074","owner()":"8da5cb5b","premiumMerch()":"f03bf244","registerEvent(bytes32,string)":"06e9d8a8","registeredEvents(bytes32)":"050b5c5e","renounceOwnership()":"715018a6","transferOwnership(address)":"f2fde38b","updateContracts(address,address,address)":"6dca4d44","upgradeSBTWithAttestation(uint256,address,bytes32)":"e8e4f068"},"id":38}