{"abi":[{"type":"constructor","inputs":[{"name":"_basicMerch","type":"address","internalType":"address"},{"name":"_premiumMerch","type":"address","internalType":"address"},{"name":"_easIntegration","type":"address","internalType":"address"}],"stateMutability":"nonpayable"},{"type":"function","name":"basicMerch","inputs":[],"outputs":[{"name":"","type":"address","internalType":"contract BasicMerch"}],"stateMutability":"view"},{"type":"function","name":"batchRegisterEvents","inputs":[{"name":"_eventIds","type":"bytes32[]","internalType":"bytes32[]"},{"name":"_metadataArray","type":"string[]","internalType":"string[]"}],"outputs":[],"stateMutability":"nonpayable"},{"type":"function","name":"canUserMintCompanion","inputs":[{"name":"_sbtId","type":"uint256","internalType":"uint256"},{"name":"_user","type":"address","internalType":"address"}],"outputs":[{"name":"","type":"bool","internalType":"bool"},{"name":"","type":"string","internalType":"string"}],"stateMutability":"view"},{"type":"function","name":"easIntegration","inputs":[],"outputs":[{"name":"","type":"address","internalType":"contract EASIntegration"}],"stateMutability":"view"},{"type":"function","name":"eventMetadata","inputs":[{"name":"","type":"bytes32","internalType":"bytes32"}],"outputs":[{"name":"","type":"string","internalType":"string"}],"stateMutability":"view"},{"type":"function","name":"getContractAddresses","inputs":[],"outputs":[{"name":"","type":"address","internalType":"address"},{"name":"","type":"address","internalType":"address"},{"name":"","type":"address","internalType":"address"}],"stateMutability":"view"},{"type":"function","name":"getEventAttendance","inputs":[{"name":"_eventId","type":"bytes32","internalType":"bytes32"}],"outputs":[{"name":"","type":"bytes32[]","internalType":"bytes32[]"}],"stateMutability":"view"},{"type":"function","name":"getEventMetadata","inputs":[{"name":"_eventId","type":"bytes32","internalType":"bytes32"}],"outputs":[{"name":"","type":"string","internalType":"string"}],"stateMutability":"view"},{"type":"function","name":"getUpgradeFee","inputs":[],"outputs":[{"name":"","type":"uint256","internalType":"uint256"}],"stateMutability":"view"},{"type":"function","name":"getUserAttendanceHistory","inputs":[{"name":"_user","type":"address","internalType":"address"}],"outputs":[{"name":"","type":"bytes32[]","internalType":"bytes32[]"}],"stateMutability":"view"},{"type":"function","name":"getUserPremiumUpgrades","inputs":[{"name":"_user","type":"address","internalType":"address"}],"outputs":[{"name":"","type":"bytes32[]","internalType":"bytes32[]"}],"stateMutability":"view"},{"type":"function","name":"hasUserAttendedEvent","inputs":[{"name":"_user","type":"address","internalType":"address"},{"name":"_eventId","type":"bytes32","internalType":"bytes32"}],"outputs":[{"name":"","type":"bool","internalType":"bool"}],"stateMutability":"view"},{"type":"function","name":"isEventRegistered","inputs":[{"name":"_eventId","type":"bytes32","internalType":"bytes32"}],"outputs":[{"name":"","type":"bool","internalType":"bool"}],"stateMutability":"view"},{"type":"function","name":"mintCompanionWithAttestation","inputs":[{"name":"_sbtId","type":"uint256","internalType":"uint256"},{"name":"_organizer","type":"address","internalType":"address"},{"name":"_eventId","type":"bytes32","internalType":"bytes32"}],"outputs":[{"name":"","type":"uint256","internalType":"uint256"},{"name":"","type":"bytes32","internalType":"bytes32"}],"stateMutability":"payable"},{"type":"function","name":"mintSBTWithAttestation","inputs":[{"name":"_to","type":"address","internalType":"address"},{"name":"_tokenURI","type":"string","internalType":"string"},{"name":"_eventId","type":"bytes32","internalType":"bytes32"},{"name":"_signature","type":"bytes","internalType":"bytes"}],"outputs":[{"name":"","type":"uint256","internalType":"uint256"},{"name":"","type":"bytes32","internalType":"bytes32"}],"stateMutability":"nonpayable"},{"type":"function","name":"owner","inputs":[],"outputs":[{"name":"","type":"address","internalType":"address"}],"stateMutability":"view"},{"type":"function","name":"premiumMerch","inputs":[],"outputs":[{"name":"","type":"address","internalType":"contract PremiumMerch"}],"stateMutability":"view"},{"type":"function","name":"registerEvent","inputs":[{"name":"_eventId","type":"bytes32","internalType":"bytes32"},{"name":"_metadata","type":"string","internalType":"string"}],"outputs":[],"stateMutability":"nonpayable"},{"type":"function","name":"registeredEvents","inputs":[{"name":"","type":"bytes32","internalType":"bytes32"}],"outputs":[{"name":"","type":"bool","internalType":"bool"}],"stateMutability":"view"},{"type":"function","name":"renounceOwnership","inputs":[],"outputs":[],"stateMutability":"nonpayable"},{"type":"function","name":"transferOwnership","inputs":[{"name":"newOwner","type":"address","internalType":"address"}],"outputs":[],"stateMutability":"nonpayable"},{"type":"function","name":"updateContracts","inputs":[{"name":"_basicMerch","type":"address","internalType":"address"},{"name":"_premiumMerch","type":"address","internalType":"address"},{"name":"_easIntegration","type":"address","internalType":"address"}],"outputs":[],"stateMutability":"nonpayable"},{"type":"event","name":"CompanionMintedWithAttestation","inputs":[{"name":"user","type":"address","indexed":true,"internalType":"address"},{"name":"sbtId","type":"uint256","indexed":true,"internalType":"uint256"},{"name":"premiumId","type":"uint256","indexed":true,"internalType":"uint256"},{"name":"eventId","type":"bytes32","indexed":false,"internalType":"bytes32"},{"name":"attestationId","type":"bytes32","indexed":false,"internalType":"bytes32"}],"anonymous":false},{"type":"event","name":"ContractsUpdated","inputs":[{"name":"basicMerch","type":"address","indexed":true,"internalType":"address"},{"name":"premiumMerch","type":"address","indexed":true,"internalType":"address"},{"name":"easIntegration","type":"address","indexed":true,"internalType":"address"}],"anonymous":false},{"type":"event","name":"EventRegistered","inputs":[{"name":"eventId","type":"bytes32","indexed":true,"internalType":"bytes32"},{"name":"metadata","type":"string","indexed":false,"internalType":"string"}],"anonymous":false},{"type":"event","name":"OwnershipTransferred","inputs":[{"name":"previousOwner","type":"address","indexed":true,"internalType":"address"},{"name":"newOwner","type":"address","indexed":true,"internalType":"address"}],"anonymous":false},{"type":"event","name":"SBTMintedWithAttestation","inputs":[{"name":"user","type":"address","indexed":true,"internalType":"address"},{"name":"tokenId","type":"uint256","indexed":true,"internalType":"uint256"},{"name":"eventId","type":"bytes32","indexed":true,"internalType":"bytes32"},{"name":"attestationId","type":"bytes32","indexed":false,"internalType":"bytes32"}],"anonymous":false},{"type":"error","name":"ArrayLengthMismatch","inputs":[]},{"type":"error","name":"EventAlreadyRegistered","inputs":[]},{"type":"error","name":"EventNotRegistered","inputs":[]},{"type":"error","name":"InvalidAddress","inputs":[]},{"type":"error","name":"InvalidEventId","inputs":[]},{"type":"error","name":"OwnableInvalidOwner","inputs":[{"name":"owner","type":"address","internalType":"address"}]},{"type":"error","name":"OwnableUnauthorizedAccount","inputs":[{"name":"account","type":"address","internalType":"address"}]},{"type":"error","name":"ReentrancyGuardReentrantCall","inputs":[]}],"bytecode":{"object":"0x6080346200015457601f6200146338819003918201601f191683019291906001600160401b0384118385101762000158578160609284926040968752833981010312620001545762000051816200016c565b906200006d8362000065602084016200016c565b92016200016c565b33156200013d575f8054336001600160a01b03198083168217845587519690956001600160a01b03949093859391908416907f8be0079c531659141344cd1fd0a4f28419497f9722a3daafe3b4186f6b6457e09080a360018055169485156200012e575081169182156200011d57169283156200010c578260025416176002558160035416176003556004541617600455516112e19081620001828239f35b845163e6c4247b60e01b8152600490fd5b855163e6c4247b60e01b8152600490fd5b63e6c4247b60e01b8152600490fd5b8351631e4fbdf760e01b81525f6004820152602490fd5b5f80fd5b634e487b7160e01b5f52604160045260245ffd5b51906001600160a01b0382168203620001545756fe6080604081815260049182361015610015575f80fd5b5f92833560e01c918263050b5c5e14610d6a5750816306e9d8a814610d235781630af8622514610c0e5781630bb82ea914610a1b5781630d0626b91461081c57816311b687c81461079c578163131b2e171461062b5781631323e16a146106035781631969d4541461032357816363047080146105a75781636dca4d44146104d4578163715018a61461047b5781638da5cb5b14610453578163953874d214610414578163a6fe4a6e14610360578163af384a7e14610323578163b9587f7b146102bf578163e6b3f69a14610227578163f03bf244146101fe578163f0c51c5f146101d1578163f2fde38b1461013f575063fda9cee814610114575f80fd5b3461013b578160031936011261013b5760025490516001600160a01b039091168152602090f35b5080fd5b9050346101cd5760203660031901126101cd5761015a610e54565b90610163610fdb565b6001600160a01b039182169283156101b75750505f54826bffffffffffffffffffffffff60a01b8216175f55167f8be0079c531659141344cd1fd0a4f28419497f9722a3daafe3b4186f6b6457e05f80a380f35b51631e4fbdf760e01b8152908101849052602490fd5b8280fd5b9050346101cd5760203660031901126101cd578160209360ff923581526005855220541690519015158152f35b50503461013b578160031936011261013b5760035490516001600160a01b039091168152602090f35b919050346101cd5760203660031901126101cd5782610244610e54565b83548351637359fb4d60e11b81526001600160a01b039283169581019590955284916024918391165afa9182156102b5578361028c9493610290575b50505191829182610ec8565b0390f35b6102ad9293503d8091833e6102a58183610d98565b8101906111fc565b905f80610280565b81513d85823e3d90fd5b919050346101cd5760203660031901126101cd57826102dc610e54565b83548351639658e1ef60e01b81526001600160a01b039283169581019590955284916024918391165afa9182156102b5578361028c94936102905750505191829182610ec8565b9050346101cd5760203660031901126101cd578161028c9361034d92358152600660205220610f3a565b9051918291602083526020830190610e8b565b83833461013b578060031936011261013b57602061037c610e54565b8454835163537f253760e11b81526001600160a01b0392831696810196909652602480359087015285916044918391165afa9182156104095780926103c8575b60208383519015158152f35b9091506020833d8211610401575b816103e360209383610d98565b810103126103fe57506103f7602092611276565b90836103bc565b80fd5b3d91506103d6565b9051903d90823e3d90fd5b9050346101cd57826003193601126101cd57600254600354915483516001600160a01b0392831681529282166020840152169181019190915260609150f35b50503461013b578160031936011261013b57905490516001600160a01b039091168152602090f35b83346103fe57806003193601126103fe57610494610fdb565b5f80546001600160a01b0319811682556001600160a01b03167f8be0079c531659141344cd1fd0a4f28419497f9722a3daafe3b4186f6b6457e08280a380f35b919050346101cd5760603660031901126101cd576104f0610e54565b916104f9610e3e565b6001600160a01b0360443581811695929392908690036105a357819061051d610fdb565b1692831561059357169283156105865784156105865750836bffffffffffffffffffffffff60a01b83816002541617600255848160035416176003558254161790557fe008bc55cceb8bb7dc36a3bbaa95481f36a3537e2b4cdc39770a19cf94e754a58480a480f35b5163e6c4247b60e01b8152fd5b845163e6c4247b60e01b81528390fd5b5f80fd5b919050346101cd5760203660031901126101cd5781548151636ee25d3f60e01b81528335938101939093528390839060249082906001600160a01b03165afa9182156102b5578361028c94936102905750505191829182610ec8565b9050346101cd57826003193601126101cd575490516001600160a01b03909116815260209150f35b9050346101cd57816003193601126101cd5780359067ffffffffffffffff90818311610798573660238401121561079857828101359261066a84610eb0565b9261067786519485610d98565b8484526020918285016024809760051b830101913683116107945787859101915b8383106107845750505050843581811161078057366023820112156107805780840135906106c582610eb0565b966106d289519889610d98565b828852808589019360051b8301019336851161077c57818301935b8585106107525750505050505050610703610fdb565b81519383518503610745575050835b83811061071d578480f35b8061073f61072d60019385611283565b516107388387611283565b5190611006565b01610712565b5163512509d360e11b8152fd5b843582811161077857879161076d8392863691890101610e20565b8152019401936106ed565b8c80fd5b8a80fd5b8780fd5b8235815291810191859101610698565b8980fd5b8480fd5b83833461013b578160031936011261013b5760035481516340fa61f760e01b81529360209185919082906001600160a01b03165afa91821561040957916107e8575b6020925051908152f35b90506020823d8211610814575b8161080260209383610d98565b810103126105a35760209151906107de565b3d91506107f5565b828460603660031901126103fe57823592610835610e3e565b936044356108416111d9565b8084526020926005845260ff868620541615610a0d576003546001600160a01b0390811697883b15610a095781606488928a519b8c938492639f28c3f360e01b84528a8985015216602483015233604483015234905af180156109ff576109ce575b6024969750848160035416895198898092636e8be04b60e01b825288878301525afa9687156109c4578697610995575b50826084869284541693888b519586948593631163c24560e31b85528401523360248401528b6044840152600160648401525af194851561098a57908693929195610957575b50865190815284848201527f358a41b00129a592d70b6ded8b4df7ebb619ddfc08dae7c1e7c62ef2e367aa80873392a4600180558351928352820152f35b84809296508194503d8311610983575b6109718183610d98565b810103126105a3578491519387610919565b503d610967565b8751903d90823e3d90fd5b9096508481813d83116109bd575b6109ad8183610d98565b810103126105a3575195826108d3565b503d6109a3565b88513d88823e3d90fd5b94909667ffffffffffffffff81116109ec57865294958695946108a3565b634e487b7160e01b825260418852602482fd5b87513d88823e3d90fd5b8680fd5b8551636bc4556560e01b8152fd5b905082346103fe5760031960803682011261013b57610a38610e54565b9267ffffffffffffffff9060243582811161079857610a5a9036908301610e20565b9060443592606435908111610bf35736602382011215610bf357610a879036906024818501359101610dea565b95610a906111d9565b8386526020946005865260ff898820541615610bfe5760025489516362bdc87360e11b81526001600160a01b0393841685820181905260248201889052608060448301529099909588938b9386169284928c92849291610af4906084850190610e8b565b90838203016064840152610b0791610e8b565b03925af19687156109c4578697610bcb575b50836084869284541693888b519586948593631163c24560e31b85528401528760248401528b60448401528160648401525af194851561098a57908187939296610b96575b50507ff72252e9cd66575ecbb1d4559efa5fa3f549e5ca3c4f8b83701c38542da59002848851878152a4600180558351928352820152f35b91955091508382813d8311610bc4575b610bb08183610d98565b810103126103fe5750849051938780610b5e565b503d610ba6565b9096508481813d8311610bf7575b610be38183610d98565b81010312610bf357519583610b19565b8580fd5b503d610bd9565b8851636bc4556560e01b81528390fd5b905082346103fe57826003193601126103fe5780610c2a610e3e565b60035485516377bd591960e01b81528535958101959095526001600160a01b03918216602486015284916044918391165afa908115610d185780928192610c89575b505061028c90835193849315158452806020850152830190610e8b565b915091503d8083833e610c9c8183610d98565b81019183828403126103fe57610cb182611276565b9160208101519067ffffffffffffffff82116101cd570183601f8201121561013b57805191610cdf83610dce565b94610cec87519687610d98565b838652602084840101116103fe575061028c9291610d109160208087019101610e6a565b919084610c6c565b8351903d90823e3d90fd5b919050346101cd5736600319011261013b576024359067ffffffffffffffff82116101cd57610d58610d679236908301610e20565b90610d61610fdb565b35611006565b80f35b92915034610d94576020366003190112610d94573583526005602090815292205460ff1615158152f35b8380fd5b90601f8019910116810190811067ffffffffffffffff821117610dba57604052565b634e487b7160e01b5f52604160045260245ffd5b67ffffffffffffffff8111610dba57601f01601f191660200190565b929192610df682610dce565b91610e046040519384610d98565b8294818452818301116105a3578281602093845f960137010152565b9080601f830112156105a357816020610e3b93359101610dea565b90565b602435906001600160a01b03821682036105a357565b600435906001600160a01b03821682036105a357565b5f5b838110610e7b5750505f910152565b8181015183820152602001610e6c565b90602091610ea481518092818552858086019101610e6a565b601f01601f1916010190565b67ffffffffffffffff8111610dba5760051b60200190565b602090816040818301928281528551809452019301915f5b828110610eee575050505090565b835185529381019392810192600101610ee0565b90600182811c92168015610f30575b6020831014610f1c57565b634e487b7160e01b5f52602260045260245ffd5b91607f1691610f11565b9060405191825f825492610f4d84610f02565b9081845260019485811690815f14610fb85750600114610f78575b5050610f7692500383610d98565b565b909391505f52602090815f20935f915b818310610fa0575050610f7693508201015f80610f68565b85548884018501529485019487945091830191610f88565b915050610f7694506020925060ff191682840152151560051b8201015f80610f68565b5f546001600160a01b03163303610fee57565b60405163118cdaa760e01b8152336004820152602490fd5b91909180156111c7575f9281845260206005815260ff6040862054166111b55782855260058152604085206001908160ff1982541617905560068252604086209083519067ffffffffffffffff82116111a1576110638354610f02565b601f811161115b575b508397601f83116001146110dc5782917fdb838df1fbb32d807bb1ec43afc8f81fb0c76964708c79e129a864b4417c84e39798998392936110d1575b501b915f199060031b1c19161790555b6110cc604051928284938452830190610e8b565b0390a2565b87015192505f6110a8565b97601f929192198216848a52858a20995b818110611146575090827fdb838df1fbb32d807bb1ec43afc8f81fb0c76964708c79e129a864b4417c84e398999a921061112e575b5050811b0190556110b8565b8601515f1960f88460031b161c191690555f80611122565b878301518b55998401999186019186016110ed565b838952848920601f840160051c810191868510611197575b601f0160051c019082905b82811061118c57505061106c565b8a815501829061117e565b9091508190611173565b634e487b7160e01b88526041600452602488fd5b60405163ca86b94760e01b8152600490fd5b604051630c93477d60e41b8152600490fd5b6002600154146111ea576002600155565b604051633ee5aeb560e01b8152600490fd5b60209081818403126105a35780519067ffffffffffffffff82116105a357019180601f840112156105a357825161123281610eb0565b936112406040519586610d98565b818552838086019260051b8201019283116105a3578301905b828210611267575050505090565b81518152908301908301611259565b519081151582036105a357565b80518210156112975760209160051b010190565b634e487b7160e01b5f52603260045260245ffdfea264697066735822122060363284572d96a0e92a3f5d5a8993d0104f0bb30c2de475a053ac5e5dbb1cb564736f6c63430008140033","linkReferences":{}},"methodIdentifiers":{"basicMerch()":"fda9cee8","batchRegisterEvents(bytes32[],string[])":"131b2e17","canUserMintCompanion(uint256,address)":"0af86225","easIntegration()":"1323e16a","eventMetadata(bytes32)":"af384a7e","getContractAddresses()":"953874d2","getEventAttendance(bytes32)":"63047080","getEventMetadata(bytes32)":"1969d454","getUpgradeFee()":"11b687c8","getUserAttendanceHistory(address)":"b9587f7b","getUserPremiumUpgrades(address)":"e6b3f69a","hasUserAttendedEvent(address,bytes32)":"a6fe4a6e","isEventRegistered(bytes32)":"f0c51c5f","mintCompanionWithAttestation(uint256,address,bytes32)":"0d0626b9","mintSBTWithAttestation(address,string,bytes32,bytes)":"0bb82ea9","owner()":"8da5cb5b","premiumMerch()":"f03bf244","registerEvent(bytes32,string)":"06e9d8a8","registeredEvents(bytes32)":"050b5c5e","renounceOwnership()":"715018a6","transferOwnership(address)":"f2fde38b","updateContracts(address,address,address)":"6dca4d44"},"id":38}