{"abi":[{"type":"constructor","inputs":[{"name":"_basicMerch","type":"address","internalType":"address"},{"name":"_premiumMerch","type":"address","internalType":"address"},{"name":"_easIntegration","type":"address","internalType":"address"}],"stateMutability":"nonpayable"},{"type":"function","name":"basicMerch","inputs":[],"outputs":[{"name":"","type":"address","internalType":"contract BasicMerch"}],"stateMutability":"view"},{"type":"function","name":"batchRegisterEvents","inputs":[{"name":"_eventIds","type":"bytes32[]","internalType":"bytes32[]"},{"name":"_metadataArray","type":"string[]","internalType":"string[]"}],"outputs":[],"stateMutability":"nonpayable"},{"type":"function","name":"easIntegration","inputs":[],"outputs":[{"name":"","type":"address","internalType":"contract EASIntegration"}],"stateMutability":"view"},{"type":"function","name":"eventMetadata","inputs":[{"name":"","type":"bytes32","internalType":"bytes32"}],"outputs":[{"name":"","type":"string","internalType":"string"}],"stateMutability":"view"},{"type":"function","name":"getContractAddresses","inputs":[],"outputs":[{"name":"","type":"address","internalType":"address"},{"name":"","type":"address","internalType":"address"},{"name":"","type":"address","internalType":"address"}],"stateMutability":"view"},{"type":"function","name":"getEventAttendance","inputs":[{"name":"_eventId","type":"bytes32","internalType":"bytes32"}],"outputs":[{"name":"","type":"bytes32[]","internalType":"bytes32[]"}],"stateMutability":"view"},{"type":"function","name":"getEventMetadata","inputs":[{"name":"_eventId","type":"bytes32","internalType":"bytes32"}],"outputs":[{"name":"","type":"string","internalType":"string"}],"stateMutability":"view"},{"type":"function","name":"getUserAttendanceHistory","inputs":[{"name":"_user","type":"address","internalType":"address"}],"outputs":[{"name":"","type":"bytes32[]","internalType":"bytes32[]"}],"stateMutability":"view"},{"type":"function","name":"getUserPremiumUpgrades","inputs":[{"name":"_user","type":"address","internalType":"address"}],"outputs":[{"name":"","type":"bytes32[]","internalType":"bytes32[]"}],"stateMutability":"view"},{"type":"function","name":"hasUserAttendedEvent","inputs":[{"name":"_user","type":"address","internalType":"address"},{"name":"_eventId","type":"bytes32","internalType":"bytes32"}],"outputs":[{"name":"","type":"bool","internalType":"bool"}],"stateMutability":"view"},{"type":"function","name":"mintSBTWithAttestation","inputs":[{"name":"_to","type":"address","internalType":"address"},{"name":"_tokenURI","type":"string","internalType":"string"},{"name":"_eventId","type":"bytes32","internalType":"bytes32"}],"outputs":[{"name":"","type":"uint256","internalType":"uint256"},{"name":"","type":"bytes32","internalType":"bytes32"}],"stateMutability":"nonpayable"},{"type":"function","name":"owner","inputs":[],"outputs":[{"name":"","type":"address","internalType":"address"}],"stateMutability":"view"},{"type":"function","name":"premiumMerch","inputs":[],"outputs":[{"name":"","type":"address","internalType":"contract PremiumMerch"}],"stateMutability":"view"},{"type":"function","name":"registerEvent","inputs":[{"name":"_eventId","type":"bytes32","internalType":"bytes32"},{"name":"_metadata","type":"string","internalType":"string"}],"outputs":[],"stateMutability":"nonpayable"},{"type":"function","name":"registeredEvents","inputs":[{"name":"","type":"bytes32","internalType":"bytes32"}],"outputs":[{"name":"","type":"bool","internalType":"bool"}],"stateMutability":"view"},{"type":"function","name":"renounceOwnership","inputs":[],"outputs":[],"stateMutability":"nonpayable"},{"type":"function","name":"transferOwnership","inputs":[{"name":"newOwner","type":"address","internalType":"address"}],"outputs":[],"stateMutability":"nonpayable"},{"type":"function","name":"updateContracts","inputs":[{"name":"_basicMerch","type":"address","internalType":"address"},{"name":"_premiumMerch","type":"address","internalType":"address"},{"name":"_easIntegration","type":"address","internalType":"address"}],"outputs":[],"stateMutability":"nonpayable"},{"type":"function","name":"upgradeSBTWithAttestation","inputs":[{"name":"_sbtId","type":"uint256","internalType":"uint256"},{"name":"_organizer","type":"address","internalType":"address"},{"name":"_eventId","type":"bytes32","internalType":"bytes32"}],"outputs":[{"name":"","type":"uint256","internalType":"uint256"},{"name":"","type":"bytes32","internalType":"bytes32"}],"stateMutability":"payable"},{"type":"event","name":"EventRegistered","inputs":[{"name":"eventId","type":"bytes32","indexed":true,"internalType":"bytes32"},{"name":"metadata","type":"string","indexed":false,"internalType":"string"}],"anonymous":false},{"type":"event","name":"OwnershipTransferred","inputs":[{"name":"previousOwner","type":"address","indexed":true,"internalType":"address"},{"name":"newOwner","type":"address","indexed":true,"internalType":"address"}],"anonymous":false},{"type":"event","name":"SBTMintedWithAttestation","inputs":[{"name":"user","type":"address","indexed":true,"internalType":"address"},{"name":"tokenId","type":"uint256","indexed":true,"internalType":"uint256"},{"name":"eventId","type":"bytes32","indexed":true,"internalType":"bytes32"},{"name":"attestationId","type":"bytes32","indexed":false,"internalType":"bytes32"}],"anonymous":false},{"type":"event","name":"SBTUpgradedWithAttestation","inputs":[{"name":"user","type":"address","indexed":true,"internalType":"address"},{"name":"sbtId","type":"uint256","indexed":true,"internalType":"uint256"},{"name":"premiumId","type":"uint256","indexed":true,"internalType":"uint256"},{"name":"attestationId","type":"bytes32","indexed":false,"internalType":"bytes32"}],"anonymous":false},{"type":"error","name":"ContractNotSet","inputs":[]},{"type":"error","name":"EventNotRegistered","inputs":[]},{"type":"error","name":"InvalidEventId","inputs":[]},{"type":"error","name":"OwnableInvalidOwner","inputs":[{"name":"owner","type":"address","internalType":"address"}]},{"type":"error","name":"OwnableUnauthorizedAccount","inputs":[{"name":"account","type":"address","internalType":"address"}]},{"type":"error","name":"ReentrancyGuardReentrantCall","inputs":[]}],"bytecode":{"object":"0x608060405234801562000010575f80fd5b50604051620015fa380380620015fa833981016040819052620000339162000117565b33806200005957604051631e4fbdf760e01b81525f600482015260240160405180910390fd5b6200006481620000ac565b5060018055600280546001600160a01b039485166001600160a01b0319918216179091556003805493851693821693909317909255600480549190931691161790556200015e565b5f80546001600160a01b038381166001600160a01b0319831681178455604051919092169283917f8be0079c531659141344cd1fd0a4f28419497f9722a3daafe3b4186f6b6457e09190a35050565b80516001600160a01b038116811462000112575f80fd5b919050565b5f805f606084860312156200012a575f80fd5b6200013584620000fb565b92506200014560208501620000fb565b91506200015560408501620000fb565b90509250925092565b61148e806200016c5f395ff3fe608060405260043610610110575f3560e01c80638da5cb5b1161009d578063e6b3f69a11610062578063e6b3f69a14610345578063e8e4f06814610364578063f03bf24414610377578063f2fde38b14610396578063fda9cee8146103b5575f80fd5b80638da5cb5b1461028d578063953874d2146102a9578063a6fe4a6e146102e8578063af384a7e14610307578063b9587f7b14610326575f80fd5b80631323e16a116100e35780631323e16a146101cb5780631969d45414610202578063630470801461022e5780636dca4d441461025a578063715018a614610279575f80fd5b8063050b5c5e1461011457806306e9d8a8146101575780630c9c907414610178578063131b2e17146101ac575b5f80fd5b34801561011f575f80fd5b5061014261012e366004610dd5565b60056020525f908152604090205460ff1681565b60405190151581526020015b60405180910390f35b348015610162575f80fd5b50610176610171366004610e9d565b6103d4565b005b348015610183575f80fd5b50610197610192366004610efc565b6103ea565b6040805192835260208301919091520161014e565b3480156101b7575f80fd5b506101766101c6366004610ffe565b610575565b3480156101d6575f80fd5b506004546101ea906001600160a01b031681565b6040516001600160a01b03909116815260200161014e565b34801561020d575f80fd5b5061022161021c366004610dd5565b610629565b60405161014e91906110ea565b348015610239575f80fd5b5061024d610248366004610dd5565b6106c8565b60405161014e91906110fc565b348015610265575f80fd5b5061017661027436600461113f565b61073f565b348015610284575f80fd5b50610176610888565b348015610298575f80fd5b505f546001600160a01b03166101ea565b3480156102b4575f80fd5b50600254600354600454604080516001600160a01b039485168152928416602084015292169181019190915260600161014e565b3480156102f3575f80fd5b5061014261030236600461117f565b61089b565b348015610312575f80fd5b50610221610321366004610dd5565b61091a565b348015610331575f80fd5b5061024d6103403660046111a7565b6109b1565b348015610350575f80fd5b5061024d61035f3660046111a7565b6109e9565b6101976103723660046111c0565b610a21565b348015610382575f80fd5b506003546101ea906001600160a01b031681565b3480156103a1575f80fd5b506101766103b03660046111a7565b610bec565b3480156103c0575f80fd5b506002546101ea906001600160a01b031681565b6103dc610c29565b6103e68282610c55565b5050565b5f806103f4610d5c565b5f8381526005602052604090205460ff1661042257604051636bc4556560e01b815260040160405180910390fd5b6002546040516324dcfe6b60e21b81525f916001600160a01b031690639373f9ac9061045490899089906004016111f2565b6020604051808303815f875af1158015610470573d5f803e3d5ffd5b505050506040513d601f19601f82011682018060405250810190610494919061121d565b60048054604051631163c24560e31b81529182018790526001600160a01b038981166024840152604483018490525f606484018190529394501690638b1e1228906084016020604051808303815f875af11580156104f4573d5f803e3d5ffd5b505050506040513d601f19601f82011682018060405250810190610518919061121d565b90508482886001600160a01b03167ff72252e9cd66575ecbb1d4559efa5fa3f549e5ca3c4f8b83701c38542da590028460405161055791815260200190565b60405180910390a4909250905061056d60018055565b935093915050565b61057d610c29565b80518251146105cb5760405162461bcd60e51b8152602060048201526015602482015274082e4e4c2f240d8cadccee8d040dad2e6dac2e8c6d605b1b60448201526064015b60405180910390fd5b5f5b8251811015610624576106128382815181106105eb576105eb611234565b602002602001015183838151811061060557610605611234565b6020026020010151610c55565b8061061c81611248565b9150506105cd565b505050565b5f8181526006602052604090208054606091906106459061126c565b80601f01602080910402602001604051908101604052809291908181526020018280546106719061126c565b80156106bc5780601f10610693576101008083540402835291602001916106bc565b820191905f5260205f20905b81548152906001019060200180831161069f57829003601f168201915b50505050509050919050565b60048054604051636ee25d3f60e01b81529182018390526060916001600160a01b0390911690636ee25d3f906024015b5f60405180830381865afa158015610712573d5f803e3d5ffd5b505050506040513d5f823e601f3d908101601f1916820160405261073991908101906112a4565b92915050565b610747610c29565b6001600160a01b03831661079d5760405162461bcd60e51b815260206004820152601b60248201527f496e76616c6964206261736963206d657263682061646472657373000000000060448201526064016105c2565b6001600160a01b0382166107f35760405162461bcd60e51b815260206004820152601d60248201527f496e76616c6964207072656d69756d206d65726368206164647265737300000060448201526064016105c2565b6001600160a01b0381166108495760405162461bcd60e51b815260206004820152601f60248201527f496e76616c69642045415320696e746567726174696f6e20616464726573730060448201526064016105c2565b600280546001600160a01b039485166001600160a01b031991821617909155600380549385169382169390931790925560048054919093169116179055565b610890610c29565b6108995f610d86565b565b6004805460405163537f253760e11b81526001600160a01b0385811693820193909352602481018490525f929091169063a6fe4a6e90604401602060405180830381865afa1580156108ef573d5f803e3d5ffd5b505050506040513d601f19601f820116820180604052508101906109139190611330565b9392505050565b60066020525f9081526040902080546109329061126c565b80601f016020809104026020016040519081016040528092919081815260200182805461095e9061126c565b80156109a95780601f10610980576101008083540402835291602001916109a9565b820191905f5260205f20905b81548152906001019060200180831161098c57829003601f168201915b505050505081565b60048054604051639658e1ef60e01b81526001600160a01b038481169382019390935260609290911690639658e1ef906024016106f8565b60048054604051637359fb4d60e11b81526001600160a01b03848116938201939093526060929091169063e6b3f69a906024016106f8565b5f80610a2b610d5c565b5f8381526005602052604090205460ff16610a5957604051636bc4556560e01b815260040160405180910390fd5b600354604051630ec7dcb760e01b8152600481018790526001600160a01b03868116602483015290911690630ec7dcb79034906044015f604051808303818588803b158015610aa6575f80fd5b505af1158015610ab8573d5f803e3d5ffd5b5050600354604051636e8be04b60e01b8152600481018a90525f94506001600160a01b039091169250636e8be04b9150602401602060405180830381865afa158015610b06573d5f803e3d5ffd5b505050506040513d601f19601f82011682018060405250810190610b2a919061121d565b60048054604051631163c24560e31b815291820187905233602483015260448201839052600160648301529192505f916001600160a01b031690638b1e1228906084016020604051808303815f875af1158015610b89573d5f803e3d5ffd5b505050506040513d601f19601f82011682018060405250810190610bad919061121d565b90508187336001600160a01b03167f2cf986b3c87eb435bb6b1b38dc0f03cc5e423a4bb5452733ef78f93e25a0852d8460405161055791815260200190565b610bf4610c29565b6001600160a01b038116610c1d57604051631e4fbdf760e01b81525f60048201526024016105c2565b610c2681610d86565b50565b5f546001600160a01b031633146108995760405163118cdaa760e01b81523360048201526024016105c2565b81610c955760405162461bcd60e51b815260206004820152601060248201526f125b9d985b1a5908195d995b9d08125160821b60448201526064016105c2565b5f8281526005602052604090205460ff1615610cf35760405162461bcd60e51b815260206004820152601860248201527f4576656e7420616c72656164792072656769737465726564000000000000000060448201526064016105c2565b5f828152600560209081526040808320805460ff1916600117905560069091529020610d1f828261139c565b50817fdb838df1fbb32d807bb1ec43afc8f81fb0c76964708c79e129a864b4417c84e382604051610d5091906110ea565b60405180910390a25050565b600260015403610d7f57604051633ee5aeb560e01b815260040160405180910390fd5b6002600155565b5f80546001600160a01b038381166001600160a01b0319831681178455604051919092169283917f8be0079c531659141344cd1fd0a4f28419497f9722a3daafe3b4186f6b6457e09190a35050565b5f60208284031215610de5575f80fd5b5035919050565b634e487b7160e01b5f52604160045260245ffd5b604051601f8201601f1916810167ffffffffffffffff81118282101715610e2957610e29610dec565b604052919050565b5f82601f830112610e40575f80fd5b813567ffffffffffffffff811115610e5a57610e5a610dec565b610e6d601f8201601f1916602001610e00565b818152846020838601011115610e81575f80fd5b816020850160208301375f918101602001919091529392505050565b5f8060408385031215610eae575f80fd5b82359150602083013567ffffffffffffffff811115610ecb575f80fd5b610ed785828601610e31565b9150509250929050565b80356001600160a01b0381168114610ef7575f80fd5b919050565b5f805f60608486031215610f0e575f80fd5b610f1784610ee1565b9250602084013567ffffffffffffffff811115610f32575f80fd5b610f3e86828701610e31565b925050604084013590509250925092565b5f67ffffffffffffffff821115610f6857610f68610dec565b5060051b60200190565b5f82601f830112610f81575f80fd5b81356020610f96610f9183610f4f565b610e00565b82815260059290921b84018101918181019086841115610fb4575f80fd5b8286015b84811015610ff357803567ffffffffffffffff811115610fd7575f8081fd5b610fe58986838b0101610e31565b845250918301918301610fb8565b509695505050505050565b5f806040838503121561100f575f80fd5b823567ffffffffffffffff80821115611026575f80fd5b818501915085601f830112611039575f80fd5b81356020611049610f9183610f4f565b82815260059290921b84018101918181019089841115611067575f80fd5b948201945b838610156110855785358252948201949082019061106c565b9650508601359250508082111561109a575f80fd5b50610ed785828601610f72565b5f81518084525f5b818110156110cb576020818501810151868301820152016110af565b505f602082860101526020601f19601f83011685010191505092915050565b602081525f61091360208301846110a7565b602080825282518282018190525f9190848201906040850190845b8181101561113357835183529284019291840191600101611117565b50909695505050505050565b5f805f60608486031215611151575f80fd5b61115a84610ee1565b925061116860208501610ee1565b915061117660408501610ee1565b90509250925092565b5f8060408385031215611190575f80fd5b61119983610ee1565b946020939093013593505050565b5f602082840312156111b7575f80fd5b61091382610ee1565b5f805f606084860312156111d2575f80fd5b833592506111e260208501610ee1565b9150604084013590509250925092565b6001600160a01b03831681526040602082018190525f90611215908301846110a7565b949350505050565b5f6020828403121561122d575f80fd5b5051919050565b634e487b7160e01b5f52603260045260245ffd5b5f6001820161126557634e487b7160e01b5f52601160045260245ffd5b5060010190565b600181811c9082168061128057607f821691505b60208210810361129e57634e487b7160e01b5f52602260045260245ffd5b50919050565b5f60208083850312156112b5575f80fd5b825167ffffffffffffffff8111156112cb575f80fd5b8301601f810185136112db575f80fd5b80516112e9610f9182610f4f565b81815260059190911b82018301908381019087831115611307575f80fd5b928401925b828410156113255783518252928401929084019061130c565b979650505050505050565b5f60208284031215611340575f80fd5b81518015158114610913575f80fd5b601f821115610624575f81815260208120601f850160051c810160208610156113755750805b601f850160051c820191505b8181101561139457828155600101611381565b505050505050565b815167ffffffffffffffff8111156113b6576113b6610dec565b6113ca816113c4845461126c565b8461134f565b602080601f8311600181146113fd575f84156113e65750858301515b5f19600386901b1c1916600185901b178555611394565b5f85815260208120601f198616915b8281101561142b5788860151825594840194600190910190840161140c565b508582101561144857878501515f19600388901b60f8161c191681555b5050505050600190811b0190555056fea2646970667358221220f0a7a76f65aaef5f796b3bf1535c74db11ccf833ecbf9c2a8706554f00d981a964736f6c63430008140033","linkReferences":{}},"methodIdentifiers":{"basicMerch()":"fda9cee8","batchRegisterEvents(bytes32[],string[])":"131b2e17","easIntegration()":"1323e16a","eventMetadata(bytes32)":"af384a7e","getContractAddresses()":"953874d2","getEventAttendance(bytes32)":"63047080","getEventMetadata(bytes32)":"1969d454","getUserAttendanceHistory(address)":"b9587f7b","getUserPremiumUpgrades(address)":"e6b3f69a","hasUserAttendedEvent(address,bytes32)":"a6fe4a6e","mintSBTWithAttestation(address,string,bytes32)":"0c9c9074","owner()":"8da5cb5b","premiumMerch()":"f03bf244","registerEvent(bytes32,string)":"06e9d8a8","registeredEvents(bytes32)":"050b5c5e","renounceOwnership()":"715018a6","transferOwnership(address)":"f2fde38b","updateContracts(address,address,address)":"6dca4d44","upgradeSBTWithAttestation(uint256,address,bytes32)":"e8e4f068"},"id":32}