{"abi":[{"type":"constructor","inputs":[{"name":"_basicMerch","type":"address","internalType":"address"},{"name":"_premiumMerch","type":"address","internalType":"address"},{"name":"_easIntegration","type":"address","internalType":"address"}],"stateMutability":"nonpayable"},{"type":"function","name":"basicMerch","inputs":[],"outputs":[{"name":"","type":"address","internalType":"contract BasicMerch"}],"stateMutability":"view"},{"type":"function","name":"batchRegisterEvents","inputs":[{"name":"_eventIds","type":"bytes32[]","internalType":"bytes32[]"},{"name":"_metadataArray","type":"string[]","internalType":"string[]"}],"outputs":[],"stateMutability":"nonpayable"},{"type":"function","name":"easIntegration","inputs":[],"outputs":[{"name":"","type":"address","internalType":"contract EASIntegration"}],"stateMutability":"view"},{"type":"function","name":"eventMetadata","inputs":[{"name":"","type":"bytes32","internalType":"bytes32"}],"outputs":[{"name":"","type":"string","internalType":"string"}],"stateMutability":"view"},{"type":"function","name":"getContractAddresses","inputs":[],"outputs":[{"name":"","type":"address","internalType":"address"},{"name":"","type":"address","internalType":"address"},{"name":"","type":"address","internalType":"address"}],"stateMutability":"view"},{"type":"function","name":"getEventAttendance","inputs":[{"name":"_eventId","type":"bytes32","internalType":"bytes32"}],"outputs":[{"name":"","type":"bytes32[]","internalType":"bytes32[]"}],"stateMutability":"view"},{"type":"function","name":"getEventMetadata","inputs":[{"name":"_eventId","type":"bytes32","internalType":"bytes32"}],"outputs":[{"name":"","type":"string","internalType":"string"}],"stateMutability":"view"},{"type":"function","name":"getUserAttendanceHistory","inputs":[{"name":"_user","type":"address","internalType":"address"}],"outputs":[{"name":"","type":"bytes32[]","internalType":"bytes32[]"}],"stateMutability":"view"},{"type":"function","name":"getUserPremiumUpgrades","inputs":[{"name":"_user","type":"address","internalType":"address"}],"outputs":[{"name":"","type":"bytes32[]","internalType":"bytes32[]"}],"stateMutability":"view"},{"type":"function","name":"hasUserAttendedEvent","inputs":[{"name":"_user","type":"address","internalType":"address"},{"name":"_eventId","type":"bytes32","internalType":"bytes32"}],"outputs":[{"name":"","type":"bool","internalType":"bool"}],"stateMutability":"view"},{"type":"function","name":"mintSBTWithAttestation","inputs":[{"name":"_to","type":"address","internalType":"address"},{"name":"_tokenURI","type":"string","internalType":"string"},{"name":"_eventId","type":"bytes32","internalType":"bytes32"}],"outputs":[{"name":"","type":"uint256","internalType":"uint256"},{"name":"","type":"bytes32","internalType":"bytes32"}],"stateMutability":"nonpayable"},{"type":"function","name":"owner","inputs":[],"outputs":[{"name":"","type":"address","internalType":"address"}],"stateMutability":"view"},{"type":"function","name":"premiumMerch","inputs":[],"outputs":[{"name":"","type":"address","internalType":"contract PremiumMerch"}],"stateMutability":"view"},{"type":"function","name":"registerEvent","inputs":[{"name":"_eventId","type":"bytes32","internalType":"bytes32"},{"name":"_metadata","type":"string","internalType":"string"}],"outputs":[],"stateMutability":"nonpayable"},{"type":"function","name":"registeredEvents","inputs":[{"name":"","type":"bytes32","internalType":"bytes32"}],"outputs":[{"name":"","type":"bool","internalType":"bool"}],"stateMutability":"view"},{"type":"function","name":"renounceOwnership","inputs":[],"outputs":[],"stateMutability":"nonpayable"},{"type":"function","name":"transferOwnership","inputs":[{"name":"newOwner","type":"address","internalType":"address"}],"outputs":[],"stateMutability":"nonpayable"},{"type":"function","name":"updateContracts","inputs":[{"name":"_basicMerch","type":"address","internalType":"address"},{"name":"_premiumMerch","type":"address","internalType":"address"},{"name":"_easIntegration","type":"address","internalType":"address"}],"outputs":[],"stateMutability":"nonpayable"},{"type":"function","name":"upgradeSBTWithAttestation","inputs":[{"name":"_sbtId","type":"uint256","internalType":"uint256"},{"name":"_organizer","type":"address","internalType":"address"},{"name":"_eventId","type":"bytes32","internalType":"bytes32"}],"outputs":[{"name":"","type":"uint256","internalType":"uint256"},{"name":"","type":"bytes32","internalType":"bytes32"}],"stateMutability":"payable"},{"type":"event","name":"EventRegistered","inputs":[{"name":"eventId","type":"bytes32","indexed":true,"internalType":"bytes32"},{"name":"metadata","type":"string","indexed":false,"internalType":"string"}],"anonymous":false},{"type":"event","name":"OwnershipTransferred","inputs":[{"name":"previousOwner","type":"address","indexed":true,"internalType":"address"},{"name":"newOwner","type":"address","indexed":true,"internalType":"address"}],"anonymous":false},{"type":"event","name":"SBTMintedWithAttestation","inputs":[{"name":"user","type":"address","indexed":true,"internalType":"address"},{"name":"tokenId","type":"uint256","indexed":true,"internalType":"uint256"},{"name":"eventId","type":"bytes32","indexed":true,"internalType":"bytes32"},{"name":"attestationId","type":"bytes32","indexed":false,"internalType":"bytes32"}],"anonymous":false},{"type":"event","name":"SBTUpgradedWithAttestation","inputs":[{"name":"user","type":"address","indexed":true,"internalType":"address"},{"name":"sbtId","type":"uint256","indexed":true,"internalType":"uint256"},{"name":"premiumId","type":"uint256","indexed":true,"internalType":"uint256"},{"name":"attestationId","type":"bytes32","indexed":false,"internalType":"bytes32"}],"anonymous":false},{"type":"error","name":"ContractNotSet","inputs":[]},{"type":"error","name":"EventNotRegistered","inputs":[]},{"type":"error","name":"InvalidEventId","inputs":[]},{"type":"error","name":"OwnableInvalidOwner","inputs":[{"name":"owner","type":"address","internalType":"address"}]},{"type":"error","name":"OwnableUnauthorizedAccount","inputs":[{"name":"account","type":"address","internalType":"address"}]},{"type":"error","name":"ReentrancyGuardReentrantCall","inputs":[]}],"bytecode":{"object":"0x608060405234801561000f575f5ffd5b50604051612900380380612900833981810160405281019061003191906102a0565b335f73ffffffffffffffffffffffffffffffffffffffff168173ffffffffffffffffffffffffffffffffffffffff16036100a2575f6040517f1e4fbdf700000000000000000000000000000000000000000000000000000000815260040161009991906102ff565b60405180910390fd5b6100b18161018160201b60201c565b50600180819055508260025f6101000a81548173ffffffffffffffffffffffffffffffffffffffff021916908373ffffffffffffffffffffffffffffffffffffffff1602179055508160035f6101000a81548173ffffffffffffffffffffffffffffffffffffffff021916908373ffffffffffffffffffffffffffffffffffffffff1602179055508060045f6101000a81548173ffffffffffffffffffffffffffffffffffffffff021916908373ffffffffffffffffffffffffffffffffffffffff160217905550505050610318565b5f5f5f9054906101000a900473ffffffffffffffffffffffffffffffffffffffff169050815f5f6101000a81548173ffffffffffffffffffffffffffffffffffffffff021916908373ffffffffffffffffffffffffffffffffffffffff1602179055508173ffffffffffffffffffffffffffffffffffffffff168173ffffffffffffffffffffffffffffffffffffffff167f8be0079c531659141344cd1fd0a4f28419497f9722a3daafe3b4186f6b6457e060405160405180910390a35050565b5f5ffd5b5f73ffffffffffffffffffffffffffffffffffffffff82169050919050565b5f61026f82610246565b9050919050565b61027f81610265565b8114610289575f5ffd5b50565b5f8151905061029a81610276565b92915050565b5f5f5f606084860312156102b7576102b6610242565b5b5f6102c48682870161028c565b93505060206102d58682870161028c565b92505060406102e68682870161028c565b9150509250925092565b6102f981610265565b82525050565b5f6020820190506103125f8301846102f0565b92915050565b6125db806103255f395ff3fe608060405260043610610113575f3560e01c80638da5cb5b1161009f578063e6b3f69a11610063578063e6b3f69a146103ca578063e8e4f06814610406578063f03bf24414610437578063f2fde38b14610461578063fda9cee81461048957610113565b80638da5cb5b146102c0578063953874d2146102ea578063a6fe4a6e14610316578063af384a7e14610352578063b9587f7b1461038e57610113565b80631323e16a116100e65780631323e16a146101e05780631969d4541461020a57806363047080146102465780636dca4d4414610282578063715018a6146102aa57610113565b8063050b5c5e1461011757806306e9d8a8146101535780630c9c90741461017b578063131b2e17146101b8575b5f5ffd5b348015610122575f5ffd5b5061013d600480360381019061013891906114b8565b6104b3565b60405161014a91906114fd565b60405180910390f35b34801561015e575f5ffd5b5061017960048036038101906101749190611652565b6104d0565b005b348015610186575f5ffd5b506101a1600480360381019061019c9190611706565b6104e6565b6040516101af929190611799565b60405180910390f35b3480156101c3575f5ffd5b506101de60048036038101906101d99190611962565b6106ee565b005b3480156101eb575f5ffd5b506101f4610798565b6040516102019190611a33565b60405180910390f35b348015610215575f5ffd5b50610230600480360381019061022b91906114b8565b6107bd565b60405161023d9190611aac565b60405180910390f35b348015610251575f5ffd5b5061026c600480360381019061026791906114b8565b61085e565b6040516102799190611b83565b60405180910390f35b34801561028d575f5ffd5b506102a860048036038101906102a39190611ba3565b610903565b005b3480156102b5575f5ffd5b506102be610b1a565b005b3480156102cb575f5ffd5b506102d4610b2d565b6040516102e19190611c02565b60405180910390f35b3480156102f5575f5ffd5b506102fe610b54565b60405161030d93929190611c1b565b60405180910390f35b348015610321575f5ffd5b5061033c60048036038101906103379190611c50565b610bc8565b60405161034991906114fd565b60405180910390f35b34801561035d575f5ffd5b50610378600480360381019061037391906114b8565b610c6c565b6040516103859190611aac565b60405180910390f35b348015610399575f5ffd5b506103b460048036038101906103af9190611c8e565b610d07565b6040516103c19190611b83565b60405180910390f35b3480156103d5575f5ffd5b506103f060048036038101906103eb9190611c8e565b610dac565b6040516103fd9190611b83565b60405180910390f35b610420600480360381019061041b9190611ce3565b610e51565b60405161042e929190611799565b60405180910390f35b348015610442575f5ffd5b5061044b6110e2565b6040516104589190611d53565b60405180910390f35b34801561046c575f5ffd5b5061048760048036038101906104829190611c8e565b611107565b005b348015610494575f5ffd5b5061049d61118b565b6040516104aa9190611d8c565b60405180910390f35b6005602052805f5260405f205f915054906101000a900460ff1681565b6104d86111b0565b6104e28282611237565b5050565b5f5f6104f061135d565b60055f8481526020019081526020015f205f9054906101000a900460ff16610544576040517f6bc4556500000000000000000000000000000000000000000000000000000000815260040160405180910390fd5b5f60025f9054906101000a900473ffffffffffffffffffffffffffffffffffffffff1673ffffffffffffffffffffffffffffffffffffffff16639373f9ac87876040518363ffffffff1660e01b81526004016105a1929190611da5565b6020604051808303815f875af11580156105bd573d5f5f3e3d5ffd5b505050506040513d601f19601f820116820180604052508101906105e19190611de7565b90505f60045f9054906101000a900473ffffffffffffffffffffffffffffffffffffffff1673ffffffffffffffffffffffffffffffffffffffff16638b1e12288689855f6040518563ffffffff1660e01b81526004016106449493929190611e12565b6020604051808303815f875af1158015610660573d5f5f3e3d5ffd5b505050506040513d601f19601f820116820180604052508101906106849190611e69565b905084828873ffffffffffffffffffffffffffffffffffffffff167ff72252e9cd66575ecbb1d4559efa5fa3f549e5ca3c4f8b83701c38542da59002846040516106ce9190611e94565b60405180910390a481819350935050506106e66113a3565b935093915050565b6106f66111b0565b805182511461073a576040517f08c379a000000000000000000000000000000000000000000000000000000000815260040161073190611ef7565b60405180910390fd5b5f5f90505b82518110156107935761078683828151811061075e5761075d611f15565b5b602002602001015183838151811061077957610778611f15565b5b6020026020010151611237565b808060010191505061073f565b505050565b60045f9054906101000a900473ffffffffffffffffffffffffffffffffffffffff1681565b606060065f8381526020019081526020015f2080546107db90611f6f565b80601f016020809104026020016040519081016040528092919081815260200182805461080790611f6f565b80156108525780601f1061082957610100808354040283529160200191610852565b820191905f5260205f20905b81548152906001019060200180831161083557829003601f168201915b50505050509050919050565b606060045f9054906101000a900473ffffffffffffffffffffffffffffffffffffffff1673ffffffffffffffffffffffffffffffffffffffff16636ee25d3f836040518263ffffffff1660e01b81526004016108ba9190611e94565b5f60405180830381865afa1580156108d4573d5f5f3e3d5ffd5b505050506040513d5f823e3d601f19601f820116820180604052508101906108fc9190612034565b9050919050565b61090b6111b0565b5f73ffffffffffffffffffffffffffffffffffffffff168373ffffffffffffffffffffffffffffffffffffffff1603610979576040517f08c379a0000000000000000000000000000000000000000000000000000000008152600401610970906120c5565b60405180910390fd5b5f73ffffffffffffffffffffffffffffffffffffffff168273ffffffffffffffffffffffffffffffffffffffff16036109e7576040517f08c379a00000000000000000000000000000000000000000000000000000000081526004016109de9061212d565b60405180910390fd5b5f73ffffffffffffffffffffffffffffffffffffffff168173ffffffffffffffffffffffffffffffffffffffff1603610a55576040517f08c379a0000000000000000000000000000000000000000000000000000000008152600401610a4c90612195565b60405180910390fd5b8260025f6101000a81548173ffffffffffffffffffffffffffffffffffffffff021916908373ffffffffffffffffffffffffffffffffffffffff1602179055508160035f6101000a81548173ffffffffffffffffffffffffffffffffffffffff021916908373ffffffffffffffffffffffffffffffffffffffff1602179055508060045f6101000a81548173ffffffffffffffffffffffffffffffffffffffff021916908373ffffffffffffffffffffffffffffffffffffffff160217905550505050565b610b226111b0565b610b2b5f6113ac565b565b5f5f5f9054906101000a900473ffffffffffffffffffffffffffffffffffffffff16905090565b5f5f5f60025f9054906101000a900473ffffffffffffffffffffffffffffffffffffffff1660035f9054906101000a900473ffffffffffffffffffffffffffffffffffffffff1660045f9054906101000a900473ffffffffffffffffffffffffffffffffffffffff16925092509250909192565b5f60045f9054906101000a900473ffffffffffffffffffffffffffffffffffffffff1673ffffffffffffffffffffffffffffffffffffffff1663a6fe4a6e84846040518363ffffffff1660e01b8152600401610c259291906121b3565b602060405180830381865afa158015610c40573d5f5f3e3d5ffd5b505050506040513d601f19601f82011682018060405250810190610c649190612204565b905092915050565b6006602052805f5260405f205f915090508054610c8890611f6f565b80601f0160208091040260200160405190810160405280929190818152602001828054610cb490611f6f565b8015610cff5780601f10610cd657610100808354040283529160200191610cff565b820191905f5260205f20905b815481529060010190602001808311610ce257829003601f168201915b505050505081565b606060045f9054906101000a900473ffffffffffffffffffffffffffffffffffffffff1673ffffffffffffffffffffffffffffffffffffffff16639658e1ef836040518263ffffffff1660e01b8152600401610d639190611c02565b5f60405180830381865afa158015610d7d573d5f5f3e3d5ffd5b505050506040513d5f823e3d601f19601f82011682018060405250810190610da59190612034565b9050919050565b606060045f9054906101000a900473ffffffffffffffffffffffffffffffffffffffff1673ffffffffffffffffffffffffffffffffffffffff1663e6b3f69a836040518263ffffffff1660e01b8152600401610e089190611c02565b5f60405180830381865afa158015610e22573d5f5f3e3d5ffd5b505050506040513d5f823e3d601f19601f82011682018060405250810190610e4a9190612034565b9050919050565b5f5f610e5b61135d565b60055f8481526020019081526020015f205f9054906101000a900460ff16610eaf576040517f6bc4556500000000000000000000000000000000000000000000000000000000815260040160405180910390fd5b60035f9054906101000a900473ffffffffffffffffffffffffffffffffffffffff1673ffffffffffffffffffffffffffffffffffffffff16630ec7dcb73487876040518463ffffffff1660e01b8152600401610f0c92919061222f565b5f604051808303818588803b158015610f23575f5ffd5b505af1158015610f35573d5f5f3e3d5ffd5b50505050505f60035f9054906101000a900473ffffffffffffffffffffffffffffffffffffffff1673ffffffffffffffffffffffffffffffffffffffff16636e8be04b876040518263ffffffff1660e01b8152600401610f959190612256565b602060405180830381865afa158015610fb0573d5f5f3e3d5ffd5b505050506040513d601f19601f82011682018060405250810190610fd49190611de7565b90505f60045f9054906101000a900473ffffffffffffffffffffffffffffffffffffffff1673ffffffffffffffffffffffffffffffffffffffff16638b1e122886338560016040518563ffffffff1660e01b81526004016110389493929190611e12565b6020604051808303815f875af1158015611054573d5f5f3e3d5ffd5b505050506040513d601f19601f820116820180604052508101906110789190611e69565b905081873373ffffffffffffffffffffffffffffffffffffffff167f2cf986b3c87eb435bb6b1b38dc0f03cc5e423a4bb5452733ef78f93e25a0852d846040516110c29190611e94565b60405180910390a481819350935050506110da6113a3565b935093915050565b60035f9054906101000a900473ffffffffffffffffffffffffffffffffffffffff1681565b61110f6111b0565b5f73ffffffffffffffffffffffffffffffffffffffff168173ffffffffffffffffffffffffffffffffffffffff160361117f575f6040517f1e4fbdf70000000000000000000000000000000000000000000000000000000081526004016111769190611c02565b60405180910390fd5b611188816113ac565b50565b60025f9054906101000a900473ffffffffffffffffffffffffffffffffffffffff1681565b6111b861146d565b73ffffffffffffffffffffffffffffffffffffffff166111d6610b2d565b73ffffffffffffffffffffffffffffffffffffffff1614611235576111f961146d565b6040517f118cdaa700000000000000000000000000000000000000000000000000000000815260040161122c9190611c02565b60405180910390fd5b565b5f5f1b820361127b576040517f08c379a0000000000000000000000000000000000000000000000000000000008152600401611272906122b9565b60405180910390fd5b60055f8381526020019081526020015f205f9054906101000a900460ff16156112d9576040517f08c379a00000000000000000000000000000000000000000000000000000000081526004016112d090612321565b60405180910390fd5b600160055f8481526020019081526020015f205f6101000a81548160ff0219169083151502179055508060065f8481526020019081526020015f20908161132091906124d6565b50817fdb838df1fbb32d807bb1ec43afc8f81fb0c76964708c79e129a864b4417c84e3826040516113519190611aac565b60405180910390a25050565b600260015403611399576040517f3ee5aeb500000000000000000000000000000000000000000000000000000000815260040160405180910390fd5b6002600181905550565b60018081905550565b5f5f5f9054906101000a900473ffffffffffffffffffffffffffffffffffffffff169050815f5f6101000a81548173ffffffffffffffffffffffffffffffffffffffff021916908373ffffffffffffffffffffffffffffffffffffffff1602179055508173ffffffffffffffffffffffffffffffffffffffff168173ffffffffffffffffffffffffffffffffffffffff167f8be0079c531659141344cd1fd0a4f28419497f9722a3daafe3b4186f6b6457e060405160405180910390a35050565b5f33905090565b5f604051905090565b5f5ffd5b5f5ffd5b5f819050919050565b61149781611485565b81146114a1575f5ffd5b50565b5f813590506114b28161148e565b92915050565b5f602082840312156114cd576114cc61147d565b5b5f6114da848285016114a4565b91505092915050565b5f8115159050919050565b6114f7816114e3565b82525050565b5f6020820190506115105f8301846114ee565b92915050565b5f5ffd5b5f5ffd5b5f601f19601f8301169050919050565b7f4e487b71000000000000000000000000000000000000000000000000000000005f52604160045260245ffd5b6115648261151e565b810181811067ffffffffffffffff821117156115835761158261152e565b5b80604052505050565b5f611595611474565b90506115a1828261155b565b919050565b5f67ffffffffffffffff8211156115c0576115bf61152e565b5b6115c98261151e565b9050602081019050919050565b828183375f83830152505050565b5f6115f66115f1846115a6565b61158c565b9050828152602081018484840111156116125761161161151a565b5b61161d8482856115d6565b509392505050565b5f82601f83011261163957611638611516565b5b81356116498482602086016115e4565b91505092915050565b5f5f604083850312156116685761166761147d565b5b5f611675858286016114a4565b925050602083013567ffffffffffffffff81111561169657611695611481565b5b6116a285828601611625565b9150509250929050565b5f73ffffffffffffffffffffffffffffffffffffffff82169050919050565b5f6116d5826116ac565b9050919050565b6116e5816116cb565b81146116ef575f5ffd5b50565b5f81359050611700816116dc565b92915050565b5f5f5f6060848603121561171d5761171c61147d565b5b5f61172a868287016116f2565b935050602084013567ffffffffffffffff81111561174b5761174a611481565b5b61175786828701611625565b9250506040611768868287016114a4565b9150509250925092565b5f819050919050565b61178481611772565b82525050565b61179381611485565b82525050565b5f6040820190506117ac5f83018561177b565b6117b9602083018461178a565b9392505050565b5f67ffffffffffffffff8211156117da576117d961152e565b5b602082029050602081019050919050565b5f5ffd5b5f6118016117fc846117c0565b61158c565b90508083825260208201905060208402830185811115611824576118236117eb565b5b835b8181101561184d578061183988826114a4565b845260208401935050602081019050611826565b5050509392505050565b5f82601f83011261186b5761186a611516565b5b813561187b8482602086016117ef565b91505092915050565b5f67ffffffffffffffff82111561189e5761189d61152e565b5b602082029050602081019050919050565b5f6118c16118bc84611884565b61158c565b905080838252602082019050602084028301858111156118e4576118e36117eb565b5b835b8181101561192b57803567ffffffffffffffff81111561190957611908611516565b5b8086016119168982611625565b855260208501945050506020810190506118e6565b5050509392505050565b5f82601f83011261194957611948611516565b5b81356119598482602086016118af565b91505092915050565b5f5f604083850312156119785761197761147d565b5b5f83013567ffffffffffffffff81111561199557611994611481565b5b6119a185828601611857565b925050602083013567ffffffffffffffff8111156119c2576119c1611481565b5b6119ce85828601611935565b9150509250929050565b5f819050919050565b5f6119fb6119f66119f1846116ac565b6119d8565b6116ac565b9050919050565b5f611a0c826119e1565b9050919050565b5f611a1d82611a02565b9050919050565b611a2d81611a13565b82525050565b5f602082019050611a465f830184611a24565b92915050565b5f81519050919050565b5f82825260208201905092915050565b8281835e5f83830152505050565b5f611a7e82611a4c565b611a888185611a56565b9350611a98818560208601611a66565b611aa18161151e565b840191505092915050565b5f6020820190508181035f830152611ac48184611a74565b905092915050565b5f81519050919050565b5f82825260208201905092915050565b5f819050602082019050919050565b611afe81611485565b82525050565b5f611b0f8383611af5565b60208301905092915050565b5f602082019050919050565b5f611b3182611acc565b611b3b8185611ad6565b9350611b4683611ae6565b805f5b83811015611b76578151611b5d8882611b04565b9750611b6883611b1b565b925050600181019050611b49565b5085935050505092915050565b5f6020820190508181035f830152611b9b8184611b27565b905092915050565b5f5f5f60608486031215611bba57611bb961147d565b5b5f611bc7868287016116f2565b9350506020611bd8868287016116f2565b9250506040611be9868287016116f2565b9150509250925092565b611bfc816116cb565b82525050565b5f602082019050611c155f830184611bf3565b92915050565b5f606082019050611c2e5f830186611bf3565b611c3b6020830185611bf3565b611c486040830184611bf3565b949350505050565b5f5f60408385031215611c6657611c6561147d565b5b5f611c73858286016116f2565b9250506020611c84858286016114a4565b9150509250929050565b5f60208284031215611ca357611ca261147d565b5b5f611cb0848285016116f2565b91505092915050565b611cc281611772565b8114611ccc575f5ffd5b50565b5f81359050611cdd81611cb9565b92915050565b5f5f5f60608486031215611cfa57611cf961147d565b5b5f611d0786828701611ccf565b9350506020611d18868287016116f2565b9250506040611d29868287016114a4565b9150509250925092565b5f611d3d82611a02565b9050919050565b611d4d81611d33565b82525050565b5f602082019050611d665f830184611d44565b92915050565b5f611d7682611a02565b9050919050565b611d8681611d6c565b82525050565b5f602082019050611d9f5f830184611d7d565b92915050565b5f604082019050611db85f830185611bf3565b8181036020830152611dca8184611a74565b90509392505050565b5f81519050611de181611cb9565b92915050565b5f60208284031215611dfc57611dfb61147d565b5b5f611e0984828501611dd3565b91505092915050565b5f608082019050611e255f83018761178a565b611e326020830186611bf3565b611e3f604083018561177b565b611e4c60608301846114ee565b95945050505050565b5f81519050611e638161148e565b92915050565b5f60208284031215611e7e57611e7d61147d565b5b5f611e8b84828501611e55565b91505092915050565b5f602082019050611ea75f83018461178a565b92915050565b7f4172726179206c656e677468206d69736d6174636800000000000000000000005f82015250565b5f611ee1601583611a56565b9150611eec82611ead565b602082019050919050565b5f6020820190508181035f830152611f0e81611ed5565b9050919050565b7f4e487b71000000000000000000000000000000000000000000000000000000005f52603260045260245ffd5b7f4e487b71000000000000000000000000000000000000000000000000000000005f52602260045260245ffd5b5f6002820490506001821680611f8657607f821691505b602082108103611f9957611f98611f42565b5b50919050565b5f611fb1611fac846117c0565b61158c565b90508083825260208201905060208402830185811115611fd457611fd36117eb565b5b835b81811015611ffd5780611fe98882611e55565b845260208401935050602081019050611fd6565b5050509392505050565b5f82601f83011261201b5761201a611516565b5b815161202b848260208601611f9f565b91505092915050565b5f602082840312156120495761204861147d565b5b5f82015167ffffffffffffffff81111561206657612065611481565b5b61207284828501612007565b91505092915050565b7f496e76616c6964206261736963206d65726368206164647265737300000000005f82015250565b5f6120af601b83611a56565b91506120ba8261207b565b602082019050919050565b5f6020820190508181035f8301526120dc816120a3565b9050919050565b7f496e76616c6964207072656d69756d206d6572636820616464726573730000005f82015250565b5f612117601d83611a56565b9150612122826120e3565b602082019050919050565b5f6020820190508181035f8301526121448161210b565b9050919050565b7f496e76616c69642045415320696e746567726174696f6e2061646472657373005f82015250565b5f61217f601f83611a56565b915061218a8261214b565b602082019050919050565b5f6020820190508181035f8301526121ac81612173565b9050919050565b5f6040820190506121c65f830185611bf3565b6121d3602083018461178a565b9392505050565b6121e3816114e3565b81146121ed575f5ffd5b50565b5f815190506121fe816121da565b92915050565b5f602082840312156122195761221861147d565b5b5f612226848285016121f0565b91505092915050565b5f6040820190506122425f83018561177b565b61224f6020830184611bf3565b9392505050565b5f6020820190506122695f83018461177b565b92915050565b7f496e76616c6964206576656e74204944000000000000000000000000000000005f82015250565b5f6122a3601083611a56565b91506122ae8261226f565b602082019050919050565b5f6020820190508181035f8301526122d081612297565b9050919050565b7f4576656e7420616c7265616479207265676973746572656400000000000000005f82015250565b5f61230b601883611a56565b9150612316826122d7565b602082019050919050565b5f6020820190508181035f830152612338816122ff565b9050919050565b5f819050815f5260205f209050919050565b5f6020601f8301049050919050565b5f82821b905092915050565b5f6008830261239b7fffffffffffffffffffffffffffffffffffffffffffffffffffffffffffffffff82612360565b6123a58683612360565b95508019841693508086168417925050509392505050565b5f6123d76123d26123cd84611772565b6119d8565b611772565b9050919050565b5f819050919050565b6123f0836123bd565b6124046123fc826123de565b84845461236c565b825550505050565b5f5f905090565b61241b61240c565b6124268184846123e7565b505050565b5b818110156124495761243e5f82612413565b60018101905061242c565b5050565b601f82111561248e5761245f8161233f565b61246884612351565b81016020851015612477578190505b61248b61248385612351565b83018261242b565b50505b505050565b5f82821c905092915050565b5f6124ae5f1984600802612493565b1980831691505092915050565b5f6124c6838361249f565b9150826002028217905092915050565b6124df82611a4c565b67ffffffffffffffff8111156124f8576124f761152e565b5b6125028254611f6f565b61250d82828561244d565b5f60209050601f83116001811461253e575f841561252c578287015190505b61253685826124bb565b86555061259d565b601f19841661254c8661233f565b5f5b828110156125735784890151825560018201915060208501945060208101905061254e565b86831015612590578489015161258c601f89168261249f565b8355505b6001600288020188555050505b50505050505056fea264697066735822122061cfd7c2ad15b2327a19d4b54b47b1341ad7b520fbad9f5aab5f7c7910b9fdb664736f6c634300081e0033","linkReferences":{}},"methodIdentifiers":{"basicMerch()":"fda9cee8","batchRegisterEvents(bytes32[],string[])":"131b2e17","easIntegration()":"1323e16a","eventMetadata(bytes32)":"af384a7e","getContractAddresses()":"953874d2","getEventAttendance(bytes32)":"63047080","getEventMetadata(bytes32)":"1969d454","getUserAttendanceHistory(address)":"b9587f7b","getUserPremiumUpgrades(address)":"e6b3f69a","hasUserAttendedEvent(address,bytes32)":"a6fe4a6e","mintSBTWithAttestation(address,string,bytes32)":"0c9c9074","owner()":"8da5cb5b","premiumMerch()":"f03bf244","registerEvent(bytes32,string)":"06e9d8a8","registeredEvents(bytes32)":"050b5c5e","renounceOwnership()":"715018a6","transferOwnership(address)":"f2fde38b","updateContracts(address,address,address)":"6dca4d44","upgradeSBTWithAttestation(uint256,address,bytes32)":"e8e4f068"},"id":2}