{"abi":[{"type":"constructor","inputs":[{"name":"name","type":"string","internalType":"string"},{"name":"symbol","type":"string","internalType":"string"}],"stateMutability":"nonpayable"},{"type":"function","name":"approve","inputs":[{"name":"to","type":"address","internalType":"address"},{"name":"tokenId","type":"uint256","internalType":"uint256"}],"outputs":[],"stateMutability":"nonpayable"},{"type":"function","name":"balanceOf","inputs":[{"name":"owner","type":"address","internalType":"address"}],"outputs":[{"name":"","type":"uint256","internalType":"uint256"}],"stateMutability":"view"},{"type":"function","name":"burnSBT","inputs":[{"name":"_tokenId","type":"uint256","internalType":"uint256"}],"outputs":[],"stateMutability":"nonpayable"},{"type":"function","name":"getApproved","inputs":[{"name":"tokenId","type":"uint256","internalType":"uint256"}],"outputs":[{"name":"","type":"address","internalType":"address"}],"stateMutability":"view"},{"type":"function","name":"getCurrentTokenId","inputs":[],"outputs":[{"name":"","type":"uint256","internalType":"uint256"}],"stateMutability":"view"},{"type":"function","name":"isApprovedForAll","inputs":[{"name":"owner","type":"address","internalType":"address"},{"name":"operator","type":"address","internalType":"address"}],"outputs":[{"name":"","type":"bool","internalType":"bool"}],"stateMutability":"view"},{"type":"function","name":"isApprovedOrOwner","inputs":[{"name":"_spender","type":"address","internalType":"address"},{"name":"_tokenId","type":"uint256","internalType":"uint256"}],"outputs":[{"name":"","type":"bool","internalType":"bool"}],"stateMutability":"view"},{"type":"function","name":"isWhitelistedMinter","inputs":[{"name":"_minter","type":"address","internalType":"address"}],"outputs":[{"name":"","type":"bool","internalType":"bool"}],"stateMutability":"view"},{"type":"function","name":"mintSBT","inputs":[{"name":"_to","type":"address","internalType":"address"},{"name":"_tokenURI","type":"string","internalType":"string"}],"outputs":[{"name":"","type":"uint256","internalType":"uint256"}],"stateMutability":"nonpayable"},{"type":"function","name":"name","inputs":[],"outputs":[{"name":"","type":"string","internalType":"string"}],"stateMutability":"view"},{"type":"function","name":"owner","inputs":[],"outputs":[{"name":"","type":"address","internalType":"address"}],"stateMutability":"view"},{"type":"function","name":"ownerOf","inputs":[{"name":"tokenId","type":"uint256","internalType":"uint256"}],"outputs":[{"name":"","type":"address","internalType":"address"}],"stateMutability":"view"},{"type":"function","name":"premiumMerchContract","inputs":[],"outputs":[{"name":"","type":"address","internalType":"address"}],"stateMutability":"view"},{"type":"function","name":"renounceOwnership","inputs":[],"outputs":[],"stateMutability":"nonpayable"},{"type":"function","name":"safeTransferFrom","inputs":[{"name":"from","type":"address","internalType":"address"},{"name":"to","type":"address","internalType":"address"},{"name":"tokenId","type":"uint256","internalType":"uint256"}],"outputs":[],"stateMutability":"nonpayable"},{"type":"function","name":"safeTransferFrom","inputs":[{"name":"from","type":"address","internalType":"address"},{"name":"to","type":"address","internalType":"address"},{"name":"tokenId","type":"uint256","internalType":"uint256"},{"name":"data","type":"bytes","internalType":"bytes"}],"outputs":[],"stateMutability":"nonpayable"},{"type":"function","name":"setApprovalForAll","inputs":[{"name":"operator","type":"address","internalType":"address"},{"name":"approved","type":"bool","internalType":"bool"}],"outputs":[],"stateMutability":"nonpayable"},{"type":"function","name":"setBaseURI","inputs":[{"name":"baseURI","type":"string","internalType":"string"}],"outputs":[],"stateMutability":"nonpayable"},{"type":"function","name":"setPremiumContract","inputs":[{"name":"_premiumContract","type":"address","internalType":"address"}],"outputs":[],"stateMutability":"nonpayable"},{"type":"function","name":"setWhitelistedMinter","inputs":[{"name":"_minter","type":"address","internalType":"address"},{"name":"_status","type":"bool","internalType":"bool"}],"outputs":[],"stateMutability":"nonpayable"},{"type":"function","name":"supportsInterface","inputs":[{"name":"interfaceId","type":"bytes4","internalType":"bytes4"}],"outputs":[{"name":"","type":"bool","internalType":"bool"}],"stateMutability":"view"},{"type":"function","name":"symbol","inputs":[],"outputs":[{"name":"","type":"string","internalType":"string"}],"stateMutability":"view"},{"type":"function","name":"tokenURI","inputs":[{"name":"tokenId","type":"uint256","internalType":"uint256"}],"outputs":[{"name":"","type":"string","internalType":"string"}],"stateMutability":"view"},{"type":"function","name":"transferFrom","inputs":[{"name":"from","type":"address","internalType":"address"},{"name":"to","type":"address","internalType":"address"},{"name":"tokenId","type":"uint256","internalType":"uint256"}],"outputs":[],"stateMutability":"nonpayable"},{"type":"function","name":"transferOwnership","inputs":[{"name":"newOwner","type":"address","internalType":"address"}],"outputs":[],"stateMutability":"nonpayable"},{"type":"function","name":"whitelistedMinters","inputs":[{"name":"","type":"address","internalType":"address"}],"outputs":[{"name":"","type":"bool","internalType":"bool"}],"stateMutability":"view"},{"type":"event","name":"Approval","inputs":[{"name":"owner","type":"address","indexed":true,"internalType":"address"},{"name":"approved","type":"address","indexed":true,"internalType":"address"},{"name":"tokenId","type":"uint256","indexed":true,"internalType":"uint256"}],"anonymous":false},{"type":"event","name":"ApprovalForAll","inputs":[{"name":"owner","type":"address","indexed":true,"internalType":"address"},{"name":"operator","type":"address","indexed":true,"internalType":"address"},{"name":"approved","type":"bool","indexed":false,"internalType":"bool"}],"anonymous":false},{"type":"event","name":"BaseURISet","inputs":[{"name":"newBaseURI","type":"string","indexed":false,"internalType":"string"}],"anonymous":false},{"type":"event","name":"MinterWhitelisted","inputs":[{"name":"minter","type":"address","indexed":true,"internalType":"address"},{"name":"status","type":"bool","indexed":false,"internalType":"bool"}],"anonymous":false},{"type":"event","name":"OwnershipTransferred","inputs":[{"name":"previousOwner","type":"address","indexed":true,"internalType":"address"},{"name":"newOwner","type":"address","indexed":true,"internalType":"address"}],"anonymous":false},{"type":"event","name":"PremiumContractSet","inputs":[{"name":"premiumContract","type":"address","indexed":true,"internalType":"address"}],"anonymous":false},{"type":"event","name":"SBTBurned","inputs":[{"name":"tokenId","type":"uint256","indexed":true,"internalType":"uint256"}],"anonymous":false},{"type":"event","name":"SBTMinted","inputs":[{"name":"to","type":"address","indexed":true,"internalType":"address"},{"name":"tokenId","type":"uint256","indexed":true,"internalType":"uint256"},{"name":"tokenURI","type":"string","indexed":false,"internalType":"string"}],"anonymous":false},{"type":"event","name":"TokenURISet","inputs":[{"name":"tokenId","type":"uint256","indexed":true,"internalType":"uint256"},{"name":"tokenURI","type":"string","indexed":false,"internalType":"string"}],"anonymous":false},{"type":"event","name":"Transfer","inputs":[{"name":"from","type":"address","indexed":true,"internalType":"address"},{"name":"to","type":"address","indexed":true,"internalType":"address"},{"name":"tokenId","type":"uint256","indexed":true,"internalType":"uint256"}],"anonymous":false},{"type":"error","name":"ERC721IncorrectOwner","inputs":[{"name":"sender","type":"address","internalType":"address"},{"name":"tokenId","type":"uint256","internalType":"uint256"},{"name":"owner","type":"address","internalType":"address"}]},{"type":"error","name":"ERC721InsufficientApproval","inputs":[{"name":"operator","type":"address","internalType":"address"},{"name":"tokenId","type":"uint256","internalType":"uint256"}]},{"type":"error","name":"ERC721InvalidApprover","inputs":[{"name":"approver","type":"address","internalType":"address"}]},{"type":"error","name":"ERC721InvalidOperator","inputs":[{"name":"operator","type":"address","internalType":"address"}]},{"type":"error","name":"ERC721InvalidOwner","inputs":[{"name":"owner","type":"address","internalType":"address"}]},{"type":"error","name":"ERC721InvalidReceiver","inputs":[{"name":"receiver","type":"address","internalType":"address"}]},{"type":"error","name":"ERC721InvalidSender","inputs":[{"name":"sender","type":"address","internalType":"address"}]},{"type":"error","name":"ERC721NonexistentToken","inputs":[{"name":"tokenId","type":"uint256","internalType":"uint256"}]},{"type":"error","name":"EmptyTokenURI","inputs":[]},{"type":"error","name":"InvalidAddress","inputs":[]},{"type":"error","name":"NotPremiumContract","inputs":[]},{"type":"error","name":"NotWhitelistedMinter","inputs":[]},{"type":"error","name":"OwnableInvalidOwner","inputs":[{"name":"owner","type":"address","internalType":"address"}]},{"type":"error","name":"OwnableUnauthorizedAccount","inputs":[{"name":"account","type":"address","internalType":"address"}]},{"type":"error","name":"ReentrancyGuardReentrantCall","inputs":[]},{"type":"error","name":"TokenDoesNotExist","inputs":[]},{"type":"error","name":"TransferNotAllowed","inputs":[]}],"bytecode":{"object":"0x6080604052346200037f5762002054803803806200001d8162000383565b92833981016040828203126200037f5781516001600160401b0392908381116200037f57826200004f918301620003a9565b90602092838201518581116200037f576200006b9201620003a9565b9281518181116200036b575f938454916001948584811c9416801562000360575b838510146200034c578190601f94858111620002f9575b508390858311600114620002965788926200028a575b50505f19600383901b1c191690851b1785555b8551928311620002765783548481811c911680156200026b575b8282101462000257578281116200020f575b5080918311600114620001aa57508394829394926200019e575b50505f19600383901b1c191690821b1781555b3315620001855760068054336001600160a01b031982168117909255604051936001600160a01b03909116907f8be0079c531659141344cd1fd0a4f28419497f9722a3daafe3b4186f6b6457e09080a3600755611c3a90816200041a8239f35b604051631e4fbdf760e01b815260048101839052602490fd5b015190505f8062000112565b90601f198316958486528286209286905b888210620001f75750508385969710620001de575b505050811b01815562000125565b01515f1960f88460031b161c191690555f8080620001d0565b808785968294968601518155019501930190620001bb565b8486528186208380860160051c8201928487106200024d575b0160051c019085905b82811062000241575050620000f8565b87815501859062000231565b9250819262000228565b634e487b7160e01b86526022600452602486fd5b90607f1690620000e6565b634e487b7160e01b85526041600452602485fd5b015190505f80620000b9565b8880528489208894509190601f1984168a5b87828210620002e25750508411620002c9575b505050811b018555620000cc565b01515f1960f88460031b161c191690555f8080620002bb565b8385015186558b97909501949384019301620002a8565b9091508780528388208580850160051c82019286861062000342575b918991869594930160051c01915b82811062000333575050620000a3565b8a815585945089910162000323565b9250819262000315565b634e487b7160e01b87526022600452602487fd5b93607f16936200008c565b634e487b7160e01b5f52604160045260245ffd5b5f80fd5b6040519190601f01601f191682016001600160401b038111838210176200036b57604052565b919080601f840112156200037f5782516001600160401b0381116200036b57602090620003df601f8201601f1916830162000383565b928184528282870101116200037f575f5b818110620004055750825f9394955001015290565b8581018301518482018401528201620003f056fe60806040818152600480361015610014575f80fd5b5f92833560e01c90816301ffc9a714610ffd5750806303caa5c314610f7657806306fdde0314610ece578063081812fc14610eae578063095ea7b314610dd257806323b872dd14610dba57806330ce560e14610d9157806342842e0e14610d62578063430c208114610d30578063555c3002146102d657806355f804b314610b5d5780635618923614610b3e5780636352211e14610b0d57806370a0823114610ab8578063715018a614610a5b578063816fc934146109e15780638da5cb5b146109b85780639373f9ac1461058957806395d89b41146104a6578063a22cb46514610413578063b88d4fde146103a1578063c87b56dd14610366578063e985e9c514610318578063ed1e0085146102d6578063f2fde38b1461024c5763f76c5f821461013e575f80fd5b3461024857602036600319011261024857600c54813592906001600160a01b03908116330361023a575f848152600260205260409020546001600160a01b03161561022c57838552600a602052848281206101998154611231565b806101ef575b5050506101ab84611578565b16156101da5750507fb234f5849d339153986e37530bf2980d0e4acf8b931f72eb3536dba83c8bb7f38280a280f35b916024925191637e27328960e01b8352820152fd5b82601f8211600114610207575050555b845f8061019f565b9091808252610225601f60208420940160051c840160018501611475565b55556101ff565b505163677510db60e11b8152fd5b5051631975886960e11b8152fd5b8280fd5b503461024857602036600319011261024857610266611069565b9061026f611205565b6001600160a01b039182169283156102c0575050600654826001600160601b0360a01b821617600655167f8be0079c531659141344cd1fd0a4f28419497f9722a3daafe3b4186f6b6457e08380a380f35b51631e4fbdf760e01b8152908101849052602490fd5b5050346103145760203660031901126103145760209160ff9082906001600160a01b03610301611069565b168152600b855220541690519015158152f35b5080fd5b50503461031457806003193601126103145760ff81602093610338611069565b610340611083565b6001600160a01b0391821683526005875283832091168252855220549151911615158152f35b50913461039e57602036600319011261039e575061038761039a92356118cb565b90519182916020835260208301906110e9565b0390f35b80fd5b838234610314576080366003190112610314576103bc611069565b6103c4611083565b6044359060643567ffffffffffffffff811161040f573660238201121561040f5761040c948160246103fb933693013591016111b1565b9261040783838361128d565b611333565b80f35b8580fd5b5090346102485761042336611099565b6001600160a01b0390911692909190831561049157503384526005602052808420838552602052610462828286209060ff801983541691151516179055565b5190151581527f17307eab39ab6107e8899845ad3d59bd9653f200f220920489ca2b5937696c3160203392a380f35b836024925191630b61174360e31b8352820152fd5b5050346103145781600319360112610314578051908260018054916104ca83611231565b808652928281169081156105615750600114610505575b5050506104f38261039a940383611173565b519182916020835260208301906110e9565b94508085527fb10e2d527612073b26eecdfd717e6a320cf44b4afac2b0732d9fcbe2b7fa0cf65b828610610549575050506104f382602061039a95820101946104e1565b8054602087870181019190915290950194810161052c565b61039a9750869350602092506104f394915060ff191682840152151560051b820101946104e1565b50823461039e578260031936011261039e576105a3611069565b6024939067ffffffffffffffff85358181116109b4576105c690369087016111e7565b338552602095600b875260ff8587205416156109a6576002600754146109985760026007556001600160a01b03848116939084156109885783511561097857600854975f1991828a14610966578b600198898c016008558a519261062984611143565b8484526106368d83611519565b16610951573b610827575b50505f898152600260205260409020546001600160a01b03161561081757888152600a8a528781209385519384116108055750908392916106858a97969554611231565b8b601f82116107cc575b50508a90601f841160011461073d5792610726949281927f4b9ad712e7eaa8cc24efaf239a9107a8e27385fb66e301d70c4f0d5747bde653979592610732575b50828a1b9260031b1c19161790555b847fda84ca2183491f179a603e877b2cb058e42195041c2b9c53d746427e519a34df88518b8152806107128d8201866110e9565b0390a286519182918a83528a8301906110e9565b0390a360075551908152f35b85015191508d6106cf565b9091889392601f1984168684528d80852094905b8282106107b2575050917f4b9ad712e7eaa8cc24efaf239a9107a8e27385fb66e301d70c4f0d5747bde65397959391856107269896941061079a575b505050811b0190556106de565b8601519060f88460031b161c191690558c808061078d565b838a015186558e9b508c979095019492830192018e610751565b8583528083206107f492601f870160051c82019287106107fb575b601f0160051c0190611475565b8b8b61068f565b90915081906107e7565b634e487b7160e01b8252604190528a90fd5b875163677510db60e11b81528490fd5b908b8b8985899f9c999596809c9f9b9998978f610870905197889687958694630a85bd0160e11b9c8d8752339087015285015260448401526080606484015260848301906110e9565b03925af188918161090d575b506108d757505050505050503d5f146108cf573d61089981611195565b906108a685519283611173565b81528091833d92013e5b805191826108cc575050505191633250574960e11b8352820152fd5b01fd5b5060606108b0565b63ffffffff60e09c96999c9b98939495979b1b16036108f7578b8b610641565b8751633250574960e11b81528085018790528b90fd5b9091508981813d831161094a575b6109258183611173565b8101031261094657516001600160e01b03198116810361094657908e61087c565b8880fd5b503d61091b565b5089516339e3563760e11b8152808701849052fd5b634e487b7160e01b8252601185528b82fd5b86516317314b6160e01b81528390fd5b865163e6c4247b60e01b81528390fd5b8451633ee5aeb560e01b8152fd5b845163cd03ccc560e01b8152fd5b8480fd5b50503461031457816003193601126103145760065490516001600160a01b039091168152602090f35b5034610248576020366003190112610248576109fb611069565b610a03611205565b6001600160a01b0316918215610a4e575050600c80546001600160a01b031916821790557fca0fed83c3c8a3cb877849541ff74d2605d72f236d5fe0a7aeaa656f2a95b51f8280a280f35b5163e6c4247b60e01b8152fd5b833461039e578060031936011261039e57610a74611205565b600680546001600160a01b0319811690915581906001600160a01b03167f8be0079c531659141344cd1fd0a4f28419497f9722a3daafe3b4186f6b6457e08280a380f35b50913461039e57602036600319011261039e576001600160a01b03610adb611069565b16928315610af85750806020938392526003845220549051908152f35b91516322718ad960e21b815291820152602490fd5b50913461039e57602036600319011261039e5750610b2d602092356112f9565b90516001600160a01b039091168152f35b5050346103145781600319360112610314576020906008549051908152f35b5082903461031457602092836003193601126102485767ffffffffffffffff82358181116109b457610b9290369085016111e7565b92610b9b611205565b8351918211610d1d5750610bb0600954611231565b601f8111610cd0575b5084601f8211600114610c2b579181610c1a928697947ff9c7803e94e0d3c02900d8a90893a6d5e90dd04d32a4cfe825520f82bf9f32f69791610c20575b508160011b915f199060031b1c1916176009555b519282849384528301906110e9565b0390a180f35b905085015188610bf7565b600985527f6e1540171b6c0c960b71a7020d9f60077f6af931a8bbf590da0223dacf75c7af90601f198316865b818110610cb95750927ff9c7803e94e0d3c02900d8a90893a6d5e90dd04d32a4cfe825520f82bf9f32f69697949260019282610c1a9610610ca1575b5050811b01600955610c0b565b8701515f1960f88460031b161c191690558880610c94565b91928860018192868a015181550194019201610c58565b610d1790600986527f6e1540171b6c0c960b71a7020d9f60077f6af931a8bbf590da0223dacf75c7af601f840160051c8101918885106107fb57601f0160051c0190611475565b85610bb9565b634e487b7160e01b855260419052602484fd5b505034610314578060031936011261031457602090610d59610d50611069565b6024359061148b565b90519015158152f35b5050346103145761040c90610d763661110e565b91925192610d8384611143565b85845261040783838361128d565b505034610314578160031936011261031457600c5490516001600160a01b039091168152602090f35b833461039e5761040c610dcc3661110e565b9161128d565b509034610248578060031936011261024857610dec611069565b91602435610df9816112f9565b33151580610e9b575b80610e72575b610e5c576001600160a01b039485169482918691167f8c5be1e5ebec7d5bd14f71427d1e84f3dd0314c0f7b2291e5b200ac8c7c3b9258880a48452602052822080546001600160a01b031916909117905580f35b835163a9fbf51f60e01b81523381850152602490fd5b506001600160a01b03811686526005602090815284872033885290528386205460ff1615610e08565b506001600160a01b038116331415610e02565b50913461039e57602036600319011261039e5750610b2d60209235611269565b505034610314578160031936011261031457805190828054610eef81611231565b808552916001918083169081156105615750600114610f1a575050506104f38261039a940383611173565b80809650527f290decd9548b62a8d60345a988386fc84ba6bc95484008f6362f93160ef3e5635b828610610f5e575050506104f382602061039a95820101946104e1565b80546020878701810191909152909501948101610f41565b50903461024857610f8636611099565b9190610f90611205565b6001600160a01b0316928315610fef57507f50a0602d05c3e0b1b0b3cd6186c78520aa5401c0cf58629748b910c6b490011b91602091848652600b8352610fe5828288209060ff801983541691151516179055565b519015158152a280f35b905163e6c4247b60e01b8152fd5b92505034610248576020366003190112610248573563ffffffff60e01b811680910361024857602092506380ac58cd60e01b8114908115611058575b8115611047575b5015158152f35b6301ffc9a760e01b1490505f611040565b635b5e139f60e01b81149150611039565b600435906001600160a01b038216820361107f57565b5f80fd5b602435906001600160a01b038216820361107f57565b604090600319011261107f576004356001600160a01b038116810361107f5790602435801515810361107f5790565b5f5b8381106110d95750505f910152565b81810151838201526020016110ca565b90602091611102815180928185528580860191016110c8565b601f01601f1916010190565b606090600319011261107f576001600160a01b0390600435828116810361107f5791602435908116810361107f579060443590565b6020810190811067ffffffffffffffff82111761115f57604052565b634e487b7160e01b5f52604160045260245ffd5b90601f8019910116810190811067ffffffffffffffff82111761115f57604052565b67ffffffffffffffff811161115f57601f01601f191660200190565b9291926111bd82611195565b916111cb6040519384611173565b82948184528183011161107f578281602093845f960137010152565b9080601f8301121561107f57816020611202933591016111b1565b90565b6006546001600160a01b0316330361121957565b60405163118cdaa760e01b8152336004820152602490fd5b90600182811c9216801561125f575b602083101461124b57565b634e487b7160e01b5f52602260045260245ffd5b91607f1691611240565b611272816112f9565b505f908152600460205260409020546001600160a01b031690565b91906001600160a01b0390818116156112e1576112ad82918433916115c5565b93169216908282036112be57505050565b60649350604051926364283d7b60e01b8452600484015260248301526044820152fd5b604051633250574960e11b81525f6004820152602490fd5b5f818152600260205260409020546001600160a01b031690811561131b575090565b60249060405190637e27328960e01b82526004820152fd5b813b611340575b50505050565b604051630a85bd0160e11b8082523360048301526001600160a01b0392831660248301526044820194909452608060648201526020959290911693909290839061138e9060848301906110e9565b039285815f958187895af1849181611435575b50611400575050503d5f146113f8573d6113ba81611195565b906113c86040519283611173565b81528091843d92013e5b805192836113f357604051633250574960e11b815260048101849052602490fd5b019050fd5b5060606113d2565b919450915063ffffffff60e01b160361141d57505f80808061133a565b60249060405190633250574960e11b82526004820152fd5b9091508681813d831161146e575b61144d8183611173565b810103126109b457516001600160e01b0319811681036109b457905f6113a1565b503d611443565b818110611480575050565b5f8155600101611475565b5f828152600260205260409020549091906001600160a01b031615611513576001600160a01b0380806114bd846112f9565b169316918383149384156114f0575b5083156114da575b50505090565b6114e691929350611269565b16145f80806114d4565b9093505f52600560205260405f20825f5260205260ff60405f205416925f6114cc565b50505f90565b90805f52600260205260018060a01b038060405f2054161561156e57808316159081611560575b5061155757604051638cd22d1960e01b8152600490fd5b61120291611625565b9050600c541633145f611540565b5061120291611625565b5f818152600260205260409020546001600160a01b03908116156115bb57600c541633146115b257604051638cd22d1960e01b8152600490fd5b611202906116dc565b50611202906116dc565b9190805f52600260205260018060a01b038060405f2054161561161b5780841615908161160d575b5061160457604051638cd22d1960e01b8152600490fd5b6112029261176e565b9050600c541633145f6115ed565b506112029261176e565b5f828152600260205260408120546001600160a01b03908116939284917fddf252ad1be2c89b69c2b068fc378daa952ba7f163c4a11628f55a4df523b3ef91836116ab575b169283611693575b84815260026020526040812080546001600160a01b0319168517905580a490565b83815260036020526040812060018154019055611672565b6004602052604085206001600160601b0360a01b81541690558385526003602052604085205f19815401905561166a565b5f818152600260205260408120546001600160a01b031691908261173d575b81815260026020526040812080546001600160a01b0319169055827fddf252ad1be2c89b69c2b068fc378daa952ba7f163c4a11628f55a4df523b3ef8280a490565b6004602052604081206001600160601b0360a01b81541690558281526003602052604081205f1981540190556116fb565b915f928284526020916002835260018060a01b0394604086808284205416978894168015158061182e575b505060029084957fddf252ad1be2c89b69c2b068fc378daa952ba7f163c4a11628f55a4df523b3ef95611800575b1695866117ea575b87845252812080546001600160a01b0319168517905580a490565b86845260038152828420600181540190556117cf565b8885526004885283852080546001600160a01b03191690558685526003885283852080545f190190556117c7565b939592945090928061188a575b1561184c5791828894929593611799565b86849189155f1461186e57506024915190637e27328960e01b82526004820152fd5b90604492519163177e802f60e01b835260048301526024820152fd5b5080881480156118af575b8061183b575086855260048652808385872054161461183b565b5087855260058652838520818652865260ff8486205416611895565b5f818152600260205260409020546001600160a01b031615611bf2575f818152600a6020918183526040938482209285519083948281549661190c88611231565b928383526001988a8a821691825f14611bd2575050600114611b94575b5061193692500383611173565b8651948492600954938761194986611231565b918282528a8201968b86821691825f14611b79575050600114611b1f575b61197392500388611173565b865115611b13578051611b135750849390817a184f03e93ff9f4daa797ed6e38ed64bf6a1f0100000000000000008181811015611b06575b50508390896d04ee2d6d415b85acef810000000080831015611afa575b5050662386f26fc1000080821015611aed575b506305f5e10080821015611ae0575b5061271080821015611ad3575b506064811015611ac5575b1015611abc575b9081602186611a32838d9901611a2a611a2182611195565b9a519a8b611173565b808a52611195565b888c019990601f1901368b3750870101905b611a87575b5050505090611a7b61120295949392611a6c9751978895518092888801906110c8565b840191518093868401906110c8565b01038084520182611173565b5f19019083906f181899199a1a9b1b9c1cb0b131b232b360811b8282061a835304918215611ab757919082611a44565b611a49565b80940193611a09565b606460029104960195611a02565b600491049601955f6119f7565b600891049601955f6119ea565b601091049601955f6119db565b9701969004895f6119c8565b8b9750049050835f6119ab565b97505050505050505090565b505060098752878988857f6e1540171b6c0c960b71a7020d9f60077f6af931a8bbf590da0223dacf75c7af5b858310611b615750506119739350820101611967565b90919383858354920101520191018a90858b93611b4b565b60ff1916895261197394151560051b84010191506119679050565b915050855282878087208888915b858310611bb957505061193693508201015f611929565b8091929450548385890101520191018890888693611ba2565b60ff19168582015261193695151560051b85010192505f91506119299050565b60405163677510db60e11b8152600490fdfea26469706673582212208fd58fdf782d73cb788dc74f0079cb73db5f1331472042d3cf6b10200c9a2a4c64736f6c63430008140033","linkReferences":{}},"methodIdentifiers":{"approve(address,uint256)":"095ea7b3","balanceOf(address)":"70a08231","burnSBT(uint256)":"f76c5f82","getApproved(uint256)":"081812fc","getCurrentTokenId()":"56189236","isApprovedForAll(address,address)":"e985e9c5","isApprovedOrOwner(address,uint256)":"430c2081","isWhitelistedMinter(address)":"555c3002","mintSBT(address,string)":"9373f9ac","name()":"06fdde03","owner()":"8da5cb5b","ownerOf(uint256)":"6352211e","premiumMerchContract()":"30ce560e","renounceOwnership()":"715018a6","safeTransferFrom(address,address,uint256)":"42842e0e","safeTransferFrom(address,address,uint256,bytes)":"b88d4fde","setApprovalForAll(address,bool)":"a22cb465","setBaseURI(string)":"55f804b3","setPremiumContract(address)":"816fc934","setWhitelistedMinter(address,bool)":"03caa5c3","supportsInterface(bytes4)":"01ffc9a7","symbol()":"95d89b41","tokenURI(uint256)":"c87b56dd","transferFrom(address,address,uint256)":"23b872dd","transferOwnership(address)":"f2fde38b","whitelistedMinters(address)":"ed1e0085"},"id":36}