{"abi":[{"type":"constructor","inputs":[{"name":"name","type":"string","internalType":"string"},{"name":"symbol","type":"string","internalType":"string"}],"stateMutability":"nonpayable"},{"type":"function","name":"approve","inputs":[{"name":"to","type":"address","internalType":"address"},{"name":"tokenId","type":"uint256","internalType":"uint256"}],"outputs":[],"stateMutability":"nonpayable"},{"type":"function","name":"balanceOf","inputs":[{"name":"owner","type":"address","internalType":"address"}],"outputs":[{"name":"","type":"uint256","internalType":"uint256"}],"stateMutability":"view"},{"type":"function","name":"burnSBT","inputs":[{"name":"_tokenId","type":"uint256","internalType":"uint256"}],"outputs":[],"stateMutability":"nonpayable"},{"type":"function","name":"getApproved","inputs":[{"name":"tokenId","type":"uint256","internalType":"uint256"}],"outputs":[{"name":"","type":"address","internalType":"address"}],"stateMutability":"view"},{"type":"function","name":"getCurrentTokenId","inputs":[],"outputs":[{"name":"","type":"uint256","internalType":"uint256"}],"stateMutability":"view"},{"type":"function","name":"isApprovedForAll","inputs":[{"name":"owner","type":"address","internalType":"address"},{"name":"operator","type":"address","internalType":"address"}],"outputs":[{"name":"","type":"bool","internalType":"bool"}],"stateMutability":"view"},{"type":"function","name":"isApprovedOrOwner","inputs":[{"name":"_spender","type":"address","internalType":"address"},{"name":"_tokenId","type":"uint256","internalType":"uint256"}],"outputs":[{"name":"","type":"bool","internalType":"bool"}],"stateMutability":"view"},{"type":"function","name":"mintSBT","inputs":[{"name":"_to","type":"address","internalType":"address"},{"name":"_tokenURI","type":"string","internalType":"string"}],"outputs":[{"name":"","type":"uint256","internalType":"uint256"}],"stateMutability":"nonpayable"},{"type":"function","name":"name","inputs":[],"outputs":[{"name":"","type":"string","internalType":"string"}],"stateMutability":"view"},{"type":"function","name":"owner","inputs":[],"outputs":[{"name":"","type":"address","internalType":"address"}],"stateMutability":"view"},{"type":"function","name":"ownerOf","inputs":[{"name":"tokenId","type":"uint256","internalType":"uint256"}],"outputs":[{"name":"","type":"address","internalType":"address"}],"stateMutability":"view"},{"type":"function","name":"premiumMerchContract","inputs":[],"outputs":[{"name":"","type":"address","internalType":"address"}],"stateMutability":"view"},{"type":"function","name":"renounceOwnership","inputs":[],"outputs":[],"stateMutability":"nonpayable"},{"type":"function","name":"safeTransferFrom","inputs":[{"name":"from","type":"address","internalType":"address"},{"name":"to","type":"address","internalType":"address"},{"name":"tokenId","type":"uint256","internalType":"uint256"}],"outputs":[],"stateMutability":"nonpayable"},{"type":"function","name":"safeTransferFrom","inputs":[{"name":"from","type":"address","internalType":"address"},{"name":"to","type":"address","internalType":"address"},{"name":"tokenId","type":"uint256","internalType":"uint256"},{"name":"data","type":"bytes","internalType":"bytes"}],"outputs":[],"stateMutability":"nonpayable"},{"type":"function","name":"setApprovalForAll","inputs":[{"name":"operator","type":"address","internalType":"address"},{"name":"approved","type":"bool","internalType":"bool"}],"outputs":[],"stateMutability":"nonpayable"},{"type":"function","name":"setBaseURI","inputs":[{"name":"baseURI","type":"string","internalType":"string"}],"outputs":[],"stateMutability":"nonpayable"},{"type":"function","name":"setPremiumContract","inputs":[{"name":"_premiumContract","type":"address","internalType":"address"}],"outputs":[],"stateMutability":"nonpayable"},{"type":"function","name":"setWhitelistedMinter","inputs":[{"name":"_minter","type":"address","internalType":"address"},{"name":"_status","type":"bool","internalType":"bool"}],"outputs":[],"stateMutability":"nonpayable"},{"type":"function","name":"supportsInterface","inputs":[{"name":"interfaceId","type":"bytes4","internalType":"bytes4"}],"outputs":[{"name":"","type":"bool","internalType":"bool"}],"stateMutability":"view"},{"type":"function","name":"symbol","inputs":[],"outputs":[{"name":"","type":"string","internalType":"string"}],"stateMutability":"view"},{"type":"function","name":"tokenURI","inputs":[{"name":"tokenId","type":"uint256","internalType":"uint256"}],"outputs":[{"name":"","type":"string","internalType":"string"}],"stateMutability":"view"},{"type":"function","name":"transferFrom","inputs":[{"name":"from","type":"address","internalType":"address"},{"name":"to","type":"address","internalType":"address"},{"name":"tokenId","type":"uint256","internalType":"uint256"}],"outputs":[],"stateMutability":"nonpayable"},{"type":"function","name":"transferOwnership","inputs":[{"name":"newOwner","type":"address","internalType":"address"}],"outputs":[],"stateMutability":"nonpayable"},{"type":"function","name":"whitelistedMinters","inputs":[{"name":"","type":"address","internalType":"address"}],"outputs":[{"name":"","type":"bool","internalType":"bool"}],"stateMutability":"view"},{"type":"event","name":"Approval","inputs":[{"name":"owner","type":"address","indexed":true,"internalType":"address"},{"name":"approved","type":"address","indexed":true,"internalType":"address"},{"name":"tokenId","type":"uint256","indexed":true,"internalType":"uint256"}],"anonymous":false},{"type":"event","name":"ApprovalForAll","inputs":[{"name":"owner","type":"address","indexed":true,"internalType":"address"},{"name":"operator","type":"address","indexed":true,"internalType":"address"},{"name":"approved","type":"bool","indexed":false,"internalType":"bool"}],"anonymous":false},{"type":"event","name":"MinterWhitelisted","inputs":[{"name":"minter","type":"address","indexed":true,"internalType":"address"},{"name":"status","type":"bool","indexed":false,"internalType":"bool"}],"anonymous":false},{"type":"event","name":"OwnershipTransferred","inputs":[{"name":"previousOwner","type":"address","indexed":true,"internalType":"address"},{"name":"newOwner","type":"address","indexed":true,"internalType":"address"}],"anonymous":false},{"type":"event","name":"PremiumContractSet","inputs":[{"name":"premiumContract","type":"address","indexed":true,"internalType":"address"}],"anonymous":false},{"type":"event","name":"SBTBurned","inputs":[{"name":"tokenId","type":"uint256","indexed":true,"internalType":"uint256"}],"anonymous":false},{"type":"event","name":"SBTMinted","inputs":[{"name":"to","type":"address","indexed":true,"internalType":"address"},{"name":"tokenId","type":"uint256","indexed":true,"internalType":"uint256"},{"name":"tokenURI","type":"string","indexed":false,"internalType":"string"}],"anonymous":false},{"type":"event","name":"Transfer","inputs":[{"name":"from","type":"address","indexed":true,"internalType":"address"},{"name":"to","type":"address","indexed":true,"internalType":"address"},{"name":"tokenId","type":"uint256","indexed":true,"internalType":"uint256"}],"anonymous":false},{"type":"error","name":"ERC721IncorrectOwner","inputs":[{"name":"sender","type":"address","internalType":"address"},{"name":"tokenId","type":"uint256","internalType":"uint256"},{"name":"owner","type":"address","internalType":"address"}]},{"type":"error","name":"ERC721InsufficientApproval","inputs":[{"name":"operator","type":"address","internalType":"address"},{"name":"tokenId","type":"uint256","internalType":"uint256"}]},{"type":"error","name":"ERC721InvalidApprover","inputs":[{"name":"approver","type":"address","internalType":"address"}]},{"type":"error","name":"ERC721InvalidOperator","inputs":[{"name":"operator","type":"address","internalType":"address"}]},{"type":"error","name":"ERC721InvalidOwner","inputs":[{"name":"owner","type":"address","internalType":"address"}]},{"type":"error","name":"ERC721InvalidReceiver","inputs":[{"name":"receiver","type":"address","internalType":"address"}]},{"type":"error","name":"ERC721InvalidSender","inputs":[{"name":"sender","type":"address","internalType":"address"}]},{"type":"error","name":"ERC721NonexistentToken","inputs":[{"name":"tokenId","type":"uint256","internalType":"uint256"}]},{"type":"error","name":"NotPremiumContract","inputs":[]},{"type":"error","name":"NotWhitelistedMinter","inputs":[]},{"type":"error","name":"OwnableInvalidOwner","inputs":[{"name":"owner","type":"address","internalType":"address"}]},{"type":"error","name":"OwnableUnauthorizedAccount","inputs":[{"name":"account","type":"address","internalType":"address"}]},{"type":"error","name":"ReentrancyGuardReentrantCall","inputs":[]},{"type":"error","name":"TokenDoesNotExist","inputs":[]},{"type":"error","name":"TransferNotAllowed","inputs":[]}],"bytecode":{"object":"0x608060405234801561000f575f5ffd5b50604051613554380380613554833981810160405281019061003191906102f4565b338282815f9081610042919061057a565b508060019081610052919061057a565b5050505f73ffffffffffffffffffffffffffffffffffffffff168173ffffffffffffffffffffffffffffffffffffffff16036100c5575f6040517f1e4fbdf70000000000000000000000000000000000000000000000000000000081526004016100bc9190610688565b60405180910390fd5b6100d4816100e460201b60201c565b50600160078190555050506106a1565b5f60065f9054906101000a900473ffffffffffffffffffffffffffffffffffffffff1690508160065f6101000a81548173ffffffffffffffffffffffffffffffffffffffff021916908373ffffffffffffffffffffffffffffffffffffffff1602179055508173ffffffffffffffffffffffffffffffffffffffff168173ffffffffffffffffffffffffffffffffffffffff167f8be0079c531659141344cd1fd0a4f28419497f9722a3daafe3b4186f6b6457e060405160405180910390a35050565b5f604051905090565b5f5ffd5b5f5ffd5b5f5ffd5b5f5ffd5b5f601f19601f8301169050919050565b7f4e487b71000000000000000000000000000000000000000000000000000000005f52604160045260245ffd5b610206826101c0565b810181811067ffffffffffffffff82111715610225576102246101d0565b5b80604052505050565b5f6102376101a7565b905061024382826101fd565b919050565b5f67ffffffffffffffff821115610262576102616101d0565b5b61026b826101c0565b9050602081019050919050565b8281835e5f83830152505050565b5f61029861029384610248565b61022e565b9050828152602081018484840111156102b4576102b36101bc565b5b6102bf848285610278565b509392505050565b5f82601f8301126102db576102da6101b8565b5b81516102eb848260208601610286565b91505092915050565b5f5f6040838503121561030a576103096101b0565b5b5f83015167ffffffffffffffff811115610327576103266101b4565b5b610333858286016102c7565b925050602083015167ffffffffffffffff811115610354576103536101b4565b5b610360858286016102c7565b9150509250929050565b5f81519050919050565b7f4e487b71000000000000000000000000000000000000000000000000000000005f52602260045260245ffd5b5f60028204905060018216806103b857607f821691505b6020821081036103cb576103ca610374565b5b50919050565b5f819050815f5260205f209050919050565b5f6020601f8301049050919050565b5f82821b905092915050565b5f6008830261042d7fffffffffffffffffffffffffffffffffffffffffffffffffffffffffffffffff826103f2565b61043786836103f2565b95508019841693508086168417925050509392505050565b5f819050919050565b5f819050919050565b5f61047b6104766104718461044f565b610458565b61044f565b9050919050565b5f819050919050565b61049483610461565b6104a86104a082610482565b8484546103fe565b825550505050565b5f5f905090565b6104bf6104b0565b6104ca81848461048b565b505050565b5b818110156104ed576104e25f826104b7565b6001810190506104d0565b5050565b601f82111561053257610503816103d1565b61050c846103e3565b8101602085101561051b578190505b61052f610527856103e3565b8301826104cf565b50505b505050565b5f82821c905092915050565b5f6105525f1984600802610537565b1980831691505092915050565b5f61056a8383610543565b9150826002028217905092915050565b6105838261036a565b67ffffffffffffffff81111561059c5761059b6101d0565b5b6105a682546103a1565b6105b18282856104f1565b5f60209050601f8311600181146105e2575f84156105d0578287015190505b6105da858261055f565b865550610641565b601f1984166105f0866103d1565b5f5b82811015610617578489015182556001820191506020850194506020810190506105f2565b868310156106345784890151610630601f891682610543565b8355505b6001600288020188555050505b505050505050565b5f73ffffffffffffffffffffffffffffffffffffffff82169050919050565b5f61067282610649565b9050919050565b61068281610668565b82525050565b5f60208201905061069b5f830184610679565b92915050565b612ea6806106ae5f395ff3fe608060405234801561000f575f5ffd5b5060043610610171575f3560e01c806370a08231116100dc578063a22cb46511610095578063e985e9c51161006f578063e985e9c514610445578063ed1e008514610475578063f2fde38b146104a5578063f76c5f82146104c157610171565b8063a22cb465146103dd578063b88d4fde146103f9578063c87b56dd1461041557610171565b806370a082311461031b578063715018a61461034b578063816fc934146103555780638da5cb5b146103715780639373f9ac1461038f57806395d89b41146103bf57610171565b806330ce560e1161012e57806330ce560e1461024757806342842e0e14610265578063430c20811461028157806355f804b3146102b157806356189236146102cd5780636352211e146102eb57610171565b806301ffc9a71461017557806303caa5c3146101a557806306fdde03146101c1578063081812fc146101df578063095ea7b31461020f57806323b872dd1461022b575b5f5ffd5b61018f600480360381019061018a91906121f7565b6104dd565b60405161019c919061223c565b60405180910390f35b6101bf60048036038101906101ba91906122d9565b6105be565b005b6101c961066c565b6040516101d69190612387565b60405180910390f35b6101f960048036038101906101f491906123da565b6106fb565b6040516102069190612414565b60405180910390f35b6102296004803603810190610224919061242d565b610716565b005b6102456004803603810190610240919061246b565b61072c565b005b61024f61082b565b60405161025c9190612414565b60405180910390f35b61027f600480360381019061027a919061246b565b610850565b005b61029b6004803603810190610296919061242d565b61086f565b6040516102a8919061223c565b60405180910390f35b6102cb60048036038101906102c691906125e7565b610919565b005b6102d5610934565b6040516102e2919061263d565b60405180910390f35b610305600480360381019061030091906123da565b61093d565b6040516103129190612414565b60405180910390f35b61033560048036038101906103309190612656565b61094e565b604051610342919061263d565b60405180910390f35b610353610a04565b005b61036f600480360381019061036a9190612656565b610a17565b005b610379610aa5565b6040516103869190612414565b60405180910390f35b6103a960048036038101906103a49190612681565b610acd565b6040516103b6919061263d565b60405180910390f35b6103c7610c99565b6040516103d49190612387565b60405180910390f35b6103f760048036038101906103f291906122d9565b610d29565b005b610413600480360381019061040e9190612779565b610d3f565b005b61042f600480360381019061042a91906123da565b610d64565b60405161043c9190612387565b60405180910390f35b61045f600480360381019061045a91906127f9565b610dca565b60405161046c919061223c565b60405180910390f35b61048f600480360381019061048a9190612656565b610e58565b60405161049c919061223c565b60405180910390f35b6104bf60048036038101906104ba9190612656565b610e75565b005b6104db60048036038101906104d691906123da565b610ef9565b005b5f7f80ac58cd000000000000000000000000000000000000000000000000000000007bffffffffffffffffffffffffffffffffffffffffffffffffffffffff1916827bffffffffffffffffffffffffffffffffffffffffffffffffffffffff191614806105a757507f5b5e139f000000000000000000000000000000000000000000000000000000007bffffffffffffffffffffffffffffffffffffffffffffffffffffffff1916827bffffffffffffffffffffffffffffffffffffffffffffffffffffffff1916145b806105b757506105b682611004565b5b9050919050565b6105c661106d565b80600a5f8473ffffffffffffffffffffffffffffffffffffffff1673ffffffffffffffffffffffffffffffffffffffff1681526020019081526020015f205f6101000a81548160ff0219169083151502179055508173ffffffffffffffffffffffffffffffffffffffff167f50a0602d05c3e0b1b0b3cd6186c78520aa5401c0cf58629748b910c6b490011b82604051610660919061223c565b60405180910390a25050565b60605f805461067a90612864565b80601f01602080910402602001604051908101604052809291908181526020018280546106a690612864565b80156106f15780601f106106c8576101008083540402835291602001916106f1565b820191905f5260205f20905b8154815290600101906020018083116106d457829003601f168201915b5050505050905090565b5f610705826110f4565b5061070f8261117a565b9050919050565b61072882826107236111b3565b6111ba565b5050565b5f73ffffffffffffffffffffffffffffffffffffffff168273ffffffffffffffffffffffffffffffffffffffff160361079c575f6040517f64a0ae920000000000000000000000000000000000000000000000000000000081526004016107939190612414565b60405180910390fd5b5f6107af83836107aa6111b3565b6111cc565b90508373ffffffffffffffffffffffffffffffffffffffff168173ffffffffffffffffffffffffffffffffffffffff1614610825578382826040517f64283d7b00000000000000000000000000000000000000000000000000000000815260040161081c93929190612894565b60405180910390fd5b50505050565b600b5f9054906101000a900473ffffffffffffffffffffffffffffffffffffffff1681565b61086a83838360405180602001604052805f815250610d3f565b505050565b5f610879826112f7565b610885575f9050610913565b5f61088f8361093d565b90508073ffffffffffffffffffffffffffffffffffffffff168473ffffffffffffffffffffffffffffffffffffffff1614806108d157506108d08185610dca565b5b8061090f57508373ffffffffffffffffffffffffffffffffffffffff166108f7846106fb565b73ffffffffffffffffffffffffffffffffffffffff16145b9150505b92915050565b61092161106d565b80600990816109309190612a69565b5050565b5f600854905090565b5f610947826110f4565b9050919050565b5f5f73ffffffffffffffffffffffffffffffffffffffff168273ffffffffffffffffffffffffffffffffffffffff16036109bf575f6040517f89c62b640000000000000000000000000000000000000000000000000000000081526004016109b69190612414565b60405180910390fd5b60035f8373ffffffffffffffffffffffffffffffffffffffff1673ffffffffffffffffffffffffffffffffffffffff1681526020019081526020015f20549050919050565b610a0c61106d565b610a155f611337565b565b610a1f61106d565b80600b5f6101000a81548173ffffffffffffffffffffffffffffffffffffffff021916908373ffffffffffffffffffffffffffffffffffffffff1602179055508073ffffffffffffffffffffffffffffffffffffffff167fca0fed83c3c8a3cb877849541ff74d2605d72f236d5fe0a7aeaa656f2a95b51f60405160405180910390a250565b5f60065f9054906101000a900473ffffffffffffffffffffffffffffffffffffffff16905090565b5f600a5f3373ffffffffffffffffffffffffffffffffffffffff1673ffffffffffffffffffffffffffffffffffffffff1681526020019081526020015f205f9054906101000a900460ff16610b4e576040517fcd03ccc500000000000000000000000000000000000000000000000000000000815260040160405180910390fd5b610b566113fa565b5f73ffffffffffffffffffffffffffffffffffffffff168373ffffffffffffffffffffffffffffffffffffffff1603610bc4576040517f08c379a0000000000000000000000000000000000000000000000000000000008152600401610bbb90612b82565b60405180910390fd5b5f825111610c07576040517f08c379a0000000000000000000000000000000000000000000000000000000008152600401610bfe90612bea565b60405180910390fd5b5f600854905060085f815480929190610c1f90612c35565b9190505550610c2e8482611440565b610c38818461145d565b808473ffffffffffffffffffffffffffffffffffffffff167f4b9ad712e7eaa8cc24efaf239a9107a8e27385fb66e301d70c4f0d5747bde65385604051610c7f9190612387565b60405180910390a380915050610c936114a9565b92915050565b606060018054610ca890612864565b80601f0160208091040260200160405190810160405280929190818152602001828054610cd490612864565b8015610d1f5780601f10610cf657610100808354040283529160200191610d1f565b820191905f5260205f20905b815481529060010190602001808311610d0257829003601f168201915b5050505050905090565b610d3b610d346111b3565b83836114b3565b5050565b610d4a84848461072c565b610d5e610d556111b3565b8585858561161c565b50505050565b6060610d6f826110f4565b505f610d796117c8565b90505f815111610d975760405180602001604052805f815250610dc2565b80610da184611858565b604051602001610db2929190612cb6565b6040516020818303038152906040525b915050919050565b5f60055f8473ffffffffffffffffffffffffffffffffffffffff1673ffffffffffffffffffffffffffffffffffffffff1681526020019081526020015f205f8373ffffffffffffffffffffffffffffffffffffffff1673ffffffffffffffffffffffffffffffffffffffff1681526020019081526020015f205f9054906101000a900460ff16905092915050565b600a602052805f5260405f205f915054906101000a900460ff1681565b610e7d61106d565b5f73ffffffffffffffffffffffffffffffffffffffff168173ffffffffffffffffffffffffffffffffffffffff1603610eed575f6040517f1e4fbdf7000000000000000000000000000000000000000000000000000000008152600401610ee49190612414565b60405180910390fd5b610ef681611337565b50565b600b5f9054906101000a900473ffffffffffffffffffffffffffffffffffffffff1673ffffffffffffffffffffffffffffffffffffffff163373ffffffffffffffffffffffffffffffffffffffff1614610f7f576040517f32eb10d200000000000000000000000000000000000000000000000000000000815260040160405180910390fd5b610f88816112f7565b610fbe576040517fceea21b600000000000000000000000000000000000000000000000000000000815260040160405180910390fd5b5f610fc88261093d565b9050610fd382611922565b817fb234f5849d339153986e37530bf2980d0e4acf8b931f72eb3536dba83c8bb7f360405160405180910390a25050565b5f7f01ffc9a7000000000000000000000000000000000000000000000000000000007bffffffffffffffffffffffffffffffffffffffffffffffffffffffff1916827bffffffffffffffffffffffffffffffffffffffffffffffffffffffff1916149050919050565b6110756111b3565b73ffffffffffffffffffffffffffffffffffffffff16611093610aa5565b73ffffffffffffffffffffffffffffffffffffffff16146110f2576110b66111b3565b6040517f118cdaa70000000000000000000000000000000000000000000000000000000081526004016110e99190612414565b60405180910390fd5b565b5f5f6110ff836119a4565b90505f73ffffffffffffffffffffffffffffffffffffffff168173ffffffffffffffffffffffffffffffffffffffff160361117157826040517f7e273289000000000000000000000000000000000000000000000000000000008152600401611168919061263d565b60405180910390fd5b80915050919050565b5f60045f8381526020019081526020015f205f9054906101000a900473ffffffffffffffffffffffffffffffffffffffff169050919050565b5f33905090565b6111c783838360016119dd565b505050565b5f5f6111d7846119a4565b90505f73ffffffffffffffffffffffffffffffffffffffff168173ffffffffffffffffffffffffffffffffffffffff160361121f57611217858585611b9c565b9150506112f0565b5f73ffffffffffffffffffffffffffffffffffffffff168573ffffffffffffffffffffffffffffffffffffffff161480156112a65750600b5f9054906101000a900473ffffffffffffffffffffffffffffffffffffffff1673ffffffffffffffffffffffffffffffffffffffff163373ffffffffffffffffffffffffffffffffffffffff16145b156112be576112b6858585611b9c565b9150506112f0565b6040517f8cd22d1900000000000000000000000000000000000000000000000000000000815260040160405180910390fd5b9392505050565b5f5f73ffffffffffffffffffffffffffffffffffffffff16611318836119a4565b73ffffffffffffffffffffffffffffffffffffffff1614159050919050565b5f60065f9054906101000a900473ffffffffffffffffffffffffffffffffffffffff1690508160065f6101000a81548173ffffffffffffffffffffffffffffffffffffffff021916908373ffffffffffffffffffffffffffffffffffffffff1602179055508173ffffffffffffffffffffffffffffffffffffffff168173ffffffffffffffffffffffffffffffffffffffff167f8be0079c531659141344cd1fd0a4f28419497f9722a3daafe3b4186f6b6457e060405160405180910390a35050565b600260075403611436576040517f3ee5aeb500000000000000000000000000000000000000000000000000000000815260040160405180910390fd5b6002600781905550565b611459828260405180602001604052805f815250611da7565b5050565b611466826112f7565b6114a5576040517f08c379a000000000000000000000000000000000000000000000000000000000815260040161149c90612d23565b60405180910390fd5b5050565b6001600781905550565b5f73ffffffffffffffffffffffffffffffffffffffff168273ffffffffffffffffffffffffffffffffffffffff160361152357816040517f5b08ba1800000000000000000000000000000000000000000000000000000000815260040161151a9190612414565b60405180910390fd5b8060055f8573ffffffffffffffffffffffffffffffffffffffff1673ffffffffffffffffffffffffffffffffffffffff1681526020019081526020015f205f8473ffffffffffffffffffffffffffffffffffffffff1673ffffffffffffffffffffffffffffffffffffffff1681526020019081526020015f205f6101000a81548160ff0219169083151502179055508173ffffffffffffffffffffffffffffffffffffffff168373ffffffffffffffffffffffffffffffffffffffff167f17307eab39ab6107e8899845ad3d59bd9653f200f220920489ca2b5937696c318360405161160f919061223c565b60405180910390a3505050565b5f8373ffffffffffffffffffffffffffffffffffffffff163b11156117c1578273ffffffffffffffffffffffffffffffffffffffff1663150b7a02868685856040518563ffffffff1660e01b815260040161167a9493929190612d93565b6020604051808303815f875af19250505080156116b557506040513d601f19601f820116820180604052508101906116b29190612df1565b60015b611736573d805f81146116e3576040519150601f19603f3d011682016040523d82523d5f602084013e6116e8565b606091505b505f81510361172e57836040517f64a0ae920000000000000000000000000000000000000000000000000000000081526004016117259190612414565b60405180910390fd5b805160208201fd5b63150b7a0260e01b7bffffffffffffffffffffffffffffffffffffffffffffffffffffffff1916817bffffffffffffffffffffffffffffffffffffffffffffffffffffffff1916146117bf57836040517f64a0ae920000000000000000000000000000000000000000000000000000000081526004016117b69190612414565b60405180910390fd5b505b5050505050565b6060600980546117d790612864565b80601f016020809104026020016040519081016040528092919081815260200182805461180390612864565b801561184e5780601f106118255761010080835404028352916020019161184e565b820191905f5260205f20905b81548152906001019060200180831161183157829003601f168201915b5050505050905090565b60605f600161186684611dca565b0190505f8167ffffffffffffffff811115611884576118836124c3565b5b6040519080825280601f01601f1916602001820160405280156118b65781602001600182028036833780820191505090505b5090505f82602083010190505b600115611917578080600190039150507f3031323334353637383961626364656600000000000000000000000000000000600a86061a8153600a858161190c5761190b612e1c565b5b0494505f85036118c3575b819350505050919050565b5f61192e5f835f6111cc565b90505f73ffffffffffffffffffffffffffffffffffffffff168173ffffffffffffffffffffffffffffffffffffffff16036119a057816040517f7e273289000000000000000000000000000000000000000000000000000000008152600401611997919061263d565b60405180910390fd5b5050565b5f60025f8381526020019081526020015f205f9054906101000a900473ffffffffffffffffffffffffffffffffffffffff169050919050565b8080611a1557505f73ffffffffffffffffffffffffffffffffffffffff168273ffffffffffffffffffffffffffffffffffffffff1614155b15611b47575f611a24846110f4565b90505f73ffffffffffffffffffffffffffffffffffffffff168373ffffffffffffffffffffffffffffffffffffffff1614158015611a8e57508273ffffffffffffffffffffffffffffffffffffffff168173ffffffffffffffffffffffffffffffffffffffff1614155b8015611aa15750611a9f8184610dca565b155b15611ae357826040517fa9fbf51f000000000000000000000000000000000000000000000000000000008152600401611ada9190612414565b60405180910390fd5b8115611b4557838573ffffffffffffffffffffffffffffffffffffffff168273ffffffffffffffffffffffffffffffffffffffff167f8c5be1e5ebec7d5bd14f71427d1e84f3dd0314c0f7b2291e5b200ac8c7c3b92560405160405180910390a45b505b8360045f8581526020019081526020015f205f6101000a81548173ffffffffffffffffffffffffffffffffffffffff021916908373ffffffffffffffffffffffffffffffffffffffff16021790555050505050565b5f5f611ba7846119a4565b90505f73ffffffffffffffffffffffffffffffffffffffff168373ffffffffffffffffffffffffffffffffffffffff1614611be857611be7818486611f1b565b5b5f73ffffffffffffffffffffffffffffffffffffffff168173ffffffffffffffffffffffffffffffffffffffff1614611c7357611c275f855f5f6119dd565b600160035f8373ffffffffffffffffffffffffffffffffffffffff1673ffffffffffffffffffffffffffffffffffffffff1681526020019081526020015f205f82825403925050819055505b5f73ffffffffffffffffffffffffffffffffffffffff168573ffffffffffffffffffffffffffffffffffffffff1614611cf257600160035f8773ffffffffffffffffffffffffffffffffffffffff1673ffffffffffffffffffffffffffffffffffffffff1681526020019081526020015f205f82825401925050819055505b8460025f8681526020019081526020015f205f6101000a81548173ffffffffffffffffffffffffffffffffffffffff021916908373ffffffffffffffffffffffffffffffffffffffff160217905550838573ffffffffffffffffffffffffffffffffffffffff168273ffffffffffffffffffffffffffffffffffffffff167fddf252ad1be2c89b69c2b068fc378daa952ba7f163c4a11628f55a4df523b3ef60405160405180910390a4809150509392505050565b611db18383611fde565b611dc5611dbc6111b3565b5f85858561161c565b505050565b5f5f5f90507a184f03e93ff9f4daa797ed6e38ed64bf6a1f0100000000000000008310611e26577a184f03e93ff9f4daa797ed6e38ed64bf6a1f0100000000000000008381611e1c57611e1b612e1c565b5b0492506040810190505b6d04ee2d6d415b85acef81000000008310611e63576d04ee2d6d415b85acef81000000008381611e5957611e58612e1c565b5b0492506020810190505b662386f26fc100008310611e9257662386f26fc100008381611e8857611e87612e1c565b5b0492506010810190505b6305f5e1008310611ebb576305f5e1008381611eb157611eb0612e1c565b5b0492506008810190505b6127108310611ee0576127108381611ed657611ed5612e1c565b5b0492506004810190505b60648310611f035760648381611ef957611ef8612e1c565b5b0492506002810190505b600a8310611f12576001810190505b80915050919050565b611f268383836120d1565b611fd9575f73ffffffffffffffffffffffffffffffffffffffff168373ffffffffffffffffffffffffffffffffffffffff1603611f9a57806040517f7e273289000000000000000000000000000000000000000000000000000000008152600401611f91919061263d565b60405180910390fd5b81816040517f177e802f000000000000000000000000000000000000000000000000000000008152600401611fd0929190612e49565b60405180910390fd5b505050565b5f73ffffffffffffffffffffffffffffffffffffffff168273ffffffffffffffffffffffffffffffffffffffff160361204e575f6040517f64a0ae920000000000000000000000000000000000000000000000000000000081526004016120459190612414565b60405180910390fd5b5f61205a83835f6111cc565b90505f73ffffffffffffffffffffffffffffffffffffffff168173ffffffffffffffffffffffffffffffffffffffff16146120cc575f6040517f73c6ac6e0000000000000000000000000000000000000000000000000000000081526004016120c39190612414565b60405180910390fd5b505050565b5f5f73ffffffffffffffffffffffffffffffffffffffff168373ffffffffffffffffffffffffffffffffffffffff161415801561218857508273ffffffffffffffffffffffffffffffffffffffff168473ffffffffffffffffffffffffffffffffffffffff16148061214957506121488484610dca565b5b8061218757508273ffffffffffffffffffffffffffffffffffffffff1661216f8361117a565b73ffffffffffffffffffffffffffffffffffffffff16145b5b90509392505050565b5f604051905090565b5f5ffd5b5f5ffd5b5f7fffffffff0000000000000000000000000000000000000000000000000000000082169050919050565b6121d6816121a2565b81146121e0575f5ffd5b50565b5f813590506121f1816121cd565b92915050565b5f6020828403121561220c5761220b61219a565b5b5f612219848285016121e3565b91505092915050565b5f8115159050919050565b61223681612222565b82525050565b5f60208201905061224f5f83018461222d565b92915050565b5f73ffffffffffffffffffffffffffffffffffffffff82169050919050565b5f61227e82612255565b9050919050565b61228e81612274565b8114612298575f5ffd5b50565b5f813590506122a981612285565b92915050565b6122b881612222565b81146122c2575f5ffd5b50565b5f813590506122d3816122af565b92915050565b5f5f604083850312156122ef576122ee61219a565b5b5f6122fc8582860161229b565b925050602061230d858286016122c5565b9150509250929050565b5f81519050919050565b5f82825260208201905092915050565b8281835e5f83830152505050565b5f601f19601f8301169050919050565b5f61235982612317565b6123638185612321565b9350612373818560208601612331565b61237c8161233f565b840191505092915050565b5f6020820190508181035f83015261239f818461234f565b905092915050565b5f819050919050565b6123b9816123a7565b81146123c3575f5ffd5b50565b5f813590506123d4816123b0565b92915050565b5f602082840312156123ef576123ee61219a565b5b5f6123fc848285016123c6565b91505092915050565b61240e81612274565b82525050565b5f6020820190506124275f830184612405565b92915050565b5f5f604083850312156124435761244261219a565b5b5f6124508582860161229b565b9250506020612461858286016123c6565b9150509250929050565b5f5f5f606084860312156124825761248161219a565b5b5f61248f8682870161229b565b93505060206124a08682870161229b565b92505060406124b1868287016123c6565b9150509250925092565b5f5ffd5b5f5ffd5b7f4e487b71000000000000000000000000000000000000000000000000000000005f52604160045260245ffd5b6124f98261233f565b810181811067ffffffffffffffff82111715612518576125176124c3565b5b80604052505050565b5f61252a612191565b905061253682826124f0565b919050565b5f67ffffffffffffffff821115612555576125546124c3565b5b61255e8261233f565b9050602081019050919050565b828183375f83830152505050565b5f61258b6125868461253b565b612521565b9050828152602081018484840111156125a7576125a66124bf565b5b6125b284828561256b565b509392505050565b5f82601f8301126125ce576125cd6124bb565b5b81356125de848260208601612579565b91505092915050565b5f602082840312156125fc576125fb61219a565b5b5f82013567ffffffffffffffff8111156126195761261861219e565b5b612625848285016125ba565b91505092915050565b612637816123a7565b82525050565b5f6020820190506126505f83018461262e565b92915050565b5f6020828403121561266b5761266a61219a565b5b5f6126788482850161229b565b91505092915050565b5f5f604083850312156126975761269661219a565b5b5f6126a48582860161229b565b925050602083013567ffffffffffffffff8111156126c5576126c461219e565b5b6126d1858286016125ba565b9150509250929050565b5f67ffffffffffffffff8211156126f5576126f46124c3565b5b6126fe8261233f565b9050602081019050919050565b5f61271d612718846126db565b612521565b905082815260208101848484011115612739576127386124bf565b5b61274484828561256b565b509392505050565b5f82601f8301126127605761275f6124bb565b5b813561277084826020860161270b565b91505092915050565b5f5f5f5f608085870312156127915761279061219a565b5b5f61279e8782880161229b565b94505060206127af8782880161229b565b93505060406127c0878288016123c6565b925050606085013567ffffffffffffffff8111156127e1576127e061219e565b5b6127ed8782880161274c565b91505092959194509250565b5f5f6040838503121561280f5761280e61219a565b5b5f61281c8582860161229b565b925050602061282d8582860161229b565b9150509250929050565b7f4e487b71000000000000000000000000000000000000000000000000000000005f52602260045260245ffd5b5f600282049050600182168061287b57607f821691505b60208210810361288e5761288d612837565b5b50919050565b5f6060820190506128a75f830186612405565b6128b4602083018561262e565b6128c16040830184612405565b949350505050565b5f819050815f5260205f209050919050565b5f6020601f8301049050919050565b5f82821b905092915050565b5f600883026129257fffffffffffffffffffffffffffffffffffffffffffffffffffffffffffffffff826128ea565b61292f86836128ea565b95508019841693508086168417925050509392505050565b5f819050919050565b5f61296a612965612960846123a7565b612947565b6123a7565b9050919050565b5f819050919050565b61298383612950565b61299761298f82612971565b8484546128f6565b825550505050565b5f5f905090565b6129ae61299f565b6129b981848461297a565b505050565b5b818110156129dc576129d15f826129a6565b6001810190506129bf565b5050565b601f821115612a21576129f2816128c9565b6129fb846128db565b81016020851015612a0a578190505b612a1e612a16856128db565b8301826129be565b50505b505050565b5f82821c905092915050565b5f612a415f1984600802612a26565b1980831691505092915050565b5f612a598383612a32565b9150826002028217905092915050565b612a7282612317565b67ffffffffffffffff811115612a8b57612a8a6124c3565b5b612a958254612864565b612aa08282856129e0565b5f60209050601f831160018114612ad1575f8415612abf578287015190505b612ac98582612a4e565b865550612b30565b601f198416612adf866128c9565b5f5b82811015612b0657848901518255600182019150602085019450602081019050612ae1565b86831015612b235784890151612b1f601f891682612a32565b8355505b6001600288020188555050505b505050505050565b7f43616e6e6f74206d696e7420746f207a65726f206164647265737300000000005f82015250565b5f612b6c601b83612321565b9150612b7782612b38565b602082019050919050565b5f6020820190508181035f830152612b9981612b60565b9050919050565b7f546f6b656e205552492063616e6e6f7420626520656d707479000000000000005f82015250565b5f612bd4601983612321565b9150612bdf82612ba0565b602082019050919050565b5f6020820190508181035f830152612c0181612bc8565b9050919050565b7f4e487b71000000000000000000000000000000000000000000000000000000005f52601160045260245ffd5b5f612c3f826123a7565b91507fffffffffffffffffffffffffffffffffffffffffffffffffffffffffffffffff8203612c7157612c70612c08565b5b600182019050919050565b5f81905092915050565b5f612c9082612317565b612c9a8185612c7c565b9350612caa818560208601612331565b80840191505092915050565b5f612cc18285612c86565b9150612ccd8284612c86565b91508190509392505050565b7f55524920736574206f66206e6f6e6578697374656e7420746f6b656e000000005f82015250565b5f612d0d601c83612321565b9150612d1882612cd9565b602082019050919050565b5f6020820190508181035f830152612d3a81612d01565b9050919050565b5f81519050919050565b5f82825260208201905092915050565b5f612d6582612d41565b612d6f8185612d4b565b9350612d7f818560208601612331565b612d888161233f565b840191505092915050565b5f608082019050612da65f830187612405565b612db36020830186612405565b612dc0604083018561262e565b8181036060830152612dd28184612d5b565b905095945050505050565b5f81519050612deb816121cd565b92915050565b5f60208284031215612e0657612e0561219a565b5b5f612e1384828501612ddd565b91505092915050565b7f4e487b71000000000000000000000000000000000000000000000000000000005f52601260045260245ffd5b5f604082019050612e5c5f830185612405565b612e69602083018461262e565b939250505056fea26469706673582212204c9c5845e3037fc8d6a924ed3d82ea1e070672dba4f55a2ad9b5a6010a69cbb964736f6c634300081e0033","linkReferences":{}},"methodIdentifiers":{"approve(address,uint256)":"095ea7b3","balanceOf(address)":"70a08231","burnSBT(uint256)":"f76c5f82","getApproved(uint256)":"081812fc","getCurrentTokenId()":"56189236","isApprovedForAll(address,address)":"e985e9c5","isApprovedOrOwner(address,uint256)":"430c2081","mintSBT(address,string)":"9373f9ac","name()":"06fdde03","owner()":"8da5cb5b","ownerOf(uint256)":"6352211e","premiumMerchContract()":"30ce560e","renounceOwnership()":"715018a6","safeTransferFrom(address,address,uint256)":"42842e0e","safeTransferFrom(address,address,uint256,bytes)":"b88d4fde","setApprovalForAll(address,bool)":"a22cb465","setBaseURI(string)":"55f804b3","setPremiumContract(address)":"816fc934","setWhitelistedMinter(address,bool)":"03caa5c3","supportsInterface(bytes4)":"01ffc9a7","symbol()":"95d89b41","tokenURI(uint256)":"c87b56dd","transferFrom(address,address,uint256)":"23b872dd","transferOwnership(address)":"f2fde38b","whitelistedMinters(address)":"ed1e0085"},"id":0}