{"abi":[{"type":"constructor","inputs":[{"name":"name","type":"string","internalType":"string"},{"name":"symbol","type":"string","internalType":"string"}],"stateMutability":"nonpayable"},{"type":"function","name":"approve","inputs":[{"name":"to","type":"address","internalType":"address"},{"name":"tokenId","type":"uint256","internalType":"uint256"}],"outputs":[],"stateMutability":"nonpayable"},{"type":"function","name":"backendIssuer","inputs":[],"outputs":[{"name":"","type":"address","internalType":"address"}],"stateMutability":"view"},{"type":"function","name":"balanceOf","inputs":[{"name":"owner","type":"address","internalType":"address"}],"outputs":[{"name":"","type":"uint256","internalType":"uint256"}],"stateMutability":"view"},{"type":"function","name":"getApproved","inputs":[{"name":"tokenId","type":"uint256","internalType":"uint256"}],"outputs":[{"name":"","type":"address","internalType":"address"}],"stateMutability":"view"},{"type":"function","name":"getCurrentTokenId","inputs":[],"outputs":[{"name":"","type":"uint256","internalType":"uint256"}],"stateMutability":"view"},{"type":"function","name":"getEventIdByToken","inputs":[{"name":"_tokenId","type":"uint256","internalType":"uint256"}],"outputs":[{"name":"","type":"uint256","internalType":"uint256"}],"stateMutability":"view"},{"type":"function","name":"getSBTByEvent","inputs":[{"name":"_owner","type":"address","internalType":"address"},{"name":"_eventId","type":"uint256","internalType":"uint256"}],"outputs":[{"name":"","type":"uint256","internalType":"uint256"}],"stateMutability":"view"},{"type":"function","name":"isApprovedForAll","inputs":[{"name":"owner","type":"address","internalType":"address"},{"name":"operator","type":"address","internalType":"address"}],"outputs":[{"name":"","type":"bool","internalType":"bool"}],"stateMutability":"view"},{"type":"function","name":"isApprovedOrOwner","inputs":[{"name":"_spender","type":"address","internalType":"address"},{"name":"_tokenId","type":"uint256","internalType":"uint256"}],"outputs":[{"name":"","type":"bool","internalType":"bool"}],"stateMutability":"view"},{"type":"function","name":"mintSBT","inputs":[{"name":"_to","type":"address","internalType":"address"},{"name":"_eventId","type":"uint256","internalType":"uint256"},{"name":"_tokenURI","type":"string","internalType":"string"},{"name":"_signature","type":"bytes","internalType":"bytes"}],"outputs":[{"name":"","type":"uint256","internalType":"uint256"}],"stateMutability":"nonpayable"},{"type":"function","name":"name","inputs":[],"outputs":[{"name":"","type":"string","internalType":"string"}],"stateMutability":"view"},{"type":"function","name":"owner","inputs":[],"outputs":[{"name":"","type":"address","internalType":"address"}],"stateMutability":"view"},{"type":"function","name":"ownerOf","inputs":[{"name":"tokenId","type":"uint256","internalType":"uint256"}],"outputs":[{"name":"","type":"address","internalType":"address"}],"stateMutability":"view"},{"type":"function","name":"renounceOwnership","inputs":[],"outputs":[],"stateMutability":"nonpayable"},{"type":"function","name":"safeTransferFrom","inputs":[{"name":"from","type":"address","internalType":"address"},{"name":"to","type":"address","internalType":"address"},{"name":"tokenId","type":"uint256","internalType":"uint256"}],"outputs":[],"stateMutability":"nonpayable"},{"type":"function","name":"safeTransferFrom","inputs":[{"name":"from","type":"address","internalType":"address"},{"name":"to","type":"address","internalType":"address"},{"name":"tokenId","type":"uint256","internalType":"uint256"},{"name":"data","type":"bytes","internalType":"bytes"}],"outputs":[],"stateMutability":"nonpayable"},{"type":"function","name":"setApprovalForAll","inputs":[{"name":"operator","type":"address","internalType":"address"},{"name":"approved","type":"bool","internalType":"bool"}],"outputs":[],"stateMutability":"nonpayable"},{"type":"function","name":"setBackendIssuer","inputs":[{"name":"_issuer","type":"address","internalType":"address"}],"outputs":[],"stateMutability":"nonpayable"},{"type":"function","name":"setBaseURI","inputs":[{"name":"baseURI","type":"string","internalType":"string"}],"outputs":[],"stateMutability":"nonpayable"},{"type":"function","name":"supportsInterface","inputs":[{"name":"interfaceId","type":"bytes4","internalType":"bytes4"}],"outputs":[{"name":"","type":"bool","internalType":"bool"}],"stateMutability":"view"},{"type":"function","name":"symbol","inputs":[],"outputs":[{"name":"","type":"string","internalType":"string"}],"stateMutability":"view"},{"type":"function","name":"tokenIdToEventId","inputs":[{"name":"","type":"uint256","internalType":"uint256"}],"outputs":[{"name":"","type":"uint256","internalType":"uint256"}],"stateMutability":"view"},{"type":"function","name":"tokenURI","inputs":[{"name":"tokenId","type":"uint256","internalType":"uint256"}],"outputs":[{"name":"","type":"string","internalType":"string"}],"stateMutability":"view"},{"type":"function","name":"transferFrom","inputs":[{"name":"from","type":"address","internalType":"address"},{"name":"to","type":"address","internalType":"address"},{"name":"tokenId","type":"uint256","internalType":"uint256"}],"outputs":[],"stateMutability":"nonpayable"},{"type":"function","name":"transferOwnership","inputs":[{"name":"newOwner","type":"address","internalType":"address"}],"outputs":[],"stateMutability":"nonpayable"},{"type":"function","name":"userEventToTokenId","inputs":[{"name":"","type":"address","internalType":"address"},{"name":"","type":"uint256","internalType":"uint256"}],"outputs":[{"name":"","type":"uint256","internalType":"uint256"}],"stateMutability":"view"},{"type":"event","name":"Approval","inputs":[{"name":"owner","type":"address","indexed":true,"internalType":"address"},{"name":"approved","type":"address","indexed":true,"internalType":"address"},{"name":"tokenId","type":"uint256","indexed":true,"internalType":"uint256"}],"anonymous":false},{"type":"event","name":"ApprovalForAll","inputs":[{"name":"owner","type":"address","indexed":true,"internalType":"address"},{"name":"operator","type":"address","indexed":true,"internalType":"address"},{"name":"approved","type":"bool","indexed":false,"internalType":"bool"}],"anonymous":false},{"type":"event","name":"BackendIssuerSet","inputs":[{"name":"issuer","type":"address","indexed":true,"internalType":"address"}],"anonymous":false},{"type":"event","name":"BaseURISet","inputs":[{"name":"newBaseURI","type":"string","indexed":false,"internalType":"string"}],"anonymous":false},{"type":"event","name":"OwnershipTransferred","inputs":[{"name":"previousOwner","type":"address","indexed":true,"internalType":"address"},{"name":"newOwner","type":"address","indexed":true,"internalType":"address"}],"anonymous":false},{"type":"event","name":"SBTMinted","inputs":[{"name":"to","type":"address","indexed":true,"internalType":"address"},{"name":"tokenId","type":"uint256","indexed":true,"internalType":"uint256"},{"name":"eventId","type":"uint256","indexed":true,"internalType":"uint256"},{"name":"tokenURI","type":"string","indexed":false,"internalType":"string"}],"anonymous":false},{"type":"event","name":"TokenURISet","inputs":[{"name":"tokenId","type":"uint256","indexed":true,"internalType":"uint256"},{"name":"tokenURI","type":"string","indexed":false,"internalType":"string"}],"anonymous":false},{"type":"event","name":"Transfer","inputs":[{"name":"from","type":"address","indexed":true,"internalType":"address"},{"name":"to","type":"address","indexed":true,"internalType":"address"},{"name":"tokenId","type":"uint256","indexed":true,"internalType":"uint256"}],"anonymous":false},{"type":"error","name":"DuplicateEventMint","inputs":[]},{"type":"error","name":"ERC721IncorrectOwner","inputs":[{"name":"sender","type":"address","internalType":"address"},{"name":"tokenId","type":"uint256","internalType":"uint256"},{"name":"owner","type":"address","internalType":"address"}]},{"type":"error","name":"ERC721InsufficientApproval","inputs":[{"name":"operator","type":"address","internalType":"address"},{"name":"tokenId","type":"uint256","internalType":"uint256"}]},{"type":"error","name":"ERC721InvalidApprover","inputs":[{"name":"approver","type":"address","internalType":"address"}]},{"type":"error","name":"ERC721InvalidOperator","inputs":[{"name":"operator","type":"address","internalType":"address"}]},{"type":"error","name":"ERC721InvalidOwner","inputs":[{"name":"owner","type":"address","internalType":"address"}]},{"type":"error","name":"ERC721InvalidReceiver","inputs":[{"name":"receiver","type":"address","internalType":"address"}]},{"type":"error","name":"ERC721InvalidSender","inputs":[{"name":"sender","type":"address","internalType":"address"}]},{"type":"error","name":"ERC721NonexistentToken","inputs":[{"name":"tokenId","type":"uint256","internalType":"uint256"}]},{"type":"error","name":"EmptyTokenURI","inputs":[]},{"type":"error","name":"InvalidAddress","inputs":[]},{"type":"error","name":"InvalidEventId","inputs":[]},{"type":"error","name":"InvalidSignature","inputs":[]},{"type":"error","name":"OwnableInvalidOwner","inputs":[{"name":"owner","type":"address","internalType":"address"}]},{"type":"error","name":"OwnableUnauthorizedAccount","inputs":[{"name":"account","type":"address","internalType":"address"}]},{"type":"error","name":"ReentrancyGuardReentrantCall","inputs":[]},{"type":"error","name":"TokenDoesNotExist","inputs":[]},{"type":"error","name":"TransferNotAllowed","inputs":[]}],"bytecode":{"object":"0x6080604052346200038a5762002199803803806200001d816200038f565b92833981016040828203126200038a5781516001600160401b0392908381116200038a57826200004f918301620003b5565b90602092838201518581116200038a576200006b9201620003b5565b92815181811162000374576000938454916001948584811c9416801562000369575b8385101462000355578190601f9485811162000302575b5083908583116001146200029e57889262000292575b5050600019600383901b1c191690851b1785555b85519283116200027e5783548481811c9116801562000273575b828210146200025f5782811162000217575b5080918311600114620001b15750839482939492620001a5575b5050600019600383901b1c191690821b1781555b33156200018c5760068054336001600160a01b031982168117909255604051936001600160a01b03909116907f8be0079c531659141344cd1fd0a4f28419497f9722a3daafe3b4186f6b6457e09080a380600755600855611d719081620004288239f35b604051631e4fbdf760e01b815260048101839052602490fd5b01519050388062000114565b90601f198316958486528286209286905b888210620001ff5750508385969710620001e5575b505050811b01815562000128565b015160001960f88460031b161c19169055388080620001d7565b808785968294968601518155019501930190620001c2565b8486528186208380860160051c82019284871062000255575b0160051c019085905b82811062000249575050620000fa565b87815501859062000239565b9250819262000230565b634e487b7160e01b86526022600452602486fd5b90607f1690620000e8565b634e487b7160e01b85526041600452602485fd5b015190503880620000ba565b8880528489208894509190601f1984168a5b87828210620002eb5750508411620002d1575b505050811b018555620000ce565b015160001960f88460031b161c19169055388080620002c3565b8385015186558b97909501949384019301620002b0565b9091508780528388208580850160051c8201928686106200034b575b918991869594930160051c01915b8281106200033c575050620000a4565b8a81558594508991016200032c565b925081926200031e565b634e487b7160e01b87526022600452602487fd5b93607f16936200008d565b634e487b7160e01b600052604160045260246000fd5b600080fd5b6040519190601f01601f191682016001600160401b038111838210176200037457604052565b919080601f840112156200038a5782516001600160401b0381116200037457602090620003eb601f8201601f191683016200038f565b928184528282870101116200038a5760005b8181106200041357508260009394955001015290565b8581018301518482018401528201620003fd56fe6080604052600436101561001257600080fd5b60003560e01c806301ffc9a7146101ad57806306fdde03146101a8578063081812fc146101a3578063095ea7b31461019e57806321244a4e1461019957806323b872dd1461019457806342842e0e1461018f578063430c20811461018a57806355f804b31461018557806356189236146101805780636352211e1461017b57806370a08231146101765780637132221314610167578063715018a6146101715780638da5cb5b1461016c578063953fd8cf1461016757806395d89b4114610162578063a22cb4651461015d578063b88d4fde14610158578063c57b90e614610153578063c87b56dd1461014e578063c8e6267214610149578063e8abb65314610149578063e985e9c514610144578063f2fde38b1461013f5763fcd7a9d81461013a57600080fd5b610e97565b610e09565b610dac565b610d64565b610d31565b610b28565b610ad3565b610a15565b610970565b6108bd565b610947565b6108e9565b610864565b610846565b610828565b6106b8565b6105cb565b610598565b610581565b6104d1565b6103d2565b610376565b610293565b6101c9565b6001600160e01b03198116036101c457565b600080fd5b346101c45760203660031901126101c45760206004356101e8816101b2565b63ffffffff60e01b166380ac58cd60e01b8114908115610226575b8115610215575b506040519015158152f35b6301ffc9a760e01b1490503861020a565b635b5e139f60e01b81149150610203565b60005b83811061024a5750506000910152565b818101518382015260200161023a565b9060209161027381518092818552858086019101610237565b601f01601f1916010190565b90602061029092818152019061025a565b90565b346101c45760008060031936011261037357604051908080546102b581610eec565b8085529160019180831690811561034957506001146102ef575b6102eb856102df81870382610633565b6040519182918261027f565b0390f35b80809450527f290decd9548b62a8d60345a988386fc84ba6bc95484008f6362f93160ef3e5635b8284106103315750505081016020016102df826102eb6102cf565b80546020858701810191909152909301928101610316565b8695506102eb969350602092506102df94915060ff191682840152151560051b82010192936102cf565b80fd5b346101c45760203660031901126101c4576020610394600435610fe4565b6040516001600160a01b039091168152f35b600435906001600160a01b03821682036101c457565b602435906001600160a01b03821682036101c457565b346101c45760403660031901126101c4576103eb6103a6565b602435906103f88261109a565b331515806104be575b80610490575b61047857610476926104579181906001600160a01b0385811691167f8c5be1e5ebec7d5bd14f71427d1e84f3dd0314c0f7b2291e5b200ac8c7c3b925600080a46000526004602052604060002090565b80546001600160a01b0319166001600160a01b03909216919091179055565b005b60405163a9fbf51f60e01b8152336004820152602490fd5b506001600160a01b038116600090815260056020908152604080832033845290915290205460ff1615610407565b506001600160a01b038116331415610401565b346101c45760203660031901126101c4576104ea6103a6565b6104f2610ec0565b6001600160a01b0316801561053a57600b80546001600160a01b031916821790557f47f31e3825b5c0054894adc1d6aeab70b7b8c023112e61615901dd9df6365921600080a2005b60405163e6c4247b60e01b8152600490fd5b60609060031901126101c4576001600160a01b039060043582811681036101c4579160243590811681036101c4579060443590565b346101c4576104766105923661054c565b91611009565b346101c4576104766105a93661054c565b90604051926105b784610612565b600084526105c6838383611009565b611182565b346101c45760403660031901126101c45760206105f26105e96103a6565b6024359061157b565b6040519015158152f35b634e487b7160e01b600052604160045260246000fd5b6020810190811067ffffffffffffffff82111761062e57604052565b6105fc565b90601f8019910116810190811067ffffffffffffffff82111761062e57604052565b67ffffffffffffffff811161062e57601f01601f191660200190565b81601f820112156101c45780359061068882610655565b926106966040519485610633565b828452602083830101116101c457816000926020809301838601378301015290565b346101c4576020806003193601126101c45767ffffffffffffffff6004358181116101c4576106eb903690600401610671565b916106f4610ec0565b825191821161062e576107118261070c600954610eec565b611878565b80601f831160011461077e5750918161076e927ff9c7803e94e0d3c02900d8a90893a6d5e90dd04d32a4cfe825520f82bf9f32f694600091610773575b508160011b916000199060031b1c1916176009556040519182918261027f565b0390a1005b90508201513861074e565b600960005290601f1983167f6e1540171b6c0c960b71a7020d9f60077f6af931a8bbf590da0223dacf75c7af926000905b828210610810575050927ff9c7803e94e0d3c02900d8a90893a6d5e90dd04d32a4cfe825520f82bf9f32f694926001928261076e96106107f7575b5050811b016009556102df565b84015160001960f88460031b161c1916905538806107ea565b80600185968294968a015181550195019301906107af565b346101c45760003660031901126101c4576020600854604051908152f35b346101c45760203660031901126101c457602061039460043561109a565b346101c45760203660031901126101c4576001600160a01b036108856103a6565b1680156108a45760005260036020526020604060002054604051908152f35b6040516322718ad960e21b815260006004820152602490fd5b346101c45760203660031901126101c457600435600052600d6020526020604060002054604051908152f35b346101c45760008060031936011261037357610903610ec0565b600680546001600160a01b0319811690915581906001600160a01b03167f8be0079c531659141344cd1fd0a4f28419497f9722a3daafe3b4186f6b6457e08280a380f35b346101c45760003660031901126101c4576006546040516001600160a01b039091168152602090f35b346101c457600080600319360112610373576040519080600180549161099583610eec565b8086529282811690811561034957506001146109bb576102eb856102df81870382610633565b92508083527fb10e2d527612073b26eecdfd717e6a320cf44b4afac2b0732d9fcbe2b7fa0cf65b8284106109fd5750505081016020016102df826102eb6102cf565b805460208587018101919091529093019281016109e2565b346101c45760403660031901126101c457610a2e6103a6565b6024358015158082036101c4576001600160a01b038316928315610aba573360009081526005602090815260408083206001600160a01b039094168352929052209060ff801983541691161790557f17307eab39ab6107e8899845ad3d59bd9653f200f220920489ca2b5937696c3160405180610ab5339482919091602081019215159052565b0390a3005b604051630b61174360e31b815260048101859052602490fd5b346101c45760803660031901126101c457610aec6103a6565b610af46103bc565b906044356064359267ffffffffffffffff84116101c457610b1c610476943690600401610671565b926105c6838383611009565b346101c45760803660031901126101c457610b416103a6565b6024356044359167ffffffffffffffff908184116101c457610b6860049436908601610671565b916064359081116101c457610b809036908601610671565b93600260075414610d225760026007556001600160a01b038216948515610cf2578415610d1257835115610d0257600b54610bcb906001600160a01b03165b6001600160a01b031690565b15610cf2576001600160a01b0383166000908152600c60205260409020610bfe9086905b90600052602052604060002090565b54610ce257610c12610c1691858786611450565b1590565b610cd357506102eb937fd697557bfbd291e21d94af8fadd74ae38512fc27bee5edc7121e877ee55e4fe3610cb68594610bef94610c936008549889978893610c65610c6086611292565b600855565b610c6f85826112a6565b610c79868661193d565b6001600160a01b03166000908152600c6020526040902090565b5585610ca986600052600d602052604060002090565b556040519182918261027f565b0390a4610cc36001600755565b6040519081529081906020820190565b604051638baa579f60e01b8152fd5b5060405163417a84cd60e01b8152fd5b5060405163e6c4247b60e01b8152fd5b506040516317314b6160e01b8152fd5b50604051630c93477d60e41b8152fd5b604051633ee5aeb560e01b8152fd5b346101c45760203660031901126101c4576102eb610d50600435611aa5565b60405191829160208352602083019061025a565b346101c45760403660031901126101c4576001600160a01b03610d856103a6565b16600052600c60205260406000206024356000526020526020604060002054604051908152f35b346101c45760403660031901126101c457602060ff610dfd610dcc6103a6565b610dd46103bc565b6001600160a01b0391821660009081526005865260408082209290931681526020919091522090565b54166040519015158152f35b346101c45760203660031901126101c457610e226103a6565b610e2a610ec0565b6001600160a01b03908116908115610e7e57600654826bffffffffffffffffffffffff60a01b821617600655167f8be0079c531659141344cd1fd0a4f28419497f9722a3daafe3b4186f6b6457e0600080a3005b604051631e4fbdf760e01b815260006004820152602490fd5b346101c45760003660031901126101c457600b546040516001600160a01b039091168152602090f35b6006546001600160a01b03163303610ed457565b60405163118cdaa760e01b8152336004820152602490fd5b90600182811c92168015610f1c575b6020831014610f0657565b634e487b7160e01b600052602260045260246000fd5b91607f1691610efb565b6040519060008260095491610f3a83610eec565b80835292600190818116908115610fc25750600114610f63575b50610f6192500383610633565b565b6009600090815291507f6e1540171b6c0c960b71a7020d9f60077f6af931a8bbf590da0223dacf75c7af5b848310610fa75750610f61935050810160200138610f54565b81935090816020925483858a01015201910190918592610f8e565b905060209250610f6194915060ff191682840152151560051b82010138610f54565b610fed8161109a565b506000908152600460205260409020546001600160a01b031690565b91906001600160a01b03908181161561105d576110298291843391611703565b931692169082820361103a57505050565b60649350604051926364283d7b60e01b8452600484015260248301526044820152fd5b604051633250574960e11b815260006004820152602490fd5b61108a906000526004602052604060002090565b80546001600160a01b0319169055565b6000818152600260205260409020546001600160a01b03169081156110bd575090565b60249060405190637e27328960e01b82526004820152fd5b908160209103126101c45751610290816101b2565b610290939260809260018060a01b03168252600060208301526040820152816060820152019061025a565b6001600160a01b0391821681529116602082015260408101919091526080606082018190526102909291019061025a565b6040513d6000823e3d90fd5b3d1561117d573d9061116382610655565b916111716040519384610633565b82523d6000602084013e565b606090565b91929092833b611193575b50505050565b6111b8916020916040519384928392630a85bd0160e11b978885523360048601611115565b038160006001600160a01b0388165af16000918161124c575b5061121057826111df611152565b805191908261120957604051633250574960e11b81526001600160a01b0383166004820152602490fd5b9050602001fd5b6001600160e01b0319160361122957503880808061118d565b604051633250574960e11b81526001600160a01b03919091166004820152602490fd5b61126e91925060203d8111611275575b6112668183610633565b8101906110d5565b90386111d1565b503d61125c565b634e487b7160e01b600052601160045260246000fd5b60001981146112a15760010190565b61127c565b60409182516112b481610612565b600081526001600160a01b03838116919082156113d7576112d58486611610565b166113bf57833b6112e8575b5050505050565b6113126000926020928798969751948580948193630a85bd0160e11b998a845233600485016110ea565b03925af16000918161139f575b5061135f5750505061132f611152565b8051929083611358578151633250574960e11b81526001600160a01b0384166004820152602490fd5b8390602001fd5b9193916001600160e01b0319160361137d57505038808080806112e1565b51633250574960e11b81526001600160a01b0391909116600482015260249150fd5b6113b891925060203d8111611275576112668183610633565b903861131f565b84516339e3563760e11b815260006004820152602490fd5b8551633250574960e11b815260006004820152602490fd5b9061140260209282815194859201610237565b0190565b9091603493926bffffffffffffffffffffffff199060601b16825260148201526114398251809360208685019101610237565b010190565b60ff601b9116019060ff82116112a157565b90611465604051938492602084019485611406565b0391611479601f1993848101835282610633565b519020906114c960405191826114bd602082019586603c917f19457468657265756d205369676e6564204d6573736167653a0a3332000000008252601c8201520190565b03908101835282610633565b5190206041825103611574576020916000918291848101519260606040830151920151901a92601b841061155d575b9061152391604051948594859094939260ff6060936080840197845216602083015260408201520152565b838052039060015afa1561155857600051600b54611549906001600160a01b0316610bbf565b6001600160a01b039091161490565b611146565b929061156b6115239261143e565b939091506114f8565b5050600090565b6000828152600260205260409020546001600160a01b031615611574576001600160a01b03806115aa8461109a565b1692818316928484149485156115e0575b505083156115ca575b50505090565b6115d691929350610fe4565b16143880806115c4565b60009081526005602090815260408083206001600160a01b03949094168352929052205460ff16935038806115bb565b6000828152600260205260409020546001600160a01b039081169291908315908161164757604051638cd22d1960e01b8152600490fd5b61166e91156116bb575b82169182611697575b610457846000526002602052604060002090565b827fddf252ad1be2c89b69c2b068fc378daa952ba7f163c4a11628f55a4df523b3ef600080a490565b6001600160a01b03811660009081526003602052604090206001815401905561165a565b6116cf846000526004602052604060002090565b80546001600160a01b03191690556001600160a01b03851660009081526003602052604090205b8054600019019055611651565b6000828152600260205260409020546001600160a01b03908116939084158061173857604051638cd22d1960e01b8152600490fd5b82858361166e951661178e575b505015611768578216918261169757610457846000526002602052604060002090565b61177184611076565b6001600160a01b03851660009081526003602052604090206116f6565b611798918861179f565b3885611745565b6001600160a01b0390828216801515908161180a575b50156117c15750505050565b166117df57604051637e27328960e01b815260048101839052602490fd5b60405163177e802f60e01b81526001600160a01b039190911660048201526024810191909152604490fd5b82841680821492508215611842575b508115611828575b50386117b5565b905084600052600460205282604060002054161438611821565b909150600052600560205260ff61186f8560406000209060018060a01b0316600052602052604060002090565b54169038611819565b601f8111611884575050565b600090600982527f6e1540171b6c0c960b71a7020d9f60077f6af931a8bbf590da0223dacf75c7af906020601f850160051c830194106118df575b601f0160051c01915b8281106118d457505050565b8181556001016118c8565b90925082906118bf565b90601f81116118f757505050565b600091825260208220906020601f850160051c83019410611933575b601f0160051c01915b82811061192857505050565b81815560010161191c565b9092508290611913565b6000818152600260205260409020549091906001600160a01b031615611a9357816000526020600a815260406000209082519067ffffffffffffffff821161062e576119938261198d8554610eec565b856118e9565b80601f8311600114611a00575091817fda84ca2183491f179a603e877b2cb058e42195041c2b9c53d746427e519a34df94926119f0946000916119f5575b508160011b916000199060031b1c19161790556040519182918261027f565b0390a2565b9050830151386119d1565b90601f198316611a1585600052602060002090565b926000905b828210611a7b575050926119f09492600192827fda84ca2183491f179a603e877b2cb058e42195041c2b9c53d746427e519a34df989610611a62575b5050811b0190556102df565b85015160001960f88460031b161c191690553880611a56565b80600185968294968b01518155019501930190611a1a565b60405163677510db60e11b8152600490fd5b6000818152600260205260409020546001600160a01b031615611a9357600090808252602090600a82526040832060405184819590835490611ae682610eec565b94858552600192888482169182600014611ba2575050600114611b66575b505050611b1392500384610633565b611b1b610f26565b92835115611b5f578051611b5f575090611b51611b3a61029093611bf8565b611b4b6040519586948501906113ef565b906113ef565b03601f198101835282610633565b9250505090565b879350819291528282205b858310611b8a575050611b139350820101388080611b04565b8054838a018501528894508793909201918101611b71565b935094505050611b1394915060ff191682840152151560051b820101388080611b04565b90611bd082610655565b611bdd6040519182610633565b8281528092611bee601f1991610655565b0190602036910137565b806000917a184f03e93ff9f4daa797ed6e38ed64bf6a1f01000000000000000080821015611d2d575b506d04ee2d6d415b85acef810000000080831015611d1e575b50662386f26fc1000080831015611d0f575b506305f5e10080831015611d00575b5061271080831015611cf1575b506064821015611ce1575b600a80921015611cd7575b600190816021611c8f828701611bc6565b95860101905b611ca1575b5050505090565b600019019083906f181899199a1a9b1b9c1cb0b131b232b360811b8282061a835304918215611cd257919082611c95565b611c9a565b9160010191611c7e565b9190606460029104910191611c73565b60049193920491019138611c68565b60089193920491019138611c5b565b60109193920491019138611c4c565b60209193920491019138611c3a565b604093508104915038611c2156fea2646970667358221220bf613e4a96f92a3b2630f95fe180c174c25b54200b1c03b1a7679791256156b664736f6c63430008140033","linkReferences":{}},"methodIdentifiers":{"approve(address,uint256)":"095ea7b3","backendIssuer()":"fcd7a9d8","balanceOf(address)":"70a08231","getApproved(uint256)":"081812fc","getCurrentTokenId()":"56189236","getEventIdByToken(uint256)":"953fd8cf","getSBTByEvent(address,uint256)":"c8e62672","isApprovedForAll(address,address)":"e985e9c5","isApprovedOrOwner(address,uint256)":"430c2081","mintSBT(address,uint256,string,bytes)":"c57b90e6","name()":"06fdde03","owner()":"8da5cb5b","ownerOf(uint256)":"6352211e","renounceOwnership()":"715018a6","safeTransferFrom(address,address,uint256)":"42842e0e","safeTransferFrom(address,address,uint256,bytes)":"b88d4fde","setApprovalForAll(address,bool)":"a22cb465","setBackendIssuer(address)":"21244a4e","setBaseURI(string)":"55f804b3","supportsInterface(bytes4)":"01ffc9a7","symbol()":"95d89b41","tokenIdToEventId(uint256)":"71322213","tokenURI(uint256)":"c87b56dd","transferFrom(address,address,uint256)":"23b872dd","transferOwnership(address)":"f2fde38b","userEventToTokenId(address,uint256)":"e8abb653"},"id":33}