{"abi":[{"type":"constructor","inputs":[{"name":"name","type":"string","internalType":"string"},{"name":"symbol","type":"string","internalType":"string"}],"stateMutability":"nonpayable"},{"type":"function","name":"approve","inputs":[{"name":"to","type":"address","internalType":"address"},{"name":"tokenId","type":"uint256","internalType":"uint256"}],"outputs":[],"stateMutability":"nonpayable"},{"type":"function","name":"balanceOf","inputs":[{"name":"owner","type":"address","internalType":"address"}],"outputs":[{"name":"","type":"uint256","internalType":"uint256"}],"stateMutability":"view"},{"type":"function","name":"burnSBT","inputs":[{"name":"_tokenId","type":"uint256","internalType":"uint256"}],"outputs":[],"stateMutability":"nonpayable"},{"type":"function","name":"getApproved","inputs":[{"name":"tokenId","type":"uint256","internalType":"uint256"}],"outputs":[{"name":"","type":"address","internalType":"address"}],"stateMutability":"view"},{"type":"function","name":"getCurrentTokenId","inputs":[],"outputs":[{"name":"","type":"uint256","internalType":"uint256"}],"stateMutability":"view"},{"type":"function","name":"isApprovedForAll","inputs":[{"name":"owner","type":"address","internalType":"address"},{"name":"operator","type":"address","internalType":"address"}],"outputs":[{"name":"","type":"bool","internalType":"bool"}],"stateMutability":"view"},{"type":"function","name":"isApprovedOrOwner","inputs":[{"name":"_spender","type":"address","internalType":"address"},{"name":"_tokenId","type":"uint256","internalType":"uint256"}],"outputs":[{"name":"","type":"bool","internalType":"bool"}],"stateMutability":"view"},{"type":"function","name":"mintSBT","inputs":[{"name":"_to","type":"address","internalType":"address"},{"name":"_tokenURI","type":"string","internalType":"string"}],"outputs":[{"name":"","type":"uint256","internalType":"uint256"}],"stateMutability":"nonpayable"},{"type":"function","name":"name","inputs":[],"outputs":[{"name":"","type":"string","internalType":"string"}],"stateMutability":"view"},{"type":"function","name":"owner","inputs":[],"outputs":[{"name":"","type":"address","internalType":"address"}],"stateMutability":"view"},{"type":"function","name":"ownerOf","inputs":[{"name":"tokenId","type":"uint256","internalType":"uint256"}],"outputs":[{"name":"","type":"address","internalType":"address"}],"stateMutability":"view"},{"type":"function","name":"premiumMerchContract","inputs":[],"outputs":[{"name":"","type":"address","internalType":"address"}],"stateMutability":"view"},{"type":"function","name":"renounceOwnership","inputs":[],"outputs":[],"stateMutability":"nonpayable"},{"type":"function","name":"safeTransferFrom","inputs":[{"name":"from","type":"address","internalType":"address"},{"name":"to","type":"address","internalType":"address"},{"name":"tokenId","type":"uint256","internalType":"uint256"}],"outputs":[],"stateMutability":"nonpayable"},{"type":"function","name":"safeTransferFrom","inputs":[{"name":"from","type":"address","internalType":"address"},{"name":"to","type":"address","internalType":"address"},{"name":"tokenId","type":"uint256","internalType":"uint256"},{"name":"data","type":"bytes","internalType":"bytes"}],"outputs":[],"stateMutability":"nonpayable"},{"type":"function","name":"setApprovalForAll","inputs":[{"name":"operator","type":"address","internalType":"address"},{"name":"approved","type":"bool","internalType":"bool"}],"outputs":[],"stateMutability":"nonpayable"},{"type":"function","name":"setBaseURI","inputs":[{"name":"baseURI","type":"string","internalType":"string"}],"outputs":[],"stateMutability":"nonpayable"},{"type":"function","name":"setPremiumContract","inputs":[{"name":"_premiumContract","type":"address","internalType":"address"}],"outputs":[],"stateMutability":"nonpayable"},{"type":"function","name":"setWhitelistedMinter","inputs":[{"name":"_minter","type":"address","internalType":"address"},{"name":"_status","type":"bool","internalType":"bool"}],"outputs":[],"stateMutability":"nonpayable"},{"type":"function","name":"supportsInterface","inputs":[{"name":"interfaceId","type":"bytes4","internalType":"bytes4"}],"outputs":[{"name":"","type":"bool","internalType":"bool"}],"stateMutability":"view"},{"type":"function","name":"symbol","inputs":[],"outputs":[{"name":"","type":"string","internalType":"string"}],"stateMutability":"view"},{"type":"function","name":"tokenURI","inputs":[{"name":"tokenId","type":"uint256","internalType":"uint256"}],"outputs":[{"name":"","type":"string","internalType":"string"}],"stateMutability":"view"},{"type":"function","name":"transferFrom","inputs":[{"name":"from","type":"address","internalType":"address"},{"name":"to","type":"address","internalType":"address"},{"name":"tokenId","type":"uint256","internalType":"uint256"}],"outputs":[],"stateMutability":"nonpayable"},{"type":"function","name":"transferOwnership","inputs":[{"name":"newOwner","type":"address","internalType":"address"}],"outputs":[],"stateMutability":"nonpayable"},{"type":"function","name":"whitelistedMinters","inputs":[{"name":"","type":"address","internalType":"address"}],"outputs":[{"name":"","type":"bool","internalType":"bool"}],"stateMutability":"view"},{"type":"event","name":"Approval","inputs":[{"name":"owner","type":"address","indexed":true,"internalType":"address"},{"name":"approved","type":"address","indexed":true,"internalType":"address"},{"name":"tokenId","type":"uint256","indexed":true,"internalType":"uint256"}],"anonymous":false},{"type":"event","name":"ApprovalForAll","inputs":[{"name":"owner","type":"address","indexed":true,"internalType":"address"},{"name":"operator","type":"address","indexed":true,"internalType":"address"},{"name":"approved","type":"bool","indexed":false,"internalType":"bool"}],"anonymous":false},{"type":"event","name":"MinterWhitelisted","inputs":[{"name":"minter","type":"address","indexed":true,"internalType":"address"},{"name":"status","type":"bool","indexed":false,"internalType":"bool"}],"anonymous":false},{"type":"event","name":"OwnershipTransferred","inputs":[{"name":"previousOwner","type":"address","indexed":true,"internalType":"address"},{"name":"newOwner","type":"address","indexed":true,"internalType":"address"}],"anonymous":false},{"type":"event","name":"PremiumContractSet","inputs":[{"name":"premiumContract","type":"address","indexed":true,"internalType":"address"}],"anonymous":false},{"type":"event","name":"SBTBurned","inputs":[{"name":"tokenId","type":"uint256","indexed":true,"internalType":"uint256"}],"anonymous":false},{"type":"event","name":"SBTMinted","inputs":[{"name":"to","type":"address","indexed":true,"internalType":"address"},{"name":"tokenId","type":"uint256","indexed":true,"internalType":"uint256"},{"name":"tokenURI","type":"string","indexed":false,"internalType":"string"}],"anonymous":false},{"type":"event","name":"Transfer","inputs":[{"name":"from","type":"address","indexed":true,"internalType":"address"},{"name":"to","type":"address","indexed":true,"internalType":"address"},{"name":"tokenId","type":"uint256","indexed":true,"internalType":"uint256"}],"anonymous":false},{"type":"error","name":"ERC721IncorrectOwner","inputs":[{"name":"sender","type":"address","internalType":"address"},{"name":"tokenId","type":"uint256","internalType":"uint256"},{"name":"owner","type":"address","internalType":"address"}]},{"type":"error","name":"ERC721InsufficientApproval","inputs":[{"name":"operator","type":"address","internalType":"address"},{"name":"tokenId","type":"uint256","internalType":"uint256"}]},{"type":"error","name":"ERC721InvalidApprover","inputs":[{"name":"approver","type":"address","internalType":"address"}]},{"type":"error","name":"ERC721InvalidOperator","inputs":[{"name":"operator","type":"address","internalType":"address"}]},{"type":"error","name":"ERC721InvalidOwner","inputs":[{"name":"owner","type":"address","internalType":"address"}]},{"type":"error","name":"ERC721InvalidReceiver","inputs":[{"name":"receiver","type":"address","internalType":"address"}]},{"type":"error","name":"ERC721InvalidSender","inputs":[{"name":"sender","type":"address","internalType":"address"}]},{"type":"error","name":"ERC721NonexistentToken","inputs":[{"name":"tokenId","type":"uint256","internalType":"uint256"}]},{"type":"error","name":"NotPremiumContract","inputs":[]},{"type":"error","name":"NotWhitelistedMinter","inputs":[]},{"type":"error","name":"OwnableInvalidOwner","inputs":[{"name":"owner","type":"address","internalType":"address"}]},{"type":"error","name":"OwnableUnauthorizedAccount","inputs":[{"name":"account","type":"address","internalType":"address"}]},{"type":"error","name":"ReentrancyGuardReentrantCall","inputs":[]},{"type":"error","name":"TokenDoesNotExist","inputs":[]},{"type":"error","name":"TransferNotAllowed","inputs":[]}],"bytecode":{"object":"0x608060405234801562000010575f80fd5b5060405162001b3038038062001b308339810160408190526200003391620001ab565b3382825f6200004383826200029d565b5060016200005282826200029d565b5050506001600160a01b0381166200008357604051631e4fbdf760e01b81525f600482015260240160405180910390fd5b6200008e816200009c565b505060016007555062000365565b600680546001600160a01b038381166001600160a01b0319831681179093556040519116919082907f8be0079c531659141344cd1fd0a4f28419497f9722a3daafe3b4186f6b6457e0905f90a35050565b634e487b7160e01b5f52604160045260245ffd5b5f82601f83011262000111575f80fd5b81516001600160401b03808211156200012e576200012e620000ed565b604051601f8301601f19908116603f01168101908282118183101715620001595762000159620000ed565b8160405283815260209250868385880101111562000175575f80fd5b5f91505b8382101562000198578582018301518183018401529082019062000179565b5f93810190920192909252949350505050565b5f8060408385031215620001bd575f80fd5b82516001600160401b0380821115620001d4575f80fd5b620001e28683870162000101565b93506020850151915080821115620001f8575f80fd5b50620002078582860162000101565b9150509250929050565b600181811c908216806200022657607f821691505b6020821081036200024557634e487b7160e01b5f52602260045260245ffd5b50919050565b601f82111562000298575f81815260208120601f850160051c81016020861015620002735750805b601f850160051c820191505b8181101562000294578281556001016200027f565b5050505b505050565b81516001600160401b03811115620002b957620002b9620000ed565b620002d181620002ca845462000211565b846200024b565b602080601f83116001811462000307575f8415620002ef5750858301515b5f19600386901b1c1916600185901b17855562000294565b5f85815260208120601f198616915b82811015620003375788860151825594840194600190910190840162000316565b50858210156200035557878501515f19600388901b60f8161c191681555b5050505050600190811b01905550565b6117bd80620003735f395ff3fe608060405234801561000f575f80fd5b506004361061016d575f3560e01c806370a08231116100d9578063a22cb46511610093578063e985e9c51161006e578063e985e9c514610318578063ed1e00851461032b578063f2fde38b1461034d578063f76c5f8214610360575f80fd5b8063a22cb465146102df578063b88d4fde146102f2578063c87b56dd14610305575f80fd5b806370a0823114610285578063715018a614610298578063816fc934146102a05780638da5cb5b146102b35780639373f9ac146102c457806395d89b41146102d7575f80fd5b806330ce560e1161012a57806330ce560e1461021457806342842e0e14610227578063430c20811461023a57806355f804b31461024d57806356189236146102605780636352211e14610272575f80fd5b806301ffc9a71461017157806303caa5c31461019957806306fdde03146101ae578063081812fc146101c3578063095ea7b3146101ee57806323b872dd14610201575b5f80fd5b61018461017f366004611274565b610373565b60405190151581526020015b60405180910390f35b6101ac6101a73660046112aa565b6103c4565b005b6101b661042a565b6040516101909190611330565b6101d66101d1366004611342565b6104b9565b6040516001600160a01b039091168152602001610190565b6101ac6101fc366004611359565b6104e0565b6101ac61020f366004611381565b6104ef565b600b546101d6906001600160a01b031681565b6101ac610235366004611381565b61057d565b610184610248366004611359565b61059c565b6101ac61025b36600461145f565b61061b565b6008545b604051908152602001610190565b6101d6610280366004611342565b61062f565b610264610293366004611491565b610639565b6101ac61067e565b6101ac6102ae366004611491565b610691565b6006546001600160a01b03166101d6565b6102646102d23660046114aa565b6106e2565b6101b6610837565b6101ac6102ed3660046112aa565b610846565b6101ac6103003660046114f5565b610851565b6101b6610313366004611342565b610868565b61018461032636600461156c565b6108cd565b610184610339366004611491565b600a6020525f908152604090205460ff1681565b6101ac61035b366004611491565b6108fa565b6101ac61036e366004611342565b610937565b5f6001600160e01b031982166380ac58cd60e01b14806103a357506001600160e01b03198216635b5e139f60e01b145b806103be57506301ffc9a760e01b6001600160e01b03198316145b92915050565b6103cc6109d9565b6001600160a01b0382165f818152600a6020908152604091829020805460ff191685151590811790915591519182527f50a0602d05c3e0b1b0b3cd6186c78520aa5401c0cf58629748b910c6b490011b910160405180910390a25050565b60605f80546104389061159d565b80601f01602080910402602001604051908101604052809291908181526020018280546104649061159d565b80156104af5780601f10610486576101008083540402835291602001916104af565b820191905f5260205f20905b81548152906001019060200180831161049257829003601f168201915b5050505050905090565b5f6104c382610a06565b505f828152600460205260409020546001600160a01b03166103be565b6104eb828233610a3e565b5050565b6001600160a01b03821661051d57604051633250574960e11b81525f60048201526024015b60405180910390fd5b5f610529838333610a4b565b9050836001600160a01b0316816001600160a01b031614610577576040516364283d7b60e01b81526001600160a01b0380861660048301526024820184905282166044820152606401610514565b50505050565b61059783838360405180602001604052805f815250610851565b505050565b5f818152600260205260408120546001600160a01b03166105be57505f6103be565b5f6105c88361062f565b9050806001600160a01b0316846001600160a01b031614806105ef57506105ef81856108cd565b806106135750836001600160a01b0316610608846104b9565b6001600160a01b0316145b949350505050565b6106236109d9565b60096104eb8282611622565b5f6103be82610a06565b5f6001600160a01b038216610663576040516322718ad960e21b81525f6004820152602401610514565b506001600160a01b03165f9081526003602052604090205490565b6106866109d9565b61068f5f610ac4565b565b6106996109d9565b600b80546001600160a01b0319166001600160a01b0383169081179091556040517fca0fed83c3c8a3cb877849541ff74d2605d72f236d5fe0a7aeaa656f2a95b51f905f90a250565b335f908152600a602052604081205460ff166107115760405163cd03ccc560e01b815260040160405180910390fd5b610719610b15565b6001600160a01b03831661076f5760405162461bcd60e51b815260206004820152601b60248201527f43616e6e6f74206d696e7420746f207a65726f206164647265737300000000006044820152606401610514565b5f8251116107bf5760405162461bcd60e51b815260206004820152601960248201527f546f6b656e205552492063616e6e6f7420626520656d707479000000000000006044820152606401610514565b600880549081905f6107d0836116de565b91905055506107df8482610b3f565b6107e98184610b58565b80846001600160a01b03167f4b9ad712e7eaa8cc24efaf239a9107a8e27385fb66e301d70c4f0d5747bde653856040516108239190611330565b60405180910390a390506103be6001600755565b6060600180546104389061159d565b6104eb338383610bbb565b61085c8484846104ef565b61057784848484610c59565b606061087382610a06565b505f61087d610d7f565b90505f81511161089b5760405180602001604052805f8152506108c6565b806108a584610d8e565b6040516020016108b6929190611702565b6040516020818303038152906040525b9392505050565b6001600160a01b039182165f90815260056020908152604080832093909416825291909152205460ff1690565b6109026109d9565b6001600160a01b03811661092b57604051631e4fbdf760e01b81525f6004820152602401610514565b61093481610ac4565b50565b600b546001600160a01b0316331461096257604051631975886960e11b815260040160405180910390fd5b5f818152600260205260409020546001600160a01b03166109965760405163677510db60e11b815260040160405180910390fd5b5f6109a08261062f565b90506109ab82610e1e565b60405182907fb234f5849d339153986e37530bf2980d0e4acf8b931f72eb3536dba83c8bb7f3905f90a25050565b6006546001600160a01b0316331461068f5760405163118cdaa760e01b8152336004820152602401610514565b5f818152600260205260408120546001600160a01b0316806103be57604051637e27328960e01b815260048101849052602401610514565b6105978383836001610e56565b5f828152600260205260408120546001600160a01b031680610a7a57610a72858585610f5a565b9150506108c6565b6001600160a01b038516158015610a9b5750600b546001600160a01b031633145b15610aab57610a72858585610f5a565b604051638cd22d1960e01b815260040160405180910390fd5b600680546001600160a01b038381166001600160a01b0319831681179093556040519116919082907f8be0079c531659141344cd1fd0a4f28419497f9722a3daafe3b4186f6b6457e0905f90a35050565b600260075403610b3857604051633ee5aeb560e01b815260040160405180910390fd5b6002600755565b6104eb828260405180602001604052805f81525061104c565b5f828152600260205260409020546001600160a01b03166104eb5760405162461bcd60e51b815260206004820152601c60248201527f55524920736574206f66206e6f6e6578697374656e7420746f6b656e000000006044820152606401610514565b6001600160a01b038216610bed57604051630b61174360e31b81526001600160a01b0383166004820152602401610514565b6001600160a01b038381165f81815260056020908152604080832094871680845294825291829020805460ff191686151590811790915591519182527f17307eab39ab6107e8899845ad3d59bd9653f200f220920489ca2b5937696c31910160405180910390a3505050565b6001600160a01b0383163b1561057757604051630a85bd0160e11b81526001600160a01b0384169063150b7a0290610c9b903390889087908790600401611730565b6020604051808303815f875af1925050508015610cd5575060408051601f3d908101601f19168201909252610cd29181019061176c565b60015b610d3c573d808015610d02576040519150601f19603f3d011682016040523d82523d5f602084013e610d07565b606091505b5080515f03610d3457604051633250574960e11b81526001600160a01b0385166004820152602401610514565b805181602001fd5b6001600160e01b03198116630a85bd0160e11b14610d7857604051633250574960e11b81526001600160a01b0385166004820152602401610514565b5050505050565b6060600980546104389061159d565b60605f610d9a83611062565b60010190505f8167ffffffffffffffff811115610db957610db96113ba565b6040519080825280601f01601f191660200182016040528015610de3576020820181803683370190505b5090508181016020015b5f19016f181899199a1a9b1b9c1cb0b131b232b360811b600a86061a8153600a8504945084610ded57509392505050565b5f610e2a5f835f610a4b565b90506001600160a01b0381166104eb57604051637e27328960e01b815260048101839052602401610514565b8080610e6a57506001600160a01b03821615155b15610f2b575f610e7984610a06565b90506001600160a01b03831615801590610ea55750826001600160a01b0316816001600160a01b031614155b8015610eb85750610eb681846108cd565b155b15610ee15760405163a9fbf51f60e01b81526001600160a01b0384166004820152602401610514565b8115610f295783856001600160a01b0316826001600160a01b03167f8c5be1e5ebec7d5bd14f71427d1e84f3dd0314c0f7b2291e5b200ac8c7c3b92560405160405180910390a45b505b50505f90815260046020526040902080546001600160a01b0319166001600160a01b0392909216919091179055565b5f828152600260205260408120546001600160a01b0390811690831615610f8657610f86818486611139565b6001600160a01b03811615610fc057610fa15f855f80610e56565b6001600160a01b0381165f90815260036020526040902080545f190190555b6001600160a01b03851615610fee576001600160a01b0385165f908152600360205260409020805460010190555b5f8481526002602052604080822080546001600160a01b0319166001600160a01b0389811691821790925591518793918516917fddf252ad1be2c89b69c2b068fc378daa952ba7f163c4a11628f55a4df523b3ef91a4949350505050565b611056838361119d565b6105975f848484610c59565b5f8072184f03e93ff9f4daa797ed6e38ed64bf6a1f0160401b83106110a05772184f03e93ff9f4daa797ed6e38ed64bf6a1f0160401b830492506040015b6d04ee2d6d415b85acef810000000083106110cc576d04ee2d6d415b85acef8100000000830492506020015b662386f26fc1000083106110ea57662386f26fc10000830492506010015b6305f5e1008310611102576305f5e100830492506008015b612710831061111657612710830492506004015b60648310611128576064830492506002015b600a83106103be5760010192915050565b6111448383836111fe565b610597576001600160a01b03831661117257604051637e27328960e01b815260048101829052602401610514565b60405163177e802f60e01b81526001600160a01b038316600482015260248101829052604401610514565b6001600160a01b0382166111c657604051633250574960e11b81525f6004820152602401610514565b5f6111d283835f610a4b565b90506001600160a01b03811615610597576040516339e3563760e11b81525f6004820152602401610514565b5f6001600160a01b038316158015906106135750826001600160a01b0316846001600160a01b03161480611237575061123784846108cd565b806106135750505f908152600460205260409020546001600160a01b03918216911614919050565b6001600160e01b031981168114610934575f80fd5b5f60208284031215611284575f80fd5b81356108c68161125f565b80356001600160a01b03811681146112a5575f80fd5b919050565b5f80604083850312156112bb575f80fd5b6112c48361128f565b9150602083013580151581146112d8575f80fd5b809150509250929050565b5f5b838110156112fd5781810151838201526020016112e5565b50505f910152565b5f815180845261131c8160208601602086016112e3565b601f01601f19169290920160200192915050565b602081525f6108c66020830184611305565b5f60208284031215611352575f80fd5b5035919050565b5f806040838503121561136a575f80fd5b6113738361128f565b946020939093013593505050565b5f805f60608486031215611393575f80fd5b61139c8461128f565b92506113aa6020850161128f565b9150604084013590509250925092565b634e487b7160e01b5f52604160045260245ffd5b5f67ffffffffffffffff808411156113e8576113e86113ba565b604051601f8501601f19908116603f01168101908282118183101715611410576114106113ba565b81604052809350858152868686011115611428575f80fd5b858560208301375f602087830101525050509392505050565b5f82601f830112611450575f80fd5b6108c6838335602085016113ce565b5f6020828403121561146f575f80fd5b813567ffffffffffffffff811115611485575f80fd5b61061384828501611441565b5f602082840312156114a1575f80fd5b6108c68261128f565b5f80604083850312156114bb575f80fd5b6114c48361128f565b9150602083013567ffffffffffffffff8111156114df575f80fd5b6114eb85828601611441565b9150509250929050565b5f805f8060808587031215611508575f80fd5b6115118561128f565b935061151f6020860161128f565b925060408501359150606085013567ffffffffffffffff811115611541575f80fd5b8501601f81018713611551575f80fd5b611560878235602084016113ce565b91505092959194509250565b5f806040838503121561157d575f80fd5b6115868361128f565b91506115946020840161128f565b90509250929050565b600181811c908216806115b157607f821691505b6020821081036115cf57634e487b7160e01b5f52602260045260245ffd5b50919050565b601f821115610597575f81815260208120601f850160051c810160208610156115fb5750805b601f850160051c820191505b8181101561161a57828155600101611607565b505050505050565b815167ffffffffffffffff81111561163c5761163c6113ba565b6116508161164a845461159d565b846115d5565b602080601f831160018114611683575f841561166c5750858301515b5f19600386901b1c1916600185901b17855561161a565b5f85815260208120601f198616915b828110156116b157888601518255948401946001909101908401611692565b50858210156116ce57878501515f19600388901b60f8161c191681555b5050505050600190811b01905550565b5f600182016116fb57634e487b7160e01b5f52601160045260245ffd5b5060010190565b5f83516117138184602088016112e3565b8351908301906117278183602088016112e3565b01949350505050565b6001600160a01b03858116825284166020820152604081018390526080606082018190525f9061176290830184611305565b9695505050505050565b5f6020828403121561177c575f80fd5b81516108c68161125f56fea264697066735822122074c43e7e0ab95791d97a72418ecac7843871d06aa5de3615235c99cdb6a1655764736f6c63430008140033","linkReferences":{}},"methodIdentifiers":{"approve(address,uint256)":"095ea7b3","balanceOf(address)":"70a08231","burnSBT(uint256)":"f76c5f82","getApproved(uint256)":"081812fc","getCurrentTokenId()":"56189236","isApprovedForAll(address,address)":"e985e9c5","isApprovedOrOwner(address,uint256)":"430c2081","mintSBT(address,string)":"9373f9ac","name()":"06fdde03","owner()":"8da5cb5b","ownerOf(uint256)":"6352211e","premiumMerchContract()":"30ce560e","renounceOwnership()":"715018a6","safeTransferFrom(address,address,uint256)":"42842e0e","safeTransferFrom(address,address,uint256,bytes)":"b88d4fde","setApprovalForAll(address,bool)":"a22cb465","setBaseURI(string)":"55f804b3","setPremiumContract(address)":"816fc934","setWhitelistedMinter(address,bool)":"03caa5c3","supportsInterface(bytes4)":"01ffc9a7","symbol()":"95d89b41","tokenURI(uint256)":"c87b56dd","transferFrom(address,address,uint256)":"23b872dd","transferOwnership(address)":"f2fde38b","whitelistedMinters(address)":"ed1e0085"},"id":30}