{"abi":[{"type":"constructor","inputs":[{"name":"name","type":"string","internalType":"string"},{"name":"symbol","type":"string","internalType":"string"}],"stateMutability":"nonpayable"},{"type":"function","name":"approve","inputs":[{"name":"to","type":"address","internalType":"address"},{"name":"tokenId","type":"uint256","internalType":"uint256"}],"outputs":[],"stateMutability":"nonpayable"},{"type":"function","name":"backendIssuer","inputs":[],"outputs":[{"name":"","type":"address","internalType":"address"}],"stateMutability":"view"},{"type":"function","name":"balanceOf","inputs":[{"name":"owner","type":"address","internalType":"address"}],"outputs":[{"name":"","type":"uint256","internalType":"uint256"}],"stateMutability":"view"},{"type":"function","name":"getApproved","inputs":[{"name":"tokenId","type":"uint256","internalType":"uint256"}],"outputs":[{"name":"","type":"address","internalType":"address"}],"stateMutability":"view"},{"type":"function","name":"getCurrentTokenId","inputs":[],"outputs":[{"name":"","type":"uint256","internalType":"uint256"}],"stateMutability":"view"},{"type":"function","name":"getEventIdByToken","inputs":[{"name":"_tokenId","type":"uint256","internalType":"uint256"}],"outputs":[{"name":"","type":"uint256","internalType":"uint256"}],"stateMutability":"view"},{"type":"function","name":"getSBTByEvent","inputs":[{"name":"_owner","type":"address","internalType":"address"},{"name":"_eventId","type":"uint256","internalType":"uint256"}],"outputs":[{"name":"","type":"uint256","internalType":"uint256"}],"stateMutability":"view"},{"type":"function","name":"isApprovedForAll","inputs":[{"name":"owner","type":"address","internalType":"address"},{"name":"operator","type":"address","internalType":"address"}],"outputs":[{"name":"","type":"bool","internalType":"bool"}],"stateMutability":"view"},{"type":"function","name":"isApprovedOrOwner","inputs":[{"name":"_spender","type":"address","internalType":"address"},{"name":"_tokenId","type":"uint256","internalType":"uint256"}],"outputs":[{"name":"","type":"bool","internalType":"bool"}],"stateMutability":"view"},{"type":"function","name":"mintSBT","inputs":[{"name":"_to","type":"address","internalType":"address"},{"name":"_eventId","type":"uint256","internalType":"uint256"},{"name":"_tokenURI","type":"string","internalType":"string"},{"name":"_signature","type":"bytes","internalType":"bytes"}],"outputs":[{"name":"","type":"uint256","internalType":"uint256"}],"stateMutability":"nonpayable"},{"type":"function","name":"name","inputs":[],"outputs":[{"name":"","type":"string","internalType":"string"}],"stateMutability":"view"},{"type":"function","name":"owner","inputs":[],"outputs":[{"name":"","type":"address","internalType":"address"}],"stateMutability":"view"},{"type":"function","name":"ownerOf","inputs":[{"name":"tokenId","type":"uint256","internalType":"uint256"}],"outputs":[{"name":"","type":"address","internalType":"address"}],"stateMutability":"view"},{"type":"function","name":"renounceOwnership","inputs":[],"outputs":[],"stateMutability":"nonpayable"},{"type":"function","name":"safeTransferFrom","inputs":[{"name":"from","type":"address","internalType":"address"},{"name":"to","type":"address","internalType":"address"},{"name":"tokenId","type":"uint256","internalType":"uint256"}],"outputs":[],"stateMutability":"nonpayable"},{"type":"function","name":"safeTransferFrom","inputs":[{"name":"from","type":"address","internalType":"address"},{"name":"to","type":"address","internalType":"address"},{"name":"tokenId","type":"uint256","internalType":"uint256"},{"name":"data","type":"bytes","internalType":"bytes"}],"outputs":[],"stateMutability":"nonpayable"},{"type":"function","name":"setApprovalForAll","inputs":[{"name":"operator","type":"address","internalType":"address"},{"name":"approved","type":"bool","internalType":"bool"}],"outputs":[],"stateMutability":"nonpayable"},{"type":"function","name":"setBackendIssuer","inputs":[{"name":"_issuer","type":"address","internalType":"address"}],"outputs":[],"stateMutability":"nonpayable"},{"type":"function","name":"setBaseURI","inputs":[{"name":"baseURI","type":"string","internalType":"string"}],"outputs":[],"stateMutability":"nonpayable"},{"type":"function","name":"supportsInterface","inputs":[{"name":"interfaceId","type":"bytes4","internalType":"bytes4"}],"outputs":[{"name":"","type":"bool","internalType":"bool"}],"stateMutability":"view"},{"type":"function","name":"symbol","inputs":[],"outputs":[{"name":"","type":"string","internalType":"string"}],"stateMutability":"view"},{"type":"function","name":"tokenIdToEventId","inputs":[{"name":"","type":"uint256","internalType":"uint256"}],"outputs":[{"name":"","type":"uint256","internalType":"uint256"}],"stateMutability":"view"},{"type":"function","name":"tokenURI","inputs":[{"name":"tokenId","type":"uint256","internalType":"uint256"}],"outputs":[{"name":"","type":"string","internalType":"string"}],"stateMutability":"view"},{"type":"function","name":"transferFrom","inputs":[{"name":"from","type":"address","internalType":"address"},{"name":"to","type":"address","internalType":"address"},{"name":"tokenId","type":"uint256","internalType":"uint256"}],"outputs":[],"stateMutability":"nonpayable"},{"type":"function","name":"transferOwnership","inputs":[{"name":"newOwner","type":"address","internalType":"address"}],"outputs":[],"stateMutability":"nonpayable"},{"type":"function","name":"userEventToTokenId","inputs":[{"name":"","type":"address","internalType":"address"},{"name":"","type":"uint256","internalType":"uint256"}],"outputs":[{"name":"","type":"uint256","internalType":"uint256"}],"stateMutability":"view"},{"type":"event","name":"Approval","inputs":[{"name":"owner","type":"address","indexed":true,"internalType":"address"},{"name":"approved","type":"address","indexed":true,"internalType":"address"},{"name":"tokenId","type":"uint256","indexed":true,"internalType":"uint256"}],"anonymous":false},{"type":"event","name":"ApprovalForAll","inputs":[{"name":"owner","type":"address","indexed":true,"internalType":"address"},{"name":"operator","type":"address","indexed":true,"internalType":"address"},{"name":"approved","type":"bool","indexed":false,"internalType":"bool"}],"anonymous":false},{"type":"event","name":"BackendIssuerSet","inputs":[{"name":"issuer","type":"address","indexed":true,"internalType":"address"}],"anonymous":false},{"type":"event","name":"BaseURISet","inputs":[{"name":"newBaseURI","type":"string","indexed":false,"internalType":"string"}],"anonymous":false},{"type":"event","name":"OwnershipTransferred","inputs":[{"name":"previousOwner","type":"address","indexed":true,"internalType":"address"},{"name":"newOwner","type":"address","indexed":true,"internalType":"address"}],"anonymous":false},{"type":"event","name":"SBTMinted","inputs":[{"name":"to","type":"address","indexed":true,"internalType":"address"},{"name":"tokenId","type":"uint256","indexed":true,"internalType":"uint256"},{"name":"eventId","type":"uint256","indexed":true,"internalType":"uint256"},{"name":"tokenURI","type":"string","indexed":false,"internalType":"string"}],"anonymous":false},{"type":"event","name":"TokenURISet","inputs":[{"name":"tokenId","type":"uint256","indexed":true,"internalType":"uint256"},{"name":"tokenURI","type":"string","indexed":false,"internalType":"string"}],"anonymous":false},{"type":"event","name":"Transfer","inputs":[{"name":"from","type":"address","indexed":true,"internalType":"address"},{"name":"to","type":"address","indexed":true,"internalType":"address"},{"name":"tokenId","type":"uint256","indexed":true,"internalType":"uint256"}],"anonymous":false},{"type":"error","name":"BackendIssuerNotSet","inputs":[]},{"type":"error","name":"DuplicateEventMint","inputs":[]},{"type":"error","name":"ERC721IncorrectOwner","inputs":[{"name":"sender","type":"address","internalType":"address"},{"name":"tokenId","type":"uint256","internalType":"uint256"},{"name":"owner","type":"address","internalType":"address"}]},{"type":"error","name":"ERC721InsufficientApproval","inputs":[{"name":"operator","type":"address","internalType":"address"},{"name":"tokenId","type":"uint256","internalType":"uint256"}]},{"type":"error","name":"ERC721InvalidApprover","inputs":[{"name":"approver","type":"address","internalType":"address"}]},{"type":"error","name":"ERC721InvalidOperator","inputs":[{"name":"operator","type":"address","internalType":"address"}]},{"type":"error","name":"ERC721InvalidOwner","inputs":[{"name":"owner","type":"address","internalType":"address"}]},{"type":"error","name":"ERC721InvalidReceiver","inputs":[{"name":"receiver","type":"address","internalType":"address"}]},{"type":"error","name":"ERC721InvalidSender","inputs":[{"name":"sender","type":"address","internalType":"address"}]},{"type":"error","name":"ERC721NonexistentToken","inputs":[{"name":"tokenId","type":"uint256","internalType":"uint256"}]},{"type":"error","name":"EmptyTokenURI","inputs":[]},{"type":"error","name":"InvalidAddress","inputs":[]},{"type":"error","name":"InvalidEventId","inputs":[]},{"type":"error","name":"InvalidSignature","inputs":[]},{"type":"error","name":"OwnableInvalidOwner","inputs":[{"name":"owner","type":"address","internalType":"address"}]},{"type":"error","name":"OwnableUnauthorizedAccount","inputs":[{"name":"account","type":"address","internalType":"address"}]},{"type":"error","name":"ReentrancyGuardReentrantCall","inputs":[]},{"type":"error","name":"TokenDoesNotExist","inputs":[]},{"type":"error","name":"TransferNotAllowed","inputs":[]}],"bytecode":{"object":"0x608060405234620003835762002145803803806200001d8162000387565b9283398101604082820312620003835781516001600160401b0392908381116200038357826200004f918301620003ad565b906020928382015185811162000383576200006b9201620003ad565b9281518181116200036f575f938454916001948584811c9416801562000364575b8385101462000350578190601f94858111620002fd575b5083908583116001146200029a5788926200028e575b50505f19600383901b1c191690851b1785555b85519283116200027a5783548481811c911680156200026f575b828210146200025b5782811162000213575b5080918311600114620001ae5750839482939492620001a2575b50505f19600383901b1c191690821b1781555b3315620001895760068054336001600160a01b031982168117909255604051936001600160a01b03909116907f8be0079c531659141344cd1fd0a4f28419497f9722a3daafe3b4186f6b6457e09080a380600755600855611d2790816200041e8239f35b604051631e4fbdf760e01b815260048101839052602490fd5b015190505f8062000112565b90601f198316958486528286209286905b888210620001fb5750508385969710620001e2575b505050811b01815562000125565b01515f1960f88460031b161c191690555f8080620001d4565b808785968294968601518155019501930190620001bf565b8486528186208380860160051c82019284871062000251575b0160051c019085905b82811062000245575050620000f8565b87815501859062000235565b925081926200022c565b634e487b7160e01b86526022600452602486fd5b90607f1690620000e6565b634e487b7160e01b85526041600452602485fd5b015190505f80620000b9565b8880528489208894509190601f1984168a5b87828210620002e65750508411620002cd575b505050811b018555620000cc565b01515f1960f88460031b161c191690555f8080620002bf565b8385015186558b97909501949384019301620002ac565b9091508780528388208580850160051c82019286861062000346575b918991869594930160051c01915b82811062000337575050620000a3565b8a815585945089910162000327565b9250819262000319565b634e487b7160e01b87526022600452602487fd5b93607f16936200008c565b634e487b7160e01b5f52604160045260245ffd5b5f80fd5b6040519190601f01601f191682016001600160401b038111838210176200036f57604052565b919080601f84011215620003835782516001600160401b0381116200036f57602090620003e3601f8201601f1916830162000387565b9281845282828701011162000383575f5b818110620004095750825f9394955001015290565b8581018301518482018401528201620003f456fe60806040526004361015610011575f80fd5b5f3560e01c806301ffc9a7146101aa57806306fdde03146101a5578063081812fc146101a0578063095ea7b31461019b57806321244a4e1461019657806323b872dd1461019157806342842e0e1461018c578063430c20811461018757806355f804b314610182578063561892361461017d5780636352211e1461017857806370a08231146101735780637132221314610164578063715018a61461016e5780638da5cb5b14610169578063953fd8cf1461016457806395d89b411461015f578063a22cb4651461015a578063b88d4fde14610155578063c57b90e614610150578063c87b56dd1461014b578063c8e6267214610146578063e8abb65314610146578063e985e9c514610141578063f2fde38b1461013c5763fcd7a9d814610137575f80fd5b610e7b565b610def565b610d93565b610d4f565b610d1c565b610b09565b610ab4565b6109f7565b610953565b6108a4565b61092b565b6108ce565b61084e565b610830565b610813565b6106a8565b6105be565b61058c565b610575565b6104c6565b6103cb565b61036f565b61028d565b6101c5565b6001600160e01b03198116036101c157565b5f80fd5b346101c15760203660031901126101c15760206004356101e4816101af565b63ffffffff60e01b166380ac58cd60e01b8114908115610222575b8115610211575b506040519015158152f35b6301ffc9a760e01b1490505f610206565b635b5e139f60e01b811491506101ff565b5f5b8381106102445750505f910152565b8181015183820152602001610235565b9060209161026d81518092818552858086019101610233565b601f01601f1916010190565b90602061028a928181520190610254565b90565b346101c1575f8060031936011261036c57604051908080546102ae81610ecf565b8085529160019180831690811561034257506001146102e8575b6102e4856102d881870382610624565b60405191829182610279565b0390f35b80809450527f290decd9548b62a8d60345a988386fc84ba6bc95484008f6362f93160ef3e5635b82841061032a5750505081016020016102d8826102e46102c8565b8054602085870181019190915290930192810161030f565b8695506102e4969350602092506102d894915060ff191682840152151560051b82010192936102c8565b80fd5b346101c15760203660031901126101c157602061038d600435610fc3565b6040516001600160a01b039091168152f35b600435906001600160a01b03821682036101c157565b602435906001600160a01b03821682036101c157565b346101c15760403660031901126101c1576103e461039f565b602435906103f182611075565b331515806104b3575b80610486575b61046e5761046c9261044d9181906001600160a01b0385811691167f8c5be1e5ebec7d5bd14f71427d1e84f3dd0314c0f7b2291e5b200ac8c7c3b9255f80a45f52600460205260405f2090565b80546001600160a01b0319166001600160a01b03909216919091179055565b005b60405163a9fbf51f60e01b8152336004820152602490fd5b506001600160a01b0381165f90815260056020908152604080832033845290915290205460ff1615610400565b506001600160a01b0381163314156103fa565b346101c15760203660031901126101c1576104df61039f565b6104e7610ea3565b6001600160a01b0316801561052e57600b80546001600160a01b031916821790557f47f31e3825b5c0054894adc1d6aeab70b7b8c023112e61615901dd9df63659215f80a2005b60405163e6c4247b60e01b8152600490fd5b60609060031901126101c1576001600160a01b039060043582811681036101c1579160243590811681036101c1579060443590565b346101c15761046c61058636610540565b91610fe7565b346101c15761046c61059d36610540565b90604051926105ab84610603565b5f84526105b9838383610fe7565b611159565b346101c15760403660031901126101c15760206105e56105dc61039f565b60243590611555565b6040519015158152f35b634e487b7160e01b5f52604160045260245ffd5b6020810190811067ffffffffffffffff82111761061f57604052565b6105ef565b90601f8019910116810190811067ffffffffffffffff82111761061f57604052565b67ffffffffffffffff811161061f57601f01601f191660200190565b81601f820112156101c15780359061067982610646565b926106876040519485610624565b828452602083830101116101c157815f926020809301838601378301015290565b346101c1576020806003193601126101c15767ffffffffffffffff6004358181116101c1576106db903690600401610662565b916106e4610ea3565b825191821161061f57610701826106fc600954610ecf565b61183e565b80601f831160011461076c5750918161075c927ff9c7803e94e0d3c02900d8a90893a6d5e90dd04d32a4cfe825520f82bf9f32f6945f91610761575b508160011b915f199060031b1c19161760095560405191829182610279565b0390a1005b90508201515f61073d565b60095f5290601f1983167f6e1540171b6c0c960b71a7020d9f60077f6af931a8bbf590da0223dacf75c7af925f905b8282106107fb575050927ff9c7803e94e0d3c02900d8a90893a6d5e90dd04d32a4cfe825520f82bf9f32f694926001928261075c96106107e3575b5050811b016009556102d8565b8401515f1960f88460031b161c191690555f806107d6565b80600185968294968a0151815501950193019061079b565b346101c1575f3660031901126101c1576020600854604051908152f35b346101c15760203660031901126101c157602061038d600435611075565b346101c15760203660031901126101c1576001600160a01b0361086f61039f565b16801561088c575f526003602052602060405f2054604051908152f35b6040516322718ad960e21b81525f6004820152602490fd5b346101c15760203660031901126101c1576004355f52600d602052602060405f2054604051908152f35b346101c1575f8060031936011261036c576108e7610ea3565b600680546001600160a01b0319811690915581906001600160a01b03167f8be0079c531659141344cd1fd0a4f28419497f9722a3daafe3b4186f6b6457e08280a380f35b346101c1575f3660031901126101c1576006546040516001600160a01b039091168152602090f35b346101c1575f8060031936011261036c576040519080600180549161097783610ecf565b80865292828116908115610342575060011461099d576102e4856102d881870382610624565b92508083527fb10e2d527612073b26eecdfd717e6a320cf44b4afac2b0732d9fcbe2b7fa0cf65b8284106109df5750505081016020016102d8826102e46102c8565b805460208587018101919091529093019281016109c4565b346101c15760403660031901126101c157610a1061039f565b6024358015158082036101c1576001600160a01b038316928315610a9b57335f9081526005602090815260408083206001600160a01b039094168352929052209060ff801983541691161790557f17307eab39ab6107e8899845ad3d59bd9653f200f220920489ca2b5937696c3160405180610a96339482919091602081019215159052565b0390a3005b604051630b61174360e31b815260048101859052602490fd5b346101c15760803660031901126101c157610acd61039f565b610ad56103b5565b906044356064359267ffffffffffffffff84116101c157610afd61046c943690600401610662565b926105b9838383610fe7565b346101c15760803660031901126101c157610b2261039f565b6024356044359167ffffffffffffffff908184116101c157610b4960049436908601610662565b916064359081116101c157610b619036908601610662565b93600260075414610d0d5760026007556001600160a01b038216948515610cfd578415610ced57835115610cdd57600b54610bac906001600160a01b03165b6001600160a01b031690565b15610ccd576001600160a01b0383165f908152600c60205260409020610bdc9086905b905f5260205260405f2090565b54610cbd57610bf0610bf49185878661141d565b1590565b610cae57506102e4937fd697557bfbd291e21d94af8fadd74ae38512fc27bee5edc7121e877ee55e4fe3610c918594610bcf94610c706008549889978893610c43610c3e86611265565b600855565b610c4d8582611278565b610c578686611901565b6001600160a01b03165f908152600c6020526040902090565b5585610c84865f52600d60205260405f2090565b5560405191829182610279565b0390a4610c9e6001600755565b6040519081529081906020820190565b604051638baa579f60e01b8152fd5b5060405163417a84cd60e01b8152fd5b50604051632528e3af60e01b8152fd5b506040516317314b6160e01b8152fd5b50604051630c93477d60e41b8152fd5b5060405163e6c4247b60e01b8152fd5b604051633ee5aeb560e01b8152fd5b346101c15760203660031901126101c1576102e4610d3b600435611a60565b604051918291602083526020830190610254565b346101c15760403660031901126101c1576001600160a01b03610d7061039f565b165f52600c60205260405f206024355f52602052602060405f2054604051908152f35b346101c15760403660031901126101c157602060ff610de3610db361039f565b610dbb6103b5565b6001600160a01b039182165f9081526005865260408082209290931681526020919091522090565b54166040519015158152f35b346101c15760203660031901126101c157610e0861039f565b610e10610ea3565b6001600160a01b03908116908115610e6357600654826bffffffffffffffffffffffff60a01b821617600655167f8be0079c531659141344cd1fd0a4f28419497f9722a3daafe3b4186f6b6457e05f80a3005b604051631e4fbdf760e01b81525f6004820152602490fd5b346101c1575f3660031901126101c157600b546040516001600160a01b039091168152602090f35b6006546001600160a01b03163303610eb757565b60405163118cdaa760e01b8152336004820152602490fd5b90600182811c92168015610efd575b6020831014610ee957565b634e487b7160e01b5f52602260045260245ffd5b91607f1691610ede565b604051905f8260095491610f1a83610ecf565b80835292600190818116908115610fa15750600114610f43575b50610f4192500383610624565b565b60095f90815291507f6e1540171b6c0c960b71a7020d9f60077f6af931a8bbf590da0223dacf75c7af5b848310610f865750610f4193505081016020015f610f34565b81935090816020925483858a01015201910190918592610f6d565b905060209250610f4194915060ff191682840152151560051b8201015f610f34565b610fcc81611075565b505f908152600460205260409020546001600160a01b031690565b91906001600160a01b03908181161561103b5761100782918433916116d3565b931692169082820361101857505050565b60649350604051926364283d7b60e01b8452600484015260248301526044820152fd5b604051633250574960e11b81525f6004820152602490fd5b611065905f52600460205260405f2090565b80546001600160a01b0319169055565b5f818152600260205260409020546001600160a01b0316908115611097575090565b60249060405190637e27328960e01b82526004820152fd5b908160209103126101c1575161028a816101af565b61028a939260809260018060a01b031682525f602083015260408201528160608201520190610254565b6001600160a01b03918216815291166020820152604081019190915260806060820181905261028a92910190610254565b6040513d5f823e3d90fd5b3d15611154573d9061113b82610646565b916111496040519384610624565b82523d5f602084013e565b606090565b91929092833b61116a575b50505050565b61118f916020916040519384928392630a85bd0160e11b9788855233600486016110ee565b03815f6001600160a01b0388165af15f9181611221575b506111e557826111b461112a565b80519190826111de57604051633250574960e11b81526001600160a01b0383166004820152602490fd5b9050602001fd5b6001600160e01b031916036111fe57505f808080611164565b604051633250574960e11b81526001600160a01b03919091166004820152602490fd5b61124391925060203d811161124a575b61123b8183610624565b8101906110af565b905f6111a6565b503d611231565b634e487b7160e01b5f52601160045260245ffd5b5f1981146112735760010190565b611251565b604091825161128681610603565b5f81526001600160a01b03838116919082156113a5576112a684866115e9565b1661138e57833b6112b9575b5050505050565b6112e25f926020928798969751948580948193630a85bd0160e11b998a845233600485016110c4565b03925af15f918161136e575b5061132e575050506112fe61112a565b8051929083611327578151633250574960e11b81526001600160a01b0384166004820152602490fd5b8390602001fd5b9193916001600160e01b0319160361134c5750505f808080806112b2565b51633250574960e11b81526001600160a01b0391909116600482015260249150fd5b61138791925060203d811161124a5761123b8183610624565b905f6112ee565b84516339e3563760e11b81525f6004820152602490fd5b8551633250574960e11b81525f6004820152602490fd5b906113cf60209282815194859201610233565b0190565b9091603493926bffffffffffffffffffffffff199060601b16825260148201526114068251809360208685019101610233565b010190565b60ff601b9116019060ff821161127357565b906114326040519384926020840194856113d3565b0391611446601f1993848101835282610624565b51902090611496604051918261148a602082019586603c917f19457468657265756d205369676e6564204d6573736167653a0a3332000000008252601c8201520190565b03908101835282610624565b519020604182510361154f576020915f918291848101519260606040830151920151901a92601b8410611538575b906114ef91604051948594859094939260ff6060936080840197845216602083015260408201520152565b838052039060015afa15611533575f51600b54611514906001600160a01b0316610ba0565b6001600160a01b03909116908114908161152c575090565b9050151590565b61111f565b92906115466114ef9261140b565b939091506114c4565b50505f90565b5f828152600260205260409020546001600160a01b03161561154f576001600160a01b038061158384611075565b1692818316928484149485156115b9575b505083156115a3575b50505090565b6115af91929350610fc3565b16145f808061159d565b5f9081526005602090815260408083206001600160a01b039490941683529290529081205460ff16945080611594565b5f828152600260205260409020546001600160a01b039081169291908315908161161f57604051638cd22d1960e01b8152600490fd5b611644911561168f575b8216918261166c575b61044d845f52600260205260405f2090565b827fddf252ad1be2c89b69c2b068fc378daa952ba7f163c4a11628f55a4df523b3ef5f80a490565b6001600160a01b0381165f90815260036020526040902060018154019055611632565b6116a1845f52600460205260405f2090565b80546001600160a01b03191690556001600160a01b0385165f9081526003602052604090205b80545f19019055611629565b5f828152600260205260409020546001600160a01b03908116939084158061170757604051638cd22d1960e01b8152600490fd5b828583611644951661175a575b505015611735578216918261166c5761044d845f52600260205260405f2090565b61173e84611053565b6001600160a01b0385165f9081526003602052604090206116c7565b611764918861176b565b5f85611714565b6001600160a01b039082821680151590816117d6575b501561178d5750505050565b166117ab57604051637e27328960e01b815260048101839052602490fd5b60405163177e802f60e01b81526001600160a01b039190911660048201526024810191909152604490fd5b8284168082149250821561180c575b5081156117f4575b505f611781565b9050845f5260046020528260405f205416145f6117ed565b9091505f52600560205260ff6118358560405f209060018060a01b03165f5260205260405f2090565b5416905f6117e5565b601f811161184a575050565b5f90600982527f6e1540171b6c0c960b71a7020d9f60077f6af931a8bbf590da0223dacf75c7af906020601f850160051c830194106118a4575b601f0160051c01915b82811061189957505050565b81815560010161188d565b9092508290611884565b90601f81116118bc57505050565b5f91825260208220906020601f850160051c830194106118f7575b601f0160051c01915b8281106118ec57505050565b8181556001016118e0565b90925082906118d7565b5f818152600260205260409020549091906001600160a01b031615611a4e57815f526020600a815260405f209082519067ffffffffffffffff821161061f576119548261194e8554610ecf565b856118ae565b80601f83116001146119bf575091817fda84ca2183491f179a603e877b2cb058e42195041c2b9c53d746427e519a34df94926119af945f916119b4575b508160011b915f199060031b1c191617905560405191829182610279565b0390a2565b90508301515f611991565b90601f1983166119d2855f5260205f2090565b925f905b828210611a36575050926119af9492600192827fda84ca2183491f179a603e877b2cb058e42195041c2b9c53d746427e519a34df989610611a1e575b5050811b0190556102d8565b8501515f1960f88460031b161c191690555f80611a12565b80600185968294968b015181550195019301906119d6565b60405163677510db60e11b8152600490fd5b5f818152600260205260409020546001600160a01b031615611a4e575f90808252602090600a82526040832060405184819590835490611a9f82610ecf565b948585526001928884821691825f14611b5a575050600114611b1e575b505050611acb92500384610624565b611ad3610f07565b92835115611b17578051611b17575090611b09611af261028a93611bb0565b611b036040519586948501906113bc565b906113bc565b03601f198101835282610624565b9250505090565b879350819291528282205b858310611b42575050611acb93508201015f8080611abc565b8054838a018501528894508793909201918101611b29565b935094505050611acb94915060ff191682840152151560051b8201015f8080611abc565b90611b8882610646565b611b956040519182610624565b8281528092611ba6601f1991610646565b0190602036910137565b805f917a184f03e93ff9f4daa797ed6e38ed64bf6a1f01000000000000000080821015611ce3575b506d04ee2d6d415b85acef810000000080831015611cd4575b50662386f26fc1000080831015611cc5575b506305f5e10080831015611cb6575b5061271080831015611ca7575b506064821015611c97575b600a80921015611c8d575b600190816021611c46828701611b7e565b95860101905b611c58575b5050505090565b5f19019083906f181899199a1a9b1b9c1cb0b131b232b360811b8282061a835304918215611c8857919082611c4c565b611c51565b9160010191611c35565b9190606460029104910191611c2a565b6004919392049101915f611c1f565b6008919392049101915f611c12565b6010919392049101915f611c03565b6020919392049101915f611bf1565b60409350810491505f611bd856fea264697066735822122000c4615bd44d549befee34fc1b7db5081af27d4febaa51f36db7f428edec912964736f6c63430008140033","linkReferences":{}},"methodIdentifiers":{"approve(address,uint256)":"095ea7b3","backendIssuer()":"fcd7a9d8","balanceOf(address)":"70a08231","getApproved(uint256)":"081812fc","getCurrentTokenId()":"56189236","getEventIdByToken(uint256)":"953fd8cf","getSBTByEvent(address,uint256)":"c8e62672","isApprovedForAll(address,address)":"e985e9c5","isApprovedOrOwner(address,uint256)":"430c2081","mintSBT(address,uint256,string,bytes)":"c57b90e6","name()":"06fdde03","owner()":"8da5cb5b","ownerOf(uint256)":"6352211e","renounceOwnership()":"715018a6","safeTransferFrom(address,address,uint256)":"42842e0e","safeTransferFrom(address,address,uint256,bytes)":"b88d4fde","setApprovalForAll(address,bool)":"a22cb465","setBackendIssuer(address)":"21244a4e","setBaseURI(string)":"55f804b3","supportsInterface(bytes4)":"01ffc9a7","symbol()":"95d89b41","tokenIdToEventId(uint256)":"71322213","tokenURI(uint256)":"c87b56dd","transferFrom(address,address,uint256)":"23b872dd","transferOwnership(address)":"f2fde38b","userEventToTokenId(address,uint256)":"e8abb653"},"id":36}